:020000040800F2
:10000000C01B0024490F0008C3540008350F000826
:10001000350F0008350F0008350F000800000000FC
:100020000000000000000000000000003510000883
:10003000350F000800000000D10F000889260008D5
:10004000ED110008ED110008ED110008ED11000898
:10005000ED110008ED110008ED110008ED11000888
:10006000ED110008ED110008ED110008ED11000878
:10007000ED110008ED110008ED110008ED11000868
:1002CC002DE9F341234FDFF89080244E4FF0FF329D
:1002DC004FF0FF3301A9384601F01EFB10B102B0FC
:1002EC00BDE8F081019B434509D01D4917231D48EA
:1002FC001D4A05F0BCF817211B4805F0B1F84FF466
:10030C007A720023154801F09BFA0546B8B9746857
:10031C0057211648626805F0BDF8154A5721154853
:10032C0005F0B8F80220D4E9001200F0C3FA2068F6
:10033C0005F0FBFB3046C4E9005501F0B9FA012386
:10034C0040F6C41269460C488DF80030002301F0C9
:10035C0009FABBE760010024806300089863000879
:10036C004066000859660008FE65000876660008BD
:10037C00856600088D66000868630008104B834290
:10038C0007B509D00F493C230F48104A05F06FF808
:10039C003C210E4805F064F80D4B5A68D10703D583
:1003AC000021186805F00BFC0123002201A9094863
:1003BC008DF80430002301F0D5F903B05DF804FB8F
:1003CC0098630008E666000859660008A8660008ED
:1003DC00B0030024806300082DE9FF4100241C4D6C
:1003EC001C4E1D4F5FFA84F80134204605F0A4FB27
:1003FC0048B91A4917231A481A4A05F038F8172130
:10040C00184805F02DF80023CDE90204039A934215
:10041C0018D340F6C412002302A9284601F0A2F911
:10042C004FF0FF324FF0FF3301A9304601F074FA60
:10043C0018B14521384605F02DF8102CD2D104B056
:10044C00BDE8F081029A02F803800133DEE700BFB9
:10045C0098630008700100245A6700084767000879
:10046C005966000805670008014B1B68184700BF58
:10047C0060000024014B1860704700BF600000242E
:10048C0030B585B004460D4610220021684605F0B3
:10049C0096FB02232A4621468DF802306846034B10
:1004AC00019304F0B1FB05B030BD00BF750400082A
:1004BC0080B505460E461746984603F035FFDFF823
:1004CC002090034605F084FB0446424649F8003070
:1004DC0039463046A84754F8090000F045FD00BFE6
:1004EC0008000000F8B50F4600293BD00668012231
:1004FC00304604F01BFE01460446304604F0DEFD97
:10050C00C3070DD4AF23184A1849194804F0AFFF9C
:10051C003946184804F0ABFFAF21134804F0A0FF94
:10052C002146304604F0E0FD2518002230462946CD
:10053C0004F0C4FD2D1AAC420BD0B7230A4A0E4965
:10054C000B4804F094FF39460C4804F090FFB72197
:10055C00E3E72146304604F0CDFD2146BDE8F840E6
:10056C0004F00ABFF8BD00BF95670008B667000825
:10057C0059660008C7670008FF670008256800086F
:10058C002DE9F843066814460F464B1EB268B2F5C7
:10059C00004F34BF042108213B400FD0C7F10009A4
:1005AC00581E09EA0709494528BF494618420CD18B
:1005BC001F46DCB900252846BDE8F8838F4213D8C6
:1005CC002146BDE8F84304F019BF30494FF4A2733B
:1005DC002F4A304804F04BFF2F4804F048FF4FF4EB
:1005EC00A2712B4804F03CFF9946E2E7B2EBD40F22
:1005FC00E0D9E3191046591A04F0A2FD0146304621
:10060C0004F0F9FD80460028D4D0B36809EBC0058E
:10061C003046B3F5004F34BF042308231D447B1E22
:10062C0035441D44B5FBF7F57D43A5EB09052C447A
:10063C00294604F07BFD804504F10704074624F0AD
:10064C000704A4EB06044FEAE40408D20246414630
:10065C00304604F00AFE4146304604F04BFE394663
:10066C00304604F041FD3844844208D239463046C5
:10067C00224604F0FAFD2146304604F03BFE0122EE
:10068C003946304604F036FD95E700BF6168000836
:10069C0095670008596600087C680008B2F5802F41
:1006AC002DE9F04110D2042A28D843494FF4F973AC
:1006BC00424A434804F0DBFE424804F0D8FE4FF4B3
:1006CC00F9713E4804F0CCFE0823D21ACC1D11441B
:1006DC0024F0070421F00701091B17294FEAD10662
:1006EC000ED8394940F2FB13344A354804F0BFFEAA
:1006FC00344804F0BCFE40F2FB11E2E70423E4E7CB
:10070C000027046031463046A660E76004F022FD05
:10071C00421D804601219200304604F011FDD51D8A
:10072C00ED082844B0423AD8B8F1FF3FA2F11002CC
:10073C00394604F11000B8BF3A46A6EB050805F09F
:10074C003EFA2A463946204604F0ECFC3B463A4633
:10075C003946204604F0BDFC20463946012204F0FF
:10076C00C9FC4246294604F0DDFC2B463A46294694
:10077C00204604F0AEFC3146204604F0D3FC434640
:10078C003A463146204604F0A4FC3146204601226C
:10079C0004F0B0FC2946BDE8F04104F0ABBD0B49B8
:1007AC004FF40373054A064804F061FE054804F053
:1007BC005EFE4FF4037184E79968000895670008A2
:1007CC0059660008BA680008D3680008FC6800087D
:1007DC00324B70B55A6912F4003211D1BFF34F8FFE
:1007EC00BFF36F8FC3F85022BFF34F8FBFF36F8FE0
:1007FC005A6942F400325A61BFF34F8FBFF36F8FC7
:10080C00264A5369D90327D4536913F4803323D16F
:10081C00C2F88430BFF34F8FD2F8803043F6E074C7
:10082C00C3F3C900C3F34E335B0103EA040601466C
:10083C0046EA81750139C2F86052F9D2203B13F1B6
:10084C00200FF2D1BFF34F8F536943F480335361C0
:10085C00BFF34F8FBFF36F8F114B124A1A60124BBD
:10086C00DA6822F0070242F00202DA609A6942F476
:10087C0040429A619A699204FCD50C4B1A6841F279
:10088C000303B3EB124F06D1094AD2F8083143F0F7
:10089C000103C2F80831002070BD00BF00ED00E07C
:1008AC00A00000240090D003004802580010005C07
:1008BC00008000512DE9F84F80460F46164614462D
:1008CC00DFF88C90DFF88CA0BD192D1B0CB9BDE89E
:1008DC00F88F08F1FF334FF0000B1F48032B94BF28
:1008EC0019F803103F2104F0DCFB5C4527D915F8FF
:1008FC000B101A4804F0D5FB0BF1010BBBF1080FE0
:10090C00F3D14FF0000B164804F0CBFB5C451AD921
:10091C0015F80B1013481AF8012012F0970F08BFA6
:10092C002E2104F0BEFB0BF1010BBBF1080FEDD136
:10093C000D4804F0B6FB072CC9D9083CC4E70B489A
:10094C0004F0AFFBD8E70A4804F0ABFBEBE700BFC1
:10095C004D69000829800008396900083E690008C3
:10096C00486900084A690008DC7A000844690008F4
:10097C0046690008014B03600120704714640008AD
:10098C0037B505460C46C9B18B6810480093D1E9C0
:10099C000023452104F07EFD636945210C4800933A
:1009AC00D4E9032304F076FDE2694521094804F0FB
:1009BC0071FDA2694521084804F06CFD21462846CA
:1009CC0003B0BDE8304002F08DB800BF616900088B
:1009DC0095690008C9690008DD69000830BFFFF798
:1009EC00FDBF00BF114B124A2DE9F041D518DFF8BD
:1009FC0044800746013DB5FBF3F55D430E4B08EB18
:100A0C000304013CB4FBF3F403FB04540E1B0B492D
:100A1C00304605F0C6F87019083E4246002105F034
:100A2C00CEF804F108003E67BDE8F081010000003B
:100A3C00000000000400000004000000E063000857
:100A4C00044B99685869884203D003494FF080528F
:100A5C000A6070471805002404ED00E02DE9F84306
:100A6C003F4D804689463F484521174604F012FD0C
:100A7C00AB6ADA0626D5112445213B4804F00AFD61
:100A8C00AB6A1B0704D512244521384804F002FD3B
:100A9C00334DAB6A9E0717D54521354804F0FAFC57
:100AAC006E6BAB6A1C0645D532464521314804F0C5
:100ABC00F1FCB9F1000F03D0AB6A23F08003AB62F9
:100ACC00132403E01024DBE76FF01506244DAB6A0A
:100ADC00D80704D514244521274804F0DBFCAB6A65
:100AEC00990604D515244521244804F0D3FC1C4D4B
:100AFC00AB6ADA0602D4AB6A9B070AD56B68180599
:100B0C0007D54146304600F019FBB0B180F3098897
:100B1C000224134B9A6A920603D55A6A22F40052A5
:100B2C005A629A6A204642F0FF029A6200233B7096
:100B3C00BDE8F8836FF01506C2E7AB6AD906E8D5B5
:100B4C000F4940F25D130F4A0F4804F090FC0F4818
:100B5C0004F08DFC40F25D110A4804F081FC00BFEA
:100B6C0000ED00E0106A00082B6A0008636A0008B8
:100B7C007B6A0008986A0008B36A0008D76A000804
:100B8C003D6B00080B6B000859660008876B00086A
:100B9C0010B5204C4521204804F07CFCA36A990137
:100BAC0036D51E48452104F075FC1E20A36ADA01D7
:100BBC0004D51B48452104F06DFC1F20154CA36A7D
:100BCC001B0304D51748452104F064FC2120A36ABB
:100BDC00590304D51448452104F05CFC22200D4C2B
:100BEC00A36A9A0304D51148452104F053FC232031
:100BFC00A36ADB0304D50E48452104F04BFC2420EA
:100C0C00044A936A6FEA03436FEA1343936210BD7D
:100C1C001D20CBE700ED00E0AA6B0008C76B0008B5
:100C2C00DF6B0008FE6B0008216C00084B6C0008A1
:100C3C006A6C000870B5284C06460D4627484521BD
:100C4C0004F028FCA36AD9043BD52548452104F0BF
:100C5C0021FC1720A36A1A0504D52248452104F06B
:100C6C0019FC18201C4CA36A9B0511D51E48452164
:100C7C0004F010FCA26BA36A180408D545211B488C
:100C8C0004F008FC1EB1A36A23F40043A3621920EC
:100C9C00114CA36A590504D51548452104F0FAFBFB
:100CAC001A20A36ADA050ED51248452104F0F2FB8E
:100CBC001B20094A936A43F47F43936200232B70F1
:100CCC0070BD1620C6E7A36A9B04F2D50A484521DD
:100CDC0004F0E0FB1C20ECE700ED00E09A6C00084F
:100CEC00B56C0008636A0008CB6C0008E96C00085E
:100CFC00036D0008236D0008D76A0008744BF0B52B
:100D0C00044658688BB00025C0F3080385F311889E
:100D1C00BFF36F8F02F07F46B6F17F4F07D102F021
:100D2C000C06082E12D145216A4804F0B3FB6A491F
:100D3C004FF48B63694A6A4804F099FB694804F0E4
:100D4C0096FB4FF48B61654804F08AFB16074CBF89
:100D5C000C460125002CEAD00026DA1E8DF807601F
:100D6C00092A00F2A280DFE802F005959978A0A08C
:100D7C00A0A0A09D45215C4804F08CFB8DF8076079
:100D8C00534EF36A9A0705D54521584804F082FB67
:100D9C00002329E0F36A002B02DA45215448F5E7D9
:100DAC00F36A5B0069D54521524804F073FB736903
:100DBC00A26943F480737361BFF34F8FBFF36F8FDE
:100DCC00736932F8022C23F480737361BFF34F8F75
:100DDC00BFF36F8F4DF602739A4225D122684521DD
:100DEC00454804F057FB23689DF80720D2B902AEA2
:100DFC0004F120072068083454F8041C3246BC4225
:100E0C0003C21646F6D1099A002D5BD0C2F3080135
:100E1C0021B96FEA52226FEA4222099202A91846BE
:100E2C00FFF7AEFD0BB0F0BDB36ADBB23BB10DF119
:100E3C00070201212046FFF711FE0346D4E7B36AEF
:100E4C0013F47F4F05D00DF107010120FFF7F2FEDF
:100E5C00F3E7B36AB3F5803F02D3FFF799FEECE7F3
:100E6C00264940F22A331D4A1D4804F000FB244851
:100E7C0004F0FDFA40F22A3165E7204940F22E33A6
:100E8C00164A174804F0F3FA1E4804F0F0FA40F240
:100E9C002E3158E70DF107020021CBE70DF10701C8
:100EAC000020D3E74521184870E710F4F87F174964
:100EBC00174AA3F1100308BF0A461648452104F04F
:100ECC00E9FA65E722F4FF7222F00102A5E700BF00
:100EDC0000ED00E06E6D00089E6D00080B6B0008C5
:100EEC0059660008B16D0008EF6D00080B6E000824
:100EFC00316E0008446E0008686E0008C17F00085F
:100F0C00896E0008AD6E0008DD6E0008406D0008AB
:100F1C00556D0008066F0008024A536943F0100330
:100F2C005361704700ED00E0EFF30880EFF30981A7
:100F3C0001B57246FFF7E2FE01BD00BF102080F341
:100F4C00118808484FF40461401880F30988EFF3C6
:100F5C0014800221084380F31488BFF36F8F00F0D4
:100F6C00B3F80000000E0024084B9B6883420BD1A1
:100F7C00EFF3058343B1064B5A6842F080525A6036
:100F8C005A6A22F400425A6203F0D4B918050024BC
:100F9C0000ED00E0094A6FF00A019368996708496F
:100FAC0058674B6843F080534B60002383F31188E0
:100FBC00BFF36F8F9368986F704700BF18050024BC
:100FCC0000ED00E015498A684FF030001044EFF353
:100FDC00098C80E8F01F102080F31288BFF36F8F0C
:100FEC000F4F4FF000664A698A603E604FF0700404
:100FFC00141920680B4C2060506F0023536780F34A
:10100C00118804B5104600F00BF9BDE8044002F15C
:10101C00300090E8F01F8CF3098870471805002405
:10102C0004ED00E0B80300241EF0040F0CBFEFF336
:10103C000880EFF30980816911F8021C0229FFD0A6
:10104C0001B504F034FA01BD00B2002807DB01231E
:10105C00410900F01F00024A834042F821307047DA
:10106C0000E100E038B54B1C04460D460F2B0FD9A0
:10107C005823104A1049114804F0F9F92946104830
:10108C000F23224604F0F3F958210A4804F0E8F93A
:10109C0000B21B010028DBB206DB00F1604000F55A
:1010AC00614080F8003338BD00F00F00054A13543E
:1010BC00F9E700BF1E6F0008556F0008596600085D
:1010CC00706F000814ED00E00F4A08B522F07F02A3
:1010DC000E4B9A60BFF34F8FBFF36F8FD3F88820FE
:1010EC0022F47002C3F88820EFF3148323F0040376
:1010FC0083F31488BFF36F8F01F098FD03F08AF926
:10110C0000F062F801F0E4FD0000000800ED00E0E2
:10111C0042F8203C203A009B07495360019B21F088
:10112C0001019360029B9161D3604FF08073D36196
:10113C000023026543677047BD040008094A034653
:10114C00906870B113F1160F006E05D0A0F140023B
:10115C009A4205D8834203D2814228BF00207047AF
:10116C00002070471805002414460B4A0D4608B59C
:10117C000A4B9060026F1A6000F052F8204685F31B
:10118C000988002163B681F31188BFF36F8F0022A9
:10119C000023FFF78DF900BF18050024B8030024C5
:1011AC00014910220A60704710ED00E072B6404011
:1011BC0080F31188BFF36F8FBFF34F8F30BF62B6D0
:1011CC00BFF36F8F704700BF002304481021C21873
:1011DC000133A32B82F80013F9D1704700E100E032
:1011EC0001B5EFF30580A0F110004FEAC0000449EF
:1011FC00014409C99847BDE801400249084700006D
:10120C00C45D00084D0A0008024B0121024A034844
:10121C0000F07CB8000005240000002424640008C1
:10122C00026E4021044B403A18461A60034AC3E947
:10123C000112012100F090B8BC03002400000B1532
:10124C00084AC2F898000B6823F01F03034343F0CD
:10125C001003C2F89C308B6843F00103C2F8A03035
:10126C00704700BF00ED00E02DE9FF410F469846A6
:10127C00144605460026BE420EDA686840B3B8F143
:10128C00000F12D0431E18420AD032464521124894
:10129C006FF0150404F0FEF8204604B0BDE8F081B0
:1012AC001F28F2D92A681342EFD12B68019304F05E
:1012BC000DF9AB6803430393E3B20F2B03D922461A
:1012CC0045210648E4E72046013401A9FFF7B8FFA1
:1012DC0001360C35CFE700BFB46F0008DC6F000897
:1012EC00044B0522C3F89420BFF34F8FBFF36F8FCD
:1012FC00704700BF00ED00E0BFF35F8F024B002290
:10130C00C3F89420704700BF00ED00E038B50D4DD8
:10131C0001230C462A78FFF7A7FF287016300FD14F
:10132C0040F26D13084A0949094804F0A0F8214617
:10133C00084804F09CF840F26D11034804F090F852
:10134C0038BD00BF5605002407700008C17F000897
:10135C005966000836700008124A002310B512783E
:10136C000C46FFF781FF10F1160F04D00E4B002234
:10137C000F2810DD10BD4FF4C6730C4A0C490D48F4
:10138C0004F075F821460C4804F071F84FF4C6715E
:10139C00064804F065F8C3F898000130C3F8A020A3
:1013AC00E6E700BF5605002400ED00E007700008DA
:1013BC00C17F000859660008627000082DE9F043EF
:1013CC006A4D85B02C68102C10D94FF4D273684A32
:1013DC006849694804F04BF821461022674804F02C
:1013EC0046F84FF4D271624804F03AF800200C260B
:1013FC00FFF782FF844221D1614E68460025DFF859
:10140C0084813470FFF7B6FA0746AF421DD1FFF75F
:10141C0067FF5D4BD3F89030C3F30723102B00F01C
:10142C00A1805A4940F21323514A534804F01FF843
:10143C00574804F01CF840F21321D4E7696806FB06
:10144C000011FFF7FDFE0130D4E7009A290102EBF1
:10145C000513D3F80C9009EA0804B4F5000F64D016
:10146C0019D8B4F5001F3AD0B4F5800F51D0B4F5AB
:10147C00801F20D04521474804F00CF83D494FF41B
:10148C00E7733B4A3C4803F0F2FF434803F0EFFF9D
:10149C004FF4E771A7E7B4F1807F50D0B4F1007F2F
:1014AC00E8D15C685258986804F010F840F4802039
:1014BC00CDE901420AE0986804F008F840F0885041
:1014CC005C68525840F43020CDE9014203903278E8
:1014DC000F2A3ED94521314803F0DCFFCEE798684E
:1014EC0003F0F4FF40F088505C6819F0010F52587B
:1014FC0040F40020CDE901420390E8D02849702344
:10150C001B4A1D4803F0B3FF264803F0B0FF7021BF
:10151C0069E7986803F0DAFF5C68525840F0E060C5
:10152C00CDE9014240F40030D0E75C68525898682D
:10153C0003F0CCFF40F08270CDE90142C6E75C6855
:10154C005258986803F0C2FF40F08870CDE9014210
:10155C00BCE701A91046FFF773FE33780135013360
:10156C00337052E7002005B0BDE8F083E863000853
:10157C0007700008C17F0008596600088F700008CA
:10158C00560500240000F0FF00ED00E06971000832
:10159C00BA710008187100083F710008DC6F000870
:1015AC00C3700008E970000808B5024B1B68984727
:1015BC00002008BDC8030024034B044A186093782C
:1015CC0043F0020393707047C803002464000024A6
:1015DC000649074821F00701C1F1105208B502F580
:1015EC00A022FFF75BF8002008BD00BF27200024D5
:1015FC00CC0300242DE9F04F1F46436987B0054604
:10160C00B3F902800026B3F90040DFF88C90DFF8C4
:10161C008CA0019223B2984501DCB34638E059F80E
:10162C0034305A78BAB11AF80420A2B905951A7850
:10163C0072B1012A13D01A496E231A4A1A4803F0C0
:10164C0016FF1A4803F013FF6E21164803F008FF2B
:10165C005B6828469847B34601345E46DAE7D3F810
:10166C0004B002A8019A3B4604F03EFADDE90223DD
:10167C00584605A901F0B8FC83460028EBD0034678
:10168C000B4A45210B4803F005FF1BF10C0FE3D16E
:10169C00584607B0BDE8F08FCC63000878010024F1
:1016AC00C17F0008DB710008596600080172000850
:1016BC00DD7A00080F72000838B521490023214C4F
:1016CC00A14224D920493723204A214803F0CFFED8
:1016DC00204803F0CCFE37211C4803F0C1FE0A68F9
:1016EC00934204D050694BB90380506943805069D0
:1016FC0008314388013343801346E1E75D69B5F94E
:10170C00025005805B695069B3F90230EEE7E6D30D
:10171C00114C124DAC4210D9114947230B4A0C48BD
:10172C0003F0A5FE0B4803F0A2FE4721D4E7606945
:10173C00043004F084F91834ECE7F8D3002038BDF9
:10174C00C8630008E063000851720008DB710008F0
:10175C00596600088372000868630008C8630008B3
:10176C00A27200082DE9F7430446884615469946AF
:10177C0004F055F960B12A49C6232A4A2A4803F0D5
:10178C0076FE2A4803F073FEC621264803F068FE55
:10179C0054B92749C723234A234803F068FE254838
:1017AC0003F065FEC721F0E7B8F1000F0AD122491A
:1017BC00C8231C4A1C4803F05AFE204803F057FE6D
:1017CC00C821E2E74B462A46684604F069F92369CA
:1017DC00DDE900675BB9606904302A464B4601F0CD
:1017EC0073FD054658B1284603B0BDE8F083A168E7
:1017FC00404698470028EED16FF02205F3E7A26827
:10180C004146606804F0CDF932463B462046FFF76E
:10181C00F1FE05466069043001F028FEE3E700BFE5
:10182C00C1720008DB71000859660008D07200080C
:10183C00F272000806730008476700081973000865
:10184C0070B5044616461D4604F0E9F870B112490D
:10185C0040F20713114A124803F009FE114803F035
:10186C0006FE40F207110D4803F0FAFD64B90E496B
:10187C004FF48473094A0A4803F0F9FD0B4803F04E
:10188C00F6FD4FF48471EEE76069043032462B4666
:10189C00BDE8704001F018BDC1720008DB71000892
:1018AC0059660008D0720008F2720008067300082E
:1018BC0010B5044604F0B3F870B1114940F2151399
:1018CC00104A114803F0D3FD104803F0D0FD40F24C
:1018DC0015110C4803F0C4FD64B90D494FF48B731A
:1018EC00084A094803F0C3FD0A4803F0C0FD4FF451
:1018FC008B71EEE760690430BDE8104001F0B6BDB5
:10190C00C1720008DB71000859660008D07200082B
:10191C00F2720008067300082DE9F04104460D46EA
:10192C0017461E4604F07BF870B128494FF49073AB
:10193C00274A284803F09BFD274803F098FD4FF4F5
:10194C009071234803F08CFD64B9244940F22113B3
:10195C001F4A204803F08BFD214803F088FD40F21C
:10196C002111EEE72378012B0CD01E494FF4917313
:10197C00174A184803F07BFD1B4803F078FD4FF421
:10198C009171DEE7606860B9184940F22313104A80
:10199C00104803F06CFD164803F069FD40F223116A
:1019AC00CFE765B913494FF49273094A094803F01C
:1019BC005EFD114803F05BFD4FF49271C1E73A46AE
:1019CC0033462946BDE8F04101F0C0BBC1720008A6
:1019DC00DB71000859660008D07200082B730008F0
:1019EC003E730008507300087B7300089673000860
:1019FC00B0730008F2720008067300082DE9F0417C
:101A0C00054600244FF001084FF0B0460E4F2B78DE
:101A1C0053FA84F01F280FDC08FA00F3D6F888205C
:101A2C0033EA020208D1C6F8883057F830301BB1BF
:101A3C0007EBC0025168984701346A78E3B29A42C6
:101A4C00E5D2BDE8F08100BFD8030024044B03EBC2
:101A5C0040000023013320F8022B9942FADC704736
:101A6C00B00000240F4B024610B533F91000FF28CC
:101A7C000AD14AB90C493C230C480D4A03F0F7FC37
:101A8C003C210B4803F0ECFC4FF0B0410123D1F8A2
:101A9C00804093402343C1F88030BDE81040FFF7ED
:101AAC00D3BA00BFB00000240F74000859660008B8
:101ABC00CD7300080A4B30B553F830408C4204D13A
:101ACC0003EBC0056D68954205D034B943F830106E
:101ADC0003EBC0035A60002030BD6FF00F00FBE732
:101AEC00D8030024034B002243F8302003EBC0033F
:101AFC005A607047D8030024034B04489B6A13F0C8
:101B0C00030F18BF00207047004402580090D00308
:101B1C0008B5094B1B6913F0380308D0182B08D1F2
:101B2C00FFF7EAFF7D2380085843400808BD0348AF
:101B3C00FBE70020F9E700BF004402580024F40042
:101B4C0010B50A68102A23D8134BD340DB071FD5D6
:101B5C004A68D3B2C2F34234C2F3042203F1B04355
:101B6C0004FA02F203F51133186820EA02021A6033
:101B7C004968CBB2C1F30242C1F3042103F1B04373
:101B8C008A4003F511331868024300201A6010BD17
:101B9C006FF08500FBE700BF0E40010008B5174B46
:101BAC0018680B68D42B1AD00CD8032B03D8F3B9B4
:101BBC006FF0850016E00B2B15D0102BF8D1FFF72A
:101BCC00A7FF0DE0D83B1C2BF2D8012101FA03F33F
:101BDC000B490B4209D140F211110B42E8D04008DD
:101BEC001060002008BD0020FAE78008F8E7FFF736
:101BFC0083FF7D2380085843F2E700BFA000002438
:101C0C00001011116C4B37B5D3F8E02042F0007284
:101C1C00C3F8E020D3F8E02002F000720192019AA0
:101C2C001A6842F001021A601A685207FCD51A6849
:101C3C0022F0180242F010021A601A6902F03802FF
:101C4C00182A17D11A68550707D41A6842F00102EE
:101C5C001A60594A13685C07FCD5574B1A6922F075
:101C6C0007021A611A6912F0380FFBD19A6922F037
:101C7C000F029A61504B1A6822F080721A609A6AAD
:101C8C0022F003029A629A6A22F47C7242F04002B9
:101C9C009A62DA6A22F00C0242F00402DA62DA6A20
:101CAC0022F00202DA621A6B22F4FF7222F00102B5
:101CBC0042F07C021A63DA6A22F00102DA621A6BD1
:101CCC0022F47E421A63DA6A42F48032DA621A6BC8
:101CDC0022F4FE021A63DA6A42F40032DA621A6BF8
:101CEC0022F0FE421A63DA6A42F48022DA621A683F
:101CFC0042F080721A601A689001FCD52F4BDA689A
:101D0C0022F0070242F00202DA609A6922F44042A1
:101D1C009A619A699104FCD5294DFFF7F9FE0446A6
:101D2C00A84202D8274800F0E3FD234B9A6922F41D
:101D3C0070629A619A6922F00F0242F008029A616D
:101D4C00DA6922F0700242F04002DA61DA6922F4B8
:101D5C00E06242F48062DA619A6922F0700242F029
:101D6C0040029A611A6A22F0700242F040021A6232
:101D7C001A6922F0070242F003021A611A6902F092
:101D8C003802182AFAD1AC4202D90E4800F0B0FD44
:101D9C000A4BDA6822F0070242F00202DA609A6912
:101DAC0022F440429A619A699204FCD5064B0020B9
:101DBC00064A1A6003B030BD00440258004802586D
:101DCC007FB2E60E80B2E60EA00000240065CD1DA9
:101DDC0008B5074803F00BFE38B10648FFF7ECFBDB
:101DEC000448FEF747FB002008BD6FF01200FBE72C
:101DFC00B05D0008051E00080A2838B50446074DDA
:101E0C0004D1AB680D2128465B689847AB68E1B2FA
:101E1C0002485B689847204638BD00BFB05D00089B
:101E2C0010B5036961B920493A23204A204803F0D0
:101E3C001EFB204803F01BFB3A211C4803F010FB4F
:101E4C00486850B91C493B23184A194803F00FFB4A
:101E5C001A4803F00CFB3B21EFE79868F8B1884275
:101E6C0019D1DC680868A142986000D1D8600020C4
:101E7C0008602AB19A680A60DA68996002B9D96078
:101E8C00002010E0814206D108682060D8688142A9
:101E9C00EDD1DC60EBE7044600680028F2D1002AA3
:101EAC00E8D16FF0150010BD897400084D7400085E
:101EBC005966000892740008A1740008B3740008F5
:101ECC0038B5036904465860084D284603F08FFD69
:101EDC0040B161682846AB680C311B68984700EA32
:101EEC00E07038BD6FF01200FBE700BF985C000893
:101EFC0070B5D1E9016119B101250C68854001B9B2
:101F0C0070BD8A682A4010D04B6863B90A495D23BA
:101F1C000A4A0B4803F0ABFA0A4803F0A8FA5D2111
:101F2C00064803F09DFA304698471CB123682146B9
:101F3C001C46E4E72346FAE7CA7400084D7400080F
:101F4C0059660008B3740008F7B517460C461D46D1
:101F5C004668B7F5001F026928D101F003030F2270
:101F6C0004339B009A4042EA9102374902F0030382
:101F7C00023351F82310130C93FAA3F3B3FA83F33F
:101F8C0001EA124203F01F0322FA03F3B2689A42E9
:101F9C0009D1204603F0F8FA2046FFF7A3FD0021F3
:101FAC00204603F0FEFA002003B0F0BDB7F5800F19
:101FBC0044D026492046FFF77DFD002841D1244A14
:101FCC006B46B66892E8030083E803002148194683
:101FDC00826812689047D8B904F003030F210433C8
:101FEC009B00994041EA940101F003030A0C92FA18
:101FFC00A2F29B00B2FA82F203F1B04302F01F028C
:10200C00D3F80804964020EA11410E43C3F8086443
:10201C00B5F1806F0ED0B5F1C06F0DD005F17E43D8
:10202C00594259414900204603F0BBFA2046FFF7BC
:10203C0019FDB8E70121F6E70321F4E76FF08500FD
:10204C00B2E76FF00F00AFE700040058FD1E000868
:10205C00E0630008985C00082DE9F047044600EBAB
:10206C00C1060025244FB44201D1002014E02068A1
:10207C00C30600F01F0811D4656845F02005C0F3B5
:10208C00471AC0F343200A2832D857F82090B9F1E8
:10209C00000F1CD16FF01200BDE8F087B8F1100FE3
:1020AC0013D0B8F1110F01D16568E8E7B8F1000F52
:1020BC00E5D1124940F20B131148124A03F0D7F93B
:1020CC0040F20B110F4803F0CBF93025D7E7484607
:1020DC0003F08DFC0028DDD043462A460AF00F01A0
:1020EC00484603F062FB002804F10804BBDAD3E78E
:1020FC006FF01500D0E700BF30650008A37500082D
:10210C00596600087075000837B503690C464568B8
:10211C001868E9688368DB682BB94521134803F01C
:10212C00B9F903B030BD01AA98470028F5DB2A683D
:10213C00136823F4004313603CB1019B2A6803EB42
:10214C005403B3FBF4F39BB2D3602B68DB680F2B07
:10215C00E7D80749C323074A074803F088F907481B
:10216C0003F085F9C321034803F07AF9CC75000814
:10217C002E760008FF750008596600084B7600089B
:10218C00F8B50C46036941685D682379012B15D0BD
:10219C009F1E7E427E41B6026279022A96BF444F50
:1021AC004FF4005737F81270A279022A09D0042A8A
:1021BC002FD0003B18BF01231B0306E04FF4C06671
:1021CC00EAE7B3FA83F35B091B07E2790968012A92
:1021DC0014BF4FF0000C4FF4407CA5421CD10A6890
:1021EC0022F0805222F4B05232431A430A604B68F8
:1021FC0023F440533B434B6043681A68936823F4C1
:10220C00407343EA0C0393602968BDE8F840FFF77C
:10221C007BBF4FF48053D8E7D1F800E00EF4C06ECA
:10222C00764506D0D1F800E02EF4C06E4EEA0606D4
:10223C000E6041680E68716801F440518F4204D001
:10224C00716821F440513943716041680E683168FE
:10225C0001F010218B4204D0316821F010210B4386
:10226C003360436819688B6803F440739C4505D050
:10227C008B6823F4407343EA0C038B6043681B6840
:10228C009968490405D5032A09D09A6822F480423A
:10229C0004E0032A03D19A6842F480429A602168D0
:1022AC002B68994203D0FFF72FFF23682B60F8BDF2
:1022BC00F865000873B505464668046964482060F3
:1022CC0003F095FB40B9452162486FF0120403F00E
:1022DC00E1F8204602B070BD2068F16883681B6885
:1022EC0098470446E8B901AA0021F06903F075FA91
:1022FC00041EEEDB019B002219791868FFF7ACFE77
:10230C00041EE6DB6C682B6922685E68136823F098
:10231C0001031360606803F06AFB48B945214E481D
:10232C00D3E745214D4803F0B5F8002CD1DBDAE7B3
:10233C00D4E901018368DB6803B19847226852E84D
:10234C00003F43F00C0342E800310029F7D131463D
:10235C002846FFF715FF237D23B12268936843F0CD
:10236C0008039360637D23B12268536843F40043F0
:10237C005360A37D23B12268536843F480335360C8
:10238C00E37D23B12268536843F400335360227E0B
:10239C002368002A4ED0324A93422ED0A2F54C42EA
:1023AC0093422AD002F58062934226D002F58062D5
:1023BC00934222D002F5806293421ED002F5444231
:1023CC0093421AD0A2F51C42934216D002F58062B9
:1023DC00934212D002F51C4293420ED002F5806259
:1023EC0093420AD01F4A934207D02A6845211E48BF
:1023FC006FF0150403F04EF86BE76B681A6893687E
:10240C0043F4804393602268617E136823F07873F1
:10241C0043EA415313602268A17E136823F4F81336
:10242C0043EA01431360E37E23B12268936843F4CB
:10243C00004393602268136843F001031360236820
:10244C00DA699102FCD5DA695202FCD5002440E726
:10245C00985C00085F760008A87600088376000870
:10246C0000100140000C0058C8760008F8B5024670
:10247C00036946680C4608795D68012891F805E007
:10248C008B7922D1BEF1020F40F28480022B1F46C1
:10249C004FF4C0614FF4005C00F09680042B00F008
:1024AC008D8028B1C31E012B40F28B804FF48050DD
:1024BC00BCF5805F00F09280BCF5405F00F090802E
:1024CC00BCF1000F1CD101231BE002280AD1BEF184
:1024DC00020F6CD9022B1F464FF480610BD04FF4C6
:1024EC00005CDBE7BEF1020F64D9022B1F4663D1FF
:1024FC0000286FD00021C31E012B62D900200227B7
:10250C00032373455DD103F0B4F9B84259D1E37993
:10251C0063B3012B66D1336834498B4226D0A1F5C5
:10252C004C418B4222D001F580618B421ED001F5CB
:10253C0080618B421AD001F580618B4216D001F577
:10254C0044418B4212D0A1F51C418B420ED001F5B7
:10255C0080618B420AD001F51C418B4206D001F5FB
:10256C0080618B4202D022498B422AD131681046BD
:10257C000B6823F001030B602146FFF701FE326864
:10258C00136843F00103136094E8030085E803002B
:10259C000020F8BD4FF4C061164F022B37F81EC057
:1025AC001F467FF47BAF78B94FF0805080E74FF433
:1025BC008061F1E70021EFE7002190E700283FF46C
:1025CC0075AF6FF08500E4E7C31E012BF9D9022724
:1025DC0000206DE701464FF0805091E7002390E713
:1025EC0002238EE7032B96D0EBE700BF00100140CF
:1025FC00000C0058F86500084FF0E0230F4910B5A7
:10260C009C691A6908689B6902F480320C4934B9D8
:10261C0093B903464AB90A681044C01A10BD002B7E
:10262C0008BF03460AB9A342F5D90A6802440A60F6
:10263C004FF0E0221269EEE70446F3E70C050024A4
:10264C00080500240A4B1022002083F823204CF2AA
:10265C005032084B1A604CF24F32074B18604FF057
:10266C00E0235A6198611A6942F007021A617047B7
:10267C0000ED00E00C0500240805002410B5FFF760
:10268C00BBFF1049104B0868D3E90042001942F116
:10269C000002C3E900020D4A00230B604CF25033D8
:1026AC00D2E90041001BB0FBF3F043431B1941F18D
:1026BC000001C2E9003102F01DF8BDE81040FEF740
:1026CC00BFB900BF08050024880200248002002442
:1026DC002DE9F041DFF8308199B1421C0BD14FF05C
:1026EC00E022136923F0010313614FF07F43C8F814
:1026FC000030BDE8F081D8F80050012807DC002735
:10270C000BE0431CD8F80050F7D14FF4A77040F2FF
:10271C004F139842A8BF1846471E4FF01003EFF313
:10272C00118483F31288BFF36F8F384800F014FCC8
:10273C0068B98823364A3749374802F098FE33493E
:10274C00364802F094FE8821314802F089FE2F4869
:10275C0000F01EFC324EFFF74FFF4FF0E02399695B
:10276C00D6E9002380184FF0000243F10003C6E9BC
:10277C0000032C4B1A602C4B1A68831A3BD44CF276
:10278C00503C0CFB073303F543434F33B3FBFCF7CF
:10279C00131A40F635420CFB0733934238BF1346ED
:1027AC00224A934228BF13464FF0E022C8F800306B
:1027BC00013B90695361002381429361A1EB0003BB
:1027CC00124838BF5B19D6E900125B1842F10002BF
:1027DC00C6E9003200F0CEFB80B940F231130C4A4E
:1027EC0013490D4802F043FE0849124802F03FFE1F
:1027FC0040F23111A8E740F63543D5E784F3118850
:10280C00BFF36F8F75E700BF0C0500241005002483
:10281C000A77000837770008596600084C770008DB
:10282C0088020024080500248002002460D2FE00E7
:10283C00627700087977000838B54FF01003EFF392
:10284C00118583F31288BFF36F8F1C4800F084FB53
:10285C0068B988231A4A1B491B4802F008FE17491D
:10286C001A4802F004FE8821154802F0F9FD1348BD
:10287C0000F08EFB164B1C68164B1B68E41AFFF716
:10288C00BBFE04440D4800F075FB68B940F23113EF
:10289C000B4A11490C4802F0EAFD08490F4802F0B6
:1028AC00E6FD40F23111DFE785F31188BFF36F8F3E
:1028BC004CF25030B4FBF0F038BD00BF10050024D2
:1028CC000A77000837770008596600084C7700082B
:1028DC0088020024800200246277000879770008BF
:1028EC00024A536823F00203536070470010005CE7
:1028FC00024610B578B14F498B6913F440433FD170
:10290C004D484E4C1044A04207D28B6903F440430F
:10291C00B3F5404F51D101207CE04948494C10445B
:10292C00A04246D948481044A04244D94748824264
:10293C00886900F4404007D9B0F5404FEBD0896965
:10294C00012001F440414CE0B0F5404F45D1404BE3
:10295C001344404A93428CBF002301233E490A682A
:10296C0022F00F021A430A600A6802F00F029A4220
:10297C005ED0086800F00F00C01A18BF012049E0B3
:10298C0000232C48816901F44041B1F5404F2BD113
:10299C00324933481144814246D92D49A0F574205F
:1029AC001144A0F51070814240D92E498A42D5D9E4
:1029BC00B1E70223E5E70123E3E78B69002003F489
:1029CC004043B3F5004F4FF0030319D02649274C71
:1029DC001144A14226D9264918E08969184601F408
:1029EC004041B1F5004FF0E7816901F44041B1F588
:1029FC00004F10D11F4920481144814214D90020A6
:102A0C001E491D4C1144A1420CD91D498A4282D841
:102A1C000028A3D010BD0C491A481144814203D39D
:102A2C000020D3E70123F3E7022397E7012395E77F
:102A3C001846A1E7004802587FA77BF340D2DF037A
:102A4C00FFC4A7F77F1D2C047FE2D3FB801D2C0451
:102A5C003FA901FC7F14EF0300200052BF9412F831
:102A6C00BF56FE03C056FE033FF1E9FDBF0E160232
:102A7C00C00E1602FF1E0AFA7FF0FA027F0F05FD48
:102A8C0080F0FA02C0E1E40008B50A4A0A4B93420E
:102A9C000ED90A4917230A4A0A4802F0E8FC0A48E8
:102AAC0002F0E5FC1721064802F0DAFC1433EEE7DD
:102ABC00FCD308BDC45D0008985C0008B177000821
:102ACC008E770008596600088372000810B504461A
:102ADC004521034802F0DEFC204602F093FF00BFC4
:102AEC00C9770008F7B504460D464FF01003EFF315
:102AFC00118783F31288BFF36F8F224A04284FF09B
:102B0C004501966898BF204B127C94BF53F8203037
:102B1C001E4B009202461E4802F0BCFC3DB1EB6914
:102B2C00C3F308031BB145211A4802F0B3FC36B1BC
:102B3C00304602F07AFF034608B1027802B9164B10
:102B4C0032464521154802F0A5FC29462046FFF7E0
:102B5C00BDFF042C0CD112498A23124A124802F0F0
:102B6C0086FC124802F083FC8A210E4802F078FCA5
:102B7C0087F31188BFF36F8F304603B0BDE8F04088
:102B8C00FEF7F2B918050024CC650008DD770008C3
:102B9C00F377000820780008EB77000846780008E7
:102BAC00857800086378000859660008A278000848
:102BBC00104B70B553F82040013053F82060A642FA
:102BCC0000D870BDD4E9003595B153B1284698476B
:102BDC0038B10028EB68B8BF4042FF28A8BFFF20DF
:102BEC001870EA68537843F0010353700834E6E731
:102BFC009847FBE7E06500080122032008B5094B64
:102C0C001A70FFF7D5FF02F09BFF0420FFF7D0FFEF
:102C1C0000F030F902F041FA034A137B23F0010370
:102C2C00137308BD5705002410030024034800212A
:102C3C00034A08B5121A02F0EEFE08BD800100240A
:102C4C005C05002470B5002386B001221A4E019356
:102C5C0004461A4D06EBC0161949CDE904230F2280
:102C6C00CDE9023214234FF4A07203FB00554FF44C
:102C7C00C070144B00FB04113046009500F092F824
:102C8C00737B114A23F00403EE602C7473734FF4BE
:102C9C00046304FB033313446B60BFF35B8F0B4B78
:102CAC0053E8001F013143E80012002AF8D1BFF3AA
:102CBC005B8F06B070BD00BF900200241805002485
:102CCC0040160024AD2F0008000E0024140500242B
:102CDC0080B50020A6B0FFF76BFF2B4B83F3088861
:102CEC002A4D0024F0232A4E2A4F85F82230EC7707
:102CFC002C766C76AC7685F820406B6A43F4E02336
:102D0C006B62FEF709F9FEF74BFA4FF0FF33AB623B
:102D1C00EB6206ADFEF752FBFEF776FA40F20113BA
:102D2C002846ADF82430CDE91E4401F04DFEB560C7
:102D3C00FFF7AAFE0120FFF73BFF0220164DFFF71D
:102D4C0037FF01F0E9FA154B75614FF4806205937A
:102D5C000123134928460094CDE90343CDE90144EE
:102D6C003B4600F01FF86A7B0646284622F0040218
:102D7C006A7300F0FFFC2046FFF764FF3A463146C9
:102D8C002846FEF7F1F900BF4016002400ED00E0E4
:102D9C0018050024052C00081003002421790008D4
:102DAC00C01700242DE9F04385B004460E46984622
:102DBC000F9D0F2D3AD1294B98453BD1073204F189
:102DCC005803A573002722F007052046A76005F1DC
:102DDC004009E773C4E91633109BB14423730423F1
:102DEC0049466373C4E90677FDF7FCFD06F1400321
:102DFC0007303146C4E9183520F007000E9BA06659
:102E0C00A9EB0009029320460D9B4A4601930C9BAB
:102E1C0000934346FEF77CF9114B67659B6803B141
:102E2C00DB6E4846E36605B0BDE8F08305F11003A0
:102E3C001E2BC3D940F257230A4A0B490B4802F008
:102E4C0016FB29460A486FF00F030E2202F00FFB07
:102E5C0040F25721034802F003FB00BFAD2F0008DE
:102E6C0018050024297900084C79000859660008D7
:102E7C00CC79000870B5314C86B0314DAC42264649
:102E8C002AD9304940F23D332F4A304802F0EFFA4C
:102E9C002F4802F0ECFA40F23D312B4802F0E0FAF8
:102EAC0054F80C3C059354F8103C049354F8143C1F
:102EBC00039354F8183C029354F81C3C019354F8B7
:102ECC00203C009354E90A2354E90C01FFF76AFFF4
:102EDC0054F8303C5E65D1E7AE4204F13004DFD3E8
:102EEC00164C00F029FD1B4EAC4221D915494FF46C
:102EFC005773154A154802F0BAFA154802F0B7FA9A
:102F0C004FF45771C9E7D4E90A23B3F1FF3F08BF67
:102F1C00B2F1FF3F05D052EA0301206803D100F063
:102F2C00B7FC3034E0E73146183001F0D3FAF8E75B
:102F3C00E9D306B0BDE8704000F06EBDE062000859
:102F4C0040630008FD7900082979000859660008DB
:102F5C0083720008855A0008006838B1044B00F0F1
:102F6C0003001B7CC01A18BF01207047012070475A
:102F7C0018050024054A0346117C92680A4301682F
:102F8C000020914204BF18600120704718050024EE
:102F9C00024B1A7C9B68134303607047180500248E
:102FAC0008B50D4B9B6893F90E30002B09DA0B49D1
:102FBC002A230B480B4A02F05AFA2A21094802F03C
:102FCC004FFA4FF01002EFF3118382F31288BFF324
:102FDC006F8FFEF7EBF8F4E7180500244B7A000826
:102FEC00596600082A7A00082DE9F74304468946F9
:102FFC0090461E46EFF3058373B152EA06030BD0DD
:10300C0047497E23474A484802F031FA474802F0C4
:10301C002EFA7E21434819E004F108054FF0100305
:10302C00EFF3118783F31288BFF36F8F2846FFF7F6
:10303C0093FF68B988233E4A3E493B4802F017FA91
:10304C0029463D4802F013FA8821394802F008FA63
:10305C002846FFF79DFF626A23699A4248D22046B0
:10306C0001F070F8064688B1E268002449464069D0
:10307C0002F097FD3046B46700F07CFB39462846D9
:10308C0000F0C0FB204603B0BDE8F083206A636902
:10309C00984202D3A369984207D328499823214A1E
:1030AC00214802F0E4F99821B4E7E268494602F0BD
:1030BC0078FD236AE2681344A2699342236204BF39
:1030CC0063692362636A0133636200242846FFF755
:1030DC0051FF00BB40F23113154A1949124802F056
:1030EC00C6F92946174802F0C2F940F23111ACE793
:1030FC0058EA06030CD0144B2246394628469B68E6
:10310C00C3F81490CDE9008600F046FE0446B9E7FA
:10311C006FF02204DAE787F31188BFF36F8FB1E702
:10312C00957A0008737A000859660008DB7A000863
:10313C000A770008377700084C770008DE7A000819
:10314C006277000879770008180500242DE9F74309
:10315C000446884617461D46EFF3058373B152EAC1
:10316C0005030BD04D49DA234D4A4E4802F07FF946
:10317C004D4802F07CF9DA21494819E004F10806BF
:10318C004FF01003EFF3118983F31288BFF36F8FA5
:10319C003046FFF7E1FE68B98823444A4449414868
:1031AC0002F065F93146434802F061F988213F4845
:1031BC0002F056F93046FFF7EBFE636A002B43D062
:1031CC00E2684046E16902F0ECFCE369E268204603
:1031DC001344A2699342E36104BF6369E361636AC8
:1031EC00013B636200F0AEFF054600283ED0206A2A
:1031FC006369984202D3A369984207D32E49F323FB
:10320C00274A284802F033F9F321B5E76969E268E7
:10321C0002F0C7FC236AE26828461344A269934271
:10322C00236204BF63692362636A0133636200240F
:10323C00AC67254600F09EFA4946304600F0E2FAAB
:10324C00284603B0BDE8F08357EA05030CD01B4BAE
:10325C002246494630469B68C3F81480CDE9007578
:10326C0000F09AFD0546EBE76FF022053046FFF7BC
:10327C0081FE68B940F231130C4A1149094802F039
:10328C00F6F831460F4802F0F2F840F231118EE7B1
:10329C0089F31188BFF36F8FD2E700BF957A0008CE
:1032AC00737A000859660008DB7A00080A77000870
:1032BC00377700084C770008DE7A000818050024E0
:1032CC0062770008797700082DE9F3410446174628
:1032DC001E46EFF3058565B159496D23594A5A4885
:1032EC0002F0C5F8594802F0C2F86D21554802F0B9
:1032FC00B7F84FF01003EFF3118883F31288BFF384
:10330C006F8F5348FFF728FE60B98823514A524902
:10331C004D4802F0ACF84E49504802F0A8F888210C
:10332C004C48E4E74A48FFF733FEE3684C4A9BB14C
:10333C00A0689168884229D057EA06032ED14448E8
:10334C00FFF718FEA0B188F31188BFF36F8F6FF0F1
:10335C000F0002B0BDE8F081916891F90E100133B5
:10336C003B482161E3609368A360FFF703FE78B9E3
:10337C0040F23113374A3B49334802F078F834496C
:10338C00394802F074F840F23111C9E72169E6E7D7
:10339C0088F31188BFF36F8F0020DAE791F90E10D4
:1033AC006FF07E0290F90E309942A8BF19469142F7
:1033BC00B8BF11468B4202DD02F039FB05462246AE
:1033CC0041462348CDE9007600F0E6FC0028E3D026
:1033DC004FF01003EFF3118683F31288BFF36F8F56
:1033EC001B48FFF7B9FD00288FD01948FFF7D0FD17
:1033FC00A068C0B1236821699C420AD04BB193F9F3
:10340C000E309942A8BF19466FF07E039942B8BF9F
:10341C00194602F00CFB30B131460D4800F0F2F9C0
:10342C006FF00A0095E7002DF6D10948FFF7A2FDD1
:10343C0000289DD086F31188BFF36F8FF0E700BF93
:10344C004C7B00082A7B0008596600085E7B00084C
:10345C00380500240A770008377700084C770008F5
:10346C0018050024627700087977000870B50446C7
:10347C00EFF3058666B13949D523394A394801F04D
:10348C00F6FF394801F0F3FFD521354801F0E8FF8C
:10349C008368002B5BD0354A926893425AD1C3683B
:1034AC003BB93349ED232E4A2E4801F0E0FFED21C4
:1034BC00EBE7012B03D0013BC360002070BD4FF044
:1034CC001003EFF3118583F31288BFF36F8F294834
:1034DC00FFF742FD60B98823274A2849214801F0AB
:1034EC00C6FF2449264801F0C2FF88212248CDE7B7
:1034FC002048FFF74DFD2169A06802F098FA20469C
:10350C0000F020FEA06050B190F90E202261866779
:10351C0000F030F92946174800F074F9CDE7E06067
:10352C001448FFF727FD68B940F23113124A1549C8
:10353C000C4801F09CFF0F49134801F098FF40F232
:10354C003111D3E785F31188BFF36F8FB5E76FF0B7
:10355C001500B3E74FF0FF30B0E700BF4C7B00081D
:10356C002A7B0008596600085E7B000818050024B9
:10357C00837B0008380500240A7700083777000899
:10358C004C7700086277000879770008C3897F2B95
:10359C0012D80A4B1B6863B1094B90F90E201B68BB
:1035AC009A4209DB437BDB0606D1064BC31A18BFD4
:1035BC00012303F0010070470023FAE744050024BF
:1035CC00400500249002002408B568B1104B9842C5
:1035DC000AD303F11802904206D2C01A1822B0FB8B
:1035EC00F2F302FB13035BB10A4940F2E7130A48FA
:1035FC000A4A01F03CFF40F2E711084801F030FFA5
:10360C00074BC01001225843064B1A5408BD00BF8B
:10361C0090030024BC7B0008596600089A7B0008C4
:10362C00ABAAAAAA580500240E4B70B51E7C054601
:10363C000D4C06EB460304EBC304204601F00CF8DA
:10364C000A4B002228469A55FFF7A0FF48B1084BB9
:10365C00204608491A68013ABDE87040D31700F0BB
:10366C0039BF70BD180500249003002458050024B0
:10367C0044050024D535000838B5144D2B4653F8B5
:10368C00184F9C4200D004B9EC68AB68A8B963B978
:10369C000F4991230F4A104801F0E9FE0F4801F041
:1036AC00E6FE91210B4801F0DBFE5A7BD20604D1D9
:1036BC00A26912B9DA897F2A05D89C4202D0204629
:1036CC00FFF7B2FF23466B6138BD00BF180500241D
:1036DC00557D00089A7B000859660008DB7A0008C3
:1036EC0070B590F90D30427B002B38DBD30636D108
:1036FC008369002B33D162F07F024273184A9042E7
:10370C0009D11849C3231848184A01F0B0FEC32147
:10371C00164801F0A5FE16490A4652F8184F944275
:10372C0018BF2346CC6923B9C0E900242060C861C6
:10373C000CE090F90E5093F90E60B5420BD0AE42EE
:10374C0009DD5A68C0E90032106058600020BDE8FD
:10375C007040FFF791BFA342E6D01B68E3E770BD52
:10376C00900200247C7D0008596600089A7B0008B2
:10377C001805002438B504464FF01003EFF31185FB
:10378C0083F31288BFF36F8F1748FFF7E5FB68B917
:10379C008823164A1649174801F069FE1249164843
:1037AC0001F065FE8821114801F05AFE0E48FFF722
:1037BC00EFFB2046FFF794FF0B48FFF7DBFB68B9E4
:1037CC0040F23113094A0D490A4801F050FE0649EE
:1037DC000B4801F04CFE40F23111E4E785F31188FF
:1037EC00BFF36F8F38BD00BF480500240A7700086F
:1037FC0037770008596600084C7700086277000894
:10380C007977000870B504460D46F9B9EFF30586D3
:10381C00E6B91A4B5A699B689A4217D0FFF7AAFB74
:10382C0078B940F26B13164A1649174801F01FFE7F
:10383C002146164801F01BFE40F26B11104801F0B6
:10384C000FFE3046BDE87040FDF7A4BB2046FFF7E5
:10385C0091FB68B940F23113094A0A490A4801F050
:10386C0006FE2146094801F002FE40F23111E5E75F
:10387C0085F31188BFF36F8F70BD00BF180500244E
:10388C000A77000862770008596600087977000803
:10389C0038B504464FF01003EFF3118583F312880B
:1038AC00BFF36F8F1D48FFF757FB68B988231C4A7D
:1038BC001C491D4801F0DBFD18491C4801F0D7FDDF
:1038CC008821174801F0CCFD1448FFF761FB637B9E
:1038DC005A0716D41148FFF74DFB68B940F2311363
:1038EC000F4A1349104801F0C2FD0C49114801F070
:1038FC00BEFD40F23111E4E785F31188BFF36F8F01
:10390C0038BD23F0040320466373FFF7E9FE294614
:10391C000248BDE83840FFF775BF00BF48050024DA
:10392C000A77000837770008596600084C770008BA
:10393C00627700087977000810B54FF01003EFF3A9
:10394C00118483F31288BFF36F8F2748FFF704FBB2
:10395C0060B98823254A2649264801F088FD22496A
:10396C00254801F084FD8821204810E01E48FFF70F
:10397C000FFBEFF3058363B12049FF23204A1D4859
:10398C0001F075FD1F4801F072FDFF211C4801F08C
:10399C0067FD1D4B9A68D37B012B0CD11B494FF44F
:1039AC008073174A134801F062FD164801F05FFD61
:1039BC004FF48071EAE7013BD3730B48FFF7DAFA57
:1039CC0068B940F23113094A11490A4801F04FFD18
:1039DC000549104801F04BFD40F23111C4E784F366
:1039EC001188BFF36F8F10BD480500240A770008BB
:1039FC0037770008596600084C7700084C7B0008A4
:103A0C009D7D0008DB7A000818050024C87D00089D
:103A1C00627700087977000810B54FF01003EFF3C8
:103A2C00118483F31288BFF36F8F2A48FFF794FA3F
:103A3C0060B98823284A2949294801F018FD2549ED
:103A4C00284801F014FD8821234813E02148FFF792
:103A5C009FFA254B9A68D37B73B9244940F25D4396
:103A6C00234A1F4801F003FD224801F000FD40F2FB
:103A7C005D411F4801F0F4FCEFF3058060B11E4975
:103A8C0040F25E431A4A164801F0F1FC194801F065
:103A9C00EEFC40F25E41ECE70133D373FFF7ECFD33
:103AAC000C48FFF767FA68B940F231130A4A134918
:103ABC000B4801F0DCFC0749114801F0D8FC40F23E
:103ACC003111C1E784F31188BFF36F8FBDE810404B
:103ADC0001F0C8BF480500240A77000837770008B2
:103AEC00596600084C77000818050024F97D000879
:103AFC009A7B0008DB7A00084C7B00086277000890
:103B0C007977000808B50B4B99420BD10A4940F262
:103B1C00EB430A480A4A01F0AAFC40F2EB41084880
:103B2C0001F09EFCD1E9003213605A600023C1E918
:103B3C00003308BD900200247C7D00085966000803
:103B4C009A7B000870B590F90D200446437B002A3F
:103B5C0006DA03F07F03014643731D48FFF7D2FFDB
:103B6C00637B63F07F0363731A4B9C4209D11A4940
:103B7C00C3231A481A4A01F07AFCC321184801F0F1
:103B8C006FFC184A1146D06951F8183F8B4208BF98
:103B9C00002323B9C4E900100460D4610CE094F94B
:103BAC000E5093F90E60B5420ED0AE420CDD596842
:103BBC00C4E900310C605C609068031B5842BDE89E
:103BCC0070405841FFF758BD9842E3D01B68E0E7BE
:103BDC0030050024900200247C7D00085966000802
:103BEC009A7B00081805002438B54FF01003EFF34A
:103BFC00118583F31288BFF36F8F2448FFF7ACF95C
:103C0C0068B98823224A2349234801F030FC1F4914
:103C1C00224801F02CFC88211D4801F021FC1B4896
:103C2C00FFF7B6F91E4B1F4A9C681068A04213D1CF
:103C3C00FFF7FAFC1548FFF79DF908BB40F231136A
:103C4C00134A1949144801F012FC1049174801F0A5
:103C5C000EFC40F23111DFE700211B7C1160144A8D
:103C6C00D35C002BE6D02046FFF790FC0028E1D077
:103C7C00637BDB0602D12046FFF764FF2046D7E7C3
:103C8C0085F31188BFF36F8F38BD00BF4805002442
:103C9C000A77000837770008596600084C77000847
:103CAC00180500243C050024627700087977000889
:103CBC005805002410B590F90D200446437B002ACA
:103CCC0006DA03F07F03014643730648FFF71AFF39
:103CDC00054B9868031B5842BDE810405841FFF74C
:103CEC00CBBC00BF300500241805002438B50446B1
:103CFC000D46FFF7DFFF637B43F0020363734DB3A5
:103D0C00154BA5609C4209D11449C3231448154A8C
:103D1C0001F0ADFBC321134801F0A2FB2B689D42BF
:103D2C0009D16B68C4E900531C606C6012E06A68CE
:103D3C009342F6D01B68002BF3D094F90E2093F924
:103D4C000E108A42F3D09142F1DD5A68C4E9003278
:103D5C0014605C6038BD00BF900200247C7D0008BC
:103D6C00596600089A7B000870B515461C46064635
:103D7C00FFF7BCFFB4F1FF3F08BFB5F1FF3F08D020
:103D8C002A46234606F118000249BDE8704000F0AF
:103D9C00A1BB70BD855A00082DE9F047DFF8C0A023
:103DAC001746304C0546DAF808200E462E4BA0423A
:103DBC00DDE908891A600BD12C494FF471732C483A
:103DCC002C4A01F054FB4FF471712A4801F048FB66
:103DDC004FF01002EFF3118382F31288BFF36F8F51
:103DEC002046FFF7B9F860B98823234A23492048B5
:103DFC0001F03DFB2146224801F039FB88211E4889
:103E0C00E4E72046FFF7C4F8DAF8080042464B46D0
:103E1C003946FFF7A9FF2846FFF7ACF868B91949EE
:103E2C0040F26B13144A124801F021FB2946164844
:103E3C0001F01DFB40F26B11E1E72046FFF79AF809
:103E4C0040B9104940F26B130B4A094801F00FFBC3
:103E5C002146ECE73046BDE8F047FDF79BB800BFC4
:103E6C0018050024480500243C0500242A7E00087F
:103E7C00596600089A7B00080A7700083777000813
:103E8C004C77000862770008797700082DE9F84331
:103E9C0004460E464FF01003EFF3118983F312889A
:103EAC00BFF36F8F3848FFF757F8074660B9882380
:103EBC00364A3749374801F0DAFA3349364801F0C7
:103ECC00D6FA8821314821E02F4876B2FFF760F806
:103EDC00637BDA061CD1A569D5B903F07F03DFF843
:103EEC00BC80214663734046FFF70CFE637BA673D0
:103EFC0063F07F0363732A4B9C421DD12949C32372
:103F0C002448294A01F0B3FAC321274801F0A8FA42
:103F1C000027A6731C48FFF72DF868BB40F231133D
:103F2C001A4A22491B4801F0A2FA1749204801F00D
:103F3C009EFA40F23111C5E7434653F81829424521
:103F4C0018BF1546DA6925B9C4E900821460DC6132
:103F5C000AE095F90E108E420AD0B14208DD6B686A
:103F6C00C4E900531C606C600120FFF785FBD1E7AE
:103F7C00AA42E9D02D68E6E789F31188BFF36F8F69
:103F8C003846BDE8F88300BF480500240A770008CE
:103F9C0037770008596600084C7700083005002474
:103FAC00900200247C7D00089A7B00086277000850
:103FBC007977000810B50446806858B90A4940F270
:103FCC0037330A480A4A01F052FA40F237310848AE
:103FDC0001F046FA2146FFF795FD637B23F00203BF
:103FEC0063730023A36010BD617E0008596600084E
:103FFC009A7B000838B504464FF01003EFF3118597
:10400C0083F31288BFF36F8F1A48FEF7A5FF68B9C8
:10401C008823194A19491A4801F029FA15491948EF
:10402C0001F025FA8821144801F01AFA1148FEF71C
:10403C00AFFFA36813B12046FFF7BCFF0D48FEF796
:10404C0099FF68B940F231130B4A0F490C4801F043
:10405C000EFA08490D4801F00AFA40F23111E2E774
:10406C0085F31188BFF36F8F04F11800BDE8384059
:10407C0000F0F2BA480500240A77000837770008E8
:10408C00596600084C7700086277000879770008B9
:10409C0070B504460D464FF01003EFF3118683F311
:1040AC001288BFF36F8F2048FEF756FF68B988233C
:1040BC001E4A1F491F4801F0DAF91B491E4801F03E
:1040CC00D6F98821194801F0CBF91748FEF760FFA3
:1040DC00637B13F0280F0CD1A36813B12046FFF7B4
:1040EC0069FF637BBDB903F0FB0320466373FFF7E5
:1040FC00F7FA0D48FEF73EFF80B940F231130B4A38
:10410C000E490C4801F0B3F907490D4801F0AFF91D
:10411C0040F23111D6E703F0EB03E6E786F31188A2
:10412C00BFF36F8F70BD00BF480500240A770008ED
:10413C0037770008596600084C770008627700084A
:10414C007977000870B505464FF01003EFF3118630
:10415C0083F31288BFF36F8F1C48FEF7FDFE68B91E
:10416C0088231B4A1B491C4801F081F917491B483D
:10417C0001F07DF98821164801F072F91348FEF719
:10418C0007FF2C68A54219D034B12046FFF712FF67
:10419C0004F1180000F060FA0C48FEF7EBFE78B959
:1041AC0040F231130A4A0E490B4801F060F90749F5
:1041BC000C4801F05CF940F23111DCE70024EBE72C
:1041CC0086F31188BFF36F8F204670BD480500241D
:1041DC000A77000837770008596600084C77000802
:1041EC0062770008797700082DE9F843171E437BA6
:1041FC0004460E4614BF082510251D420AD12B4338
:10420C00D90903F09F0221D14273082D26D0012039
:10421C00FFF732FA364B9B68A34251D1EFF305837B
:10422C00002B4DD13348FEF7A5FE002835D140F2C6
:10423C006B13314A3149324801F019F92D49314893
:10424C0001F015F940F26B112B4837E003F01F0316
:10425C00014643732C48FFF755FCD6E7A36813B10E
:10426C002046FFF7A7FE04F158084FF0000904F1AF
:10427C00180000F0F1F9A56D4545C8D0002DC6D049
:10428C002846FFF797FE05F1180000F0E5F92846DF
:10429C00C5F87890FFF724FAEDE73046FCF77AFE84
:1042AC0027B31A494FF43D73194A154801F0DFF84A
:1042BC00184801F0DCF84FF43D71154801F0D0F8C6
:1042CC000C48FEF757FE68B940F231130A4A0B4905
:1042DC000B4801F0CCF807490A4801F0C8F840F245
:1042EC003111B1E786F31188BFF36F8FBDE8F88306
:1042FC0018050024480500240A7700086277000896
:10430C00596600087977000830050024787E00088B
:10431C009A7B0008837E0008024B03F11802C3E964
:10432C000622704718050024014B9868704700BF9F
:10433C001805002438B504464FF01003EFF311852F
:10434C0083F31288BFF36F8F2848FEF705FE68B918
:10435C008823274A2749284801F089F82349274808
:10436C0001F085F88821224801F07AF81F48FEF701
:10437C000FFE237BDA0724D51C48FEF7FBFD68B93A
:10438C0040F231131A4A1E491B4801F070F81749C4
:10439C001C4801F06CF840F23111E4E785F3118808
:1043AC00BFF36F8F40F25773174A1849124801F048
:1043BC005EF82146164801F05AF840F2577112483F
:1043CC00D2E7637B1B0709D50848FEF7D3FD00280D
:1043DC00D6D085F31188BFF36F8F38BD29462046A0
:1043EC000122BDE83840FFF7FFBE00BF480500249E
:1043FC000A77000837770008596600084C770008E0
:10440C0062770008797700089A7B0008C17F000862
:10441C00A57E00080648074A0749121A08B501F09C
:10442C00FCFA064A06490748BDE8084001F0F5BA0F
:10443C00000000247B0100243881000800000000EB
:10444C003881000800000024034B1B680BB9FEF7F1
:10445C00F3B90020704700BF4C0500240E4B10B57B
:10446C001C689C4204D1FFF7EFFF6FF0004010BDB9
:10447C00FFF7EAFF002CF8D0D4E904321B1A62EBE8
:10448C00E072B3F1004F72F10001EEDA002AACBF1A
:10449C0018460020EBE700BFA400002430B570B133
:1044AC000B4B5B6898420AD0036843B1D3E90421F3
:1044BC00D0E90445121941EB0501C3E90421D0E907
:1044CC00003213605A600023C0E9003330BD00BFD6
:1044DC00A4000024B3F1FF3F08BFB2F1FF3F2DE968
:1044EC00F047044692461D4600F09B80066866B174
:1044FC004D496E234D4A4E4800F0B9FF4D4800F02F
:10450C00B6FF6E21494800F0ABFF81604FF01003FD
:10451C00EFF3118783F31288BFF36F8F4648FEF7D2
:10452C001BFD60B98823454A4549414800F09FFF6F
:10453C004149444800F09BFF88214048E3E73E484E
:10454C00FEF726FDBAF1FF3F75F1FF3323DA3E4942
:10455C006FF00103D1E900209B1A4FF0FF3262EBA0
:10456C000000B3EB0A0360EB0500012B70F10002B5
:10457C0001DA01233046C4E90430344B1A68D3F80D
:10458C0004C09A4218BF164686B9C4E9003CCCF860
:10459C0000405C601CE0FFF757FF1AF1010845F181
:1045AC00000518EB000345EBE070E4E7D6E90415D1
:1045BC00D4E904208A4270EB050E25DA891A726858
:1045CC0065EB0005C6E90415C4E90062146074606B
:1045DC001A689A4206D0944204D1FFF73FFF00219B
:1045EC00FEF776F81448FEF7C5FCB0B940F231136B
:1045FC00124A17490E4800F03AFF0F49154800F0CF
:10460C0036FF40F2311198E7521A60EB050066450F
:10461C00C4E90420B9D03668B6E787F31188BFF334
:10462C006F8FBDE8F08700BFE87E0008C47E0008ED
:10463C0059660008DB7A0008500500240A77000848
:10464C00377700084C770008A8030024A400002446
:10465C00627700087977000838B504464FF01003EC
:10466C00EFF3118583F31288BFF36F8F1A48FEF7AF
:10467C0073FC68B98823194A19491A4800F0F7FEE7
:10468C001549194800F0F3FE8821144800F0E8FEA3
:10469C001148FEF77DFC2368ABB120460024FFF7E0
:1046AC00FDFE0D48FEF766FC80B940F231130B4A53
:1046BC000E490C4800F0DBFE07490D4800F0D7FE10
:1046CC0040F23111E1E76FF01504EAE785F3118848
:1046DC00BFF36F8F204638BD500500240A770008C1
:1046EC0037770008596600084C7700086277000895
:1046FC00797700082DE9F84F04464FF01003EFF3DB
:10470C00118883F31288BFF36F8F4848FEF724FC9F
:10471C0068B98823464A4749474800F0A8FE4349F0
:10472C00464800F0A4FE8821414800F099FEDFF8CD
:10473C0010910026DFF80CB100273C48FEF728FC4E
:10474C00CBF80040D9F80040DFF8FCA04C4508BF7E
:10475C000024DBF80030DAE90021002C4BD04FEAC2
:10476C00E37CD4E90450AB427CEB000E05DAED1A85
:10477C0060EB0C00C4E904503DE0AA18204641EB64
:10478C00E571C4E90467CAE90021FFF787FE2748F1
:10479C00FEF7F0FB68B940F23113254A2B49264845
:1047AC0000F065FE21492A4800F061FE40F231110B
:1047BC00BAE788F31188BFF36F8FA3682046984738
:1047CC004FF01003EFF3118883F31288BFF36F8F50
:1047DC001648FEF7C1FB00289BD01448FEF7D8FB07
:1047EC00DBF80030D9F800405B1B4C45CBF80030AF
:1047FC00AFD1DAE900219A184FF0000441EBE371D4
:10480C00CBF80040CAE90021FFF728FE2146FDF74E
:10481C005FFF0648FEF7AEFB0028BCD088F311887A
:10482C00BFF36F8FBDE8F84FFFF7DEB950050024DA
:10483C000A77000837770008596600084C7700089B
:10484C00A40000244C050024A8030024627700086F
:10485C007977000870B54FF01003EFF3118683F3EE
:10486C001288BFF36F8F1B48FEF776FB68B988235D
:10487C00194A1A491A4800F0FAFD1649194800F06D
:10488C00F6FD8821144800F0EBFD1248FEF780FB82
:10489C00FFF7DAFD144AD2E90045041945EBE0753F
:1048AC000C48FEF767FB68B940F231130A4A0F490E
:1048BC000B4800F0DCFD07490D4800F0D8FD40F234
:1048CC003111DFE786F31188BFF36F8F204629463D
:1048DC0070BD00BF500500240A7700083777000828
:1048EC00596600084C770008A8030024627700087A
:1048FC007977000804322DE9734306460D4620D221
:10490C004FF000084FF0000941F00401CDE9008997
:10491C0000F088F80446A0B144F8046B95B16B1E06
:10492C001C420FD02523094A09490A4800F09FFD73
:10493C00214609482A4600F09AFD2521034800F03B
:10494C008FFD0024204602B0BDE87083087F00086C
:10495C002C7F0008596600085E7F000803280A4671
:10496C0008B501D983070CD010494223104A1148CD
:10497C0000F07DFD104800F07AFD42210C4800F05B
:10498C006FFD431E03420AD00C494623084A0948CE
:10499C0000F06DFD0A4800F06AFD4621EEE7014685
:1049AC000848BDE80840FFF7A5BF00BF867F000898
:1049BC00087F000859660008C37F0008616800087A
:1049CC007C680008F0000024014BC366704700BFF0
:1049DC00F000002438B50D4C0D4DAC4213D90D49E7
:1049EC0019230D4A0D4800F042FD0D4800F03FFD23
:1049FC001921094800F034FDD4E90112204618347D
:104A0C0001F09FF8E9E7F7D3002038BDF00000244F
:104A1C000801002412800008F07F00085966000885
:104A2C00837200082DE9F04F87B091460646884600
:104A3C0004A8DDE910239A46174601F031F8DDE9A8
:104A4C000434CDE9023406F114044FF01003EFF3F3
:104A5C00118583F31288BFF36F8F2046FEF77CFA23
:104A6C0060B98823354A3649364800F000FD2146A6
:104A7C00354800F0FCFC8821304831E02046FEF738
:104A8C0087FAEFF30583EBB906F10C0B4A46414666
:104A9C003046FBF775FD034620B320460293FEF724
:104AAC0069FA029B002841D140F23113234A27496D
:104ABC00244800F0DCFC2146254800F0D8FC40F2EC
:104ACC003111D9E757EA0A03DED022494B23224A97
:104ADC001C4800F0CCFC214800F0C9FC4B211E48BE
:104AEC0000F0BEFC57EA0A07D7D004A8DDE9022380
:104AFC0000F0FAFF29462046DDE90423CDE9002326
:104B0C0017465A469A46FFF747F94FF01003EFF352
:104B1C00118583F31288BFF36F8F2046FEF71CFAC2
:104B2C0000289ED02046FEF733FAAFE785F31188B4
:104B3C00BFF36F8F184607B0BDE8F08F0A770008F7
:104B4C0037770008596600084C7700086277000830
:104B5C0079770008957A0008F07F0008DB7A000866
:104B6C00F8B505460E4600F114044FF01003EFF3B0
:104B7C00118783F31288BFF36F8F2046FEF7ECF991
:104B8C0068B988231A4A1B491B4800F070FC21465F
:104B9C001A4800F06CFC8821154800F061FC204696
:104BAC00FEF7F6F928463146FBF79CFC05F10C00A4
:104BBC0000F066FF28B139462046BDE8F840FEF704
:104BCC0021BE2046FEF7D6F968B940F23113084AE7
:104BDC000B49094800F04BFC21460A4800F047FC01
:104BEC0040F23111D8E787F31188BFF36F8FF8BD0E
:104BFC000A77000837770008596600084C770008D8
:104C0C0062770008797700082DE9F04F8BB0436884
:104C1C00019383789F078246144640F10981002551
:104C2C0091F80080B8F1000F00F00481B8F1250F65
:104C3C000BD04B1C02930135019B514640469847C3
:104C4C000028C0F2F5800299EAE791F801808B1CEC
:104C5C00B8F1250F0293EED0002399461F461F2F63
:104C6C0039D8A8F12002102A0AD8DFE802F02B0963
:104C7C0009310909092109090929092E09091F0006
:104C8C00A8F13002092A32D9B8F12A0F35D17806A9
:104C9C0054F8042B00F18180002AA7BF47F02007AD
:104CAC009146C2F1000947F0280701E047F00107DF
:104CBC00029A12F8018B0292B8F1000FCFD132E0B8
:104CCC0047F0020747F00407F2E747F00807EFE761
:104CDC0047F01007ECE77F2F18D8A8F13002092A0B
:104CEC00D2D87E0603D50A2101FB0323E0E70A2173
:104CFC0001FB092947F02007DAE7B8F12E0F05D19F
:104D0C00790600F1978047F04007D1E7B8F16C0FB6
:104D1C0032D02AD8B8F1680F35D0B8F16A0F39D033
:104D2C00B8F14C0F36D0002B48F02002B8BF27F05A
:104D3C004007A2F16501BCBFBFB20023022901D913
:104D4C00612A2CD1073424F007049A4E08344FF012
:104D5C000708380763D506EB080B37465F4560D16B
:104D6C00AE1B3744A9EB080954E1B8F1740F9FD07E
:104D7C00B8F17A0F9CD0D6E73A0648BF47F40077D3
:104D8C0047F0800794E7FE0548BF47F4007747F4E7
:104D9C0080778DE747F420778AE7134688E7A8F1F8
:104DAC006301122900F2CF80DFE811F013004800F4
:104DBC00CD00CD00CD00CD004800CD00CD00CD0004
:104DCC00CD00CD00DF00C700CD00CD001B00CD0015
:104DDC00960054F8043B8DF81C304FF0010807AED8
:104DEC00B7E754F8046B744A002E08BF164617F048
:104DFC00400F14BF19464FF0FF31304600F0A9FEAA
:104E0C008046A6E7019B51462020984700280FDBDF
:104E1C00013FB845F6D34D44ED1BB9469BE74F46D1
:104E2C00F7E717F8010B019B51469847002895DAD4
:104E3C004FF0FF3528460BB0BDE8F08F390637D55B
:104E4C00BA0545BF073424F0070454F8040B54F892
:104E5C00080B27F010060028B6B232DA404246F4AE
:104E6C008066039307AF0A22394600F07EFE720675
:104E7C00039BA0EB07074BD526F00101BB4289B27F
:104E8C0040F38A80B8F1000F00F0828016F0100217
:104E9C00039240F083809B460E4640F2064116EA90
:104EAC00010203921EBF00220BF1010B039238E0AA
:104EBC00FE0554F8040BCCD5B9054CBF40B200B27A
:104ECC00C7E7CED17A06CCD5002BCAD127F0110773
:104EDC00BEB21F469B46E0E727F01007BFB20A227E
:104EEC003E0646D5B80545BF073424F0070454F8F0
:104EFC00040B54F8080B002844D127F01606790649
:104F0C00B6B242D5002B40D127F01707BEB21F46D0
:104F1C0016F0100203924AD0B8F1000F45D107F1F8
:104F2C00010B31075CD4F20705D5D94575DDA9EB2A
:104F3C000B02D319CB465A464CE047F0100710220F
:104F4C004FF07808CCE7782A06D1B8F1580F14BF87
:104F5C0010224FF40472C3E7019B51462520984759
:104F6C000028FFF665AF023566E608224FF0000810
:104F7C00B6E7F90554F8040BBDD5BE054CBFC0B25D
:104F8C0080B2B8E727F00607BEB2039307AF6BE712
:104F9C0026F01106B6B29DE70E46B9E738460E4626
:104FAC001F4607F1020B0746BBE73846F9E7BB463D
:104FBC0073E700BF3081000829810008CDE9043275
:104FCC005146019B202098470028FFF631AF059AE7
:104FDC00049B01329145F1DCA5EB0B018D18934636
:104FEC00039A32B303935146019B30209847002813
:104FFC00FFF61EAF039BB8F1000F10D101355E19FF
:10500C00711B8F4227DB3E460DF11C0866BB2F44FB
:10501C00A9EB0B093D46B94438E03B468BE70393BB
:10502C00023551464046019B98470028039BE6DA1F
:10503C00FEE640F206410E42E1D016F0020F14BF1C
:10504C002B20202016F4806F039305F101055146A7
:10505C0018BF2D20E7E7019B5146302098470028C8
:10506C0005F10105CCDAE3E6013E019B18F80600D8
:10507C00514698470028C9DADAE6019B51462020B0
:10508C009847002805F10105FFF6D2AEA9EB050300
:10509C00002BF2DCD7E500BF7047002070470020E2
:1050AC0070470FB407B504A951F8040B0191FBF735
:1050BC00E7F903B05DF804EB04B07047836800EBCC
:1050CC00C101B3F5004F2CBF51F8220031F812008A
:1050DC00704700EBC1018068B0F5004F2CBF41F860
:1050EC00223021F812307047012208B5FFF7E6FF95
:1050FC00D04008BD836800EBC101B3F5004F08D365
:10510C004B681AB143F001034B60704723F0010365
:10511C00FAE74B881AB143F001034B80704723F038
:10512C000103FAE753000122FFF7D3BF8368B3F5FD
:10513C00004F34BF04230823C91A081AC00870474B
:10514C00B0F5004F01F1070134BF04230823C81840
:10515C00C00870470A460121013208B5FFF7F0FF7D
:10516C00121AB2FA82F0C0F11F0008BD2DE9F0410D
:10517C000E46174603220446FFF7A0FF864205465B
:10518C0007F104080AD10122E368BA4023EA0203BA
:10519C00E360002344F82830BDE8F0813146022258
:1051AC002046FFF78BFF06462B460146032220467E
:1051BC0044F82850FFF78DFF33462946204602223B
:1051CC00BDE8F041FFF785BF70B586680D46044613
:1051DC00FFF78AFFB6F5004F014601D3012809D02D
:1051EC003046FFF7B7FF294602462046BDE870401F
:1051FC00FFF7BCBF70BD2DE9F047054680688846B7
:10520C00FFF7A8FF05EB800A0646DAF81090B9F113
:10521C00000F1BD00327DAF8104028462146FFF771
:10522C0063FF404507D3324621462846FFF79EFFD1
:10523C002046BDE8F087032221462846FFF73EFFB3
:10524C00013FCAF8100001D08145E4D101364FF07E
:10525C00FF34EB68B4401C40EAD094FAA4F2B2FAE2
:10526C0082F2131D55F82340DEE72DE9F041144678
:10527C000E460546FFF738FF371BA4EB06083146F0
:10528C00074442462846FFF74DFF3A46214628463A
:10529C00FFF748FF4346002221462846FFF719FF37
:1052AC0021462846FFF720FF3B46211800222846BE
:1052BC00BDE8F041FFF70DBF2DE9F041164604465D
:1052CC000F46FFF711FF054631462046FFF70CFF4E
:1052DC000544394620462A46FFF724FF314620462E
:1052EC00FFF702FF2B46311800222046BDE8F041A3
:1052FC00FFF7EFBE2DE9F04186680D460446FFF737
:10530C00F3FEB6F5004F014601D3012832D03046EA
:10531C00FFF720FF04EB80010E6996B90122E368C8
:10532C008240204613430222E3602B460D6129463E
:10533C00FFF7CFFE032229462046BDE8F041FFF7D8
:10534C00C8BE022231462046FFF7B8FE2946034666
:10535C0007462046FFF7BDFE03223346294620466A
:10536C00FFF7B7FE39462B462046FFF7B2FE022266
:10537C003146E1E7BDE8F081F8B50C460546FFF78C
:10538C00B3FE0122261828463146FFF797FEC307C5
:10539C000CD431462846FFF717FF21462846FFF765
:1053AC00A3FE214622182846FFF786FF002221463D
:1053BC002846FFF783FE271A012228463946FFF7B5
:1053CC007DFE10EA020613D139462846FFF7FCFE93
:1053DC00214632462846FFF771FE2246211A2846FE
:1053EC00FFF76AFF214632462846FFF767FE241A6C
:1053FC0021462846BDE8F840FFF77CBF70B506682B
:10540C0009B9002070BDB068B0EBD10FF9D9FFF726
:10541C0097FE014605463046FFF7EDFE0446002890
:10542C00EFD001463046FFF75FFEA84209D925446C
:10543C00214630462A46FFF718FF29463046FFF72B
:10544C0059FF304601222146FFF754FEB368B3F5ED
:10545C00004F34BF0423082303EBC4031844D1E7E3
:10546C00404080F311884FF0040002DF70470FB406
:10547C0007B504A951F8040B0191FBF701F803B02F
:10548C005DF804EB04B07047704708B5FDF728FAD7
:10549C00002008BD0FB407B504A951F8040B019105
:1054AC00FAF7EEFF03B05DF804EB04B07047014669
:1054BC000068FBF765BA08B5FBF790FABDE8084041
:1054CC00FBF7BEBA00210120FBF75ABA202809D9F4
:1054DC00B0F1004F08D80138B0FA80F0C0F11F00CD
:1054EC0040007047082070473E20704708B5FCF715
:1054FC005BF8002008BD08B5062201210020FCF74E
:10550C00A5FA002206201146FBF7ACFD012107226B
:10551C000846FCF79BFA002207201146FBF7A2FD78
:10552C00082201210220FCF791FA002208201146E2
:10553C00FBF798FD092201210320FCF787FA0022D2
:10554C0009201146FBF78EFD0A2201210420FCF7ED
:10555C007DFA00220A201146FBF784FD0521172253
:10556C000846FCF773FA002217201146FBF77AFD68
:10557C00282206210A20FCF769FA0022282011466D
:10558C00FBF770FD002008BD1F2809DC4FF0B0416F
:10559C000122D1F88030824023EA0203C1F8803026
:1055AC00704703292ED8DFE801F0020F16224FF0C6
:1055BC00B04301221968824021EA0201196059683E
:1055CC0021EA02025A60704701224FF0B043824038
:1055DC0019681143F2E74FF0B04301225968824039
:1055EC0011435960196821EA02021A6070470123BD
:1055FC0003FA00F04FF0B0431A6802431A605A687D
:10560C001043586070470B68A3F1D402202A09D8C4
:10561C0003F1B0434968002003F511331A680A43BB
:10562C001A6070476FF0850070470B68A3F1D402C5
:10563C00202A0AD803F1B0434968002003F511333E
:10564C001A6822EA01021A6070476FF085007047F1
:10565C00436800205B681B690B60704743685B689C
:10566C00586942400A40424000205A6170474368E2
:10567C0000205B68996170474368090400205B68EF
:10568C0099617047436800205A6853694B405361D5
:10569C0070472DE9F04144680120C2F38016C2F333
:1056AC00C11C676888408E4002F0300527EA00076D
:1056BC00C2F34122202D46EA070600FA01F7666084
:1056CC0007EB470ED4F8088007FB0CFC07FB02F233
:1056DC006FEA0E0628EA0E084CEA080CC4F808C05B
:1056EC00D4F80CC02CEA0E0C42EA0C02E2600CD18D
:1056FC00072912DC07FA01F2206A8A40C2EB021178
:10570C005A4320EA01010A43226223682D091E40F4
:10571C007D4335432560BDE8F081020A616A52433E
:10572C005243C2EB02105A4321EA00010A4362625F
:10573C00EBE738B5044690030D46134617D5910791
:10574C000ED55A072ED55022D8060BD542F400722E
:10575C0019031AD5616801234968AB408B610DE0D0
:10576C001022F1E79906F3D542F48062F0E7DA03F0
:10577C0013D5D80613D4C3F340139A0260680023E0
:10578C002946FFF786FF002038BD5B03F6D50121C3
:10579C002046A940FFF770FFF0E73022EEE74FF408
:1057AC000072EBE76FF08500EEE7F8B51F46044694
:1057BC0040680E461546FFF76CFF112F07D10121EB
:1057CC002B0501FA06F104D563685B68996100202A
:1057DC00F8BD2046FFF750FFF9E730B503681360BA
:1057EC000579046804EBC504A34202D36FF00100F1
:1057FC0030BD5C798C4201D00833F0E70020F7E72C
:10580C004368C1F34B1001F01F011B68C058012302
:10581C008B4003424FF0000014BF01230023137090
:10582C00704710B54368C1F34B1001F01F011A68A3
:10583C00012384588B4023438350002010BD10B5A6
:10584C004368C1F34B14012201F01F0118688A4010
:10585C00235823EA02032350002010BD38B5044618
:10586C000D46FFF7DEFF29462046FFF7E8FF002034
:10587C0038BDB0F5805F07D0B0F1805F09D1002949
:10588C0014BF012002207047002914BF03200420FC
:10589C007047002914BF0220032070474268136828
:1058AC00D869D969C0F3C000C907D96948BF40F0AD
:1058BC0002008907D96948BF40F004004907D9693B
:1058CC0048BF40F02000C90504D54FF4807140F06A
:1058DC0008001962C10702D51368082119628307F1
:1058EC0002D5136801211962410702D51368022100
:1058FC001962830602D5136804221A62704710B528
:10590C0040680268D3691B06FCD54FF01002EFF318
:10591C00118382F31288BFF36F8F0268D469240657
:10592C0004D483F31188BFF36F8FEAE7916283F39A
:10593C001188BFF36F8F10BD43681A68D0690007D8
:10594C0001D5082010621B68DA69920603D55B6AE0
:10595C0000200B7070474FF0FF30704710B5026994
:10596C0004460B46526812680A6042681268126854
:10597C0002F4C062B2F5806F33D0A2F5C06042422F
:10598C0042411A7162681268526802F44052B2F5D0
:10599C00805F28D0B2F5405F27D0002A0CBF0122CF
:1059AC0003225A71626812681068116800F01020A6
:1059BC0001F4C061FFF75DFF987162680020126806
:1059CC00926802F44072A2F540714A424A41DA717F
:1059DC0061680968896811F4804F18BF0322DA7175
:1059EC0010BD0222CDE70022DBE70222D9E740B14D
:1059FC00C368587810F001001EBF1878B0FA80F018
:105A0C00400970474FF01002EFF3118382F31288B4
:105A1C00BFF36F8FFEE700F0D2B800F0C2B8EFF31F
:105A2C000580003818BF012070470020704790F99E
:105A3C000E308B4201D0FEF729BA00207047034686
:105A4C000020C3E90033C3E902007047034620B9C4
:105A5C00EFF305820AB9FBF79DBA83F31188BFF304
:105A6C006F8F70474FF01003EFF3118083F31288A0
:105A7C00BFF36F8FFFF7EABF01211838FEF708BBA1
:105A8C0038B5054600202C68A54200D004B938BDB5
:105A9C002046FEF7AFFA2046FDF76CFE0120F2E738
:105AAC00B3F1FF3F08BFB2F1FF3F70B504461D468E
:105ABC00164613D01A4315D06FF001024FF0FF3386
:105ACC00921B63EB0501002904DAFEF7C3FE821971
:105ADC0041EB05012046C4E9002170BD4FF0FF32B7
:105AEC001146F7E70022FBE7B3F1FF3F08BFB2F125
:105AFC00FF3FF8B5074616461C4610D054EA020381
:105B0C0011D0FEF7A7FEB0420A460346A1410AD2C5
:105B1C00F31A64EB02043846C7E90034F8BD4FF0C1
:105B2C00FF331C46F7E70023FBE720B1011F50F8B9
:105B3C00040CFFF715B8704701460420FEF70EBFA2
:105B4C00704710B400F10C04C0E9034410BCFAF720
:105B5C00A5BD10B5024601448A42134603D01C78F9
:105B6C000132002CF8D1181A10BD930570B548BF3E
:105B7C0022F40072044608464CBF07212721B4FBCF
:105B8C00F2F502FB1543DBB2092B88BF5B182646E6
:105B9C0088BFDBB23033B24200F8013B2C46EED961
:105BAC0070BD0A44914200F1FF3300D1704710B52B
:105BBC0011F8014B03F8014F9142F9D110BD024489
:105BCC000346934200D1704703F8011BF9E700002C
:0C5BDC000148006870470000B803002476
:105BE800DD07000800000000111C0008985C000890
:105BF8009754000800000000E14900080000000078
:105C080000000000AC5C0008CD1E0008885D00089C
:105C1800CD1E00084C5D000803550008C05C000854
:105C2800CD1E00089C5D0008CD1E0008745D0008AC
:105C3800CD1E0008605D0008CD1E0008385D000814
:105C4800CD1E0008245D0008CD1E0008105D000868
:105C5800CD1E0008FC5C0008CD1E0008E85C0008AA
:105C6800CD1E0008D45C0008C1220008B05D000801
:105C78005126000800000000DD15000800000000A3
:105C8800DD1D000800000000C51600080000000027
:105C9800407400080000000074000024D2000024B2
:105CA80000000000BB7500085C650008606500081E
:105CB800EA00002400000000227400080000000030
:105CC80000000000D0000024D8030024D674000887
:105CD800306400080C650008D4000024580400242F
:105CE800E4740008446400080C650008D600002429
:105CF80068040024F2740008586400080C65000861
:105D0800D800002478040024007500086C6400089A
:105D18000C650008DA000024880400240E750008C9
