:020000040800F2
:1000000080110024E5170008FB3E0008D117000806
:10001000D1170008D1170008D11700080000000010
:10002000000000000000000000000000D1180008DF
:10003000D1170008000000006D180008C127000853
:10004000511A0008511A0008511A0008511A0008E4
:10005000511A0008511A0008511A0008511A0008D4
:10006000511A0008511A0008511A0008511A0008C4
:10007000511A0008511A0008511A0008511A0008B4
:1002CC0053B94AB9002908BF00281CBF4FF0FF31B1
:1002DC004FF0FF3000F00CB8ADF1080C6DE904CE16
:1002EC0000F008F8DDF804E0DDE9022304B0704703
:1002FC00704700BF2DE9F04786468C460846089E9D
:10030C00154674461946002B40F0C2808542B2FA5D
:10031C0082F245D94AB1C2F1200300FA02FC2EFA4E
:10032C0003F3954043EA0C0C94404FEA154EA8B2E7
:10033C00BCFBFEF8230C0EFB18CC08FB00F943EABF
:10034C000C43994528D9EB1808F1FF3704D299458D
:10035C0002D9A8F102072B44A3EB0903A4B2B3FB07
:10036C00FEFC0EFB1C330CFB00F044EA0344A042E1
:10037C0014D92C190CF1FF3304D2A04202D9ACF1E0
:10038C0002032C44241A43EA07401EB1D440002334
:10039C0034607360BDE8F0874746DDE76346F1E7FC
:1003AC0092BB431B01214FEA154EAFB2B3FBFEFCCF
:1003BC00200C0EFB1C330CFB07F840EA034398455A
:1003CC0062D9EB180CF1FF3004D2984502D9ACF18C
:1003DC0002002B44A3EB0803A4B2B3FBFEFC0EFB00
:1003EC001C330CFB07F744EA0344A7424ED92C19E3
:1003FC000CF1FF3304D2A74202D9ACF102032C4416
:10040C00E41B43EA0040C0E7C2F1200320FA03F1E9
:10041C00954090402EFA03F303434FEA154EAFB2CA
:10042C00B1FBFEFC0EFB1C10190C0CFB07F841EA8F
:10043C000041884504FA02F422D969180CF1FF3006
:10044C0004D2884502D9ACF102002944A1EB080181
:10045C009BB2B1FBFEFC0EFB1C110CFB07F743EA35
:10046C0001439F420ED9EB180CF1FF3104D29F428D
:10047C0002D9ACF102012B44DB1B41EA004192E7AB
:10048C006046E3E76146F7E76046A3E76346B7E7F4
:10049C00834206D916B9002108467BE7C6E900E07D
:1004AC00F9E7B3FA83F78FB9834201D3724508D8C1
:1004BC00BEEB020460EB030301209C461EB9002135
:1004CC0068E73846FAE7C6E9004CF8E7C7F1200CB4
:1004DC00BB4022FA0CF41C432EFA0CF120FA0CF35C
:1004EC00B84001434FEA14490EFA07F5B3FBF9F88B
:1004FC001FFA84FE09FB18300B0C08FB0EFA43EABA
:10050C0000439A4502FA07F240D9E31808F1FF308C
:10051C0004D29A4502D9A8F102002344A3EB0A03A2
:10052C0089B2B3FBF9F809FB183308FB0EFE41EA5C
:10053C0003418E452CD9611808F1FF3304D28E4546
:10054C0002D9A8F10203214443EA0040A0FB02981F
:10055C00A1EB0E014145CE46434602D306D14D4593
:10056C0004D2B9EB020E68EB04030138002EA6D0BE
:10057C00B5EB0E0261EB030101FA0CFC22FA07F356
:10058C004CEA0303F940C6E9003198E74046C5E759
:10059C004346D9E7034613F8012B002AFBD1181A5E
:1005AC00013870477FB50BAB059303930322054BC2
:1005BC00029300231846CDE9003300F081FB07B00D
:1005CC005DF804FBA65100081FB50024064B03225E
:1005DC000649204602932346CDE90044FFF7E2FF8B
:1005EC00204604B010BD00BFA6510008C84E00083C
:1005FC002DE9F04F91B0840705460E46009302F0AA
:10060C000403DDF868900293C2F3C203039203F172
:10061C000103059340F0BA81041D30B1072909D8B4
:10062C006FF01B0011B0BDE8F08F01F00706341D10
:10063C00C6F10806009B4FF000084FF0040A591E43
:10064C004FF0FF334746C34601935346CDF8108015
:10065C000DB1009A22600598002800F3E8809848B4
:10066C00009A824203D397488242C0F0E080039AFA
:10067C00A4EB050E92074FEA9E0000F103810F2FA9
:10068C0000F2B180002D00F0058107F140020DEB66
:10069C00020C019A0CF8200C0CF8102C0498013068
:1006AC000490E7E07A285DD84B280ED8472859D813
:1006BC0029282DD8252852D054D820287AD0233850
:1006CC00D0F1000B4BEB000B74E04C382E2849D8C2
:1006DC00DFE800F0704848484848484848484848CF
:1006EC004B484848484848484859484B4B59595931
:1006FC00704B6D487048184B184848827F4B4848DF
:10070C004B487F0000204FF0000B4FF0040A38E0FC
:10071C002A380122C0B202FA00F010EA0E0F49D1B9
:10072C0010F0625C2FD110EA020B43D06046013C02
:10073C005444B4FBFAF40AFB04F4002D61D0A3EB8F
:10074C00050CA4446645FFF46BAF002868D1042B5C
:10075C0047D159F8043B2360043404232AE0019A5E
:10076C00013A01924FF0000B24E011F8010C6C28B7
:10077C0034D111F8023C00206C2B8346C5D14FF0CC
:10078C00080A5346D3E709F10709073429F007098A
:10079C0024F00704F9E802AB35B106982044B042C6
:1007AC003FF63EAFC4E900AB08344FF0000B4FF0FE
:1007BC00080A534611F8010F002878D0BBF1000F3E
:1007CC007FF470AF2528F5D1019B4FF0010B01335D
:1007DC0001934FF0040AECE7584694E70020834657
:1007EC00A5E7082B02D06FF015001BE709F10709EC
:1007FC0029F00709F9E80223C4E900230834082387
:10080C00D8E768B9042B02D109F10409A4E7082B35
:10081C00E9D109F1070929F0070909F10809EDE700
:10082C00059A013A059259F8042B009210E7039AA5
:10083C00900720D5A4EB050E4FF0010C4FEA9E005B
:10084C00BEF5007FCFD20F2FCDD8F5B107F1400206
:10085C00C0B20DEB020E019A0EF8200C0EF8102C03
:10086C00BCF1000F3FF41AAF60F07F0008F10108F3
:10087C000EF8200C0137C5F1080204344FF6DA7E6D
:10088C00069297E74FF0000CDAE7BCF1000F01D0AD
:10089C000136EFE7029802360028EBD10098CDE93B
:1008AC000631FFF777FE0644DDE90631E2E7631B0C
:1008BC00B3F5806F97D23DB9A6F10804E018B1E604
:1008CC00DC470008A05A00089B08029A28602B708D
:1008DC009DF81030C2B1EB7085F80280B8F1000FB2
:1008EC0005D008A80022C5F1010C97420ED1C5F124
:1008FC0001030DF120094FF0000A0DF1300B0193AB
:10090C00574512D1601B8DE66B70E5E710F8013B83
:10091C00190608D504EB0C0E03F07F037645FFF4A3
:10092C007FAE04F8013B0132DFE7B8F1000F03D0D2
:10093C0099F90020002A17DB029BD3B11AF80B207F
:10094C0004F8012B0022019B981820448642FFF4E6
:10095C0067AE99F80000009904F8010B2046039249
:10096C0003F015FF039A14440AF1010A09F1010975
:10097C00C6E799F8002055F822300093029B0098A6
:10098C0045F82230FFF706FE421CDCE76FF00D0045
:10099C0048E600BF014B1860704700BF0000002400
:1009AC0080B505460E461746984602F003FDDFF863
:1009BC002090034603F002FF0446424649F80030FB
:1009CC0039463046A84754F8090000F01BFF00BF19
:1009DC0008000000324B70B55A6912F4003211D184
:1009EC00BFF34F8FBFF36F8FC3F85022BFF34F8FFE
:1009FC00BFF36F8F5A6942F400325A61BFF34F8FC5
:100A0C00BFF36F8F264A5369D90327D4536913F464
:100A1C00803323D1C2F88430BFF34F8FD2F88030AB
:100A2C0043F6E074C3F3C900C3F34E335B0103EA2E
:100A3C000406014646EA81750139C2F86052F9D2C2
:100A4C00203B13F1200FF2D1BFF34F8F536943F4C6
:100A5C0080335361BFF34F8FBFF36F8F114B124A2B
:100A6C001A60124BDA6822F0070242F00202DA60D6
:100A7C009A6942F440429A619A699204FCD50C4BF3
:100A8C001A6841F20303B3EB124F06D1094AD2F8AC
:100A9C00083143F00103C2F80831002070BD00BFDB
:100AAC0000ED00E04C0000240090D00300480258F8
:100ABC000010005C008000512DE9F84F81462E4853
:100ACC000F4603F059F9064670B92C4C0546DFF871
:100ADC00B0A04FF0010BA046544507D3B9F1000F5D
:100AEC0002D04FF0010AE5B9BDE8F88F237B73B152
:100AFC002368DB680BB12046984723681B6943B910
:100B0C00636804222046196800F0C6F801361034D8
:100B1C00E2E7204698470028F2D00BFA06F31D4373
:100B2C00F4E7A94695FAA5F4B4FA84F40AFA04F3A6
:100B3C00260108EB04146FEA030B25EA0305237B5B
:100B4C0063B158F806301B698BB946440422204621
:100B5C0009EA0B097368196800F09EF8002DE1D1C1
:100B6C001FB16420002102F00DFC4D46BBE720466E
:100B7C0098470028F2D1E8E7C8010024084F000884
:100B8C00184F0008014B53F8200070474C4F0008D9
:100B9C0008B5034608462BB1044A136000F082FAEC
:100BAC00002008BD6FF01500FBE700BF0400002417
:100BBC000023054A4FF47A7104481370044A1360F9
:100BCC00044A1360FFF7E4BF8C030024753D000852
:100BDC00C0010024C401002470B50B4D297841B923
:100BEC000A4C01200A4EFFF767FFB44202D30123DF
:100BFC002B7070BD63685B791BB1236820469B68C2
:100C0C0098471034F1E700BF8C030024084F00080C
:100C1C00184F000810B50446084803F0ADF85CB155
:100C2C00074BBFF35B8F53E8001F013943E80012F9
:100C3C00002AF8D1BFF35B8F10BD00BFC0010024A8
:100C4C00C40100240A4B70B505460A4C0A4E1B68B9
:100C5C009847A860B44200D370BD63685B7923B138
:100C6C002368294620461B6898471034F2E700BFDA
:100C7C0004000024084F0008184F0008044A054BD4
:100C8C009B1AB1EBD30F34BF52F8310000207047E0
:100C9C00C84E0008084F0008084BC31A1B1110B4AB
:100CAC0001334468237143689A71012243681960C7
:100CBC0043685A7110BC03F081B800BF084F00089C
:100CCC002DE9F04F85B004460E46934602AF984688
:100CDC003D6BD7E90EA9BAF1000F33D0C7F80490D9
:100CEC001021CDF8009053467A6B0020FFF780FC62
:100CFC00014604F007040BF0070B134AE40002EA68
:100D0C00412244EA8B14144344EA055417350D442C
:100D1C0025F00705ADEB050D02ADBAF1000F07D0BC
:100D2C00CDF8009053467A6B05F11000FFF760FC8C
:100D3C00434622463146284603F043F80C37BD465D
:100D4C00BDE8F08F5146D4E700FE0F000EB403B59A
:100D5C0003AB0146054853F8042B019301F004F84A
:100D6C0002B05DF804EB03B0704700BF013E000811
:100D7C00CA0605D48B064CBF02490349FFF7E6BFF0
:100D8C00704700BFE8510008E75100082DE9F04F0B
:100D9C0089B09A4604460D469DF84CB0179E0692B3
:100DAC00DDE914730593169B0493BBF1000F00F05F
:100DBC00858006F0080306F00209079302F0FFFF96
:100DCC000246002849D086492046FFF7BFFF8046DF
:100DDC00B9F1000F08D016F0440F40D12A468149D2
:100DEC002046FFF7B3FF804406F0010353B17E4B5E
:100DFC0020467E4953F82B207D4B002A08BF1A460B
:100E0C00FFF7A4FF06F00803002B54D0794B2046C3
:100E1C00794953F82B20FFF799FF0546069B2BB118
:100E2C001A4676492046FFF791FF0544BAF1000FA8
:100E3C0005D0524672492046FFF788FF05444544C9
:100E4C00002F49D1049B002B4FD1F30700F1C18037
:100E5C0031462046FFF78CFFB5E08046B8E7694B7A
:100E6C0018680028BFD0684B4FF47A794FF4616151
:100E7C004FF03C0C1B68B5FBF3F5B5FBF0F300FB36
:100E8C00135509FB05F5B3FBF1F2B5FBF0FE01FBC5
:100E9C00123100FB1E55B1FBFCF309FB05F50CFBF5
:100EAC001311B5FBF0F5009120465849CDE901E549
:100EBC00FFF74CFF97E706F00805AFE7BAF1010F13
:100ECC0006D1002F65D1049B002B7CD000250CE0B3
:100EDC00002FF8D04E485DE04E483B4622464E4926
:100EEC0002F019FE049B002B69D0DFF83081DFF88B
:100EFC003091049F4FF0000A31462046102F28BF36
:100F0C001027FFF735FF554546DC059B4FF0010ACE
:100F1C00494620461A78FFF719FF1AF0070F03D13C
:100F2C0041462046FFF712FF57453CD9059B4946E1
:100F3C00204613F80A20FFF709FF0AF1010ABAF15B
:100F4C00100FEAD14FF0000A36492046FFF7FEFE9B
:100F5C005246059B20469A5C334B995C11F0970FD7
:100F6C00324908BF2E22FFF7F1FE0AF1010ABAF14D
:100F7C00100F1DD01AF0070F03D141462046FFF782
:100F8C00E5FE57455246E4D841462046FFF7DEFEC3
:100F9C00EBE720485D46A0E7414620460AF1010AEE
:100FAC00FFF7D4FEAFE722492046FFF7CFFEC4E798
:100FBC00059B3B440593049BDB1B049399D1BBF12C
:100FCC00000F7FF442AF204609B0BDE8F04F02F0AD
:100FDC003ABF074A20460549FFF7B8FE38E700BF7D
:100FEC00EF510008F35100085C4F0008185200083C
:100FFC00EA510008704F00081B52000821520008EB
:10100C0025520008D0010024CC010024FC5100081A
:10101C001D3E0008013E0008751D000832520008F4
:10102C002A52000834520008905900083652000821
:10103C00305200082DE9F0410F8886B04B68054608
:10104C000C4690468E68C7F382175BB1144A9B1A04
:10105C0043F3CF01002921DB2078C0F3C200FFF756
:10106C000DFE03462146608851F8102BC0F30B107F
:10107C000197C2F34A22002A01EB02044FF000024E
:10108C0008BF00210092CDE90408CDE902142846DE
:10109C003146FFF77BFE06B0BDE8F0810023E1E7A7
:1010AC00C84E000800210123064A904206D8064A81
:1010BC0001B901231360054B1860704740080121EA
:1010CC005B00F2E740420F00CC010024D001002469
:1010DC00014B036001207047BC4F000870B50646F9
:1010EC0086B00D46002938D08B6800240122059368
:1010FC0020464B6804930B681B4903931B4BCDE9AB
:10110C0000440293234602F0DEFE6B69012216496D
:10111C00059320462B690493EB6800940393144BBE
:10112C00CDE90143234602F0CEFEEB6901220E49C4
:10113C00039320460F4B0094CDE90143234602F064
:10114C00C2FEAB6901220849039320460A4B009466
:10115C00CDE90143234602F0B6FE2946304606B0DF
:10116C00BDE8704001F0BEBCF84E00088452000887
:10117C00B3520008E2520008F152000830BFFFF7EA
:10118C00FDBF00BF114B124A2DE9F041D518DFF815
:10119C0044800746013DB5FBF3F55D430E4B08EB70
:1011AC000304013CB4FBF3F403FB04540E1B0B4986
:1011BC00304603F0ECFA7019083E4246002103F069
:1011CC00F4FA04F108003E67BDE8F081010000006C
:1011DC00000000000400000004000000184F00088C
:1011EC00044B99685869884203D003494FF08052E8
:1011FC000A6070475C03002404ED00E0F0B5444B3A
:10120C0085B00024074602930E462346012241492D
:10121C002046CDE9004402F071FE3F4B9B6ADB0493
:10122C0065D53E4B204601223A490094CDE9014355
:10123C00234602F063FE1720374B9B6A1D050AD527
:10124C00374B01223349029300231846CDE9003372
:10125C0002F054FE1820304DAB6A9C051FD50024BB
:10126C00304B01222B49204602932346CDE9004402
:10127C0002F044FEAB6BAA6A10040FD50393012253
:10128C00294B204623490094CDE90143234602F023
:10129C0035FE1FB1AB6A23F40043AB6219201E4B21
:1012AC009B6A59050AD5214B01221A490293002346
:1012BC001846CDE9003302F021FE1A20164A936A33
:1012CC0013F4807315D01A4B012212490293002398
:1012DC001846CDE9003302F011FE1B200E4A936A2A
:1012EC0043F47F4393620023337005B0F0BD1620A6
:1012FC00A2E7926A9204F1D50E4A1846054900936A
:10130C00CDE90132012202F0F9FD1C20E6E700BF15
:10131C001F530008F84E000800ED00E0355300089C
:10132C0046530008595300087253000887530008AD
:10133C00A2530008BA5300081FB50024374B0122F2
:10134C003749029320462346CDE9004402F0D6FDEE
:10135C00344B9B6A9A015ED5334B204601223049AF
:10136C000094CDE90143234602F0C8FD1E202D4B0D
:10137C009B6ADB010AD52D4B0122294902930023DC
:10138C001846CDE9003302F0B9FD1F20254B9B6AAE
:10139C001C030AD5264B012221490293002318462F
:1013AC00CDE9003302F0AAFD21201E4B9B6A5903A4
:1013BC000AD5204B01221A49029300231846CDE985
:1013CC00003302F09BFD2220164B9B6A9A030AD530
:1013DC00194B01221249029300231846CDE9003320
:1013EC0002F08CFD23200F4B9B6ADB030AD5134BB9
:1013FC0001220B49029300231846CDE9003302F079
:10140C007DFD2420074A936A6FEA03436FEA134376
:10141C00936204B010BD1D20A9E700BFE95300087A
:10142C00F84E000800ED00E00154000814540008C8
:10143C002E5400084C540008715400088B540008BA
:10144C002DE9F0434E4B85B000248046029389462B
:10145C00234616464B4901222046CDE9004402F0B2
:10146C004DFD494B9B6ADF0640D5484B2046009406
:10147C0001224449CDE901432346112402F03EFDEB
:10148C00414B9B6A1D070AD5414B122401223D4951
:10149C00029300231846CDE9003302F02FFD3A4D9C
:1014AC00AB6A980724D500243A4B364901220293A3
:1014BC0020462346CDE9004402F020FD6F6BAB6A59
:1014CC00190659D5344B01222E4920460397009416
:1014DC00CDE90143234602F011FDB9F1000F03D011
:1014EC00AB6A23F08003AB62132403E01024C7E73C
:1014FC006FF01507244B9B6ADA070AD5274B142487
:10150C0001222049029300231846CDE9003302F052
:10151C00F5FC1D4B9B6A9B060AD5214B1524012219
:10152C001849029300231846CDE9003302F0E6FC7B
:10153C00154B9A6AD50602D49A6A90070AD55B684D
:10154C00190507D54146384600F02AFA10B180F348
:10155C00098802240C4B9A6A920603D55A6A22F423
:10156C0000525A629A6A204642F0FF029A620023A5
:10157C00337005B0BDE8F0836FF01507B4E700BF1A
:10158C00B6540008F84E000800ED00E0CC540008FA
:10159C0046530008FF540008175500082D55000845
:1015AC00BA530008774B2DE9F0415F6890B00446C0
:1015BC000023C7F3080683F31188BFF36F8F02F083
:1015CC007F40B0F17F4F0CD102F00C00082819D1EC
:1015DC006D4A18466D490093CDE90132012202F0A3
:1015EC008DFC00252C464FF00008F31E8DF81F8053
:1015FC00092B00F2AD80DFE803F00BA1A59DABAB8E
:10160C00ABABABA9120746BF0C461D460125EAE75A
:10161C005F4B01225D495B4FCDF80080CDE9018322
:10162C000023184602F06AFC8DF81F80FE6A16F043
:10163C00020605D0574BCDF80080CDE9018306E0BA
:10164C00FB6A002B0BDA544B0096CDE901630023A7
:10165C0001224E49184602F051FC00223BE0FB6A85
:10166C005B00FAD54D4B0122484930460096CDE936
:10167C000163334602F042FC7B69A26943F4807338
:10168C007B61BFF34F8FBFF36F8F7B6932F8022CF6
:10169C0023F480737B61BFF34F8FBFF36F8F4DF6D5
:1016AC0002739A420AD0BB6ADBB2002B34D00DF124
:1016BC001F0201212046FFF7C3FE3DE023680122F3
:1016CC00324930460393364B0096CDE901633346DD
:1016DC0002F014FC22689DF81F30D3B908AE04F157
:1016EC0020072068083454F8041C3346BC4203C35A
:1016FC001E46F6D10F9B002D3FD0C3F3080121B934
:10170C006FEA53236FEA43230F9308A91046FFF7A0
:10171C00E5FC10B0BDE8F081BB6A13F47F4F05D037
:10172C000DF11F010120FFF769FD05E0BB6AB3F560
:10173C00803F92D3FFF700FE0246CCE70DF11F026B
:10174C000021B7E70DF11F010020ECE7154B72E704
:10175C0017F4F87F144A154BA6F1100618BF134660
:10176C000A490122CDE90336114B02930023184696
:10177C00CDE9003302F0C2FB6FE723F4FF7323F0D3
:10178C000103C1E700ED00E07A550008F84E0008AF
:10179C00A5550008BC550008DD550008EB550008A0
:1017AC000A56000826560008615500084C550008DA
:1017BC004A560008024A536943F0100353617047BC
:1017CC0000ED00E0EFF30880EFF3098101B57246FC
:1017DC00FFF7E8FE01BD00BF102080F31188084818
:1017EC004FF40461401880F30988EFF31480022150
:1017FC00084380F31488BFF36F8F00F097F8000054
:10180C00C0030024084B9B6883420BD1EFF3058384
:10181C0043B1064B5A6842F080525A605A6A22F41D
:10182C0000425A6202F04EBF5C03002400ED00E05F
:10183C00094A6FF00A0193689967084958674B6821
:10184C0043F080534B60002383F31188BFF36F8FF9
:10185C009368986F704700BF5C03002400ED00E0B4
:10186C0015498A684FF030001044EFF3098C80E87A
:10187C00F01F102080F31288BFF36F8F0F4F4FF0C3
:10188C0000664A698A603E604FF070041419206843
:10189C000B4C2060506F0023536780F3118804B504
:1018AC00104600F0EFF8BDE8044002F1300090E87B
:1018BC00F01F8CF3098870475C03002404ED00E0F2
:1018CC00F80100241EF0040F0CBFEFF30880EFF3B7
:1018DC000980816911F8021C0229FFD001B502F0C0
:1018EC0002FB01BD00B2002807DB0123410900F017
:1018FC001F00024A834042F82130704700E100E0AB
:10190C0000B2013100284FEA0111C9B206DB00F127
:10191C00604000F5614080F80013704700F00F0044
:10192C00014B1954704700BF14ED00E00F4A08B585
:10193C0022F07F020E4B9A60BFF34F8FBFF36F8F75
:10194C00D3F8882022F47002C3F88820EFF31483B4
:10195C0023F0040383F31488BFF36F8F01F068F94D
:10196C0001F02EFD00F062F801F0B4F9000000085F
:10197C0000ED00E042F8203C203A009B0749536000
:10198C00019B21F001019360029B9161D3604FF0A8
:10199C008073D3610023026543677047AD0900086B
:1019AC00094A0346906870B113F1160F006E05D00A
:1019BC00A0F140029A4205D8834203D2814228BF4B
:1019CC0000207047002070475C03002414460B4A2B
:1019DC000D4608B50A4B9060026F1A6000F052F881
:1019EC00204685F30988002163B681F31188BFF383
:1019FC006F8F00220023FEF7D3FF00BF5C0300248F
:101A0C00F8010024014910220A60704710ED00E033
:101A1C0072B6404080F31188BFF36F8FBFF34F8FC6
:101A2C0030BF62B6BFF36F8F704700BF002304480E
:101A3C001021C2180133A32B82F80013F9D170477F
:101A4C0000E100E001B5EFF30580A0F110004FEAD2
:101A5C00C0000449014409C99847BDE80140024946
:101A6C0008470000B0490008ED110008024B0121A5
:101A7C00024A034800F090B800000524000000243E
:101A8C00CC4F0008026E4021044B403A18461A60B5
:101A9C00034AC3E90112012100F088B8FC010024BB
:101AAC0000000B150F281FB50FD9104B0122039006
:101ABC00029300230E491846CDE9003302F042FA96
:101ACC006FF0150005B05DF804FB0A4AC2F89800E7
:101ADC000B6823F01F03034343F01003C2F89C3040
:101AEC008B6843F00103C2F8A030EBE761560008A5
:101AFC00F04E000800ED00E0F0B50E4689B01F4630
:101B0C0004460025B54212DA606838B3BFB1431EF3
:101B1C0018420FD0134B0122134902930023039553
:101B2C001846CDE9003302F00DFA6FF0150210469D
:101B3C0009B0F0BD1F28EDD921680B42EAD123680A
:101B4C0005A9059302F0EEF9A3680343D0B20793FD
:101B5C00FFF7A8FF10F1160FE7D0421C01350C342B
:101B6C00D0E700BF87560008F04E0008044B052252
:101B7C00C3F89420BFF34F8FBFF36F8F704700BF34
:101B8C0000ED00E0BFF35F8F024B0022C3F89420FE
:101B9C00704700BF00ED00E010B5034C0123227824
:101BAC00FFF7AAFF207010BD8E030024094A08B568
:101BBC0000231278FFF7A0FF10F1160F03D0064B8D
:101BCC0000220F2800DD08BDC3F898000130C3F8CF
:101BDC00A020F6E78E03002400ED00E052490868CF
:101BEC001028F0B589B000F29B80FFF7CBFF4F4C6B
:101BFC0049680022904201F10C010DD14C4D00249A
:101C0C004C4F287004A8FFF763FA0646A64216D17B
:101C1C000020FFF7ABFF32E0C4F8982051F80C3CE1
:101C2C0023F01F031343013243F01003C4F89C301C
:101C3C0051F8043C43F00103C4F8A030DAE70498EF
:101C4C004FEA041C00EB0411CB683B40B3F5000FCA
:101C5C0054D016D8B3F5001F3AD0B3F5800F42D04C
:101C6C00B3F5801F1CD0344B01223449029300235E
:101C7C001846CDE9003302F065F96FF0150009B094
:101C8C00F0BDB3F1807F42D0B3F1007FEBD150F8BF
:101C9C000C30886802F046F94A6840F4802009E06C
:101CAC0050F80C30886802F03DF940F088504A68D2
:101CBC0040F43020079005A92878CDE90523FFF7DB
:101CCC00F1FE0028D9DB2B78013401332B709DE712
:101CDC0050F80C30886802F025F940F088504A68BA
:101CEC0040F40020E6E750F80C30886802F01AF94E
:101CFC0040F0E0604A6840F40030DBE750F80C300C
:101D0C00886802F00FF94A6840F08270D2E750F808
:101D1C000C30886802F006F94A6840F08870C9E710
:101D2C004FF0FF30ABE700BF204F000800ED00E0A4
:101D3C008E0300240000F0FFAA560008F04E0008A5
:101D4C0008B5024B1B689847002008BD0802002408
:101D5C00034B044A1860937843F002039370704766
:101D6C000802002410000024F0B587B007460E4688
:101D7C0014460021102268461D4602F016FD02236F
:101D8C002A4621468DF802306846044BCDE904768C
:101D9C00019301F077FC07B0F0BD00BF713F000864
:101DAC000649074821F00701C1F1105208B502F5A8
:101DBC00A02201F079FF002008BD00BFC71100244C
:101DCC000C0200242DE9F041054600244FF00108D7
:101DDC004FF0B0460E4F2B7853FA84F01F280FDCCF
:101DEC0008FA00F3D6F8882033EA020208D1C6F8C4
:101DFC00883057F830301BB107EBC0025168984758
:101E0C0001346A78E3B29A42E5D2BDE8F08100BFB2
:101E1C0018020024044B03EB40000023013320F88C
:101E2C00022B9942FADC704758000024084B0246FA
:101E3C004FF0B04110B433F910000123D1F88040B9
:101E4C0093402343C1F8803010BCFFF74BBD00BF5B
:101E5C00580000240A4B30B553F830408C4204D162
:101E6C0003EBC0056D68954205D034B943F83010CA
:101E7C0003EBC0035A60002030BD6FF00F00FBE78E
:101E8C0018020024034B002243F8302003EBC0035C
:101E9C005A607047180200240968154BF4291B6816
:101EAC0007D8D72908D8102919D0D4290FD00B2935
:101EBC000FD06FF0850070470120D83900FA01F17E
:101ECC000C48014209D140F211100142F1D05B08DB
:101EDC0000E000230020136070479B08FAE7064BD4
:101EEC001B6913F0380F054B18BF0023EFE700BF39
:101EFC004C000024001011110044025800127A000A
:101F0C00414B13B5D3F8E02042F00072C3F8E02047
:101F1C00D3F8E02002F000720192019A1A6842F0A4
:101F2C0001021A601A685107FCD51A6822F01802CF
:101F3C001A609A6A42F003029A62344BDA6822F011
:101F4C00070242F00202DA609A6922F440429A6176
:101F5C009A699204FCD52C4C2D48236913F0380F48
:101F6C0002D000F0DDFC0020A36923F47063A361B0
:101F7C00A36923F00F0343F00803A361E36923F083
:101F8C00700343F04003E361E36923F4E06343F43B
:101F9C008063E361A36923F0700343F04003A36102
:101FAC00236A23F0700343F04003236223685B072A
:101FBC0007D42368144A43F00103236013685907BC
:101FCC00FCD5114B1A6922F007021A611A6912F03A
:101FDC00380FFBD10E4B984201D100F0A1FC0B4BFA
:101FEC00DA6822F0070242F00202DA609A6922F4FF
:101FFC0040429A619A699204FCD5064B0020064A2D
:10200C001A6002B010BD00BF0044025800480258CC
:10201C0000093D004C00002400127A0008B5074866
:10202C0002F0A1FA38B10648FFF792FE0448FEF719
:10203C00B1FC002008BD6FF01200FBE79C490008C2
:10204C00512000080A2838B50446074D04D1AB6866
:10205C000D2128465B689847AB68E1B202485B6883
:10206C009847204638BD00BF9C49000838B5036925
:10207C0004465860084D284602F075FA40B1616874
:10208C002846AB680C311B68984700EAE07038BDF5
:10209C006FF01200FBE700BF84480008F7B5174645
:1020AC000C461D464668B7F5001F026928D101F0A1
:1020BC0003030F2204339B009A4042EA91023749F2
:1020CC0002F00303023351F82310130C93FAA3F319
:1020DC00B3FA83F301EA124203F01F0322FA03F36B
:1020EC00B2689A4209D1204601F090FF2046FFF7D2
:1020FC00C9FE0021204601F096FF002003B0F0BD80
:10210C00B7F5800F44D026492046FFF7A3FE0028E0
:10211C0041D1244A6B46B66892E8030083E8030079
:10212C0021481946826812689047D8B904F0030315
:10213C000F2104339B00994041EA940101F0030301
:10214C000A0C92FAA2F29B00B2FA82F203F1B043AB
:10215C0002F01F02D3F80804964020EA11410E4306
:10216C00C3F80864B5F1806F0ED0B5F1C06F0DD017
:10217C0005F17E43594259414900204601F053FF75
:10218C002046FFF753FEB8E70121F6E70321F4E7F9
:10219C006FF08500B2E76FF00F00AFE70004005856
:1021AC00DF420008184F0008844800082DE9F0476A
:1021BC00044600EBC10600251C4FB44201D100209F
:1021CC0014E02068C30600F01F0911D4656845F0BF
:1021DC002005C0F3471AC0F343200A2823D857F828
:1021EC002080B8F1000F0DD16FF01200BDE8F08720
:1021FC00B9F1100F04D0B9F1110FEAD16568E8E715
:10220C003025E6E7404602F0AEF90028ECD04B460C
:10221C002A460AF00F01404602F072F8002804F139
:10222C000804CADAE2E76FF01500DFE7D8500008BF
:10223C0030B503690C46456887B01868E96883684F
:10224C00DB685BB90F4B01220F4902930023184640
:10225C00CDE9003302F0FEF807B030BD05AA98476F
:10226C000028EFDB2A68136823F400431360002C6A
:10227C00F2D0059B2A6803EB5403B3FBF4F39BB237
:10228C00D360E9E7B0570008004F0008F8B50C46DA
:10229C00036941685D682379012B15D09F1E7E422E
:1022AC007E41B6026279022A96BF444F4FF4005722
:1022BC0037F81270A279022A09D0042A2FD0003BD9
:1022CC0018BF01231B0306E04FF4C066EAE7B3FA1C
:1022DC0083F35B091B07E2790968012A14BF4FF0ED
:1022EC00000C4FF4407CA5421CD10A6822F08052AD
:1022FC0022F4B05232431A430A604B6823F4405321
:10230C003B434B6043681A68936823F4407343EA79
:10231C000C0393602968BDE8F840FFF789BF4FF4C0
:10232C008053D8E7D1F800E00EF4C06E764506D0A5
:10233C00D1F800E02EF4C06E4EEA06060E6041683D
:10234C000E68716801F440518F4204D0716821F419
:10235C0040513943716041680E68316801F01021B9
:10236C008B4204D0316821F010210B433360436859
:10237C0019688B6803F440739C4505D08B6823F473
:10238C00407343EA0C038B6043681B6899684904EB
:10239C0005D5032A09D09A6822F4804204E0032A66
:1023AC0003D19A6842F480429A6021682B68994262
:1023BC0003D0FFF73DFF23682B60F8BDA051000848
:1023CC0070B505464668046986B06E48206002F018
:1023DC00CAF8034660B96C4A6FF012046B4900935B
:1023EC00CDE90132012202F035F8204606B070BD6D
:1023FC002068F16883681B6898470446E8B905AA09
:10240C000021F06901F094FF041EEEDB059B002215
:10241C0019791868FFF7CAFE041EE6DB6C682B6995
:10242C0022685E68136823F001031360606802F091
:10243C009AF8034670B9564ACEE7564B01225349D7
:10244C00029300231846CDE9003302F003F8002C68
:10245C00CBDBD4E7D4E901018368DB6803B198478F
:10246C00226852E8003F43F00C0342E80031002997
:10247C00F7D131462846FFF709FF237D23B12268A7
:10248C00936843F008039360637D23B1226853681B
:10249C0043F400435360A37D23B12268536843F493
:1024AC0080335360E37D23B12268536843F40033D7
:1024BC005360227E2368002A55D0374A934235D088
:1024CC00A2F54C42934231D002F5806293422DD05A
:1024DC0002F58062934229D002F58062934225D0A6
:1024EC0002F54442934221D0A2F51C4293421DD0E6
:1024FC0002F58062934219D002F51C42934215D02A
:10250C0002F58062934211D0244A93420ED02B687C
:10251C0001221E496FF015040393214B02930023F3
:10252C001846CDE9003301F095FF5EE76B681A6839
:10253C00936843F4804393602268617E136823F0B0
:10254C00787343EA415313602268A17E136823F425
:10255C00F81343EA01431360E37E23B122689368C6
:10256C0043F4004393602268136843F00103136043
:10257C002368DA699102FCD5DA695202FCD5002491
:10258C0033E700BF84480008DE570008004F0008FE
:10259C001D580008FD57000800100140000C0058A1
:1025AC0038580008F8B50246036946680C460879A5
:1025BC005D68012891F805E08B7922D1BEF1020FFC
:1025CC0040F28480022B1F464FF4C0614FF4005C34
:1025DC0000F09680042B00F08D8028B1C31E012BD7
:1025EC0040F28B804FF48050BCF5805F00F09280FD
:1025FC00BCF5405F00F09080BCF1000F1CD10123B2
:10260C001BE002280AD1BEF1020F6CD9022B1F4627
:10261C004FF480610BD04FF4005CDBE7BEF1020F8E
:10262C0064D9022B1F4663D100286FD00021C31E32
:10263C00012B62D900200227032373455DD101F0E1
:10264C00C3FEB84259D1E37963B3012B66D1336829
:10265C0034498B4226D0A1F54C418B4222D001F556
:10266C0080618B421ED001F580618B421AD001F53E
:10267C0080618B4216D001F544418B4212D0A1F5FA
:10268C001C418B420ED001F580618B420AD001F5C2
:10269C001C418B4206D001F580618B4202D022494D
:1026AC008B422AD1316810460B6823F001030B6072
:1026BC002146FFF7EBFD3268136843F0010313600A
:1026CC0094E8030085E803000020F8BD4FF4C061D6
:1026DC00164F022B37F81EC01F467FF47BAF78B91C
:1026EC004FF0805080E74FF48061F1E70021EFE775
:1026FC00002190E700283FF475AF6FF08500E4E708
:10270C00C31E012BF9D9022700206DE701464FF0BB
:10271C00805091E7002390E702238EE7032B96D09D
:10272C00EBE700BF00100140000C0058A05100085E
:10273C004FF0E0230F4910B59C691A6908689B6932
:10274C0002F480320C4934B993B903464AB90A6889
:10275C001044C01A10BD002B08BF03460AB9A3428F
:10276C00F5D90A6802440A604FF0E0221269EEE7DC
:10277C000446F3E754030024480300240A4B1022B8
:10278C00002083F823204FF44872084B1A6040F263
:10279C001F32074B18604FF0E0235A6198611A6999
:1027AC0042F007021A61704700ED00E05403002468
:1027BC004803002408B5FFF7BBFF0C4B0C4A186804
:1027CC00116808444FF44871106000221A60094ADD
:1027DC001368C01AB0FBF1F001FB0033136000F07A
:1027EC00C5FEBDE80840FEF7FBBC00BF4803002453
:1027FC00500300244C030024F8B5314F81B1421C26
:10280C0009D14FF0E022136923F0010313614FF05B
:10281C007F433B60F8BD3D68012806DC00240AE0DC
:10282C00431C3D68F8D145F2EA1045F2EB1398428F
:10283C00A8BF1846441E4FF01003EFF3118683F324
:10284C001288BFF36F8FFFF773FF4FF0E023DFF8B1
:10285C0074C000229969DCF8003018441A4B1A60D5
:10286C001A4B1A68831A28D44FF4487E0EFB043492
:10287C00131A174A04F21F34B4FBFEF40EFB043394
:10288C00B3F5806F38BF4FF48063934228BF134673
:10289C003B604FF0E022013B946953610023A1425D
:1028AC009361A1EB040338BF5B191844CCF800000A
:1028BC0086F31188BFF36F8FACE74FF48063E7E7C3
:1028CC005403002450030024480300244C03002428
:1028DC0040FBFF0038B54FF01003EFF3118583F385
:1028EC001288BFF36F8F084B1C68084B1B68E41AE7
:1028FC00FFF71EFF85F31188BFF36F8F4FF44873FA
:10290C002044B0FBF3F038BD500300244C030024EA
:10291C00024A536843F00203536070470010005C96
:10292C00024610B578B14F498B6913F440433FD13F
:10293C004D484E4C1044A04207D28B6903F44043DF
:10294C00B3F5404F51D101207CE04948494C10442B
:10295C00A04246D948481044A04244D94748824234
:10296C00886900F4404007D9B0F5404FEBD0896935
:10297C00012001F440414CE0B0F5404F45D1404BB3
:10298C001344404A93428CBF002301233E490A68FA
:10299C0022F00F021A430A600A6802F00F029A42F0
:1029AC005ED0086800F00F00C01A18BF012049E083
:1029BC0000232C48816901F44041B1F5404F2BD1E3
:1029CC00324933481144814246D92D49A0F574202F
:1029DC001144A0F51070814240D92E498A42D5D9B4
:1029EC00B1E70223E5E70123E3E78B69002003F459
:1029FC004043B3F5004F4FF0030319D02649274C41
:102A0C001144A14226D9264918E08969184601F4D7
:102A1C004041B1F5004FF0E7816901F44041B1F557
:102A2C00004F10D11F4920481144814214D9002075
:102A3C001E491D4C1144A1420CD91D498A4282D811
:102A4C000028A3D010BD0C491A481144814203D36D
:102A5C000020D3E70123F3E7022397E7012395E74F
:102A6C001846A1E7004802587FA77BF340D2DF034A
:102A7C00FFC4A7F77F1D2C047FE2D3FB801D2C0421
:102A8C003FA901FC7F14EF0300200052BF9412F801
:102A9C00BF56FE03C056FE033FF1E9FDBF0E160202
:102AAC00C00E1602FF1E0AFA7FF0FA027F0F05FD18
:102ABC0080F0FA02C0E1E4001FB50446FEF78CF882
:102ACC00064B01220649029300231846CDE9003338
:102ADC0001F054FD204601F061FD00BF755800085F
:102AEC00F84E00082DE9F041054686B00E464FF031
:102AFC001003EFF3118883F31288BFF36F8F042850
:102B0C00244A4FF00004244998BF244B976898BF7F
:102B1C0053F82030127C88BF214B03902046CDE91E
:102B2C000432204B012202932346CDE9004401F0EC
:102B3C0025FD6EB1F369C3F308034BB11A4B0122A7
:102B4C00154920460094CDE90143234601F016FDBA
:102B5C002FB1384601F02FFD08B1037803B91348A3
:102B6C00134B01220C4902930023CDE90370CDE9EC
:102B7C000033184601F002FD31462846FFF79CFF52
:102B8C0088F31188BFF36F8F384606B0BDE8F0416B
:102B9C00FEF738BE5C030024F84E000874510008A0
:102BAC00845800089A580008C25800089258000827
:102BBC00E3580008104B70B553F82040013053F81F
:102BCC002060A64200D870BDD4E9003595B153B150
:102BDC002846984738B10028EB68B8BF4042FF2818
:102BEC00A8BFFF201870EA68537843F001035370B4
:102BFC000834E6E79847FBE78851000801220320D8
:102C0C0008B5094B1A70FFF7D5FF00F035FD04200D
:102C1C00FFF7D0FF00F008F9FDF7D6FC034A137B51
:102C2C0023F00103137308BD8F030024200100243B
:102C3C0003480021034A08B5121A01F0B8FC08BD7C
:102C4C00A00000249403002470B5002386B0012258
:102C5C001A4E019304461A4D06EBC0161949CDE9DC
:102C6C0004230F22CDE9023214234FF4A07203FB8C
:102C7C0000554FF4C070144B00FB04113046009506
:102C8C0000F092F8737B114A23F00403EE602C746D
:102C9C0073734FF4046304FB033313446B60BFF38F
:102CAC005B8F0B4B53E8001F013143E80012002AE5
:102CBC00F8D1BFF35B8F06B070BD00BFA00000243D
:102CCC005C030024000C0024C7450008C00300244A
:102CDC005803002480B50020A6B0FFF76BFF2B4BE8
:102CEC0083F308882A4D0024F0232A4E2A4F85F8B6
:102CFC002230EC772C766C76AC7685F820406B6ABB
:102D0C0043F4E0236B62FEF755FDFEF77BFE4FF0BC
:102D1C00FF33AB62EB62FEF761FF204DFEF7A6FEC0
:102D2C00FDF746FF40F201132194ADF8243006ABB9
:102D3C00CDE91E44B36001F015FC0120FFF73AFF0A
:102D4C000220FFF737FF00F093FA154B75614FF433
:102D5C00806205930123134928460094CDE903436F
:102D6C00CDE901443B4600F01FF86A7B0646284635
:102D7C0022F004026A7301F03EFC2046FFF764FF68
:102D8C003A4631462846FEF721FE00BF000C0024CF
:102D9C0000ED00E05C030024092C00082001002455
:102DAC0045590008800D00242DE9F043073285B009
:102DBC00994600F1580322F007060027884604467E
:102DCC0006F140058760C7730D44C0E91633109BAC
:102DDC0029460373042343730F9BC0E9067783735F
:102DEC00FEF7D0F908F1400307304146C4E9183624
:102DFC0020F007000E9BA0662D1A029320460D9B17
:102E0C002A4601930C9B00934B46FEF7B3FD054BF2
:102E1C0067659B6803B1DB6E2846E36605B0BDE8C9
:102E2C00F08300BF5C03002470B5214C86B0214DAB
:102E3C0026463034AE420AD31D4C00F0E9F91E4E42
:102E4C00AC4220D306B0BDE8704000F0F5B954F8A0
:102E5C000C3C059354F8103C049354F8143C039325
:102E6C0054F8183C029354F81C3C019354F8203C41
:102E7C00009354E90A2354E90C01FFF795FF54F829
:102E8C00303C5E65D4E7D4E90A23B3F1FF3F08BFB9
:102E9C00B2F1FF3F05D052EA0301206803D100F0E4
:102EAC0099F93034CCE73146183000F0E9FAF8E7FC
:102EBC00C84E0008C84E00089D460008C3897F2BE9
:102ECC0012D80A4B1B6863B1094B90F90E201B6892
:102EDC009A4209DB437BDB0606D1064BC31A18BFAB
:102EEC00012303F0010070470023FAE78403002458
:102EFC0080030024A0000024044B0122C01A044BC0
:102F0C00C0105843034B1A54704700BFA001002453
:102F1C00ABAAAAAA900300240E4B70B51E7C0546E2
:102F2C000D4C06EB460304EBC304204601F0EBFB0F
:102F3C000A4B002228469A55FFF7C0FF48B1084BB0
:102F4C00204608491A68013ABDE87040D31700F0D2
:102F5C0097BA70BD5C030024A001002490030024E8
:102F6C0084030024052F000838B50D4D2B4653F86B
:102F7C00184F9C4200D004B9EC68AB6838B95A7B46
:102F8C00D20604D1A26912B9DA897F2A05D89C42EB
:102F9C0002D02046FFF7C0FF23466B6138BD00BF4F
:102FAC005C03002470B590F90D200146437B002A88
:102FBC0004DA03F07F03437301F00BFB4B7B154AE0
:102FCC0063F07F0310464B7350F8183FD46983426B
:102FDC0008BF002323B9C1E900042160D1610CE0D2
:102FEC0091F90E5093F90E60B5420ED0AE420CDD45
:102FFC005868C1E90030016059609068431A584222
:10300C00BDE870405841FFF7AFBF9C42E3D01B684E
:10301C00E0E700BF5C03002470B490F90D30427BF4
:10302C00002B29DBD30627D183692BBB62F07F02EF
:10303C00124942730A4652F8184F944218BF23465D
:10304C00CC6923B9C0E900242060C8610CE090F978
:10305C000E5093F90E60B5420AD0AE4208DD5A68A4
:10306C00C0E9003210605860002070BCFFF77CBFD4
:10307C00A342E7D01B68E4E770BC70475C030024F4
:10308C0008B590F90D200146437B002A04DA03F0C1
:10309C007F03437301F09DFA044B9868431A58421E
:1030AC005841BDE80840FFF75FBF00BF5C03002438
:1030BC00002A2DE9F0410E46437B0CBF102108215C
:1030CC00044619420AD10B43DD0903F09F0211D1CA
:1030DC004273082914D00120FFF746FF1B4B9B6855
:1030EC00A3422CD1EFF305834BBB3046BDE8F04136
:1030FC00FEF79EBB03F01F03437301F06AFAE8E787
:10310C00A36813B1204601F06CFA04F158074FF094
:10311C00000804F1180001F0F6FAA56DBD42DAD0F2
:10312C00002DD8D0284601F05CFA05F1180001F00A
:10313C00EAFA2846C5F87880FFF76EFFEDE786F3CC
:10314C001188BFF36F8FBDE8F08100BF5C030024D2
:10315C0038B54FF01003EFF3118583F31288BFF3EA
:10316C006F8F104B104A9C681068A04206D1FFF775
:10317C00D3FE85F31188BFF36F8F38BD00211B7C04
:10318C0011600A4AD35C002BF3D02046FFF796FE61
:10319C000028EED0637BDB0602D12046FFF702FF4E
:1031AC002046E4E75C0300247C0300249003002405
:1031BC0049B9EFF3058030B9054B5A699B689A42BF
:1031CC0001D0FEF735BB81F31188BFF36F8F7047C9
:1031DC005C03002410B54FF01002EFF3118482F35E
:1031EC001288BFF36F8F427B510704D484F311888C
:1031FC00BFF36F8F10BD22F004024273FFF70CFF78
:10320C0021460248BDE81040FFF7D2BF91030024CD
:10321C004FF01003EFF3118183F31288BFF36F8F1C
:10322C00044B9A68D37B013BD37381F31188BFF3B2
:10323C006F8F70475C03002410B54FF01003EFF351
:10324C00118483F31288BFF36F8F084B00209A68A8
:10325C00D37B0133D373FFF787FE84F31188BFF35D
:10326C006F8FBDE8104001F023BA00BF5C0300244F
:10327C00024B03F11802C3E9062270475C030024D9
:10328C00F8B54FF01003EFF3118583F31288BFF3F9
:10329C006F8F19498868437B03F07F03437301F0F8
:1032AC0098F98B6808465A7B62F07F025A7350F883
:1032BC00182FCC69824208BF002222B9C3E900044E
:1032CC002360CB610CE093F90E6092F90E70BE4254
:1032DC000ED0B7420CDD5168C3E900210B6053607E
:1032EC000120FFF741FE2846BDE8F840FEF7A0BAE2
:1032FC00A242E3D01268E0E75C03002450EA010329
:10330C002DE9F04105460E4603D1FFF7B9FF002029
:10331C002CE0831C71F1FF332ADB01F00AFA2C1824
:10332C004FF01003EFF3118883F31288BFF36F8F04
:10333C00114F124BB8681860FFF7A2FEB8682A4606
:10334C000F493346183000F09BF8BA684046537B5F
:10335C0043F010035373FEF76BFA01F0EAF9201AED
:10336C0063EB0303012873F10003D0DBBDE8F081AC
:10337C006FF00104241AD3E75C0300247C030024BF
:10338C009D460008B1F1FF3F08BFB0F1FF3F08B503
:10339C0006D1074B986801F03EF94FF0FF3008BD9D
:1033AC00FFF7ACFF0A220023C117FCF789FFF6E7F1
:1033BC005C030024014B9868704700BF5C03002439
:1033CC000648074A0749121A08B501F0F2F8064AEE
:1033DC0006490748BDE8084001F0EBB8000000249E
:1033EC009C000024A05A000800000000A05A00080D
:1033FC0000000024034B1B680BB9FFF76BBA0020CD
:10340C00704700BF880300240E4B10B51C689C420B
:10341C0004D1FFF7EFFF6FF0004010BDFFF7EAFF9C
:10342C00002CF8D0D4E904321B1A62EBE072B3F131
:10343C00004F72F10001EEDA002AACBF18460020F2
:10344C00EBE700BF5000002430B570B10B4B5B684C
:10345C0098420AD0036843B1D3E90421D0E904456A
:10346C00121941EB0501C3E90421D0E900321360C4
:10347C005A600023C0E9003330BD00BF5000002467
:10348C00B3F1FF3F08BFB2F1FF3FF8B504461D464C
:10349C0016465CD081604FF01003EFF3118783F375
:1034AC001288BFF36F8F013275F1FF3324DA2D4987
:1034BC006FF00103D1E900209B1A4FF0FF3262EB51
:1034CC0000009E1B60EB0500012E70F1000301DA79
:1034DC0001260020C4E90460234ED6F800C07568AC
:1034EC00B44508BF4FF0000CBCF1000F0DD1C4E97E
:1034FC0000652C6074601CE0FFF77CFF013645F121
:10350C000005361845EBE070E4E7DCE90420D4E96B
:10351C000431934271EB000E1ADAD21ADCF8043043
:10352C0060EB0100CCE90420C4E900C31C60CCF8BA
:10353C0004403368B34206D09C4204D1FFF764FFC9
:10354C000021FFF759F987F31188BFF36F8FF8BD8E
:10355C009B1A61EB0001AC45C4E90431C7D0DCF81F
:10356C0000C0C1E7B8010024500000242DE9F84F39
:10357C004FF01003EFF3118C83F31288BFF36F8FAE
:10358C00DFF8B4A00024DFF8B49000252C4FC9F864
:10359C000000DAF80000504508BF0020D9F80030D0
:1035AC00E046D7E9002180B34FEAE37ED0E9046C12
:1035BC00B3427EEB0C0B05DAF61A6CEB0E04C0E989
:1035CC00046422E0B21841EBE671C0E90445C7E996
:1035DC000021FFF739FF88F31188BFF36F8F8368E1
:1035EC0098474FF01003EFF3118883F31288BFF361
:1035FC006F8FD9F80030C446DAF800009B1B504599
:10360C00C9F80030CAD1D7E900219A184FF000044C
:10361C0041EBE373C9F80040C7E90023FFF7F4FE60
:10362C002146FFF7E9F888F31188BFF36F8FBDE8E7
:10363C00F84FFFF78DBD00BF500000248803002415
:10364C00B801002410B54FF01003EFF3118483F38D
:10365C001288BFF36F8FFFF7CDFE064A0346D2E9FF
:10366C000001181841EBE37184F31188BFF36F8FDD
:10367C0010BD00BFB8010024014800F07FBA00BFA4
:10368C004D5900082DE9F04F8BB0436801938378B6
:10369C009F078246144640F10981002591F800806D
:1036AC00B8F1000F00F00481B8F1250F0BD04B1CC2
:1036BC0002930135019B5146404698470028C0F2C1
:1036CC00F5800299EAE791F801808B1CB8F1250F7F
:1036DC000293EED0002399461F461F2F39D8A8F12C
:1036EC002002102A0AD8DFE802F02B090931090957
:1036FC00092109090929092E09091F00A8F130021D
:10370C00092A32D9B8F12A0F35D1780654F8042B8E
:10371C0000F18180002AA7BF47F020079146C2F133
:10372C00000947F0280701E047F00107029A12F858
:10373C00018B0292B8F1000FCFD132E047F00207B3
:10374C0047F00407F2E747F00807EFE747F01007E8
:10375C00ECE77F2F18D8A8F13002092AD2D87E06C0
:10376C0003D50A2101FB0323E0E70A2101FB092908
:10377C0047F02007DAE7B8F12E0F05D1790600F1F2
:10378C00978047F04007D1E7B8F16C0F32D02AD8B8
:10379C00B8F1680F35D0B8F16A0F39D0B8F14C0FC9
:1037AC0036D0002B48F02002B8BF27F04007A2F11A
:1037BC006501BCBFBFB20023022901D9612A2CD1FB
:1037CC00073424F007049A4E08344FF007083807E2
:1037DC0063D506EB080B37465F4560D1AE1B37440B
:1037EC00A9EB080954E1B8F1740F9FD0B8F17A0F26
:1037FC009CD0D6E73A0648BF47F4007747F08007DD
:10380C0094E7FE0548BF47F4007747F480778DE7CF
:10381C0047F420778AE7134688E7A8F16301122959
:10382C0000F2CF80DFE811F013004800CD00CD008E
:10383C00CD00CD004800CD00CD00CD00CD00CD0099
:10384C00DF00C700CD00CD001B00CD00960054F862
:10385C00043B8DF81C304FF0010807AEB7E754F865
:10386C00046B744A002E08BF164617F0400F14BFA5
:10387C0019464FF0FF31304600F061FF8046A6E755
:10388C00019B51462020984700280FDB013FB8458B
:10389C00F6D34D44ED1BB9469BE74F46F7E717F8B7
:1038AC00010B019B51469847002895DA4FF0FF35E4
:1038BC0028460BB0BDE8F08F390637D5BA0545BFA1
:1038CC00073424F0070454F8040B54F8080B27F0C1
:1038DC0010060028B6B232DA404246F480660393F2
:1038EC0007AF0A22394600F036FF7206039BA0EBA5
:1038FC0007074BD526F00101BB4289B240F38A8001
:10390C00B8F1000F00F0828016F01002039240F024
:10391C0083809B460E4640F2064116EA0102039252
:10392C001EBF00220BF1010B039238E0FE0554F888
:10393C00040BCCD5B9054CBF40B200B2C7E7CED111
:10394C007A06CCD5002BCAD127F01107BEB21F4680
:10395C009B46E0E727F01007BFB20A223E0646D589
:10396C00B80545BF073424F0070454F8040B54F889
:10397C00080B002844D127F016067906B6B242D5BA
:10398C00002B40D127F01707BEB21F4616F01002CD
:10399C0003924AD0B8F1000F45D107F1010B310762
:1039AC005CD4F20705D5D94575DDA9EB0B02D3190B
:1039BC00CB465A464CE047F0100710224FF07808DF
:1039CC00CCE7782A06D1B8F1580F14BF10224FF467
:1039DC000472C3E7019B5146252098470028FFF647
:1039EC0065AF023566E608224FF00008B6E7F90528
:1039FC0054F8040BBDD5BE054CBFC0B280B2B8E7BD
:103A0C0027F00607BEB2039307AF6BE726F011064B
:103A1C00B6B29DE70E46B9E738460E461F4607F18B
:103A2C00020B0746BBE73846F9E7BB4673E700BF16
:103A3C00975A0008905A0008CDE904325146019B70
:103A4C00202098470028FFF631AF059A049B0132DD
:103A5C009145F1DCA5EB0B018D189346039A32B31B
:103A6C0003935146019B302098470028FFF61EAF68
:103A7C00039BB8F1000F10D101355E19711B8F42F9
:103A8C0027DB3E460DF11C0866BB2F44A9EB0B0946
:103A9C003D46B94438E03B468BE70393023551462B
:103AAC004046019B98470028039BE6DAFEE640F26D
:103ABC0006410E42E1D016F0020F14BF2B2020203D
:103ACC0016F4806F039305F10105514618BF2D20A4
:103ADC00E7E7019B514630209847002805F1010586
:103AEC00CCDAE3E6013E019B18F8060051469847F4
:103AFC000028C9DADAE6019B5146202098470028B5
:103B0C0005F10105FFF6D2AEA9EB0503002BF2DCA3
:103B1C00D7E500BF70472DE9F04706460D4617461E
:103B2C0098462BB398F800404FF0000A93F8019098
:103B3C00A400DB7804EB430498F802301C444444A2
:103B4C00CA4509D308F10803D8F804203946304691
:103B5C00AC46BDE8F047604714F8013B0AF1010A96
:103B6C00204648F82340FCF715FD01300444E7E7F4
:103B7C006FF01500BDE8F087002070470FB407B553
:103B8C0004A951F8040B019100F00AF903B05DF897
:103B9C0004EB04B07047836800EBC101B3F5004F30
:103BAC002CBF51F8220031F81200704700EBC10114
:103BBC008068B0F5004F2CBF41F8223021F812304C
:103BCC007047012208B5FFF7E6FFD04008BD8368B7
:103BDC0000EBC101B3F5004F08D34B681AB143F0A9
:103BEC0001034B60704723F00103FAE74B881AB1CD
:103BFC0043F001034B80704723F00103FAE75300B5
:103C0C000122FFF7D3BFB0F5004F01F1010034BF23
:103C1C00042308230833A0EBD300B0FA80F0C0F1E2
:103C2C001F0070472DE9F04186680D460446FFF7EA
:103C3C00C8FFB6F5004F014601D3012832D03046FB
:103C4C00FFF7E1FF04EB80010E6996B90122E368EE
:103C5C008240204613430222E3602B460D61294625
:103C6C00FFF7A4FF032229462046BDE8F041FFF7E9
:103C7C009DBF022231462046FFF78DFF29460346A1
:103C8C0007462046FFF792FF03223346294620467B
:103C9C00FFF78CFF39462B462046FFF787FF0222A1
:103CAC003146E1E7BDE8F081B2F5802F2CBF082347
:103CBC000423D21A2DE9F0418C18CD1D002625F0D5
:103CCC00070524F00704641B0560EE60E408214638
:103CDC002046AC60FFF797FF421D013031464FEA9A
:103CEC00820205F1100002F10707A2F11002B8BF21
:103CFC003246FF0800F059FD31463A462846FFF798
:103D0C007EFFA4EB07083346324631462846FFF7C0
:103D1C004DFF284631460122FFF759FF42463946EE
:103D2C00FFF76DFF3B46324639462846FFF73EFF0C
:103D3C0021462846FFF763FF434632462146284674
:103D4C00FFF734FF214628460122FFF740FF394692
:103D5C00BDE8F041FFF766BF704708B5FEF7D8FD28
:103D6C00002008BD0020704708B500F0E6FC0A22D0
:103D7C000023FCF7A5FA08BD0346BFF35B8F53E89D
:103D8C00000F421C43E800210029F8D1BFF35B8FE0
:103D9C007047002108B50846FCF78EFE002008BDD0
:103DAC001FB50023CDE902011A4619461846CDE984
:103DBC000033FCF785FF05B05DF804FB704700206D
:103DCC00704770B50E4615461946120D044618B9C3
:103DDC00BDE87040FCF71EBF2BB11030C5F34A2371
:103DEC00184400F0D4FC2046C4E90056BDE87040ED
:103DFC00FCF728BF07B5D1E900328DF80700012187
:103E0C0052680DF107009847002003B05DF804FBE1
:103E1C000A2838B504460D4602D10D20FFF7EAFFFB
:103E2C0029462046FFF7E6FF002038BDF8B50646C8
:103E3C000D4614461F46214628463A46B047241ADA
:103E4C000544F8D1F8BD10B5426804468168006895
:103E5C00D2E90023FFF7EAFF636800221A6010BD65
:103E6C00F8B50D46566804464718BC4201D12846A1
:103E7C00F8BD14F8011BB36830465B689847F4E74B
:103E8C00436800201B689B681961704743681B6876
:103E9C001A68526853607047436801211B689A681E
:103EAC0011751868FFF7CFBF70B543680C461D68D5
:103EBC00AB681869FCF766FE214603460F2228689A
:103ECC00BDE8704018477FB50BAB059303930122F7
:103EDC000A9B029300231846CDE90033FCF7F0FE51
:103EEC0007B05DF804FB01460068FDF7F7B808B5AC
:103EFC00FDF744F9BDE80840FDF772B97FB50BAB8F
:103F0C000593039301220A9B029300231846CDE9E3
:103F1C000033FCF7D5FE07B05DF804FB002101204F
:103F2C00FDF7DCB8202809D9B0F1004F08D80138CA
:103F3C00B0FA80F0C0F11F004000704708207047B5
:103F4C003E2070477FB50BAB0593039301220A9B70
:103F5C00029300231846CDE90033FCF7B1FE07B0FD
:103F6C005DF804FB08B5D1E904319847002008BD81
:103F7C0008B5FDF7E5FE002008BD08B506220121B5
:103F8C000020FDF747FF002206201146FDF7B8FC84
:103F9C00012107220846FDF73DFF002207201146AC
:103FAC00FDF7AEFC082201210220FDF733FF0022B1
:103FBC0008201146FDF7A4FC092201210320FDF77E
:103FCC0029FF002209201146FDF79AFC0A22012143
:103FDC000420FDF71FFF00220A201146FDF790FC7C
:103FEC00052117220846FDF715FF00221720114660
:103FFC00FDF786FC282206210A20FDF70BFF002284
:10400C0028201146FDF77CFC002008BD1F2809DC88
:10401C004FF0B0410122D1F88030824023EA0203F4
:10402C00C1F88030704703292ED8DFE801F0020F69
:10403C0016224FF0B04301221968824021EA020196
:10404C001960596821EA02025A60704701224FF048
:10405C00B043824019681143F2E74FF0B04301229C
:10406C005968824011435960196821EA02021A60AA
:10407C007047012303FA00F04FF0B0431A68024373
:10408C001A605A681043586070470B68A3F1D40249
:10409C00202A09D803F1B0434968002003F51133F5
:1040AC001A680A431A6070476FF0850070470B68F6
:1040BC00A3F1D402202A0AD803F1B04349680020A6
:1040CC0003F511331A6822EA01021A6070476FF087
:1040DC008500704710B50B68102B01D00E2B1FD12B
:1040EC004A68D3B2C2F34234C2F3042203F1B043A0
:1040FC0004FA02F203F51133186820EA02021A607E
:10410C004968CBB2C1F30242C1F3042103F1B043BD
:10411C008A4003F511331868024300201A6010BD61
:10412C006FF08500FBE7436800205B681B690B6040
:10413C00704743685B68586942400A40424000201F
:10414C005A617047436800205B6899617047436807
:10415C00090400205B6899617047436800205A6825
:10416C0053694B405361704710B503699868F8B1B7
:10417C00884219D1DC680868A142986000D1D860E7
:10418C00002008602AB19A680A60DA68996002B95E
:10419C00D960002010E0814206D108682060D86800
:1041AC008142EDD1DC60EBE7044600680028F2D1D7
:1041BC00002AE8D16FF0150010BD2DE9F0414468DC
:1041CC000120C2F38016C2F3C11C676888408E4080
:1041DC0002F0300527EA0007C2F34122202D46EAFF
:1041EC00070600FA01F7666007EB470ED4F8088063
:1041FC0007FB0CFC07FB02F26FEA0E0628EA0E081E
:10420C004CEA080CC4F808C0D4F80CC02CEA0E0C0C
:10421C0042EA0C02E2600CD1072912DC07FA01F227
:10422C00206A8A40C2EB02115A4320EA01010A4378
:10423C00226223682D091E407D4335432560BDE86D
:10424C00F081020A616A52435243C2EB02105A4394
:10425C0021EA00010A436262EBE738B50446900399
:10426C000D46134617D591070ED55A072ED5502259
:10427C00D8060BD542F4007219031AD561680123D4
:10428C004968AB408B610DE01022F1E79906F3D53C
:10429C0042F48062F0E7DA0313D5D80613D4C3F3E3
:1042AC0040139A02606800232946FFF786FF00201E
:1042BC0038BD5B03F6D501212046A940FFF747FF27
:1042CC00F0E73022EEE74FF40072EBE76FF0850079
:1042DC00EEE70B4670B5896821B101255E680C6864
:1042EC00854001B970BD8A682A4002D04B683046BF
:1042FC0098471CB1236821461C46F2E72346FAE78F
:10430C00F8B51F46044640680E461546FFF755FFA4
:10431C00112F07D101212B0501FA06F104D5636891
:10432C005B6899610020F8BD2046FFF710FFF9E7A4
:10433C0030B5036813600579046804EBC504A34227
:10434C0002D36FF0010030BD5C798C4201D0083390
:10435C00F0E70020F7E74368C1F34B1001F01F01B1
:10436C001B68C05801238B4003424FF0000014BF60
:10437C00012300231370704710B54368C1F34B1031
:10438C0001F01F011A68012384588B40234383508A
:10439C00002010BD10B54368C1F34B14012201F08D
:1043AC001F0118688A40235823EA02032350002077
:1043BC0010BD38B504460D46FFF7DEFF29462046F2
:1043CC00FFF7E8FF002038BDB0F5805F07D0B0F1F3
:1043DC00805F09D1002914BF0120022070470029F9
:1043EC0014BF032004207047002914BF02200320AF
:1043FC00704742681368D869D969C0F3C000C9070F
:10440C00D96948BF40F002008907D96948BF40F01C
:10441C0004004907D96948BF40F02000C90504D5FC
:10442C004FF4807140F008001962C10702D513687F
:10443C0008211962830702D513680121196241070B
:10444C0002D5136802211962830602D5136804226F
:10445C001A6270477FB50BAB0593039301220A9B3D
:10446C00029300231846CDE90033FCF729FC07B072
:10447C005DF804FB10B540680268D3691B06FCD5D7
:10448C004FF01002EFF3118382F31288BFF36F8F9A
:10449C000268D469240604D483F31188BFF36F8FA8
:1044AC00EAE7916283F31188BFF36F8F10BD436805
:1044BC001A68D069000701D5082010621B68DA69F8
:1044CC00920603D55B6A00200B7070474FF0FF30EB
:1044DC00704710B5026904460B46526812680A60B0
:1044EC0042681268126802F4C062B2F5806F33D071
:1044FC00A2F5C060424242411A7162681268526869
:10450C0002F44052B2F5805F28D0B2F5405F27D05C
:10451C00002A0CBF012203225A71626812681068CB
:10452C00116800F0102001F4C061FFF74DFF987185
:10453C00626800201268926802F44072A2F5407121
:10454C004A424A41DA7161680968896811F4804FFE
:10455C0018BF0322DA7110BD0222CDE70022DBE77F
:10456C000222D9E7704740B1C368587810F00100B7
:10457C001EBF1878B0FA80F0400970477FB50BABBE
:10458C000593039301220A9B029300231846CDE95D
:10459C000033FCF795FB07B05DF804FB4FF01002FD
:1045AC00EFF3118382F31288BFF36F8FFEE700F0F5
:1045BC00FCB800F0ECB80020704708B54FF01002C2
:1045CC00EFF3118382F31288BFF36F8FFDF720FA9C
:1045DC00F4E7D0E9003213605A600023C0E90033DD
:1045EC00704708B5FFF7F5FF437B23F002034373D5
:1045FC000023836008BD10B54FF01003EFF3118456
:10460C0083F31288BFF36F8FFEF706FD84F31188D6
:10461C00BFF36F8F10BD10B50446183000F073F85F
:10462C004FF01003EFF3118183F31288BFF36F8FF8
:10463C00627B12F0100204D081F31188BFF36F8FEC
:10464C0010BD2046BDE81040FEF732BD38B504461B
:10465C004FF01003EFF3118583F31288BFF36F8FC4
:10466C00437B13F0280F0BD183680BB1FFF7B9FF15
:10467C00637B51B903F0FB0320466373FEF7CCFC5C
:10468C0085F31188BFF36F8F38BD03F0EB03F3E7AD
:10469C0001211838FFF7DABF034620B9EFF3058282
:1046AC000AB9FDF7C5B883F31188BFF36F8F704754
:1046BC004FF01003EFF3118083F31288BFF36F8F69
:1046CC00FFF7EABF4FF01002EFF3118182F312886B
:1046DC00BFF36F8F027BD2070AD581F31188BFF32A
:1046EC006F8F404080F311884FF0040002DF704759
:1046FC00437B1B0704D581F31188BFF36F8F704781
:10470C000122FEF7D5BC10B54FF01002EFF3118467
:10471C0082F31288BFF36F8F03683BB1FEF794FEF0
:10472C00002084F31188BFF36F8F10BD6FF015005C
:10473C00F7E708B5FEF786FF08BDFEF783BF10B597
:10474C00024601448A42134603D01C780132002CE5
:10475C00F8D1181A10BD930570B548BF22F4007239
:10476C00044608464CBF07212721B4FBF2F502FB97
:10477C001543DBB2092B88BF5B18264688BFDBB21A
:10478C003033B24200F8013B2C46EED970BD0A44DE
:10479C00914200F1FF3300D1704710B511F8014B75
:1047AC0003F8014F9142F9D110BD024403469342E4
:1047BC0000D1704703F8011BF9E7000001480068BD
:0847CC0070470000F801002411
:0847D4002CBBFF7F0100000077
:1047DC00E1090008000000000D1F000884480008D3
:1047EC00673D000800000000000000009848000829
:1047FC00792000087449000879200008384900081D
:10480C00873F0008AC480008792000088849000858
:10481C007920000860490008792000084C490008FC
:10482C007920000824490008792000081049000864
:10483C0079200008FC48000879200008E8480008A6
:10484C0079200008D448000879200008C0480008E6
:10485C00CD2300089C490008292000080000000016
:10486C0089270008000000009F3D000800000000A0
:08487C00AD1D00080000000062
:10488400F856000800000000200000247A000024EC
:10489400000000009F570008045100080851000858
:1048A4009200002400000000DA5600080000000016
:1048B40000000000780000241802002405570008B6
:1048C400D84F0008B45000087C000024980200244B
:1048D40013570008EC4F0008B45000087E00002471
:1048E400A80200242157000800500008B450000812
:1048F40080000024B80200242F5700081450000838
:10490400B450000882000024C80200243D57000867
:1049140028500008B450000884000024D802002461
:104924004B5700083C500008B4500008860000248F
:10493400E80200245957000850500008B4500008F9
:1049440088000024F8020024675700086450000817
:10495400B45000088A000024080300247557000896
:1049640078500008B45000088C0000241803002478
:10497400835700088C500008B45000088E000024AF
:104984002803002491570008A0500008B4500008E0
:1049940090000024380300245A58000818510008D5
:0C49A40060510008940000243C00002436
:1049B00000000000293F000800000000293F000817
:1049C00000000000293F000800000000293F000807
:1049D00000000000293F000800000000293F0008F7
:1049E000D8560008D11D0008D6560008D11D000871
:1049F000D4560008D11D0008D2560008D11D000869
:104A0000D0560008D11D000800000000293F000812
:104A100000000000293F000800000000293F0008B6
:104A200000000000293F000800000000293F0008A6
:104A300000000000293F000800000000293F000896
:104A400000000000293F000800000000293F000886
:104A500000000000293F000800000000293F000876
:104A600000000000293F0008CE560008D11D0008B4
:104A700000000000293F000800000000293F000856
:104A800000000000293F000800000000293F000846
:104A900000000000293F000800000000293F000836
:104AA00000000000293F000800000000293F000826
:104AB00000000000293F000800000000293F000816
:104AC00000000000293F000800000000293F000806
:104AD00000000000293F000800000000293F0008F6
:104AE00000000000293F000800000000293F0008E6
:104AF000CC560008D11D000800000000293F000826
:104B000000000000293F000800000000293F0008C5
:104B100000000000293F000800000000293F0008B5
:104B200000000000293F000800000000293F0008A5
:104B300000000000293F000800000000293F000895
:104B400000000000293F000800000000293F000885
:104B500000000000293F000800000000293F000875
:104B600000000000293F000800000000293F000865
:104B700000000000293F000800000000293F000855
:104B800000000000293F000800000000293F000845
:104B900000000000293F000800000000293F000835
:104BA00000000000293F000800000000293F000825
:104BB00000000000293F000800000000293F000815
:104BC00000000000293F000800000000293F000805
:104BD00000000000293F000800000000293F0008F5
:104BE00000000000293F000800000000293F0008E5
:104BF00000000000293F000800000000293F0008D5
:104C000000000000293F000800000000293F0008C4
:104C100000000000293F000800000000293F0008B4
:104C200000000000293F000800000000293F0008A4
:104C300000000000293F000800000000293F000894
:104C400000000000293F000800000000293F000884
:104C500000000000293F000800000000293F000874
:104C600000000000293F000800000000293F000864
:104C700000000000293F000800000000293F000854
:104C800000000000293F000800000000293F000844
:104C900000000000293F000800000000293F000834
:104CA00000000000293F000800000000293F000824
:104CB00000000000293F000800000000293F000814
:104CC00000000000293F000800000000293F000804
:104CD00000000000293F000800000000293F0008F4
:104CE00000000000293F000800000000293F0008E4
:104CF00000000000293F000800000000293F0008D4
:104D000000000000293F000800000000293F0008C3
:104D100000000000293F000800000000293F0008B3
:104D200000000000293F000800000000293F0008A3
:104D300000000000293F000800000000293F000893
:104D400000000000293F000800000000293F000883
:104D500000000000293F000800000000293F000873
:104D600000000000293F000800000000293F000863
:104D700000000000293F000800000000293F000853
:104D800000000000293F000800000000293F000843
:104D900000000000293F000800000000293F000833
:104DA00000000000293F000800000000293F000823
:104DB00000000000293F000800000000293F000813
:104DC00000000000293F000800000000293F000803
:104DD00000000000293F000800000000293F0008F3
:104DE00000000000293F000800000000293F0008E3
:104DF00000000000293F000800000000293F0008D3
:104E000000000000293F000800000000293F0008C2
:104E100000000000293F000800000000293F0008B2
:104E200000000000293F000800000000293F0008A2
:104E300000000000293F000800000000293F000892
:104E400000000000293F000800000000293F000882
:104E500000000000293F000800000000293F000872
:104E600000000000293F000800000000293F000862
:104E700000000000293F000800000000293F000852
:104E800000000000293F000800000000293F000842
:104E900000000000293F000800000000293F000832
:104EA00000000000293F000800000000293F000822
:104EB00000000000293F000800000000293F000812
:084EC00000000000293F00087A
:104EC800B551000804000000B751000803000000B5
:104ED800DA51000803000000DE510008030000005A
:104EE8006B520008030000005D5600080300000034
:104EF8004A590008030000006A580008030000002F
:104F0800A04F0008080000245952000801000000C2
:104F1800F40000000200000003000000284F000811
:104F280000000008C85100082600020700000024FD
:104F3800CE51000824000B110000F01FD3510008C7
:104F480024000411411000080000000000000000C7
:104F5800000000000000000039520008415200081B
:104F68000000000000000000000000004952000896
:104F78004D5200085152000855520008904F000841
:104F88009C490008D40100246D3E0008EC0100246F
:104F98008D03002401000000B53E00080000000059
:104FA800A53E0008993E0008000000008D3E00085C
:104FB800000000007452000800000090000000107B
:104FC80000000002000000240000000000000B06A2
:104FD800FFFF0000002802580A000000E00000005F
:104FE80000040000FFFF0000002402580900000030
:104FF800E000000000020000FFFF0000002002584F
:1050080008000000E000000000010000FFFF0000B1
:10501800001C025807000000E000000080000000AB
:10502800FFFF00000018025806000000E000000022
:1050380040000000FFFF00000014025805000000B7
:10504800E000000020000000FFFF000000100258F0
:1050580004000000E000000010000000FFFF000056
:10506800000C025803000000E000000008000000E7
:10507800FFFF00000008025802000000E0000000E6
:1050880004000000FFFF00000004025801000000B7
:10509800E000000002000000FFFF000000000258CE
:1050A80000000000E0000000010000006742000866
:1050B800334100083F410008514100085B410008A6
:1050C80067410008A9200008754100080000000099
:1050D8008849000874490008604900084C490008DC
:1050E800384900082449000810490008FC4800080D
:1050F800E8480008D4480008C0480008004402589E
:105108006343000885430008A1430008BF43000823
:10511800004C00409848000813120000385100085D
:1051280001000000000000000000000040510008DD
:10513800E8000000000008004851000801000000D5
:10514800505100080200000028030000000200007F
:105158000803000000000000BB4400088144000868
:10516800FF430008B1250008DF440008FB58000889
:10517800095900081D5900082C5900083859000819
:10518800DC470008DC4700086C4800087448000841
:105198008448000884480008001000000030486572
:1051A8006C6C6F20576F726C6421200A0061006379
:1051B800627072696E74665F7061636B61676500C7
:1051C800464C415348005352414D0053595354459E
:1051D8004D006C6F67006C6F675F6D676D74000DD5
:1051E8000A001B5B306D00257320005B2530386C8E
:1051F800755D20005B253032753A253032753A25C9
:105208003032752E253033752C253033755D2000EE
:105218002573003C25733E200025732F0025733A23
:105228002000253032782000202020007C002563D3
:10523800001B5B313B33316D001B5B313B33336DFE
:10524800006572720077726E00696E66006462674C
:10525800006C6F675F6261636B656E645F75617236
:105268007430006C6F675F75617274006D656D6F87
:1052780072794039303030303030300072302F6140
:10528800313A2020307825303878202072312F614B
:10529800323A2020307825303878202072322F6139
:1052A800333A20203078253038780072332F613433
:1052B8003A2020307825303878207231322F6970C2
:1052C8003A2020307825303878207231342F6C72AB
:1052D8003A20203078253038780020787073723A78
:1052E8002020307825303878004661756C74696EF6
:1052F8006720696E737472756374696F6E20616478
:10530800647265737320287231352F7063293A20CF
:10531800307825303878002A2A2A2A2A20425553FC
:10532800204641554C54202A2A2A2A2A0020205354
:105338007461636B696E67206572726F72002020FA
:10534800556E737461636B696E67206572726F72F4
:105358000020205072656369736520646174612060
:10536800627573206572726F720020204246415246
:1053780020416464726573733A2030782578002080
:1053880020496D707265636973652064617461207A
:10539800627573206572726F72002020496E737493
:1053A80072756374696F6E20627573206572726FAF
:1053B80072002020466C6F6174696E672D706F698A
:1053C8006E74206C617A79207374617465207072D0
:1053D80065736572766174696F6E206572726F723B
:1053E800002A2A2A2A2A2055534147452046415552
:1053F8004C54202A2A2A2A2A0020204469766973D4
:10540800696F6E206279207A65726F002020556E70
:10541800616C69676E6564206D656D6F7279206176
:1054280063636573730020204E6F20636F70726F23
:10543800636573736F7220696E73747275637469D0
:105448006F6E73002020496C6C6567616C206C6F0F
:105458006164206F66204558435F52455455524E4B
:1054680020696E746F205043002020496C6C65677A
:10547800616C20757365206F6620746865204550DF
:105488005352002020417474656D707420746F202D
:105498006578656375746520756E646566696E65A3
:1054A8006420696E737472756374696F6E002A2A5A
:1054B8002A2A2A204D5055204641554C54202A2A44
:1054C8002A2A2A002020537461636B696E6720655D
:1054D80072726F722028636F6E74657874206172BF
:1054E8006561206D69676874206265206E6F74203D
:1054F80076616C69642900202044617461204163ED
:10550800636573732056696F6C6174696F6E0020F0
:10551800204D4D46415220416464726573733A20B0
:1055280030782578002020496E7374727563746929
:105538006F6E204163636573732056696F6C617485
:10554800696F6E005265736572766564204578638D
:10555800657074696F6E20280053707572696F7575
:105568007320696E7465727275707420284952517F
:105578002000535053454C20696E20746872656151
:1055880064206D6F646520646F6573206E6F74208E
:10559800696E64696361746520505350002A2A2A31
:1055A8002A2A2048415244204641554C54202A2A50
:1055B8002A2A2A002020427573206661756C74209F
:1055C8006F6E20766563746F72207461626C6520FB
:1055D80072656164002020446562756720657665A0
:1055E8006E740020204661756C7420657363616C6D
:1055F8006174696F6E20287365652062656C6F77CA
:105608002900415243485F45584345505420776923
:10561800746820726561736F6E2025780A002A2AE3
:105628002A2A2A204465627567206D6F6E69746F37
:105638007220657863657074696F6E202A2A2A2A39
:105648002A002A2A2A2A2A20257320256429202A82
:105658002A2A2A2A006D7075004661696C656420E3
:10566800746F20616C6C6F63617465206E65772060
:105678004D505520726567696F6E2025750A005078
:105688006172746974696F6E2025753A2073616E52
:1056980069747920636865636B206661696C656409
:1056A8002E00496E76616C69642061747472696257
:1056B80075746520666F7220746865207265676905
:1056C8006F6E0A000A0605050401030102010101C3
:1056D8000001696E746572727570742D636F6E74F3
:1056E800726F6C6C65724035383030303030300055
:1056F8007263634035383032343430300067706953
:105708006F403538303232383030006770696F405A
:105718003538303232343030006770696F40353890
:10572800303232303030006770696F40353830328F
:1057380031433030006770696F4035383032313866
:105748003030006770696F4035383032313430306E
:10575800006770696F40353830323130303000675B
:1057680070696F40353830323043303000677069C7
:105778006F403538303230383030006770696F40EC
:105788003538303230343030006770696F40353822
:105798003032303030300072657365742D636F6E4F
:1057A80074726F6C6C6572004661696C6564206325
:1057B800616C6C20636C6F636B5F636F6E74726F88
:1057C8006C5F6765745F726174652870636C6B6584
:1057D8006E5B305D2900636C6F636B20636F6E7462
:1057E800726F6C20646576696365206E6F742072D1
:1057F8006561647900436F756C64206E6F74206511
:105808006E61626C6520284C5029554152542063C2
:105818006C6F636B00726573657420636F6E74726E
:105828006F6C6C6572206E6F7420726561647900AC
:10583800257320646F6573206E6F742073757070A4
:105848006F72742064726976657220656E61626C2D
:10585800650073657269616C403430303034633090
:105868003000756172745F73746D33320048616C17
:1058780074696E672073797374656D00556E6B6E0D
:105888006F776E206572726F7200756E6B6E6F77D0
:105898006E003E3E3E205A455048595220464154DB
:1058A800414C204552524F522025643A20257320FE
:1058B8006F6E20435055202564004661756C742036
:1058C800647572696E6720696E746572727570743A
:1058D8002068616E646C696E670A00437572726550
:1058E8006E74207468726561643A202570202825DA
:1058F80073290043505520657863657074696F6E2D
:1059080000556E68616E646C656420696E746572BA
:105918007275707400537461636B206F766572667C
:105928006C6F77004B65726E656C206F6F707300DB
:105938004B65726E656C2070616E6963006D61699C
:105948006E006F73002A2A2A20426F6F74696E678F
:10595800205A6570687972204F53206275696C64AB
:10596800207A65706879722D76332E352E302D3178
:105978003432372D67633161366366646639626431
:1059880038202A2A2A0A000020202020202020202F
:1059980020282828282820202020202020202020D7
:1059A80020202020202020208810101010101010F7
:1059B800101010101010101004040404040404043F
:1059C80004041010101010101041414141414101D0
:1059D80001010101010101010101010101010101AF
:1059E80001010110101010101042424242424202BE
:1059F800020202020202020202020202020202027F
:105A08000202021010101020000000000000000028
:105A1800000000000000000000000000000000007E
:105A2800000000000000000000000000000000006E
:105A3800000000000000000000000000000000005E
:105A4800000000000000000000000000000000004E
:105A5800000000000000000000000000000000003E
:105A6800000000000000000000000000000000002E
:105A7800000000000000000000000000000000001E
:105A88000000000000000000286E756C6C29002AD8
:085A9800666C6F61742A0000C6
:105AA000853B0008713D0008844F0008000000009D
:105AB000000000007D3F0008000000000000000022
:105AC00097400008BB40000800000000A51E000829
:105AD0000000000000000000E1400008000000009D
:105AE0004400002400C20100000103000090D00324
:105AF0005000002450000024FF00FF00FF00FF00C2
:105B0000FF00FF00FF00FF00FF00FF00FF00FF009D
:085B1000FF00FF00FF00FF0091
:105B1800000000000000000000000000000000007D
:0E5B280000000000000000000000000000006F
:025B3600FFFF6F
:045B38000000000069
:045B3C0015E015E07B
:04000005080017E5F3
:00000001FF
