:020000040800F2
:10000000005400244D1C0008839F0008391C000880
:10001000391C0008391C0008391C000800000000C9
:10002000000000000000000000000000591D000852
:10003000391C000800000000D91C0008C13C000861
:1000400015200008152000081520000815200008BC
:1000500015200008152000081520000815200008AC
:10006000152000081520000815200008152000089C
:10007000152000081520000815200008152000088C
:1002CC000A49C0F307230246C0B2CB5C095C0B445D
:1002DC001C2B08DC0C2006494343C818CB589A4207
:1002EC0018BF002070470020704700BFD0EF0008F7
:1002FC0050660024F8B506460F46064C1D252368AB
:10030C0013B139462046B047013D04F10C04F6D137
:10031C00F8BD00BF50660024000000000000000083
:10032C0000000000000000000000000000000000C1
:10033C0000000000000000000000000000000000B1
:10034C0000000000000000000000000000000000A1
:10035C000000000000000000000000000000000091
:10036C000000000000000000000000000000000081
:10037C000000000000000000000000000000000071
:10038C000000000000000000000000000000000061
:10039C000000000000000000000000000000000051
:1003AC000000000000000000000000000000000041
:1003BC000000000000000000000000000000000031
:1003CC0053B94AB9002908BF00281CBF4FF0FF31B0
:1003DC004FF0FF3000F00CB8ADF1080C6DE904CE15
:1003EC0000F008F8DDF804E0DDE9022304B0704702
:1003FC00704700BF2DE9F04786468C460846089E9C
:10040C00154674461946002B40F0C2808542B2FA5C
:10041C0082F245D94AB1C2F1200300FA02FC2EFA4D
:10042C0003F3954043EA0C0C94404FEA154EA8B2E6
:10043C00BCFBFEF8230C0EFB18CC08FB00F943EABE
:10044C000C43994528D9EB1808F1FF3704D299458C
:10045C0002D9A8F102072B44A3EB0903A4B2B3FB06
:10046C00FEFC0EFB1C330CFB00F044EA0344A042E0
:10047C0014D92C190CF1FF3304D2A04202D9ACF1DF
:10048C0002032C44241A43EA07401EB1D440002333
:10049C0034607360BDE8F0874746DDE76346F1E7FB
:1004AC0092BB431B01214FEA154EAFB2B3FBFEFCCE
:1004BC00200C0EFB1C330CFB07F840EA0343984559
:1004CC0062D9EB180CF1FF3004D2984502D9ACF18B
:1004DC0002002B44A3EB0803A4B2B3FBFEFC0EFBFF
:1004EC001C330CFB07F744EA0344A7424ED92C19E2
:1004FC000CF1FF3304D2A74202D9ACF102032C4415
:10050C00E41B43EA0040C0E7C2F1200320FA03F1E8
:10051C00954090402EFA03F303434FEA154EAFB2C9
:10052C00B1FBFEFC0EFB1C10190C0CFB07F841EA8E
:10053C000041884504FA02F422D969180CF1FF3005
:10054C0004D2884502D9ACF102002944A1EB080180
:10055C009BB2B1FBFEFC0EFB1C110CFB07F743EA34
:10056C0001439F420ED9EB180CF1FF3104D29F428C
:10057C0002D9ACF102012B44DB1B41EA004192E7AA
:10058C006046E3E76146F7E76046A3E76346B7E7F3
:10059C00834206D916B9002108467BE7C6E900E07C
:1005AC00F9E7B3FA83F78FB9834201D3724508D8C0
:1005BC00BEEB020460EB030301209C461EB9002134
:1005CC0068E73846FAE7C6E9004CF8E7C7F1200CB3
:1005DC00BB4022FA0CF41C432EFA0CF120FA0CF35B
:1005EC00B84001434FEA14490EFA07F5B3FBF9F88A
:1005FC001FFA84FE09FB18300B0C08FB0EFA43EAB9
:10060C0000439A4502FA07F240D9E31808F1FF308B
:10061C0004D29A4502D9A8F102002344A3EB0A03A1
:10062C0089B2B3FBF9F809FB183308FB0EFE41EA5B
:10063C0003418E452CD9611808F1FF3304D28E4545
:10064C0002D9A8F10203214443EA0040A0FB02981E
:10065C00A1EB0E014145CE46434602D306D14D4592
:10066C0004D2B9EB020E68EB04030138002EA6D0BD
:10067C00B5EB0E0261EB030101FA0CFC22FA07F355
:10068C004CEA0303F940C6E9003198E74046C5E758
:10069C004346D9E710F8012B11F8013B012A28BF7A
:1006AC009A42F7D0D01A70472DE95041144609F000
:1006BC00ECF868B100220B4821462626134603DFCE
:1006CC00024660B145210848BDE8504109F027BCFD
:1006DC00002200232146034804F07CFBF0E7BDE830
:1006EC00508100BFFC6500241AB800082DE9F743BF
:1006FC0000232F4D2F4FDFF8C090092B019318D9F1
:10070C0009F0C3F800284FD001A86F2603DF48B1C9
:10071C0045212A4809F003FC404080F311884FF032
:10072C00030002DF4921264809F0F9FB03B0BDE8BC
:10073C00F08309F0AAF848B34FF0FF3128463D2664
:10074C000A4603DF044648B94521384609F0E7FB61
:10075C00404080F311884FF0030002DF49214846E6
:10076C0009F0DDFB174B1E6809F08FF8B0B130466D
:10077C002146752603DF2146134800F019FC134A65
:10078C001368013B1360019B0133B6E74FF0FF3256
:10079C004FF0FF33284605F061FAD3E7B3682146E2
:1007AC0030461B689847E6E701A800F0FBF9AEE776
:1007BC003C66002439B8000847B800087DB800082A
:1007CC0091B8000864180024400800246018002424
:1007DC002DE9F84F384F0121386809F05DF848B120
:1007EC004521364809F09BFB404080F311884FF0BF
:1007FC00030002DF0025DFF8C8A0DFF8C8B0DFF87F
:10080C00C8908021504609F0EFFA044650B94521B2
:10081C002E4809F084FB404080F311884FF0030010
:10082C0002DFEEE709F031F8002837D04FF0FF3245
:10083C00274821461F26134603DF024648B14521AF
:10084C00244809F06CFB404080F311884FF0030002
:10085C0002DF2A464921584609F061FBD9F80030DD
:10086C000133C9F8003009F010F800B31A482146DA
:10087C003A2603DF01350A2DC3D10021386809F06F
:10088C000BF848B14521154809F049FB404080F36D
:10089C0011884FF0030002DFBDE8F88F4FF0FF32F4
:1008AC004FF0FF3321460A4804F0C6FBC5E70A485F
:1008BC00214609F0FBFEDDE7641800249EB8000811
:1008CC004008002411B9000860180024C4B80008BE
:1008DC00FC650024F0B80008286600243AB900082A
:1008EC002DE9F0434E4B93B093E8070009AC84E834
:1008FC00070008F0CAFF20B34A48012603DF4A4F1D
:10090C00386048B94521494809F009FB404080F35B
:10091C0011884FF0030002DF22460321444807F000
:10092C0075FF044688B1D423424A4349434809F031
:10093C00A1FA2146424809F09DFAD4213D4809F01C
:10094C0085FA384803F054FCD9E7DFF8F8900AF040
:10095C00A1F8054650F80910354808F06FF955F81C
:10096C000930394A3868C3F88020224683683749F1
:10097C005B68984708F089FF002836D04FF0FF33AA
:10098C00042233480CAD33494E26CDE90E32CDE965
:10099C001033CDE90C444FF400622F4B03DF2C498C
:1009AC002E4808F08DFF2A49386808F089FF08F0B6
:1009BC006CFF80B326485B2603DF0AF06BF8044615
:1009CC0059F80010264808F07BFF59F804103868D5
:1009DC0008F076FF59F80410224808F071FF002344
:1009EC0021481A46194604F099F84FF0FF324FF09F
:1009FC00FF3300901749CDE906234FF0FF33042253
:100A0C00CDE90100CDE9033211484FF40062124BDD
:100A1C0003F0F0FEC3E70E4809F0BBFDCDE700BFC5
:100A2C0044B2000857B900086418002467B90008DC
:100A3C00F81B00247EB90008BDB90008C6B900082F
:100A4C00E3B9000808000000B8650024B5060008EA
:100A5C008018002400380024F90600083C660024A5
:100A6C00FC65002428660024DD0700082DE9F04110
:100A7C0008F039FF58B14FF47A600021482603DFA3
:100A8C001E4D1F4F2B68092B07D9BDE8F0810021A3
:100A9C004FF47A6006F044FCF2E708F024FFD8B17A
:100AAC004FF0FF3138463D260A4603DF044608F076
:100ABC001AFFC8B113480D2603DF2A6849211248D2
:100ACC0001322A6009F02BFA08F00DFF80B10F48B3
:100ADC0021463A2603DFD5E74FF0FF324FF0FF33C4
:100AEC00384605F0BBF8E1E7064803F035FBE4E7D0
:100AFC000648214609F0DAFDC4E700BF401800247F
:100B0C0028660024A086010007BA00083C66002471
:100B1C001A491B4838B507F011FF024648B1452168
:100B2C00184809F0FCF9404080F311884FF003009D
:100B3C0002DF1549124807F001FF024648B1452172
:100B4C00124809F0ECF9404080F311884FF0030093
:100B5C0002DF0F4D09F09EFF0E4B044641590E4823
:100B6C00C1F8803008F0C6FE61590C4808F0C2FE8E
:100B7C0000230B481A46194603F0D0FF0C650024DD
:100B8C001C1F00242CBA00081865002462BA000847
:100B9C0008000000D0650024286600243C66002470
:100BAC00790A000808B503682A2B06D9054845219F
:100BBC0009F0B5F96FF0150008BD01330360002092
:100BCC00FAE700BF9FBA000837B5114D0446089AE2
:100BDC000146AB68DA6704220DEB020008F00AFA52
:100BEC0090B901A8FFF7DEFF48B9042220460DEBAF
:100BFC00020108F023FA003818BF01204042AB680C
:100C0C000022DA6703B030BD4FF0FF30F7E700BFCA
:100C1C00DC1E0024F7B5224A492122480026002771
:100C2C00D2E9002309F07BF91F4A49211F48D2E978
:100C3C00002309F074F91E4A49211E48D2E9002309
:100C4C0009F06DF91C4A49211C48D2E9002309F02E
:100C5C0066F94FF404621A491A4800F085FA1A4AE8
:100C6C001A491B48CDE9006708F057FE194905469B
:100C7C00194A1A48CDE900674FF0FF364FF0FF379D
:100C8C0008F04BFE044632463B46284608F07AFEF6
:100C9C00204632463B4608F075FE002003B0F0BDFE
:100CAC0000650024BEBA00080C650024DBBA0008FD
:100CBC0018650024F8BA00086C65002416BB0008FF
:100CCC000000002440080024ED080008004800241F
:100CDC00B0190024004000241D0B00081819002432
:100CEC0038B5056904460022034905F1100009F0E6
:100CFC00CDFD00202C6038BD090D000810B5446BEB
:100D0C00A2B0094A4921A36C08480093234609F074
:100D1C0006F963681BB102AAA16820689847A36C06
:100D2C000133A36422B010BD56BB00083BBB0008C6
:100D3C0073B50D460446FFF7C3FA0022142106468C
:100D4C0008F020F950B9A3689A68AAB90093452114
:100D5C000C4B0D4A0D4809F0E2F809E032462146E9
:100D6C00142308F09DF8084A4521094809F0D7F8E2
:100D7C006FF0150002B070BD2946204602B0BDE8E8
:100D8C0070401047A6BB00086ABC0008B0BB000846
:100D9C007ABB000810B5054CC9B2049AA368DA678F
:100DAC00FFF7C6FFA3680022DA6710BDDC1E002423
:100DBC0073B50D460446FFF783FA0022142106464C
:100DCC0008F0E0F8024650B9A3681968A9B9009375
:100DDC004521174B174A184809F0A1F809E032468B
:100DEC002146142308F05CF8124A4521134809F0F7
:100DFC0096F86FF0150002B070BD8021284609F0FE
:100E0C00CFF860B10E4B45210E4801938023094A5F
:100E1C0000932B4609F083F86FF00D00EBE7A36805
:100E2C00294620461B6802B0BDE87040184700BF39
:100E3C00FEBB00084FBC0008B0BB00087ABB000822
:100E4C0026EA000804BC000810B5054C049AA368F7
:100E5C00DA67FFF7ADFFA3680022DA6710BD00BFA9
:100E6C00DC1E0024014B1B68184700BF30650024B2
:100E7C00014B1860704700BF3065002470B5044604
:100E8C004518044EAC4200D170BD336814F8010B08
:100E9C009847F7E73065002470B504468EB00D46D0
:100EAC00EFF30586C6B909F071F8A8B134223146C2
:100EBC0001A809F0E7FD02232A4621468DF80630E9
:100ECC0001A80D4B029308F097FA059B13B101A8EA
:100EDC0008F0B6FD0EB070BD1022002101A809F07B
:100EEC00D1FD02232A4621468DF8063001A8034B7A
:100EFC00029308F081FAEDE7999A0008710E000848
:100F0C00F7B5104F05460A9A0E46BB68DA67002201
:100F1C0009F046F8044660B10B4B45210B480C4ACE
:100F2C00CDE900632B4608F0FAFFBB68D86F09F0D7
:100F3C0014F828463146FFF7A1FFBB682046DC6752
:100F4C0003B0F0BDDC1E002426EA000804BC000837
:100F5C009ABC000880B505460F4691469A46EFF3B9
:100F6C000583DBB909F012F8C0B1422603DF044651
:100F7C00DFF8388009F08EFD064640F808405246EE
:100F8C0049463846A84756F80840EFF3058343B95D
:100F9C0008F0FCFF28B120464D2603DF06F032FA9C
:100FAC00E5E7204600F062FEF8E700BF080000000D
:100FBC00F8B50F4600293BD006680122304608F0F0
:100FCC00ABFD01460446304608F06EFDC3070DD458
:100FDC00AF23184A1849194808F04CFF39461848ED
:100FEC0008F048FFAF21134808F030FF2146304687
:100FFC0008F070FD251800223046294608F054FDF3
:10100C002D1AAC420BD0B7230A4A0E490B4808F0F4
:10101C0031FF39460C4808F02DFFB721E3E7214694
:10102C00304608F05DFD2146BDE8F84008F09ABE58
:10103C00F8BD00BFABBC0008CCBC0008C6B90008AA
:10104C00DDBC000815BD00083BBD00082DE9F843C8
:10105C00066814460F464B1EB268B2F5004F34BFFB
:10106C00042108213B400FD0C7F10009581E09EAA2
:10107C000709494528BF494618420CD11F46DCB91F
:10108C0000252846BDE8F8838F4213D82146BDE8D9
:10109C00F84308F0A9BE30494FF4A2732F4A3048E8
:1010AC0008F0E8FE2F4808F0E5FE4FF4A2712B483B
:1010BC0008F0CCFE9946E2E7B2EBD40FE0D9E31985
:1010CC001046591A08F032FD0146304608F089FDE9
:1010DC0080460028D4D0B36809EBC0053046B3F580
:1010EC00004F34BF042308231D447B1E35441D448C
:1010FC00B5FBF7F57D43A5EB09052C44294608F013
:10110C000BFD804504F10704074624F00704A4EB0B
:10111C0006044FEAE40408D202464146304608F081
:10112C009AFD4146304608F0DBFD3946304608F062
:10113C00D1FC3844844208D239463046224608F065
:10114C008AFD2146304608F0CBFD01223946304657
:10115C0008F0C6FC95E700BF77BD0008ABBC0008E3
:10116C00C6B9000892BD0008B2F5802F2DE9F041F8
:10117C0010D2042A28D843494FF4F973424A434801
:10118C0008F078FE424808F075FE4FF4F9713E48BD
:10119C0008F05CFE0823D21ACC1D114424F007047D
:1011AC0021F00701091B17294FEAD1060ED839493E
:1011BC0040F2FB13344A354808F05CFE344808F022
:1011CC0059FE40F2FB11E2E70423E4E70027046038
:1011DC0031463046A660E76008F0B2FC421D8046FE
:1011EC0001219200304608F0A1FCD51DED082844E1
:1011FC00B0423AD8B8F1FF3FA2F11002394604F1DF
:10120C001000B8BF3A46A6EB050809F03BFC2A468D
:10121C003946204608F07CFC3B463A463946204687
:10122C0008F04DFC20463946012208F059FC424694
:10123C00294608F06DFC2B463A462946204608F014
:10124C003EFC3146204608F063FC43463A463146A4
:10125C00204608F034FC31462046012208F040FCC0
:10126C002946BDE8F04108F03BBD0B494FF4037330
:10127C00054A064808F0FEFD054808F0FBFD4FF452
:10128C00037184E7AFBD0008ABBC0008C6B9000809
:10129C00D0BD0008E9BD000812BE000837B5012218
:1012AC000421044608F07CFE002814BF012500250B
:1012BC0009D0064B4521064A0193042305480093A7
:1012CC00234608F02CFE284603B030BDFEBB0008B8
:1012DC003DBE000804BC0008F8B50B4F1546089A33
:1012EC000446BB680E46DA67FFF7D8FF40B93246B2
:1012FC002B46204608F0CBFDBB680022DA67F8BD10
:10130C006FF00C00F8E700BFDC1E002438B5094D67
:10131C000446069AAB68DA67FFF7C0FF30B920467F
:10132C0008F0D8FDAB680022DA6738BD6FF00C000E
:10133C00F8E700BFDC1E0024324B70B55A6912F47A
:10134C00003211D1BFF34F8FBFF36F8FC3F8502210
:10135C00BFF34F8FBFF36F8F5A6942F400325A615B
:10136C00BFF34F8FBFF36F8F264A5369D90327D42E
:10137C00536913F4803323D1C2F88430BFF34F8FF9
:10138C00D2F8803043F6E074C3F3C900C3F34E3394
:10139C005B0103EA0406014646EA81750139C2F88D
:1013AC006052F9D2203B13F1200FF2D1BFF34F8FD3
:1013BC00536943F480335361BFF34F8FBFF36F8F87
:1013CC00114B124A1A60124BDA6822F0070242F0F3
:1013DC000202DA609A6942F440429A619A69920474
:1013EC00FCD50C4B1A6841F20303B3EB124F06D138
:1013FC00094AD2F8083143F00103C2F80831002041
:10140C0070BD00BF00ED00E0606500240090D003CB
:10141C00004802580010005C008000512DE9F84F84
:10142C0080460F4616461446DFF88C90DFF88CA0E9
:10143C00BD192D1B0CB9BDE8F88F08F1FF334FF027
:10144C00000B1F48032B94BF19F803103F2108F021
:10145C0010FB5C4527D915F80B101A4808F009FB4E
:10146C000BF1010BBBF1080FF3D14FF0000B164839
:10147C0008F0FFFA5C451AD915F80B1013481AF846
:10148C00012012F0970F08BF2E2108F0F2FA0BF191
:10149C00010BBBF1080FEDD10D4808F0EAFA072C4F
:1014AC00C9D9083CC4E70B4808F0E3FAD8E70A4866
:1014BC0008F0DFFAEBE700BF78BE0008C0EE0008CA
:1014CC0064BE000869BE000873BE000875BE000843
:1014DC001BDB00086FBE000871BE0008014B0360E7
:1014EC000120704784B2000837B505460C46C9B1D7
:1014FC008B6810480093D1E90023452108F00FFDBB
:10150C00636945210C480093D4E9032308F007FDD7
:10151C00E2694521094808F002FDA2694521084805
:10152C0008F0FDFC2146284603B0BDE8304002F02F
:10153C00FBBE00BF8CBE0008C0BE0008F4BE000895
:10154C0008BF000830BFFFF7FDBF00BF124B134AA6
:10155C002DE9F041D518DFF848800746013DB5FB71
:10156C00F3F55D430F4B08EB0304013CB4FBF3F4C0
:10157C0003FB04540E1B0C49304609F075FA701924
:10158C00083E4246002109F07DFA04F10800C7F834
:10159C008460BDE8F08100BF010000000000000085
:1015AC00040000000400000044B2000886461E48F7
:1015BC008068D0F894004FF4806C6044EC4680F363
:1015CC0009880EB52DE901101748806800F03CFD24
:1015DC00BDE80110DCF80000DCF804C02DE90110B6
:1015EC006246494009F04EFABDE801106044BDE87E
:1015FC000E4080F30988704603B40B488068D0F81D
:10160C00901051F00101EFF3148C5CF0010CC0F858
:10161C009010BFF34F8F8CF31488BFF36F8F03BC04
:10162C00DFF808C060470000DC1E0024610F0008D2
:10163C00DFF88CC0DCF808C0DCF894C00CF5806CCA
:10164C00BCF1080CCCF800D0CCF804E08CF3098881
:10165C004FF09A0C664503D1EC462DE9305002E070
:10166C00EC462DE93010DFF85CC04FEA8606B44436
:10167C00DCF800C0E047DDF810E0DDF80CC08CF3BE
:10168C00098803B40E488068D0F8901051F001011D
:10169C00C0F89010BFF34F8FEFF3148C5CF0010C7B
:1016AC008CF31488BFF36F8F03BC4FF000014FF025
:1016BC0000024FF00003C4465CF0010C60470000D0
:1016CC00DC1E0024A8B5000837B54FF0FF3301939A
:1016DC000023C55C1DB18B4201D00133F9E71846DC
:1016EC00002101910199116003B030BD044B996840
:1016FC005869884203D003494FF080520A60704702
:10170C00DC1E002404ED00E010B5204C45212048DF
:10171C0008F005FCA36A990136D51E48452108F04E
:10172C00FEFB1E20A36ADA0104D51B48452108F0F4
:10173C00F6FB1F20154CA36A1B0304D51748452143
:10174C0008F0EDFB2120A36A590304D51448452168
:10175C0008F0E5FB22200D4CA36A9A0304D511482E
:10176C00452108F0DCFB2320A36ADB0304D50E48DB
:10177C00452108F0D4FB2420044A936A6FEA034302
:10178C006FEA1343936210BD1D20CBE700ED00E020
:10179C003BBF000858BF000870BF00088FBF00088F
:1017AC00B2BF0008DCBF0008FBBF00082DE9F843FE
:1017BC00474E0546894647484521174608F0AFFB7A
:1017CC00B36AD90627D511244521434808F0A7FB55
:1017DC00B36A1A0704D512244521404808F09FFB30
:1017EC003B4EB36A9B0718D545213D4808F097FB43
:1017FC00D6F83480B36A1C0652D542464521394886
:10180C0008F08DFBB9F1000F03D0B36A23F080030D
:10181C00B362132403E01024DAE76FF015082C4EA2
:10182C00B36AD80704D5142445212F4808F077FB58
:10183C00B36A990604D5152445212C4808F06FFB92
:10184C00234EB36ADA0602D4B36A9B070AD57368CF
:10185C00180507D52946404600F06AFB18B380F3FB
:10186C00098802241A4B9A6A920603D55A6A22F402
:10187C0000525A629A6A42F0FF029A621C4BAA69A1
:10188C0023F00103934220D81A4B23F00103934217
:10189C001BD9194BAB61012320463B70BDE8F88383
:1018AC006FF01508B5E7B36AD906DBD5134940F2DA
:1018BC005D13134A134808F0DDFA134808F0DAFAFE
:1018CC0040F25D110E4808F0C1FA0023E4E700BFB6
:1018DC0000ED00E02BC0000846C000087EC00008E8
:1018EC0096C00008B3C00008CEC00008F2C00008C3
:1018FC00DF160008E1160008F116000858C10008B0
:10190C0026C10008C6B90008A2C10008F8B5304CC1
:10191C0005460F462F484521164608F000FBA36AE2
:10192C00D90448D52C48452108F0F9FA1720A36AA8
:10193C001A0504D52948452108F0F1FA1820244C41
:10194C00A36A9B0511D52648452108F0E8FAA26B3D
:10195C00A36A180408D54521224808F0E0FA1FB103
:10196C00A36A23F40043A3621920194CA36A5905F6
:10197C0004D51D48452108F0D2FA1A20A36ADA05CD
:10198C001BD51A48452108F0CAFA1B20104A936A45
:10199C0043F47F439362164BAA6923F001039342ED
:1019AC0014D8144B23F0010393420FD9124BAB61A3
:1019BC0001233370F8BD1620B9E7A36A9B04E5D563
:1019CC000E48452108F0ABFA1C20DFE70023F0E7B6
:1019DC0000ED00E0C5C10008E0C100087EC00008B1
:1019EC00F6C1000814C200082EC200084EC200083E
:1019FC00DF160008E1160008F1160008F2C0000816
:101A0C00744BF0B5044658688BB00025C0F308033E
:101A1C0085F31188BFF36F8F02F07F46B6F17F4FCD
:101A2C0007D102F00C06082E12D145216A4808F0A5
:101A3C0076FA6A494FF48B63694A6A4808F01AFAD5
:101A4C00694808F017FA4FF48B61654808F0FEF905
:101A5C0016074CBF0C460125002CEAD00026DA1ED6
:101A6C008DF80760092A00F2A380DFE802F00596E2
:101A7C009A79A1A1A1A1A19E45215C4808F04FFA39
:101A8C008DF80760534EF36A9A0705D545215848DF
:101A9C0008F045FA002329E0F36A002B02DA45210D
:101AAC005448F5E7F36A5B006AD54521524808F0C3
:101ABC0036FA7369A26943F480737361BFF34F8F75
:101ACC00BFF36F8F736932F8022C23F48073736148
:101ADC00BFF34F8FBFF36F8F4DF602739A4225D130
:101AEC0022684521454808F01AFA23689DF807201A
:101AFC00D2B902AE04F120072068083454F8041C53
:101B0C003246BC4203C21646F6D1099A002D5CD06F
:101B1C00C2F3080121B96FEA52226FEA42220992FC
:101B2C0002A91846FFF7E0FC0BB0F0BDB36ADBB2BC
:101B3C003BB10DF1070201212046FFF737FE0346AA
:101B4C00D4E7B36A13F47F4F06D00DF107020121DD
:101B5C002046FFF7DBFEF2E7B36AB3F5803F02D312
:101B6C00FFF7D2FDEBE7264940F22A331C4A1D4809
:101B7C0008F080F9234808F07DF940F22A3164E737
:101B8C001F4940F22E33164A164808F073F91E48C6
:101B9C0008F070F940F22E3157E70DF107020021E1
:101BAC00CAE70DF107020021D2E7452117486FE77C
:101BBC0010F4F87F1649174AA3F1100308BF0A4620
:101BCC001548452108F0ABF964E722F4FF7222F0C6
:101BDC000102A4E700ED00E099C20008C9C20008A8
:101BEC0026C10008C6B90008DCC200081AC30008E8
:101BFC0036C300085CC300086FC3000893C3000819
:101C0C0088CC0008B4C30008D8C3000808C4000876
:101C1C006BC2000880C2000831C40008024A536934
:101C2C0043F010035361704700ED00E0EFF30880C0
:101C3C00EFF3098101B57246FFF7E2FE01BD00BF6B
:101C4C00102080F3118808484FF40461401880F389
:101C5C000988EFF314800221084380F31488BFF342
:101C6C006F8F00F0EBF8000000200024084B9B68FD
:101C7C0083420BD1EFF3058343B1064B5A6842F014
:101C8C0080525A605A6A22F400425A6205F0E4BB50
:101C9C00DC1E002400ED00E00A4A6FF00A01936894
:101CAC00C3F88C100849C3F888004B6843F0805384
:101CBC004B60002383F31188BFF36F8F9368D3F8C5
:101CCC008C007047DC1E002400ED00E01C498A6883
:101CDC004FF030001044EFF3098C80E8F01F102017
:101CEC0080F31288BFF36F8F164F4FF000664A696E
:101CFC008A603E604FF0840414192068124C2060F6
:101D0C00D2F888000023C2F8883080F3118804B51B
:101D1C00104600F099F9BDE80440D2F89000EFF3BA
:101D2C00148323F0010343EA000383F31488BFF305
:101D3C006F8F02F1300090E8F01F8CF30988704728
:101D4C00DC1E002404ED00E0001800241EF0040F3B
:101D5C000CBFEFF30880EFF30980816911F8021CC6
:101D6C00EFF31482032908D012F0010F01D10229DC
:101D7C00FFD001B508F0E0F801BDD0F818800D498E
:101D8C0081614FF09B0C664502D306604FF09A06BA
:101D9C0009488068D0F8901021F00101C0F890102B
:101DAC00BFF34F8F22F0010282F31488BFF36F8FC1
:101DBC00704700003D160008DC1E002400B200280D
:101DCC0007DB0123410900F01F00024A834042F85F
:101DDC002130704700E100E038B54B1C04460D463D
:101DEC000F2B0FD95823104A1049114808F042F80C
:101DFC00294610480F23224608F03CF858210A487F
:101E0C0008F024F800B21B010028DBB206DB00F15D
:101E1C00604000F5614080F8003338BD00F00F00E1
:101E2C00054A1354F9E700BF49C4000880C40008F0
:101E3C00C6B900089BC4000814ED00E00F4A08B5B1
:101E4C0022F07F020E4B9A60BFF34F8FBFF36F8F60
:101E5C00D3F8882022F47002C3F88820EFF314839F
:101E6C0023F0040383F31488BFF36F8F02F000FB9D
:101E7C0005F044FC00F0BCF802F04CFB000000083C
:101E8C0000ED00E00E4C9A468846914683B5A36857
:101E9C000746986F06F0AEFFA56840304A466C6E58
:101EAC0041462E6EAB6E4034403EC5F894006C66D5
:101EBC00E41A2E6653463846CDE90064FFF776FBEC
:101ECC00DC1E002470B50446084615461E4608F074
:101EDC0062FB28B1236E40332366636E403B63661E
:101EEC00227BA5F12003104912F0040F0F4A45F88C
:101EFC00206C18BF0A4622F0010245F8082C049AFF
:101F0C0045F81C2C059A45F8182C069A45F8142C03
:101F1C004FF0807245F8042C23650023C4F88830F8
:101F2C00C4E9243370BD00BF911E0008610F000886
:101F3C00164A034610B5946824B3D4F8940098B1AB
:101F4C00EFF3148212F001020CD113F1160F05D02D
:101F5C00A0F140049C4217D8984215D9884298BFEA
:101F6C00002010BDA06FF9E713F1160F226E05D0FB
:101F7C00A2F140049C42F4D89342F2D2914238BF71
:101F8C001046EEE72046ECE71046EAE7DC1E00249C
:101F9C0014460B4A0D4608B50A4B9060D0F88420C5
:101FAC001A6000F051F8204685F30988002163B6C9
:101FBC0081F31188BFF36F8F00220023FEF7CAFF55
:101FCC00DC1E002400180024014910220A6070470E
:101FDC0010ED00E072B6404080F31188BFF36F8FB4
:101FEC00BFF34F8F30BF62B6BFF36F8F704700BF28
:101FFC00002304481021C2180133A32B82F80013CC
:10200C00F9D1704700E100E001B5EFF30580A0F1D4
:10201C0010004FEAC0000449014409C99847BDE8C3
:10202C000140024908470000BCAC0008F916000842
:10203C00024B0121024A034800F084B90000052438
:10204C000000002494B20008F8B5436F0446002B3E
:10205C0040D093F8C82003F1C00C002147484FF042
:10206C000C0E5D68E5B111290CD94549E823454AA8
:10207C00454807F0FFFE454807F0FCFEE8214148C3
:10208C0007F0E4FE0EFB01F61F680131013A00EB8C
:10209C00060587515E68C9B26E609E68AE6002D05C
:1020AC000C336345DDD1D4F89430344AEBB1A66FD0
:1020BC001129D4E918030344A3EB06030CD93049C6
:1020CC00FE23304A304807F0D5FE304807F0D2FEE8
:1020DC00FE21D4E71946E6E70C20484301311518D8
:1020EC00C9B216506B602A4BAB60D4F8945095B1C2
:1020FC00403D284CA54222D240F21F13214A2649CA
:10210C00214807F0B7FE29462246244807F0B2FEC4
:10211C0040F21F11B3E7266EA56F403EAE420ED0C3
:10212C004FF49573174A1E49174807F0A3FE314622
:10213C00A26F1C4807F09EFE4FF495719FE7112982
:10214C000CD90F494FF498730E4A0F4807F092FEC2
:10215C000E4807F08FFE4FF4987190E70C234B4319
:10216C000131D018D550104B4022C9B2C0E901231F
:10217C000248BDE8F84000F02BB900BFC41C002495
:10218C000FC50008DBC40008C6B9000831C500083B
:10219C0000000B13005400245FC5000892C5000812
:1021AC00CFC50008FBC5000800000B154FF010034D
:1021BC00EFF3118283F31288BFF36F8F054BC3F8D3
:1021CC009800D3F8A00082F31188BFF36F8F00F052
:1021DC000100704700ED00E0084AC2F898000B6857
:1021EC0023F01F03034343F01003C2F89C308B68A9
:1021FC0043F00103C2F8A030704700BF00ED00E0CF
:10220C001FB50B6802460193D1E9010307F0CAFE22
:10221C000F2A43EA00031046039308D906484521C8
:10222C0007F07DFE6FF0150005B05DF804FB01A909
:10223C00FFF7D2FFF8E700BF39C60008044B0522B0
:10224C00C3F89420BFF34F8FBFF36F8F704700BF5D
:10225C0000ED00E0BFF35F8F024B0022C3F8942027
:10226C00704700BF00ED00E0024B1878C0F1100081
:10227C00704700BFF01F00242DE9F04105461746BA
:10228C004FF01003EFF3118683F31288BFF36F8FB7
:10229C000F24DFF8AC802046FFF788FF002843D0DE
:1022AC004FF01003EFF3118083F31288BFF36F8F9D
:1022BC00C8F89840D8F89C30D8F8A02080F3118842
:1022CC00BFF36F8F71B3481E28182DD223F01F0354
:1022DC009D4229D3C2F3440C0122013B0CF1010CA9
:1022EC0002FA0CF2134483421ED34FF01003EFF3A7
:1022FC00118283F31288BFF36F8F114BC3F8984090
:10230C00D3F8A03082F31188BFF36F8F1C0EC3F388
:10231C00026397B1033B5C425C41B4FA84F46409F8
:10232C00644203E00846CFE7013CB4D286F311883F
:10233C00BFF36F8F2046BDE8F08104F00204ECE798
:10234C0000ED00E0F8B51C4F0D46044600263B7826
:10235C00AE4211DA62685AB3511E0A4210D11F2ADA
:10236C000ED9226811420BD1D8B22146FFF748FF93
:10237C0010F1160F03461AD13B70163307D0F8BD77
:10238C00324645210D4807F0CAFDEA233B7040F266
:10239C006D130B4A0B490C4807F06CFD29460B4892
:1023AC0007F068FD40F26D11054807F04FFD013351
:1023BC0001360C34CCE700BFF01F0024E3C6000844
:1023CC0064C6000888CC0008C6B900080BC7000812
:1023DC00194B70B50D461B7804460026AE4207DB40
:1023EC0013F1160F17D0154A00210F2B0DDD70BD00
:1023FC0062683AB12146D8B2FFF702FF10F1160F0E
:10240C0009D0431C01360C34E8E7C2F8983001338C
:10241C00C2F8A010E9E74FF4C673094A09490A4803
:10242C0007F028FD2946094807F024FD4FF4C67132
:10243C00034807F00BFD00BFF01F002400ED00E087
:10244C0064C6000888CC0008C6B9000837C7000865
:10245C002DE9F0436A4D85B02C68102C10D94FF43F
:10246C00D273684A6849694807F004FD2146102276
:10247C00674807F0FFFC4FF4D271624807F0E6FCA6
:10248C0000200C26FFF7E6FE844221D1614E6846FF
:10249C000025DFF884813470FFF720F80746AF423F
:1024AC001DD1FFF7CBFE5D4BD3F89030C3F3072360
:1024BC00102B00F0A1805A4940F21323514A534883
:1024CC0007F0D8FC574807F0D5FC40F21321D4E7AD
:1024DC00696806FB0011FFF77FFE0130D4E7009A14
:1024EC00290102EB0513D3F80C9009EA0804B4F5A2
:1024FC00000F64D019D8B4F5001F3AD0B4F5800F92
:10250C0051D0B4F5801F20D04521474807F007FD76
:10251C003D494FF4E7733B4A3C4807F0ABFC43485A
:10252C0007F0A8FC4FF4E771A7E7B4F1807F50D017
:10253C00B4F1007FE8D15C685258986807F032FD1E
:10254C0040F48020CDE901420AE0986807F02AFDAA
:10255C0040F088505C68525840F43020CDE901427C
:10256C00039032780F2A3ED94521314807F0D7FC29
:10257C00CEE7986807F016FD40F088505C6819F0BB
:10258C00010F525840F40020CDE901420390E8D0ED
:10259C00284970231B4A1D4807F06CFC264807F09D
:1025AC0069FC702169E7986807F0FCFC5C6852587C
:1025BC0040F0E060CDE9014240F40030D0E75C68C7
:1025CC005258986807F0EEFC40F08270CDE9014259
:1025DC00C6E75C685258986807F0E4FC40F08870D5
:1025EC00CDE90142BCE701A91046FFF7F5FD3378B0
:1025FC0001350133337052E7002005B0BDE8F0839C
:10260C0058B2000864C6000888CC0008C6B9000897
:10261C0064C70008F01F00240000F0FF00ED00E08C
:10262C003EC800088FC80008EDC7000814C8000891
:10263C0039C6000898C70008BEC70008024808B58C
:10264C0008F0B4F9002008BDE865002408B5024B79
:10265C001B689847002008BD2418002410B5054CB1
:10266C00049AA368DA67FFF7F1FFA3680022DA6720
:10267C0010BD00BFDC1E0024034B044A1860937885
:10268C0043F002039370704724180024141800249C
:10269C000C23012110B5013B0A464FEA4101FAD146
:1026AC000A48B2F5006F20F4FF6121F0070101F533
:1026BC00006409D10130844288BF4FF48062044821
:1026CC00FEF752FD002010BD1946F8E7FF17002455
:1026DC002C1800242DE9F041054600244FF0010888
:1026EC004FF0B0460E4F2B7853FA84F01F280FDCB6
:1026FC0008FA00F3D6F8882033EA020208D1C6F8AB
:10270C00883057F830301BB107EBC002516898473E
:10271C0001346A78E3B29A42E5D2BDE8F08100BF99
:10272C009C1D0024044B03EB40000023013320F8D4
:10273C00022B9942FADC7047786500240F4B024655
:10274C0010B533F91000FF280AD14AB90C493C23C3
:10275C000C480D4A07F08EFB3C210B4807F076FB2A
:10276C004FF0B0410123D1F8804093402343C1F88E
:10277C008030BDE81040FFF721BB00BF7865002416
:10278C00F2C80008C6B90008B0C800080A4B30B53A
:10279C0053F830408C4204D103EBC0056D68954270
:1027AC0005D034B943F8301003EBC0035A60002055
:1027BC0030BD6FF00F00FBE79C1D0024034B002283
:1027CC0043F8302003EBC0035A6070479C1D002473
:1027DC00034B04489B6A13F0030F18BF002070478B
:1027EC00004402580090D00308B5094B1B6913F044
:1027FC00380308D0182B08D1FFF7EAFF7D23800897
:10280C005843400808BD0348FBE70020F9E700BF28
:10281C00004402580024F40010B50A68102A23D88A
:10282C00134BD340DB071FD54A68D3B2C2F34234F3
:10283C00C2F3042203F1B04304FA02F203F511339C
:10284C00186820EA02021A604968CBB2C1F302424E
:10285C00C1F3042103F1B0438A4003F51133186826
:10286C00024300201A6010BD6FF08500FBE700BF2B
:10287C000E40010008B5174B18680B68D42B1AD002
:10288C000CD8032B03D8F3B96FF0850016E00B2B93
:10289C0015D0102BF8D1FFF7A7FF0DE0D83B1C2B60
:1028AC00F2D8012101FA03F30B490B4209D140F292
:1028BC0011110B42E8D040081060002008BD002028
:1028CC00FAE78008F8E7FFF783FF7D238008584379
:1028DC00F2E700BF60650024001011116C4B37B596
:1028EC00D3F8E02042F00072C3F8E020D3F8E020E7
:1028FC0002F000720192019A1A6842F001021A6009
:10290C001A685207FCD51A6822F0180242F010021D
:10291C001A601A6902F03802182A17D11A6855077A
:10292C0007D41A6842F001021A60594A13685C070E
:10293C00FCD5574B1A6922F007021A611A6912F07A
:10294C00380FFBD19A6922F00F029A61504B1A682A
:10295C0022F080721A609A6A22F003029A629A6AD2
:10296C0022F47C7242F040029A62DA6A22F00C0283
:10297C0042F00402DA62DA6A22F00202DA621A6BBC
:10298C0022F4FF7222F0010242F07C021A63DA6A2E
:10299C0022F00102DA621A6B22F47E421A63DA6ABE
:1029AC0042F48032DA621A6B22F4FE021A63DA6A9B
:1029BC0042F40032DA621A6B22F0FE421A63DA6ACF
:1029CC0042F48022DA621A6842F080721A601A6845
:1029DC009001FCD52F4BDA6822F0070242F002027C
:1029EC00DA609A6922F440429A619A699104FCD5A2
:1029FC00294DFFF7F9FE0446A84202D8274801F0FA
:102A0C00DFFA234B9A6922F470629A619A6922F078
:102A1C000F0242F008029A61DA6922F0700242F069
:102A2C004002DA61DA6922F4E06242F48062DA612F
:102A3C009A6922F0700242F040029A611A6A22F0FE
:102A4C00700242F040021A621A6922F0070242F048
:102A5C0003021A611A6902F03802182AFAD1AC4240
:102A6C0002D90E4801F0ACFA0A4BDA6822F00702E0
:102A7C0042F00202DA609A6922F440429A619A6941
:102A8C009204FCD5064B0020064A1A6003B030BDF8
:102A9C0000440258004802587FB2E60E80B2E60E9F
:102AAC00606500240065CD1D08B5074807F040FDA2
:102ABC0038B10648FFF7E0FD0448FEF7D9F90020CD
:102ACC0008BD6FF01200FBE794AC0008DD2A00088B
:102ADC000A2838B50446074D04D1AB680D212846A9
:102AEC005B689847AB68E1B202485B689847204640
:102AFC0038BD00BF94AC000810B5036961B920491A
:102B0C003A23204A204807F0B5F9204807F0B2F9DB
:102B1C003A211C4807F09AF9486850B91C493B23E4
:102B2C00184A194807F0A6F91A4807F0A3F93B21EF
:102B3C00EFE79868F8B1884219D1DC680868A142BF
:102B4C00986000D1D860002008602AB19A680A60A9
:102B5C00DA68996002B9D960002010E0814206D190
:102B6C0008682060D8688142EDD1DC60EBE7044650
:102B7C0000680028F2D1002AE8D16FF0150010BDD2
:102B8C006CC9000830C90008C6B9000875C900082E
:102B9C0084C9000896C9000838B503690446586012
:102BAC00084D284607F0C4FC40B161682846AB6864
:102BBC000C311B68984700EAE07038BD6FF01200CA
:102BCC00FBE700BF7CAB000870B5D1E9016119B11E
:102BDC0001250C68854001B970BD8A682A4010D067
:102BEC004B6863B90A495D230A4A0B4807F042F95E
:102BFC000A4807F03FF95D21064807F027F93046EF
:102C0C0098471CB1236821461C46E4E72346FAE7A3
:102C1C00ADC9000830C90008C6B9000896C900083B
:102C2C00F7B517460C461D464668B7F5001F0269F6
:102C3C0028D101F003030F2204339B009A4042EA8F
:102C4C009102374902F00303023351F82310130C9D
:102C5C0093FAA3F3B3FA83F301EA124203F01F03CE
:102C6C0022FA03F3B2689A4209D1204607F00DFA12
:102C7C002046FFF7A3FD0021204607F013FA0020A1
:102C8C0003B0F0BDB7F5800F44D026492046FFF7BE
:102C9C007DFD002841D1244A6B46B66892E80300BA
:102CAC0083E8030021481946826812689047D8B916
:102CBC0004F003030F2104339B00994041EA940173
:102CCC0001F003030A0C92FAA2F29B00B2FA82F210
:102CDC0003F1B04302F01F02D3F80804964020EA37
:102CEC0011410E43C3F80864B5F1806F0ED0B5F1F5
:102CFC00C06F0DD005F17E43594259414900204621
:102D0C0007F0D0F92046FFF719FDB8E70121F6E7E7
:102D1C000321F4E76FF08500B2E76FF00F00AFE727
:102D2C0000040058D52B000850B200087CAB0008FA
:102D3C00F7B55A4F14460A9A0546BB68CEB2DA6705
:102D4C00FDF7BEFA294607F0C9FA50B9A9680B6815
:102D5C0083B900914521524B524A534807F0DFF892
:102D6C0004E0504A4521514807F0D9F8BB68D86FA8
:102D7C0007F0F3F814F0FC6FD5F804E0D5F810C0A8
:102D8C000ED04B494FF473734A4A4B4807F072F814
:102D9C004A4807F06FF84FF47371464807F056F83D
:102DAC0004F03003302B0CD1454940F2CF33414A6B
:102DBC00414807F05FF8434807F05CF840F2CF3128
:102DCC00EBE7414B414A234093420CD1404940F23E
:102DDC00D333384A384807F04DF83E4807F04AF8E4
:102DEC0040F2D331D9E704F00603042B09D13A4958
:102DFC0040F2D6332F4A304807F03CF840F2D63137
:102E0C00CBE714F4402316D0A2030CD4334940F280
:102E1C00D933284A284807F02DF8314807F02AF80A
:102E2C0040F2D931B9E7B3F5402F19D02D4BA3435C
:102E3C0001D184F440240120DEF8003024F4801207
:102E4C00B040184219D1284940F2E933194A1A48BE
:102E5C0007F010F8254807F00DF840F2E9319CE72F
:102E6C00234940F2DD33134A134807F003F8214895
:102E7C0007F000F840F2DD318FE7DCF80030E407B2
:102E8C004CBF034383432846CCF800300B683146D3
:102E9C009847BB680022DA6703B0F0BDDC1E002443
:102EAC0082CD00080AD10008B0BB00087ABB00082C
:102EBC0084CA000853CA0008C6B90008E1CA000851
:102ECC0005CB00083ECB0008020003000200010005
:102EDC007BCB0008C2CB000811CC000844CC000806
:102EEC008ACC00080100100032CD000870CD00081B
:102EFC00C5CC000806CD0008F7B51D4E04460A9A4D
:102F0C000D46B368DA67FDF7DBF9214607F0E6F901
:102F1C0050B9A3685A6882B900934521154B164ADB
:102F2C00164806F0FCFF04E0134A4521144806F04D
:102F3C00F6FFB368D86F07F010F801220421284679
:102F4C0007F02EF8074650B10E4B45210A4A019363
:102F5C0004230D4800932B4606F0E1FFE9E7A36834
:102F6C00294620465B689847B368DF6703B0F0BD1D
:102F7C00DC1E002490CD0008F1D00008B0BB000886
:102F8C007ABB0008FEBB000804BC00082DE9F7431F
:102F9C00164E90460C9A0446B3680F46DA67FDF756
:102FAC008FF9214607F09AF9054668B9A368D3F85A
:102FBC000890B9F1000F10D1009345210C4B0D4A2C
:102FCC000D4806F0ACFF04E00A4A45210B4806F018
:102FDC00A6FFB368D86F06F0C0FF424639462046BC
:102FEC00C847B368DD6703B0BDE8F083DC1E00247E
:102FFC009DCD0008D1D00008B0BB00087ABB0008FA
:10300C00F7B5144E04460A9A0F46B368DA67FDF713
:10301C0057F9214607F062F9054650B9A368DA68FA
:10302C0082B9009345210C4B0C4A0D4806F077FFF2
:10303C0004E00A4A45210B4806F071FFB368D86FCB
:10304C0006F08BFF394620469047B368DD6703B026
:10305C00F0BD00BFDC1E0024B1CD0008B3D00008C9
:10306C00B0BB00087ABB0008F7B5144E04460A9AA8
:10307C000F46B368DA67FDF723F9214607F02EF9FE
:10308C00054650B9A3681A6982B9009345210C4BC7
:10309C000C4A0D4806F043FF04E00A4A45210B4850
:1030AC0006F03DFFB368D86F06F057FF394620464F
:1030BC009047B368DD6703B0F0BD00BFDC1E002491
:1030CC00C3CD000893D00008B0BB00087ABB000841
:1030DC00F7B5144E04460A9A0F46B368DA67FDF743
:1030EC00EFF8214607F0FAF8054650B9A3685A697B
:1030FC0082B9009345210C4B0C4A0D4806F00FFF8A
:10310C0004E00A4A45210B4806F009FFB368D86F62
:10311C0006F023FF394620469047B368DD6703B0BD
:10312C00F0BD00BFDC1E0024D7CD000876D000080F
:10313C00B0BB00087ABB00082DE9F341484F144698
:10314C000A9A0546BB68CEB2DA67FDF7B9F829468C
:10315C0007F0C4F868B9AB68D3F81880B8F1000F61
:10316C0010D1009345213F4B3F4A404806F0D7FE13
:10317C0004E03D4A45213E4806F0D1FEBB68D86FBD
:10318C0006F0EBFE04F4C00369682A69B3F5C00FBE
:10319C000ED1384940F26F33374A384806F06AFE90
:1031AC00374806F067FE40F26F31334806F04EFEAA
:1031BC0063B9344940F273332F4A304806F05AFE53
:1031CC00314806F057FE40F27331EEE704F0E86345
:1031DC00B3F1C86F0CD12D4940F27633264A2748FB
:1031EC0006F048FE2A4806F045FE40F27631DCE750
:1031FC0004F0C863B3F5800F0CD1264940F27D333F
:10320C001D4A1E4806F036FE234806F033FE40F2F7
:10321C007D31CAE701230968B3400B420CD11F4929
:10322C0040F28733144A154806F024FE1C4806F079
:10323C0021FE40F28731B8E7210204D5126813420F
:10324C0001D084F0C06404F0C06304F0B072314665
:10325C002846C047BB680022DA6702B0BDE8F0819F
:10326C00DC1E00240ED0000852D00008B0BB0008B1
:10327C007ABB0008E8CD000853CA0008C6B900089C
:10328C0029CE000855CE00087FCE0008AACE000833
:10329C002BCF00087FCF0008C9CF000832CD000823
:1032AC0070CD000873B5134E0446089AB368DA67FC
:1032BC00FDF706F8214607F011F8054650B9A3684A
:1032CC001A6A82B9009345210B4B0C4A0C4806F044
:1032DC0026FE04E0094A45210A4806F020FEB368A0
:1032EC00D86F06F03AFE20469047B368DD6702B00F
:1032FC0070BD00BFDC1E002426D0000836D00008AC
:10330C00B0BB00087ABB00082DE9F047044600EB7F
:10331C00C1060025244FB44201D1002014E02068DE
:10332C00C30600F01F0811D4656845F02005C0F3F2
:10333C00471AC0F343200A2832D857F82090B9F125
:10334C00000F1CD16FF01200BDE8F087B8F1100F20
:10335C0013D0B8F1110F01D16568E8E7B8F1000F8F
:10336C00E5D1124940F20B131148124A06F082FDC6
:10337C0040F20B110F4806F069FD3025D7E748469F
:10338C0007F0D6F80028DDD043462A460AF00F0194
:10339C00484606F08BFF002804F10804BBDAD3E79B
:1033AC006FF01500D0E700BFA0B3000857D100089C
:1033BC00C6B9000824D1000837B503690C46456826
:1033CC001868E9688368DB682BB94521134806F057
:1033DC00A6FD03B030BD01AA98470028F5DB2A688A
:1033EC00136823F4004313603CB1019B2A6803EB80
:1033FC005403B3FBF4F39BB2D3602B68DB680F2B45
:10340C00E7D80749C323074A074806F033FD0748A6
:10341C0006F030FDC321034806F018FD80D10008EA
:10342C00E2D10008B3D10008C6B90008FFD10008EA
:10343C00F8B50C46036941685D682379012B15D0FA
:10344C009F1E7E427E41B6026279022A96BF444F8D
:10345C004FF4005737F81270A279022A09D0042AC7
:10346C002FD0003B18BF01231B0306E04FF4C066AE
:10347C00EAE7B3FA83F35B091B07E2790968012ACF
:10348C0014BF4FF0000C4FF4407CA5421CD10A68CD
:10349C0022F0805222F4B05232431A430A604B6835
:1034AC0023F440533B434B6043681A68936823F4FE
:1034BC00407343EA0C0393602968BDE8F840FFF7BA
:1034CC007BBF4FF48053D8E7D1F800E00EF4C06E08
:1034DC00764506D0D1F800E02EF4C06E4EEA060612
:1034EC000E6041680E68716801F440518F4204D03F
:1034FC00716821F440513943716041680E6831683C
:10350C0001F010218B4204D0316821F010210B43C3
:10351C003360436819688B6803F440739C4505D08D
:10352C008B6823F4407343EA0C038B6043681B687D
:10353C009968490405D5032A09D09A6822F4804277
:10354C0004E0032A03D19A6842F480429A6021680D
:10355C002B68994203D0FFF72FFF23682B60F8BD2F
:10356C0014B8000873B505464668046964482060C1
:10357C0006F0DEFF40B9452162486FF0120406F0F8
:10358C00CEFC204602B070BD2068F16883681B68D1
:10359C0098470446E8B901AA0021F06906F0AEFE8E
:1035AC00041EEEDB019B002219791868FFF7ACFEB4
:1035BC00041EE6DB6C682B6922685E68136823F0D6
:1035CC0001031360606806F0B3FF48B945214E480B
:1035DC00D3E745214D4806F0A2FC002CD1DBDAE7FD
:1035EC00D4E901018368DB6803B19847226852E88B
:1035FC00003F43F00C0342E800310029F7D131467B
:10360C002846FFF715FF237D23B12268936843F00A
:10361C0008039360637D23B12268536843F400432D
:10362C005360A37D23B12268536843F48033536005
:10363C00E37D23B12268536843F400335360227E48
:10364C002368002A4ED0324A93422ED0A2F54C4227
:10365C0093422AD002F58062934226D002F5806212
:10366C00934222D002F5806293421ED002F544426E
:10367C0093421AD0A2F51C42934216D002F58062F6
:10368C00934212D002F51C4293420ED002F5806296
:10369C0093420AD01F4A934207D02A6845211E48FC
:1036AC006FF0150406F03BFC6BE76B681A689368C7
:1036BC0043F4804393602268617E136823F078732F
:1036CC0043EA415313602268A17E136823F4F81374
:1036DC0043EA01431360E37E23B12268936843F409
:1036EC00004393602268136843F00103136023685E
:1036FC00DA699102FCD5DA695202FCD5002440E764
:10370C007CAB000813D200085CD2000837D200084A
:10371C0000100140000C00587CD20008F8B502469D
:10372C00036946680C4608795D68012891F805E044
:10373C008B7922D1BEF1020F40F28480022B1F46FE
:10374C004FF4C0614FF4005C00F09680042B00F045
:10375C008D8028B1C31E012B40F28B804FF480501A
:10376C00BCF5805F00F09280BCF5405F00F090806B
:10377C00BCF1000F1CD101231BE002280AD1BEF1C1
:10378C00020F6CD9022B1F464FF480610BD04FF403
:10379C00005CDBE7BEF1020F64D9022B1F4663D13C
:1037AC0000286FD00021C31E012B62D900200227F4
:1037BC00032373455DD106F0EDFDB84259D1E37991
:1037CC0063B3012B66D1336834498B4226D0A1F503
:1037DC004C418B4222D001F580618B421ED001F509
:1037EC0080618B421AD001F580618B4216D001F5B5
:1037FC0044418B4212D0A1F51C418B420ED001F5F5
:10380C0080618B420AD001F51C418B4206D001F538
:10381C0080618B4202D022498B422AD131681046FA
:10382C000B6823F001030B602146FFF701FE3268A1
:10383C00136843F00103136094E8030085E8030068
:10384C000020F8BD4FF4C061164F022B37F81EC094
:10385C001F467FF47BAF78B94FF0805080E74FF470
:10386C008061F1E70021EFE7002190E700283FF4A9
:10387C0075AF6FF08500E4E7C31E012BF9D9022761
:10388C0000206DE701464FF0805091E7002390E750
:10389C0002238EE7032B96D0EBE700BF001001400C
:1038AC00000C005814B8000873B5134E0446089A5F
:1038BC00B368DA67FCF704FD214606F029FE0546DD
:1038CC0050B9A3689A6882B9009345210B4B0C4AF6
:1038DC000C4806F024FB04E0094A45210A4806F08E
:1038EC001EFBB368D86F06F038FB20469047B368D0
:1038FC00DD6702B070BD00BFDC1E0024BED2000824
:10390C006BD30008B0BB00087ABB000873B51F4E20
:10391C000446089A0D46B368DA67FCF7D1FC2146D9
:10392C0006F0F6FD50B9A3681A6882B900934521D8
:10393C00174B184A184806F0F2FA04E0154A4521CC
:10394C00164806F0ECFAB368D86F06F006FB0122B5
:10395C002846114606F024FB50B1114B45210D4A67
:10396C00019301230F4800932B4606F0D8FAEAE79F
:10397C00A3681B683BB1294620469847B3680022D0
:10398C00DA6702B070BD6FF05700F7E7DC1E002459
:10399C00C8D2000857D30008B0BB00087ABB000897
:1039AC00FEBB000804BC000873B51B4C0646089A05
:1039BC000D46A368DA67FCF783FC314606F0A8FDD8
:1039CC0050B9B3681A6882B900934521134B144A55
:1039DC00144806F0A4FA04E0114A4521124806F0F6
:1039EC009EFAA368D86F06F0B8FA01220221284685
:1039FC0006F0D6FA50B10D4B4521094A019302232A
:103A0C000B4800932B4606F08AFAEAE7A368D867BE
:103A1C006FF0850002B070BDDC1E0024C8D2000817
:103A2C003FD30008B0BB00087ABB0008FEBB0008FF
:103A3C0004BC0008F7B5144E05460A9ACFB2B36819
:103A4C00DA67FCF73DFC294606F062FD044650B9E6
:103A5C00AB685A6882B9009345210C4B0C4A0D484F
:103A6C0006F05DFA04E00A4A45210B4806F057FAC5
:103A7C00B368D86F06F071FA284639469047B36898
:103A8C002046DC6703B0F0BDDC1E0024D0D2000859
:103A9C002AD30008B0BB00087ABB000837B5114D1B
:103AAC000446089AAB68DA67FCF70AFC214606F074
:103ABC002FFD50B9A268516881B9009245210A4B7B
:103ACC000A4A0B4806F02BFA04E0084A452109483B
:103ADC0006F025FAAB68D86F06F03FFAAA68D067F3
:103AEC0003B030BDDC1E0024D0D2000811D3000876
:103AFC00B0BB00087ABB000873B51F4E0446089A89
:103B0C000D46B368DA67FCF7DBFB214606F000FDD7
:103B1C0050B9A3681A6982B900934521174B184A0A
:103B2C00184806F0FCF904E0154A4521164806F041
:103B3C00F6F9B368D86F06F010FA0122082128466E
:103B4C0006F02EFA50B1114B45210D4A0193082372
:103B5C000F4800932B4606F0E2F9EAE7A3681B69CD
:103B6C003BB1294620469847B3680022DA6702B079
:103B7C0070BD6FF05700F7E7DC1E0024D9D20008A7
:103B8C00FAD20008B0BB00087ABB0008FEBB0008E4
:103B9C0004BC000873B51F4E0446089A0D46B36862
:103BAC00DA67FCF78DFB214606F0B2FC024650B9F1
:103BBC00A368196981B900934521174B174A184816
:103BCC0006F0ADF904E0154A4521164806F0A7F9B0
:103BDC00B368D86F06F0C1F90821284606F0E0F961
:103BEC0050B1114B45210D4A019308230F48009306
:103BFC002B4606F094F9EBE7A368DB683BB129464A
:103C0C0020469847B3680022DA6702B070BD6FF0A7
:103C1C005700F7E7DC1E0024D9D20008E4D20008D4
:103C2C00B0BB00087ABB000826EA000804BC0008F8
:103C3C004FF0E0230F4910B59C691A6908689B691D
:103C4C0002F480320C4934B993B903464AB90A6874
:103C5C001044C01A10BD002B08BF03460AB9A3427A
:103C6C00F5D90A6802440A604FF0E0221269EEE7C7
:103C7C000446F3E7D01E0024CC1E00240A4B10226D
:103C8C00002083F823204CF25032084B1A604CF27F
:103C9C004F32074B18604FF0E0235A6198611A6954
:103CAC0042F007021A61704700ED00E0D01E0024BC
:103CBC00CC1E002410B5FFF7BBFF1049104B086851
:103CCC00D3E90042001942F10002C3E900020D4A97
:103CDC0000230B604CF25033D2E90041001BB0FBC7
:103CEC00F3F043431B1941F10001C2E9003103F029
:103CFC0043FFBDE81040FDF7F9BC00BFCC1E00240B
:103D0C00A01A0024981A00242DE9F041DFF8308124
:103D1C0099B1421C0BD14FF0E022136923F001033F
:103D2C0013614FF07F43C8F80030BDE8F081D8F83C
:103D3C000050012807DC00270BE0431CD8F800508A
:103D4C00F7D14FF4A77040F24F139842A8BF184612
:103D5C00471E4FF01003EFF3118483F31288BFF367
:103D6C006F8F384800F016FF68B98823364A3749F8
:103D7C00374806F07FF83349364806F07BF888213F
:103D8C00314806F063F82F4800F020FF324EFFF761
:103D9C004FFF4FF0E0239969D6E9002380184FF0CC
:103DAC00000243F10003C6E900032C4B1A602C4BB4
:103DBC001A68831A3BD44CF2503C0CFB073303F5C6
:103DCC0043434F33B3FBFCF7131A40F635420CFB5D
:103DDC000733934238BF1346224A934228BF1346F7
:103DEC004FF0E022C8F80030013B9069536100238A
:103DFC0081429361A1EB0003124838BF5B19D6E9ED
:103E0C0000125B1842F10002C6E9003200F0D0FE4D
:103E1C0080B940F231130C4A13490D4806F02AF8C8
:103E2C000849124806F026F840F23111A8E740F68E
:103E3C003543D5E784F31188BFF36F8F75E700BF67
:103E4C00D01E0024D41E002481D30008AED3000859
:103E5C00C6B90008C3D30008A01A0024CC1E002445
:103E6C00981A002460D2FE00D9D30008F0D30008C1
:103E7C0038B54FF01003EFF3118583F31288BFF3BD
:103E8C006F8F1C4800F086FE68B988231A4A1B49BC
:103E9C001B4805F0EFFF17491A4805F0EBFF882186
:103EAC00154805F0D3FF134800F090FE164B1C6824
:103EBC00164B1B68E41AFFF7BBFE04440D4800F0D8
:103ECC0077FE68B940F231130B4A11490C4805F0E2
:103EDC00D1FF08490F4805F0CDFF40F23111DFE763
:103EEC0085F31188BFF36F8F4CF25030B4FBF0F0B8
:103EFC0038BD00BFD41E002481D30008AED3000807
:103F0C00C6B90008C3D30008A01A0024981A0024CC
:103F1C00D9D30008F0D3000838B54FF01003EFF3F5
:103F2C00118583F31288BFF36F8F194800F032FEAE
:103F3C0068B98823174A1849184805F09BFF14499B
:103F4C00174805F097FF8821124805F07FFF1048AD
:103F5C0000F03CFE134B1C68FFF76AFE04440C484F
:103F6C0000F026FE68B940F231130A4A0E490B489C
:103F7C0005F080FF06490D4805F07CFF40F2311139
:103F8C00E2E785F31188BFF36F8F204638BD00BF81
:103F9C00D41E002481D30008AED30008C6B9000893
:103FAC00C3D30008A01A0024D9D30008F0D300080A
:103FBC00024A536823F00203536070470010005C00
:103FCC00024610B578B14F498B6913F440433FD189
:103FDC004D484E4C1044A04207D28B6903F4404329
:103FEC00B3F5404F51D101207CE04948494C104475
:103FFC00A04246D948481044A04244D9474882427E
:10400C00886900F4404007D9B0F5404FEBD089697E
:10401C00012001F440414CE0B0F5404F45D1404BFC
:10402C001344404A93428CBF002301233E490A6843
:10403C0022F00F021A430A600A6802F00F029A4239
:10404C005ED0086800F00F00C01A18BF012049E0CC
:10405C0000232C48816901F44041B1F5404F2BD12C
:10406C00324933481144814246D92D49A0F5742078
:10407C001144A0F51070814240D92E498A42D5D9FD
:10408C00B1E70223E5E70123E3E78B69002003F4A2
:10409C004043B3F5004F4FF0030319D02649274C8A
:1040AC001144A14226D9264918E08969184601F421
:1040BC004041B1F5004FF0E7816901F44041B1F5A1
:1040CC00004F10D11F4920481144814214D90020BF
:1040DC001E491D4C1144A1420CD91D498A4282D85B
:1040EC000028A3D010BD0C491A481144814203D3B7
:1040FC000020D3E70123F3E7022397E7012395E799
:10410C001846A1E7004802587FA77BF340D2DF0393
:10411C00FFC4A7F77F1D2C047FE2D3FB801D2C046A
:10412C003FA901FC7F14EF0300200052BF9412F84A
:10413C00BF56FE03C056FE033FF1E9FDBF0E16024B
:10414C00C00E1602FF1E0AFA7FF0FA027F0F05FD61
:10415C0080F0FA02C0E1E40038B5044678B1FFF70C
:10416C00DBFE054606480023064AA4FB0001FCF7CB
:10417C0027F90446FFF7D0FE431B9C42FAD838BD02
:10418C000065CD1D40420F0010B5054C049AA36884
:10419C00DA67FFF7E1FFA3680020D86710BD00BF06
:1041AC00DC1E002438B50C4C0C4DAC4211D90C491A
:1041BC0017230C4A0C4805F05DFE0C4805F05AFE1E
:1041CC001721084805F042FE2046143406F0F7FB90
:1041DC00EBE7F9D338BD00BF7CAB0008BCAC0008E2
:1041EC0028D4000805D40008C6B9000840D400083B
:1041FC0070B5054600283AD00478002C35D01D4CFB
:10420C001D4EB44215D91D492A231D4A1D4805F0DF
:10421C0031FE1D4805F02EFE2A21194805F016FE28
:10422C00204606F085F910B12368AB421DD014343A
:10423C00E7E7F5D30F4CB44215D910493023104A97
:10424C00104805F017FE104805F014FE3021E4E785
:10425C00204606F06DF920B121682846FCF71AFAC1
:10426C0018B11434E7E7F3D30024204670BD04469C
:10427C00FBE700BF7CAB0008BCAC000828D40008EE
:10428C0005D40008C6B9000840D4000810B50A4C83
:10429C008CB00146109A6846A368DA67302204F0A5
:1042AC00F1FE38B96846FFF7A3FFA3680022DA676E
:1042BC000CB010BD0020F8E7DC1E002470B5114DC9
:1042CC000446069AAB68DA67FBF7FAFF0021012275
:1042DC00064604F057FE014668B1002332462146DB
:1042EC0004F0DEFD0848094A452105F018FEAB68CC
:1042FC00D86F05F032FE204606F01AF9AB68D96784
:10430C0070BD00BFDC1E00247ABB00085FD400081F
:10431C0010B504464521034805F001FE204606F081
:10432C0012F900BF76D40008F7B504460D464FF0DD
:10433C001003EFF3118783F31288BFF36F8F224AB8
:10434C0004284FF04501966898BF204B127C94BF0F
:10435C0053F820301E4B009202461E4805F0DFFD3C
:10436C003DB1EB69C3F308031BB145211A4805F0B5
:10437C00D6FD36B1304606F00AF9034608B102788C
:10438C0002B9164B32464521154805F0C8FD2946A1
:10439C002046FFF7BDFF042C0CD112498A23124A88
:1043AC00124805F067FD124805F064FD8A210E489D
:1043BC0005F04CFD87F31188BFF36F8F304603B0C7
:1043CC00BDE8F040FDF752BCDC1E00243CB40008F4
:1043DC008AD40008A0D40008CDD4000898D40008D2
:1043EC00F3D4000832D5000810D50008C6B900086F
:1043FC004FD50008104B70B553F82040013053F8DE
:10440C002060A64200D870BDD4E9003595B153B1F7
:10441C002846984738B10028EB68B8BF4042FF28BF
:10442C00A8BFFF201870EA68537843F0010353705B
:10443C000834E6E79847FBE750B400080122032054
:10444C0008B5094B1A70FFF7D5FF04F047FE04209E
:10445C00FFF7D0FF00F0D6FAFCF7DCFB034A137B26
:10446C0023F00103137308BDF11F0024401B00242B
:10447C0003480021034A08B5121A06F06DF808BD6E
:10448C0080180024F41F002470B598231B4E86B0AE
:10449C00012203FB00660023194D044601931949C0
:1044AC00CDE904230F22CDE9023214234FF4A0727C
:1044BC0003FB00554FF4C070134B00FB0411304646
:1044CC00009500F0E5F8737B104A23F00403EE60CE
:1044DC002C7473734FF4046304FB033313446B6049
:1044EC00BFF35B8F0A4B53E8001F013143E8001206
:1044FC00002AF8D1BFF35B8F06B070BDA81A002458
:10450C00DC1E002440280024354D00080020002427
:10451C00D81E002480B50020ACB0FFF76BFF2B4BEE
:10452C0083F308882A4D0024F0232A4E2A4F85F85D
:10453C002230EC772C766C76AC7685F820406B6A62
:10454C0043F4E0236B62FDF769FBFDF73DFD4FF093
:10455C00FF33AB62EB62FDF77BFF204DFDF768FD8F
:10456C0040F201132694ADF824301D4B239306AB77
:10457C00CDE91E44B360FFF715FE0120FFF73AFFAB
:10458C000220FFF737FF02F0D7FC164B75614FF492
:10459C00806205930123144928460094CDE9034316
:1045AC00CDE901443B4600F073F86A7B0646284689
:1045BC0022F004026A7301F047FD2046FFF764FF06
:1045CC003A4631462846FDF7E3FC00BF402800245C
:1045DC0000ED00E0DC1E002449440008401B0024D0
:1045EC001C1F002436BB00080050002452EA0301B3
:1045FC0010B402D110BC01F0FFBD0249183010BC40
:10460C0003F00CB965A70008034B9A68137B23F0E1
:10461C0001031373704700BFDC1E0024034B002200
:10462C006FF057009B68DA67704700BFDC1E0024F0
:10463C00034B00226FF057009B68DA67704700BF8E
:10464C00DC1E002470B50F4E0546069AB368DA6777
:10465C00FBF736FE00230922294605F081FF0446AC
:10466C0040B109484521094A05F059FCB368D86F97
:10467C0005F073FC284601F0BFFDB3682046DC67EB
:10468C0070BD00BFDC1E00247ABB000853DA0008A2
:10469C002DE9FF47DDE90FA804460E46BAF10F0FCE
:1046AC0015461F4618D14B4B9F4219D118F0040FD9
:1046BC0029D0304605F06FFF28BB40F26323464AF1
:1046CC004649474805F0D6FB21463246454805F099
:1046DC00D1FB40F2632113E00AF110031E2BE5D944
:1046EC0040F257233C4A40493D4805F0C3FB514634
:1046FC006FF00F030E223D4805F0BCFB40F2572132
:10470C00354805F0A3FB20464FF0000906F057F999
:10471C00304606F054F9A667C4F87C902046214632
:10472C0006F039F904F158033046C4F8089084F8BF
:10473C000C8084F80EA084F80F90C4E9163304237F
:10474C00C4E90699637305F026FF60B1022D07D901
:10475C00013D0123B5FA85F5C5F1200503FA05F5F0
:10476C00B246A94606E0073506F1400A25F00709CE
:10477C0009F14005354420462946FCF7E7FE073091
:10478C000E9B314620F00700194EA0662D1A2046CC
:10479C002A46C4E918A902930D9B01930C9B009324
:1047AC003B46FDF78FFB00236365B36863B120467E
:1047BC0004F090F918F0080F03D02146B06804F00B
:1047CC0047FBB368D3F880302846C4F8803004B077
:1047DC00BDE8F087354D0008D1D50008A5D60008F6
:1047EC00C6B90008E8D60008F4D5000874D600084D
:1047FC00DC1E0024F0B587B00446DDE91265EFF34A
:10480C00058777B1144940F2D623144A144805F0B1
:10481C0031FB144805F02EFB40F2D6210F4805F071
:10482C0015FB0597109F04970F9F03970E9F0297F8
:10483C000D9F01970C9F0097FFF72AFFB5F1FF3FE3
:10484C0008BFB6F1FF3F04D032462B462046FFF797
:10485C00CDFE204607B0F0BD13D70008D1D5000817
:10486C00C6B9000825D700082DE9F04F054687B0DA
:10487C000E4617469846394CDDE916BAFBF720FD73
:10488C004FF0FF330922294605F06AFE70B9304615
:10489C00FBF716FD4FF0FF330B223146814605F036
:1048AC005FFE60B12E4A45212E4802E02C4A45217C
:1048BC002D4805F034FBA368D86F05F04EFBD9F8F2
:1048CC0008301B68BB4206D3149B5B070BD4244AED
:1048DC0045212648EDE7009345213B46204A2448D4
:1048EC0005F01DFBE7E7149B13F0010303D01C4AF2
:1048FC0045212048DDE7139A10321E2A29D8A268D8
:10490C00139992F90E208A4203DD154A45211A4863
:10491C00CFE705933A46149B314628460493139BE4
:10492C000393129B0293119B0193109B009343469C
:10493C00FFF7AEFEBAF1FF3F08BFBBF1FF3F04D05B
:10494C005A4653462846FFF751FE284607B0BDE8A5
:10495C00F08F034A45210948ABE700BFDC1E002459
:10496C003CDA00084AD700087ABB0008BDD700081B
:10497C0079D70008ECD700085CD8000823D80008C9
:10498C002DE9F0471B4E88B091469A46129A07467D
:10499C00119C8846B36818212046DA67002205F07E
:1049AC00FFFA054668B1144B4521144801931823AE
:1049BC00134A0093234605F0B2FAB368D86F05F09A
:1049CC00CCFAD4E90032D4E90201D4E904E4CDE90B
:1049DC000132109B4A46CDE90301009341465346F0
:1049EC003846CDE906E4FFF73FFFB368DD6708B052
:1049FC00BDE8F087DC1E002426EA000804BC000891
:104A0C0025DA0008F0B53C4C87B03C4DAC4226464C
:104A1C002AD93B4940F23D333A4A3B4805F02AFA41
:104A2C003A4805F027FA40F23D31364805F00EFAC7
:104A3C0054F80C3C059354F8103C049354F8143C73
:104A4C00039354F8183C029354F81C3C019354F80B
:104A5C00203C009354E90A2354E90C01FFF718FE9B
:104A6C0054F8303C5E65D1E7AE4204F13004DFD33C
:104A7C00274C284FBC4218D9274940F23233214ADF
:104A8C00214805F0F7F9214805F0F4F940F23231EC
:104A9C00CBE7216805F07FFF63689859043600283E
:104AAC00F7D10834E6E70026F6E7FCD3124C01F008
:104ABC006FFCAC4219D912494FF45773114A124882
:104ACC0005F0D8F9114805F0D5F94FF45771ACE75A
:104ADC00D4E90A23B3F1FF3F08BFB2F1FF3F02D084
:104AEC002068FFF783FD3034E3E7F1D307B0BDE86E
:104AFC00F04001F0BDBC00BFFCB10008FCB10008E7
:104B0C00AED80008D1D50008C6B9000840D40008BA
:104B1C00D4B10008D4B10008DBD80008DFF86080FD
:104B2C00164604460D46D8F8082080B51F46137B60
:104B3C0043F004031373FFF767FDD8F80830986F40
:104B4C0005F029FD70B90F494FF464730E4A0F48F4
:104B5C0005F090F90E4805F08DF94FF464710A4890
:104B6C0005F074F9D8F80800D0E918131944FCF7CB
:104B7C00EDFC3B46324629462046FDF783F900BF43
:104B8C00DC1E002400D90008D1D50008C6B90008E5
:104B9C003CD90008006838B1044B00F003001B7CC2
:104BAC00C01A18BF0120704701207047DC1E00247A
:104BBC00054A0346117C92680A4301680020914221
:104BCC0004BF186001207047DC1E0024024B1A7CC5
:104BDC009B68134303607047DC1E002438B50D4CF2
:104BEC000546069AA368DA67FBF76AFB00230922DD
:104BFC00294605F0B5FC40B107484521074A05F0A8
:104C0C008EF9A368D86F05F0A8F9A368D8676FF080
:104C1C00850038BDDC1E00247ABB00080EDA0008C3
:104C2C00F7B51A4D06460A9A0C46AB68DA67FBF7DD
:104C3C0047FB00230922314605F092FCB0B906F17E
:104C4C00180002F0FBFE012207460E462046082102
:104C5C0005F0A6F998B10E4B45210E4A0193082395
:104C6C000D480093234605F05AF904E00B4A452100
:104C7C000B4805F054F9AB68D86F05F06EF9C4E930
:104C8C000076AA68D06703B0F0BD00BFDC1E00241C
:104C9C00FEBB0008E6D9000804BC0008BED9000819
:104CAC007ABB0008F7B51A4D06460A9A0C46AB6853
:104CBC00DA67FBF705FB00230922314605F050FCAF
:104CCC00B0B906F1180002F005FF012207460E46A6
:104CDC002046082105F064F998B10E4B45210E4A87
:104CEC00019308230D480093234605F018F904E0BE
:104CFC000B4A45210B4805F012F9AB68D86F05F04B
:104D0C002CF9C4E90076AA68D06703B0F0BD00BFE7
:104D1C00DC1E0024FEBB000898D9000804BC000867
:104D2C0072D900087ABB000808B50D4B9B6893F943
:104D3C000E30002B09DA0B492A230B480B4A05F0DD
:104D4C0099F82A21094805F081F84FF01002EFF389
:104D5C00118382F31288BFF36F8FFDF73BF9F4E7F1
:104D6C00DC1E00248ADA0008C6B9000869DA0008DB
:104D7C0070B504460D461646FBF7A2FA4FF0FF320B
:104D8C00214605F00FFC30B9324629462046BDE8D5
:104D9C00704005F029BC05484521054A05F0BFF8CF
:104DAC00044B9B68D86F05F0D8F800BF7ABB00089D
:104DBC0018DC0008DC1E002438B5054C069DA368E1
:104DCC00DD67FFF7D5FFA3680022DA6738BD00BFA7
:104DDC00DC1E00242DE9F7430446894690461E4606
:104DEC00EFF3058373B152EA06030BD048497E23D7
:104DFC00484A494805F03EF8484805F03BF87E2102
:104E0C00444819E004F108054FF01003EFF3118743
:104E1C0083F31288BFF36F8F2846FFF7BBFE68B988
:104E2C0088233F4A3F493C4805F024F829463E4830
:104E3C0005F020F888213A4805F008F82846FFF7D5
:104E4C00C5FE626A23699A4249D2204601F004FFEA
:104E5C00064690B1E26800244946406905F004FE1C
:104E6C003046C6F88C4001F0EFF83946284601F080
:104E7C007DF9204603B0BDE8F083206A636998424F
:104E8C0002D3A369984207D328499823214A224880
:104E9C0004F0F0FF9821B3E7E268494605F0E4FD21
:104EAC00236AE2681344A2699342236204BF6369D4
:104EBC002362636A0133636200242846FFF778FE9D
:104ECC0000BB40F23113164A1949134804F0D2FFC3
:104EDC002946184804F0CEFF40F23111ABE758EAEE
:104EEC0006030CD0144B2246394628469B68C3F85F
:104EFC001490CDE9008601F07BFC0446B9E76FF015
:104F0C002204DAE787F31188BFF36F8FB1E700BF94
:104F1C00D4DA0008B2DA0008C6B900081ADB0008B7
:104F2C0081D30008AED30008C3D300081DDB0008F2
:104F3C00D9D30008F0D30008DC1E00242DE9F74378
:104F4C001A4E914698460C9AB36804460D46DA6799
:104F5C00FBF7B6F90022214605F024FB024680B986
:104F6C00E168284605F01CF8074698B1104B45211E
:104F7C00104A0193E368104800932B4604F0CFFFCE
:104F8C0004E00C4A45210D4804F0C9FFB368D86F02
:104F9C0004F0E3FF43464A4629462046FFF71AFF32
:104FAC00B368DF6703B0BDE8F08300BFDC1E0024EC
:104FBC0026EA000806DC000804BC00087ABB0008DE
:104FCC0073B5184E0546089A0C46B368DA67FBF7BA
:104FDC0077F90022294605F0E5FA80B901220C2167
:104FEC00204604F0DDFF98B10F4B45210F4A019389
:104FFC000C230F480093234604F091FF04E00B4A66
:10500C0045210C4804F08BFFB368D86F04F0A5FF62
:10501C00EA6822602A6962606A6AA260B268D06734
:10502C0002B070BDDC1E0024FEBB0008EEDB0008E5
:10503C0004BC00087ABB00082DE9F74304468846F7
:10504C0017461D46EFF3058373B152EA05030BD0E7
:10505C004D49DA234D4A4E4804F00CFF4D4804F0FC
:10506C0009FFDA21494819E004F108064FF0100352
:10507C00EFF3118983F31288BFF36F8F3046FFF77C
:10508C0089FD68B98823444A4449414804F0F2FE3A
:10509C003146434804F0EEFE88213F4804F0D6FE2A
:1050AC003046FFF793FD636A002B44D0E26840461C
:1050BC00E16905F0D9FCE369E26820461344A26972
:1050CC009342E36104BF6369E361636A013B63621A
:1050DC0001F0C2FD054600283FD0206A6369984262
:1050EC0002D3A369984207D32E49F323274A2848B1
:1050FC0004F0C0FEF321B5E76969E26805F0B4FC81
:10510C00236AE26828461344A2699342236204BFCF
:10511C0063692362636A013363620024C5F88C40BF
:10512C00254600F091FF4946304601F01FF828460D
:10513C0003B0BDE8F08357EA05030CD01A4B2246A6
:10514C00494630469B68C3F81480CDE9007501F0E0
:10515C004FFB0546EBE76FF022053046FFF728FDC5
:10516C0068B940F231130C4A1049094804F082FE28
:10517C0031460F4804F07EFE40F231118DE789F381
:10518C001188BFF36F8FD2E7D4DA0008B2DA0008C7
:10519C00C6B900081ADB000881D30008AED300089A
:1051AC00C3D300081DDB0008DC1E0024D9D3000883
:1051BC00F0D300082DE9F7431A4E914698460C9A05
:1051CC00B36804460D46DA67FBF77AF800222146ED
:1051DC0005F0E8F988B90122E168284604F0E0FE00
:1051EC00074698B1104B4521104A0193E3681048CB
:1051FC0000932B4604F093FE04E00C4A45210D4825
:10520C0004F08DFEB368D86F04F0A7FE43464A46FF
:10521C0029462046FFF710FFB368DF6703B0BDE8EF
:10522C00F08300BFDC1E0024FEBB0008DCDB0008A2
:10523C0004BC00087ABB0008F8B504460E4600F121
:10524C0008054FF01003EFF3118783F31288BFF3B7
:10525C006F8F2846FFF79EFC68B98823194A1A49B4
:10526C001A4804F007FE2946194804F003FE882169
:10527C00144804F0EBFD2846FFF7A8FC636ABBB1A9
:10528C00E2683046E169002405F0EEFB2846FFF7A2
:10529C008FFC80B940F231130A4A0E490B4804F0D6
:1052AC00E9FD29460C4804F0E5FD40F23111DFE739
:1052BC006FF02204EAE787F31188BFF36F8F204663
:1052CC00F8BD00BF81D30008AED30008C6B90008F2
:1052DC00C3D30008D9D30008F0D30008F7B5184E93
:1052EC0004460A9A0D46B368DA67FAF7E9FF00221A
:1052FC00214605F057F988B90122E168284604F0E7
:10530C004FFE074698B10F4B45210F4A0193E368B6
:10531C000E4800932B4604F002FE04E00A4A452195
:10532C000B4804F0FCFDB368D86F04F016FE294658
:10533C002046FFF781FFB368DF6703B0F0BD00BF05
:10534C00DC1E0024FEBB0008C9DB000804BC0008FE
:10535C007ABB00082DE9F84304468846154600F14F
:10536C0008064FF01003EFF3118983F31288BFF393
:10537C006F8F3046FFF70EFC68B988231E4A1F4911
:10538C001F4804F077FD31461E4804F073FD882158
:10539C00194804F05BFD3046FFF718FC636AAB421A
:1053AC001FD9E2684046D4E9067155437F1AAF42D3
:1053BC009CBF6169ED1B0024294405F055FB304668
:1053CC00FFF7F6FB80B940F231130B4A0E490C483B
:1053DC0004F050FD31460D4804F04CFD40F2311103
:1053EC00D6E76FF02204EAE789F31188BFF36F8FD9
:1053FC002046BDE8F88300BF81D30008AED3000877
:10540C00C6B90008C3D30008D9D30008F0D30008EC
:10541C002DE9F341194E90460A9A0446B3680D469D
:10542C00DA67FAF74DFF0022214605F0BBF888B980
:10543C000122E168284604F0B3FD074698B1104BF1
:10544C004521104A0193E3680F4800932B4604F062
:10545C0066FD04E00B4A45210C4804F060FDB3687E
:10546C00D86F04F07AFD424629462046FFF772FFBA
:10547C00B368DF6702B0BDE8F08100BFDC1E00241A
:10548C00FEBB0008B3DB000804BC00087ABB0008B4
:10549C00F8B5044600F108054FF01003EFF3118640
:1054AC0083F31288BFF36F8F2846FFF773FB68B93D
:1054BC008823124A1249134804F0DCFC294612488E
:1054CC0004F0D8FC88210D4804F0C0FC6FF02207D2
:1054DC002846FFF77BFB204601F0BEFB034640B994
:1054EC00236A314660622846E361BDE8F84000F06B
:1054FC003DBEC3F88C7000F0A7FDECE781D300082B
:10550C00AED30008C6B90008C3D3000870B50E4E60
:10551C000546069AB368DA67FAF7D2FE00222946E6
:10552C0005F040F8044640B108484521084A04F00B
:10553C00F6FCB368D86F04F010FD2846FFF7A8FFFF
:10554C00B3682046DC6770BDDC1E00247ABB000803
:10555C009FDB000838B50E4D0446069AAB68DA6737
:10556C00FAF7AEFE0022214605F01CF8034640B1C6
:10557C0008484521084A04F0D2FCAB68D86F04F007
:10558C00ECFC626A2069801AAA68D36738BD00BF38
:10559C00DC1E00247ABB000884DB000838B50D4DF6
:1055AC000446069AAB68DA67FAF78AFE00222146AF
:1055BC0004F0F8FF034640B107484521074A04F0C0
:1055CC00AEFCAB68D86F04F0C8FCAA68606AD367FD
:1055DC0038BD00BFDC1E00247ABB000869DB000864
:1055EC0070B50E4E0546069AB368DA67FAF768FE90
:1055FC000122294605F014F8044640B1084845211B
:10560C00084A04F08CFCB368D86F04F0A6FC28465A
:10561C0005F01DF8B368DC6770BD00BFDC1E00240C
:10562C007ABB0008B9DC00082DE9F34104461746A3
:10563C001E46EFF3058565B159496D23594A5A4801
:10564C0004F018FC594804F015FC6D21554804F081
:10565C00FDFB4FF01003EFF3118883F31288BFF3B7
:10566C006F8F5348FFF796FA60B98823514A524915
:10567C004D4804F0FFFB4E49504804F0FBFB8821D9
:10568C004C48E4E74A48FFF7A1FAE3684C4A9BB15F
:10569C00A0689168884229D057EA06032ED1444865
:1056AC00FFF786FAA0B188F31188BFF36F8F6FF004
:1056BC000F0002B0BDE8F081916891F90E10013332
:1056CC003B482161E3609368A360FFF771FA78B9F6
:1056DC0040F23113374A3B49334804F0CBFB344991
:1056EC00394804F0C7FB40F23111C9E72169E6E7FC
:1056FC0088F31188BFF36F8F0020DAE791F90E1051
:10570C006FF07E0290F90E309942A8BF1946914273
:10571C00B8BF11468B4202DD04F091FF05462246CC
:10572C0041462348CDE9007601F062F80028E3D029
:10573C004FF01003EFF3118683F31288BFF36F8FD2
:10574C001B48FFF727FA00288FD01948FFF73EFABD
:10575C00A068C0B1236821699C420AD04BB193F96F
:10576C000E309942A8BF19466FF07E039942B8BF1C
:10577C00194604F064FF30B131460D4800F0F6FCD8
:10578C006FF00A0095E7002DF6D10948FFF710FAE3
:10579C0000289DD086F31188BFF36F8FF0E700BF10
:1057AC0013D7000831DC0008C6B9000853DC000828
:1057BC00FC1E002481D30008AED30008C3D300081C
:1057CC00DC1E0024D9D30008F0D300082DE9F041E9
:1057DC00104E1746089A0546B3688846DA67FAF7FA
:1057EC006FFD0022294604F01BFF044640B10A4815
:1057FC0045210A4A04F093FBB368D86F04F0ADFB63
:10580C003B4642462846FFF70FFFB368DC67BDE80E
:10581C00F08100BFDC1E00247ABB0008A5DC000868
:10582C0070B50446EFF3058666B13949D523394A7C
:10583C00394804F01FFB394804F01CFBD5213548CE
:10584C0004F004FB8368002B5CD0354A92689342C9
:10585C005BD1C3683BB93349ED232E4A2E4804F083
:10586C0009FBED21EBE7012B03D0013BC3600020CA
:10587C0070BD4FF01003EFF3118583F31288BFF363
:10588C006F8F2948FFF786F960B98823274A284982
:10589C00214804F0EFFA2449264804F0EBFA882159
:1058AC002248CDE72048FFF791F92169A06804F060
:1058BC00C6FE204601F0D0F9A06058B190F90E2038
:1058CC002261C0F88C6000F0BFFB2946164800F03E
:1058DC004DFCCCE7E0601448FFF76AF968B940F278
:1058EC003113124A14490C4804F0C4FA0E491348F7
:1058FC0004F0C0FA40F23111D2E785F31188BFF3FE
:10590C006F8FB4E76FF01500B2E74FF0FF30AFE7E1
:10591C0013D7000831DC0008C6B9000853DC0008B6
:10592C00DC1E002478DC0008FC1E002481D3000857
:10593C00AED30008C3D30008D9D30008F0D30008B5
:10594C0070B50E4E0546069AB368DA67FAF7B8FCDE
:10595C000022294604F064FE044640B10848452163
:10596C00084A04F0DCFAB368D86F04F0F6FA28465B
:10597C00FFF756FFB368DC6770BD00BFDC1E002468
:10598C007ABB00088FDC00082DE9F04704460E4670
:10599C00904699469DF820A000F108054FF01003A1
:1059AC00EFF3118783F31288BFF36F8F2846FFF74D
:1059BC00F1F868B988233B4A3B493C4804F05AFA51
:1059CC0029463B4804F056FA8821364804F03EFA42
:1059DC002846FFF7FBF8BAF1000F00D0666804F117
:1059EC000C0001F039F960B10023C0F81480C0F844
:1059FC008C3000F029FB2846394600F0B7FB00201C
:105A0C001EE0B9F1000F2ED0082102F027FDC8B915
:105A1C002846FFF7CDF868B940F23113214A2549E1
:105A2C00224804F027FA2946234804F023FA40F2CE
:105A3C003111CAE787F31188BFF36F8F6FF00B003A
:105A4C00BDE8F0870122C0F804800260016801F013
:105A5C00030166B922680A43026062682060002A6A
:105A6C00C9D16060C7E74046C8F80090EEE73268DD
:105A7C00032A0BD80160616811B9C4E90000BAE7C8
:105A8C000A6802F0030202430A60EAE722F003020A
:105A9C000A430260326802F0030240EA02033360F8
:105AAC00A9E700BF81D30008AED30008C6B900082F
:105ABC00C3D30008D9D30008F0D3000870B50F4E3B
:105ACC000546069AB368DA67FAF7FAFB4FF0FF322D
:105ADC00294604F0C6FD044640B109484521094A4F
:105AEC0004F01DFAB368D86F04F037FA284604F0B6
:105AFC00D3FDB3682046DC6770BD00BFDC1E0024FC
:105B0C007ABB00087EDD000870B5054600F108047C
:105B1C004FF01003EFF3118683F31288BFF36F8FEE
:105B2C002046FFF737F868B98823104A1049114806
:105B3C0004F0A0F92146104804F09CF988210B4888
:105B4C0004F084F92046FFF741F805F10C0001F050
:105B5C0083F828B10022C0F88C20426100F074FA5E
:105B6C0031462046BDE8704000F000BB81D30008F0
:105B7C00AED30008C6B90008C3D3000870B50E4EEA
:105B8C000546069AB368DA67FAF79AFB00222946AB
:105B9C0004F067FD044640B108484521084A04F06A
:105BAC00BEF9B368D86F04F0D8F92846FFF7ACFFFC
:105BBC00B3682046DC6770BDDC1E00247ABB00088D
:105BCC0063DD0008F8B50F4E0546089A0F46B3681A
:105BDC00DA67FAF775FB0022294604F042FD044609
:105BEC0040B109484521094A04F099F9B368D86FC6
:105BFC0004F0B3F93946284604F058FDB368DC6765
:105C0C00F8BD00BFDC1E00247ABB000847DD00088D
:105C1C00F8B50F4E0546089A0F46B368DA67FAF7DF
:105C2C004FFB0022294604F01CFD044640B10948F4
:105C3C004521094A04F073F9B368D86F04F08DF963
:105C4C003946284604F03CFDB368DC67F8BD00BF5C
:105C5C00DC1E00247ABB00082ADD00082DE9F7437E
:105C6C00064691461F4600F108054FF01003EFF36E
:105C7C00118883F31288BFF36F8F2846FEF78AFFD3
:105C8C0068B98823244A2549254804F0F3F82946A5
:105C9C00244804F0EFF888211F4804F0D7F8284670
:105CAC00FEF794FF3468F4B1236820467268012132
:105CBC0023F003039442336008BF736004F0E0FCEC
:105CCC0004462846FEF774FFE8B940F23113124A35
:105CDC001549134804F0CEF82946144804F0CAF8C4
:105CEC0040F23111D8E759EA0703EAD006F10C0269
:105CFC0041462846CDE9009700F07AFD38B90C4BA7
:105D0C009B685C6903E088F31188BFF36F8F2046B2
:105D1C0003B0BDE8F08300BF81D30008AED3000808
