:020000040800F2
:10000000404A0024210F0008BD3800080D0F0008E9
:100010000D0F00080D0F00080D0F00080000000074
:100020000000000000000000000000000D100008AB
:100030000D0F000800000000A90F00089120000823
:100040008D1100088D1100088D1100088D11000818
:100050008D1100088D1100088D1100088D11000808
:100060008D1100088D1100088D1100088D110008F8
:100070008D1100088D1100088D1100088D110008E8
:0402CC00FFFFFFFF32
:1002D00053B94AB9002908BF00281CBF4FF0FF31AD
:1002E0004FF0FF3000F00CB8ADF1080C6DE904CE12
:1002F00000F008F8DDF804E0DDE9022304B07047FF
:10030000704700BF2DE9F04786468C460846089E98
:10031000154674461946002B40F0C2808542B2FA59
:1003200082F245D94AB1C2F1200300FA02FC2EFA4A
:1003300003F3954043EA0C0C94404FEA154EA8B2E3
:10034000BCFBFEF8230C0EFB18CC08FB00F943EABB
:100350000C43994528D9EB1808F1FF3704D2994589
:1003600002D9A8F102072B44A3EB0903A4B2B3FB03
:10037000FEFC0EFB1C330CFB00F044EA0344A042DD
:1003800014D92C190CF1FF3304D2A04202D9ACF1DC
:1003900002032C44241A43EA07401EB1D440002330
:1003A00034607360BDE8F0874746DDE76346F1E7F8
:1003B00092BB431B01214FEA154EAFB2B3FBFEFCCB
:1003C000200C0EFB1C330CFB07F840EA0343984556
:1003D00062D9EB180CF1FF3004D2984502D9ACF188
:1003E00002002B44A3EB0803A4B2B3FBFEFC0EFBFC
:1003F0001C330CFB07F744EA0344A7424ED92C19DF
:100400000CF1FF3304D2A74202D9ACF102032C4411
:10041000E41B43EA0040C0E7C2F1200320FA03F1E5
:10042000954090402EFA03F303434FEA154EAFB2C6
:10043000B1FBFEFC0EFB1C10190C0CFB07F841EA8B
:100440000041884504FA02F422D969180CF1FF3002
:1004500004D2884502D9ACF102002944A1EB08017D
:100460009BB2B1FBFEFC0EFB1C110CFB07F743EA31
:1004700001439F420ED9EB180CF1FF3104D29F4289
:1004800002D9ACF102012B44DB1B41EA004192E7A7
:100490006046E3E76146F7E76046A3E76346B7E7F0
:1004A000834206D916B9002108467BE7C6E900E079
:1004B000F9E7B3FA83F78FB9834201D3724508D8BD
:1004C000BEEB020460EB030301209C461EB9002131
:1004D00068E73846FAE7C6E9004CF8E7C7F1200CB0
:1004E000BB4022FA0CF41C432EFA0CF120FA0CF358
:1004F000B84001434FEA14490EFA07F5B3FBF9F887
:100500001FFA84FE09FB18300B0C08FB0EFA43EAB5
:1005100000439A4502FA07F240D9E31808F1FF3088
:1005200004D29A4502D9A8F102002344A3EB0A039E
:1005300089B2B3FBF9F809FB183308FB0EFE41EA58
:1005400003418E452CD9611808F1FF3304D28E4542
:1005500002D9A8F10203214443EA0040A0FB02981B
:10056000A1EB0E014145CE46434602D306D14D458F
:1005700004D2B9EB020E68EB04030138002EA6D0BA
:10058000B5EB0E0261EB030101FA0CFC22FA07F352
:100590004CEA0303F940C6E9003198E74046C5E755
:1005A0004346D9E700000000F0B54FF48073C3B0B4
:1005B00008224921009302AE3D4B3E4803F06DF9FD
:1005C000FF230022F354013B62F1000253EA0201CF
:1005D000F8D101F023FE00250446374F01354FF4D2
:1005E000FA6200233146384603F088F9802DF5D1B0
:1005F00001F014FE041B65EB050524196D4154EA56
:10060000050309D145212D4803F047F9404080F307
:1006100011884FF0030002DF22462B461EA1D1E9CC
:100620000001FFF755FE264BBFF35B8F07461B68A3
:100630000E464FF4802249212248BFF35B8F00937E
:10064000002303F02AF922462B4615A1D1E9000127
:10065000FFF73EFE64220023FFF73AFE49211A48C5
:10066000CDE900233A46334603F017F920462946E0
:100670000DA3D3E90023FFF72BFECDE900230246AB
:100680000B461248492103F008F922462B46104830
:1006900003F00FF843B0F0BD80B2E60E000000009A
:1006A00000BA1DD20500000000CA9A3B00000000FD
:1006B0007A4D00087C4D0008084B0008CC4D00081E
:1006C000E0070024F54D00081C4E0008424E0008CB
:1006D0005E4E0008064BBFF35B8F53E8001F01F529
:1006E000807143E80012002AF7D1BFF35B8F704797
:1006F000E007002413B50B4C4FF0FF324FF0FF33EF
:1007000001A9204603F033F908B102B010BD002260
:100710000023019803F023F9019803F024F9FFF76F
:10072000D9FFE9E7E401002413B50B4C4FF0FF3289
:100730004FF0FF3301A9204603F019F908B102B0C8
:1007400010BD00220023019803F009F9019803F07D
:100750000AF9FFF7BFFFE9E7EC01002413B50B4CE2
:100760004FF0FF324FF0FF3301A9204603F0FFF8AE
:1007700008B102B010BD00220023019803F0EFF889
:10078000019803F0F0F8FFF7A5FFE9E7F401002472
:1007900013B50B4C4FF0FF324FF0FF3301A9204649
:1007A00003F0E5F808B102B010BD00220023019863
:1007B00003F0D5F8019803F0D6F8FFF78BFFE9E7CF
:1007C000FC01002413B50B4C4FF0FF324FF0FF3308
:1007D00001A9204603F0CBF808B102B010BD0022F9
:1007E0000023019803F0BBF8019803F0BCF8FFF771
:1007F00071FFE9E70402002413B50B4C4FF0FF3200
:100800004FF0FF3301A9204603F0B1F808B102B060
:1008100010BD00220023019803F0A1F8019803F015
:10082000A2F8FFF757FFE9E70C02002413B50B4CC1
:100830004FF0FF324FF0FF3301A9204603F097F845
:1008400008B102B010BD00220023019803F087F820
:10085000019803F088F8FFF73DFFE9E71402002450
:1008600013B50B4C4FF0FF324FF0FF3301A9204678
:1008700003F07DF808B102B010BD002200230198FA
:1008800003F06DF8019803F06EF8FFF723FFE9E736
:100890001C020024014B1B68184700BF18000024ED
:1008A000014B1860704700BF1800002430B585B0B8
:1008B00004460D4610220021684603F0ACFC0223DA
:1008C0002A4621468DF802306846034B019302F018
:1008D000A5FC05B030BD00BF9508000880B50546F1
:1008E0000E461746984602F01FFBDFF8209003469D
:1008F00003F09AFC0446424649F800303946304637
:10090000A84754F8090000F021FB00BF08000000D0
:10091000324B70B55A6912F4003211D1BFF34F8FC8
:10092000BFF36F8FC3F85022BFF34F8FBFF36F8FAA
:100930005A6942F400325A61BFF34F8FBFF36F8F91
:10094000264A5369D90327D4536913F4803323D13A
:10095000C2F88430BFF34F8FD2F8803043F6E07492
:10096000C3F3C900C3F34E335B0103EA0406014637
:1009700046EA81750139C2F86052F9D2203B13F181
:10098000200FF2D1BFF34F8F536943F4803353618B
:10099000BFF34F8FBFF36F8F114B124A1A60124B88
:1009A000DA6822F0070242F00202DA609A6942F441
:1009B00040429A619A699204FCD50C4B1A6841F244
:1009C0000303B3EB124F06D1094AD2F8083143F0C2
:1009D0000103C2F80831002070BD00BF00ED00E047
:1009E000580000240090D003004802580010005C1A
:1009F00000800051014B036001207047904B0008BC
:100A000037B505460C46C9B18B6810480093D1E94B
:100A10000023452102F041FF636945210C48009302
:100A2000D4E9032302F039FFE2694521094802F0C5
:100A300034FFA2694521084802F02FFF21462846CD
:100A400003B0BDE8304001F0DFBC00BFDC4E000861
:100A5000104F0008444F0008584F000830BFFFF700
:100A6000FDBF00BF114B124A2DE9F041D518DFF848
:100A700044800746013DB5FBF3F55D430E4B08EBA3
:100A80000304013CB4FBF3F403FB04540E1B0B49B9
:100A9000304603F0B2FB7019083E4246002103F0D5
:100AA000BAFB04F108003E67BDE8F08101000000D8
:100AB0000000000004000000040000005C4B00087F
:100AC000044B99685869884203D003494FF080521B
:100AD0000A6070474009002404ED00E02DE9F84366
:100AE000364D8046894636484521174602F0D5FEE8
:100AF000AB6ADE0626D511244521324802F0CDFE30
:100B0000AB6A1D0704D5122445212F4802F0C5FE0B
:100B10002A4DAB6A980717D545212C4802F0BDFE37
:100B20006E6BAB6A190645D532464521284802F05E
:100B3000B4FEB9F1000F03D0AB6A23F08003AB62BF
:100B4000132403E01024DBE76FF015061B4DAB6A9E
:100B5000DA0704D5142445211E4802F09EFEAB6A34
:100B60009B0604D5152445211B4802F096FE134B25
:100B70009A6AD50602D49A6A90070AD55B68190565
:100B800007D54146304600F0AFFA10B180F309882E
:100B900002240A4B9A6A920603D55A6A22F400523A
:100BA0005A629A6A204642F0FF029A6200233B7022
:100BB000BDE8F8836FF01506C2E700BF00ED00E066
:100BC0008B4F0008A64F0008DE4F0008F64F0008C4
:100BD000135000082E5000085250000810B5204C49
:100BE0004521204802F059FEA36A990136D51E48D6
:100BF000452102F052FE1E20A36ADA0104D51B48EB
:100C0000452102F04AFE1F20154CA36A1B0304D5A0
:100C10001748452102F041FE2120A36A590304D55B
:100C20001448452102F039FE22200D4CA36A9A0394
:100C300004D51148452102F030FE2320A36ADB03CE
:100C400004D50E48452102F028FE2420044A936A68
:100C50006FEA03436FEA1343936210BD1D20CBE795
:100C600000ED00E086500008A3500008BB500008CB
:100C7000DA500008FD5000082751000846510008CE
:100C800070B5284C06460D462748452102F005FE62
:100C9000A36AD9043BD52548452102F0FEFD172063
:100CA000A36A1A0504D52248452102F0F6FD182052
:100CB0001C4CA36A9B0511D51E48452102F0EDFD91
:100CC000A26BA36A180408D545211B4802F0E5FD74
:100CD0001EB1A36A23F40043A3621920114CA36A36
:100CE000590504D51548452102F0D7FD1A20A36AFD
:100CF000DA050ED51248452102F0CFFD1B20094A26
:100D0000936A43F47F43936200232B7070BD1620D7
:100D1000C6E7A36A9B04F2D50A48452102F0BDFD4F
:100D20001C20ECE700ED00E076510008915100082E
:100D3000DE4F0008A7510008C5510008DF51000828
:100D4000FF51000852500008614B2DE9F0415F68E7
:100D50008AB004460025C7F3080685F31188BFF35F
:100D60006F8F02F07F43B3F17F4F07D102F00C0386
:100D7000082B14D14521574802F08FFD00252C4641
:100D80004FF00008F31E8DF80780092B00F28E80CB
:100D9000DFE803F00A81857D8C8C8C8C8C891007B0
:100DA0004CBF0C460125EBE7494E45214A4802F06D
:100DB00074FD8DF80780F36A9A0705D545214748E9
:100DC00002F06BFD002333E0F36A002B02DA4521C9
:100DD0004348F5E7F36A5B00F4D54521414802F04A
:100DE0005CFD7369A26943F480737361BFF34F8F35
:100DF000BFF36F8F736932F8022C23F48073736131
:100E0000BFF34F8FBFF36F8F4DF602739A4209D035
:100E1000B36ADBB26BB30DF1070201212046FFF785
:100E20005DFE36E0226845212F4802F036FD23683A
:100E30009DF80720D2B902AE04F1200720680834DB
:100E400054F8041C3246BC4203C21646F6D1099A35
:100E5000002D38D0C2F3080121B96FEA52226FEA9F
:100E60004222099202A91846FFF7CAFD0AB0BDE85E
:100E7000F081B36A13F47F4F05D00DF10701012013
:100E8000FFF7FEFE05E0B36AB3F5803F9AD3FFF7A4
:100E9000A5FE0346CCE70DF107020021BEE70DF1E8
:100EA00007010020ECE74521104889E717F4F87F97
:100EB0000F49104AA6F1100308BF0A460E48452103
:100EC00002F0EBFC7EE722F4FF7222F00102C8E799
:100ED00000ED00E04A5200087A52000896520008DD
:100EE000BC520008CF520008F35200081453000807
:100EF0001C520008315200083D530008024A536951
:100F000043F010035361704700ED00E0EFF30880F9
:100F1000EFF3098101B57246FFF716FF01BD00BF6F
:100F2000102080F3118808484FF40461401880F3C2
:100F30000988EFF314800221084380F31488BFF37B
:100F40006F8F00F097F80000C0390024084B9B68B1
:100F500083420BD1EFF3058343B1064B5A6842F04D
:100F600080525A605A6A22F400425A6203F096B8DC
:100F70004009002400ED00E0094A6FF00A0193687F
:100F80009967084958674B6843F080534B600023CA
:100F900083F31188BFF36F8F9368986F704700BF1A
:100FA0004009002400ED00E015498A684FF0300048
:100FB0001044EFF3098C80E8F01F102080F31288B2
:100FC000BFF36F8F0F4F4FF000664A698A603E6033
:100FD0004FF07004141920680B4C2060506F0023F0
:100FE000536780F3118804B5104600F0EFF8BDE8B0
:100FF000044002F1300090E8F01F8CF3098870473C
:101000004009002404ED00E0E40700241EF0040F72
:101010000CBFEFF30880EFF30980816911F8021C1F
:101020000229FFD001B502F045FC01BD00B2002845
:1010300007DB0123410900F01F00024A834042F808
:101040002130704700E100E000B2013100284FEA92
:101050000111C9B206DB00F1604000F5614080F883
:101060000013704700F00F00014B1954704700BF88
:1010700014ED00E00F4A08B522F07F020E4B9A6093
:10108000BFF34F8FBFF36F8FD3F8882022F4700225
:10109000C3F88820EFF3148323F0040383F3148848
:1010A000BFF36F8F01F03EFA01F044FF00F062F8E9
:1010B00001F08AFA0000000800ED00E042F8203C50
:1010C000203A009B07495360019B21F00101936086
:1010D000029B9161D3604FF08073D361002302655E
:1010E00043677047DD080008094A0346906870B1FD
:1010F00013F1160F006E05D0A0F140029A4205D8F8
:10110000834203D2814228BF0020704700207047ED
:101110004009002414460B4A0D4608B50A4B90605E
:10112000026F1A6000F052F8204685F3098800210A
:1011300063B681F31188BFF36F8F00220023FFF79E
:10114000CDFB00BF40090024E40700240149102220
:101150000A60704710ED00E072B6404080F31188DD
:10116000BFF36F8FBFF34F8F30BF62B6BFF36F8F88
:10117000704700BF002304481021C2180133A32B7D
:1011800082F80013F9D1704700E100E001B5EFF3F8
:101190000580A0F110004FEAC0000449014409C9CC
:1011A0009847BDE80140024908470000184400087C
:1011B000C10A0008024B0121024A034800F07CB832
:1011C0000000052400000024A04B0008026E40210E
:1011D000044B403A18461A60034AC3E90112012140
:1011E00000F074B8E807002400000B15084AC2F8A4
:1011F00098000B6823F01F03034343F01003C2F869
:101200009C308B6843F00103C2F8A030704700BFE8
:1012100000ED00E02DE9FF410F46984614460546D3
:101220000026BE420EDA686840B3B8F1000F12D053
:10123000431E18420AD03246452112486FF0150469
:1012400002F02BFB204604B0BDE8F0811F28F2D944
:101250002A681342EFD12B68019302F03AFBAB6886
:1012600003430393E3B20F2B03D9224645210648DB
:10127000E4E72046013401A9FFF7B8FF01360C3539
:10128000CFE700BF5953000881530008044B0522E3
:10129000C3F89420BFF34F8FBFF36F8F704700BF29
:1012A00000ED00E0BFF35F8F024B0022C3F89420F3
:1012B000704700BF00ED00E010B5034C0123227819
:1012C000FFF7A8FF207010BD700A0024094A08B576
:1012D00000231278FFF79EFF10F1160F03D0064B84
:1012E00000220F2800DD08BDC3F898000130C3F8C4
:1012F000A020F6E7700A002400ED00E0F0B54A4DAA
:1013000085B02C68102C00F28C8000200C26FFF792
:10131000C9FF84420DD1454D6846454F2C70FFF7FB
:1013200069FB00240646A6420AD10020FFF7AEFF63
:1013300020E0696806FB0011FFF758FF0130E8E77D
:1013400000984FEA041C00EB0411CB683B40B3F556
:10135000000F4BD010D8B3F5001F31D0B3F5800F7C
:1013600039D0B3F5801F16D04521324802F095FAE6
:101370006FF0150005B0F0BDB3F1807F3FD0B3F141
:10138000007FF1D150F80C30886802F0A2FA4A6868
:1013900040F4802009E050F80C30886802F099FA97
:1013A00040F088504A6840F430200390CDE9012392
:1013B0002A780F2A2CD945211F4802F06EFAD7E768
:1013C00050F80C30886802F084FA40F088504A687F
:1013D00040F40020E9E750F80C30886802F079FA10
:1013E00040F0E0604A6840F40030DEE750F80C302E
:1013F000886802F06EFA4A6840F08270D5E750F8CB
:101400000C30886802F065FA4A6840F08870CCE7D2
:1014100001A91046FFF7EAFE2B78013401332B7047
:1014200081E74FF0FF30A5E7644B0008700A002405
:101430000000F0FFAC5300088153000808B5024BD0
:101440001B689847002008BDF4070024034B044A9A
:101450001860937843F0020393707047F4070024F8
:101460001C0000240649074821F00701C1F1105271
:1014700008B502F5A02202F0B2F9002008BD00BFB5
:10148000074B0024F80700242DE9F04F1F4603699D
:1014900087B00546B3F902800026B3F90040DFF8B3
:1014A0007490DFF874A0019223B2984501DCB34632
:1014B0002CE059F834305A783AB11AF8042022B99D
:1014C00005951A782AB1012A07D0B34601345E4641
:1014D000EAE75B6828469847F7E7D3F804B002A824
:1014E000019A3B4602F035FEDDE90223584605A984
:1014F00001F05CF983460028E7D00346074A4521FE
:10150000074802F0CAF91BF10C0FDFD1584607B0AB
:10151000BDE8F08F204B000824020024F44D0008A1
:10152000D353000838B514490023144CA14205D305
:10153000134C144DAC4219D3002038BD0A689342B5
:1015400004D010694BB903801069438010690831D9
:101550004388013343801346E8E71D69B5F902501B
:1015600005801B691069B3F90230EEE72069043089
:1015700002F0EBFC1434DDE71C4B00085C4B000868
:10158000084B00081C4B00082DE9F04105460024DB
:101590004FF001084FF0B0460E4F2B7853FA84F00D
:1015A0001F280FDC08FA00F3D6F8882033EA02027D
:1015B00008D1C6F8883057F830301BB107EBC002AD
:1015C0005168984701346A78E3B29A42E5D2BDE89F
:1015D000F08100BF04080024044B03EB400000230B
:1015E000013320F8022B9942FADC70476400002492
:1015F000084B02464FF0B04110B433F910000123FC
:10160000D1F8804093402343C1F8803010BCFFF7ED
:101610000DBD00BF640000240A4B30B553F83040C4
:101620008C4204D103EBC0056D68954205D034B9F6
:1016300043F8301003EBC0035A60002030BD6FF058
:101640000F00FBE704080024034B002243F830207E
:1016500003EBC0035A60704704080024034B04489E
:101660009B6A13F0030F18BF002070470044025814
:101670000090D00308B5094B1B6913F0380308D05C
:10168000182B08D1FFF7EAFF7D2380085843400854
:1016900008BD0348FBE70020F9E700BF00440258FB
:1016A0000024F40010B50A68102A23D8134BD34045
:1016B000DB071FD54A68D3B2C2F34234C2F3042217
:1016C00003F1B04304FA02F203F51133186820EA7B
:1016D00002021A604968CBB2C1F30242C1F304218D
:1016E00003F1B0438A4003F5113318680243002028
:1016F0001A6010BD6FF08500FBE700BF0E400100CF
:1017000008B5174B18680B68D42B1AD00CD8032BCC
:1017100003D8F3B96FF0850016E00B2B15D0102B12
:10172000F8D1FFF7A7FF0DE0D83B1C2BF2D8012121
:1017300001FA03F30B490B4209D140F211110B429C
:10174000E8D040081060002008BD0020FAE78008BB
:10175000F8E7FFF783FF7D2380085843F2E700BFD7
:1017600058000024001011116C4B37B5D3F8E0205D
:1017700042F00072C3F8E020D3F8E02002F00072DB
:101780000192019A1A6842F001021A601A6852071F
:10179000FCD51A6822F0180242F010021A601A6989
:1017A00002F03802182A17D11A68550707D41A68A8
:1017B00042F001021A60594A13685C07FCD5574B86
:1017C0001A6922F007021A611A6912F0380FFBD168
:1017D0009A6922F00F029A61504B1A6822F08072C7
:1017E0001A609A6A22F003029A629A6A22F47C7260
:1017F00042F040029A62DA6A22F00C0242F00402DD
:10180000DA62DA6A22F00202DA621A6B22F4FF72FA
:1018100022F0010242F07C021A63DA6A22F001022D
:10182000DA621A6B22F47E421A63DA6A42F4803278
:10183000DA621A6B22F4FE021A63DA6A42F40032A8
:10184000DA621A6B22F0FE421A63DA6A42F48022EC
:10185000DA621A6842F080721A601A689001FCD548
:101860002F4BDA6822F0070242F00202DA609A692E
:1018700022F440429A619A699104FCD5294DFFF700
:10188000F9FE0446A84202D8274800F0E5FC234BA5
:101890009A6922F470629A619A6922F00F0242F00A
:1018A00008029A61DA6922F0700242F04002DA61BD
:1018B000DA6922F4E06242F48062DA619A6922F025
:1018C000700242F040029A611A6A22F0700242F0FD
:1018D00040021A621A6922F0070242F003021A61FA
:1018E0001A6902F03802182AFAD1AC4202D90E481D
:1018F00000F0B2FC0A4BDA6822F0070242F0020262
:10190000DA609A6922F440429A619A699204FCD59D
:10191000064B0020064A1A6003B030BD004402584E
:10192000004802587FB2E60E80B2E60E580000244E
:101930000065CD1D08B5074802F0D9FA38B1064850
:10194000FFF784FD0448FEF7ABFF002008BD6FF0F1
:101950001200FBE7044400085D1900080A2838B5A6
:101960000446074D04D1AB680D2128465B689847B3
:10197000AB68E1B202485B689847204638BD00BFBB
:101980000444000838B5036904465860084D2846E9
:1019900002F0ADFA40B161682846AB680C311B68B3
:1019A000984700EAE07038BD6FF01200FBE700BF17
:1019B000EC420008F7B517460C461D464668B7F5D9
:1019C000001F026928D101F003030F2204339B009A
:1019D0009A4042EA9102374902F00303023351F878
:1019E0002310130C93FAA3F3B3FA83F301EA124220
:1019F00003F01F0322FA03F3B2689A4209D120468A
:101A000002F001F82046FFF71FFE0021204602F0F9
:101A100007F8002003B0F0BDB7F5800F44D0264989
:101A20002046FFF7F9FD002841D1244A6B46B668ED
:101A300092E8030083E8030021481946826812688F
:101A40009047D8B904F003030F2104339B00994059
:101A500041EA940101F003030A0C92FAA2F29B00FE
:101A6000B2FA82F203F1B04302F01F02D3F8080485
:101A7000964020EA11410E43C3F80864B5F1806F27
:101A80000ED0B5F1C06F0DD005F17E4359425941DA
:101A90004900204601F0C4FF2046FFF7A9FDB8E742
:101AA0000121F6E70321F4E76FF08500B2E76FF05C
:101AB0000F00AFE7000400587B3C00085C4B0008B7
:101AC000EC4200082DE9F047044600EBC106002572
:101AD0001C4FB44201D1002014E02068C30600F07E
:101AE0001F0911D4656845F02005C0F3471AC0F3FB
:101AF00043200A2823D857F82080B8F1000F0DD1D1
:101B00006FF01200BDE8F087B9F1100F04D0B9F101
:101B1000110FEAD16568E8E73025E6E7404602F0B4
:101B2000E6F90028ECD04B462A460AF00F01404661
:101B300002F0BAF8002804F10804CADAE2E76FF00C
:101B40001500DFE7AC4C000837B503690C46456863
:101B50001868E9688368DB682BB945210C4801F0F7
:101B60009CFE03B030BD01AA98470028F5DB2A6827
:101B7000136823F400431360002CF2D0019B2A6801
:101B800003EB5403B3FBF4F39BB2D360E9E700BF6C
:101B9000FE540008F8B50C46036941685D68237976
:101BA000012B15D09F1E7E427E41B6026279022A29
:101BB00096BF444F4FF4005737F81270A279022AAB
:101BC00009D0042A2FD0003B18BF01231B0306E0D5
:101BD0004FF4C066EAE7B3FA83F35B091B07E279C7
:101BE0000968012A14BF4FF0000C4FF4407CA54255
:101BF0001CD10A6822F0805222F4B05232431A43B8
:101C00000A604B6823F440533B434B6043681A68B7
:101C1000936823F4407343EA0C0393602968BDE89A
:101C2000F840FFF791BF4FF48053D8E7D1F800E0B8
:101C30000EF4C06E764506D0D1F800E02EF4C06EEA
:101C40004EEA06060E6041680E68716801F4405164
:101C50008F4204D0716821F440513943716041686A
:101C60000E68316801F010218B4204D0316821F0F8
:101C700010210B433360436819688B6803F4407389
:101C80009C4505D08B6823F4407343EA0C038B60BA
:101C900043681B689968490405D5032A09D09A68E6
:101CA00022F4804204E0032A03D19A6842F480427D
:101CB0009A6021682B68994203D0FFF745FF23689B
:101CC0002B60F8BD744D000873B50546466804697D
:101CD0006448206002F00BF940B9452162486FF07A
:101CE000120401F0DAFD204602B070BD2068F168F0
:101CF00083681B6898470446E8B901AA0021F06987
:101D000001F0EAFF041EEEDB019B0022197918683E
:101D1000FFF7D8FE041EE6DB6C682B6922685E685C
:101D2000136823F001031360606802F0E0F848B91B
:101D300045214E48D3E745214D4801F0AEFD002C2A
:101D4000D1DBDAE7D4E901018368DB6803B19847A6
:101D5000226852E8003F43F00C0342E800310029BA
:101D6000F7D131462846FFF715FF237D23B12268BE
:101D7000936843F008039360637D23B1226853683E
:101D800043F400435360A37D23B12268536843F4B6
:101D900080335360E37D23B12268536843F40033FA
:101DA0005360227E2368002A4ED0324A93422ED0BE
:101DB000A2F54C4293422AD002F58062934226D08B
:101DC00002F58062934222D002F5806293421ED0D7
:101DD00002F5444293421AD0A2F51C42934216D017
:101DE00002F58062934212D002F51C4293420ED05B
:101DF00002F5806293420AD01F4A934207D02A68B4
:101E000045211E486FF0150401F047FD6BE76B6834
:101E10001A68936843F4804393602268617E136874
:101E200023F0787343EA415313602268A17E13685C
:101E300023F4F81343EA01431360E37E23B12268DD
:101E4000936843F4004393602268136843F00103EE
:101E500013602368DA699102FCD5DA695202FCD575
:101E6000002440E7EC420008315500087A5500088C
:101E70005555000800100140000C00589A55000804
:101E8000F8B50246036946680C4608795D68012882
:101E900091F805E08B7922D1BEF1020F40F28480E7
:101EA000022B1F464FF4C0614FF4005C00F0968097
:101EB000042B00F08D8028B1C31E012B40F28B80D3
:101EC0004FF48050BCF5805F00F09280BCF5405F1D
:101ED00000F09080BCF1000F1CD101231BE0022810
:101EE0000AD1BEF1020F6CD9022B1F464FF480615C
:101EF0000BD04FF4005CDBE7BEF1020F64D9022B7C
:101F00001F4663D100286FD00021C31E012B62D968
:101F100000200227032373455DD101F029FFB84259
:101F200059D1E37963B3012B66D1336834498B42CD
:101F300026D0A1F54C418B4222D001F580618B4225
:101F40001ED001F580618B421AD001F580618B4271
:101F500016D001F544418B4212D0A1F51C418B42B1
:101F60000ED001F580618B420AD001F51C418B42F5
:101F700006D001F580618B4202D022498B422AD1E2
:101F8000316810460B6823F001030B602146FFF710
:101F900001FE3268136843F00103136094E8030004
:101FA00085E803000020F8BD4FF4C061164F022BF6
:101FB00037F81EC01F467FF47BAF78B94FF08050D2
:101FC00080E74FF48061F1E70021EFE7002190E71F
:101FD00000283FF475AF6FF08500E4E7C31E012BC6
:101FE000F9D9022700206DE701464FF0805091E7B4
:101FF000002390E702238EE7032B96D0EBE700BF88
:1020000000100140000C0058744D00084FF0E02310
:102010000F4910B59C691A6908689B6902F48032FF
:102020000C4934B993B903464AB90A681044C01A36
:1020300010BD002B08BF03460AB9A342F5D90A68B0
:1020400002440A604FF0E0221269EEE70446F3E72B
:1020500038090024340900240A4B1022002083F898
:1020600023204CF25032084B1A604CF24F32074B8F
:1020700018604FF0E0235A6198611A6942F0070234
:102080001A61704700ED00E038090024340900248B
:1020900010B5FFF7BBFF1049104B0868D3E90042A9
:1020A000001942F10002C3E900020D4A00230B604F
:1020B0004CF25033D2E90041001BB0FBF3F0434334
:1020C0001B1941F10001C2E9003101F009F8BDE836
:1020D0001040FEF7F5BC00BF34090024B806002408
:1020E000B00600242DE9F041DFF8E08099B1421CF0
:1020F0000BD14FF0E022136923F0010313614FF07D
:102100007F43C8F80030BDE8F081D8F800600128AE
:1021100007DC00270BE0431CD8F80060F7D14FF430
:10212000A77040F24F139842A8BF1846471E4FF0C1
:102130001003EFF3118583F31288BFF36F8FFFF75E
:1021400065FF234C4FF0E0239969D4E90023801800
:102150004FF0000243F10003C4E900031D4B1A6075
:102160001D4B1A68831A2ED44CF2503C0CFB0733DB
:1021700003F543434F33B3FBFCF7131A40F63542E4
:102180000CFB0733934238BF1346144A934228BFCF
:102190001346C8F800304FF0E022013B90695361CC
:1021A000002381429361A1EB0003D4E9001238BF00
:1021B0009B195B1842F10002C4E9003285F31188D3
:1021C000BFF36F8F9FE740F63543E2E738090024FD
:1021D000B806002434090024B006002460D2FE00B2
:1021E00038B54FF01003EFF3118583F31288BFF376
:1021F0006F8F084B1C68084B1B68E41AFFF706FF3B
:1022000085F31188BFF36F8F4CF250332044B0FB3D
:10221000F3F038BDB8060024B006002438B54FF0FE
:102220001003EFF3118583F31288BFF36F8F054B13
:102230001C68FFF7EBFE85F31188BFF36F8F204416
:1022400038BD00BFB8060024024A536823F00203D9
:10225000536070470010005C024610B578B14F49DA
:102260008B6913F440433FD14D484E4C1044A0427B
:1022700007D28B6903F44043B3F5404F51D101209D
:102280007CE04948494C1044A04246D94848104493
:10229000A04244D947488242886900F4404007D9A7
:1022A000B0F5404FEBD08969012001F440414CE08A
:1022B000B0F5404F45D1404B1344404A93428CBF48
:1022C000002301233E490A6822F00F021A430A60E4
:1022D0000A6802F00F029A425ED0086800F00F0010
:1022E000C01A18BF012049E000232C48816901F47D
:1022F0004041B1F5404F2BD132493348114481421E
:1023000046D92D49A0F574201144A0F510708142E2
:1023100040D92E498A42D5D9B1E70223E5E7012306
:10232000E3E78B69002003F44043B3F5004F4FF01F
:10233000030319D02649274C1144A14226D9264926
:1023400018E08969184601F44041B1F5004FF0E703
:10235000816901F44041B1F5004F10D11F49204877
:102360001144814214D900201E491D4C1144A14240
:102370000CD91D498A4282D80028A3D010BD0C492F
:102380001A481144814203D30020D3E70123F3E725
:10239000022397E7012395E71846A1E70048025872
:1023A0007FA77BF340D2DF03FFC4A7F77F1D2C0478
:1023B0007FE2D3FB801D2C043FA901FC7F14EF03B7
:1023C00000200052BF9412F8BF56FE03C056FE0311
:1023D0003FF1E9FDBF0E1602C00E1602FF1E0AFAFB
:1023E0007FF0FA027F0F05FD80F0FA02C0E1E40001
:1023F00010B504464521034801F04FFA204601F08C
:1024000081FD00BFDC550008F7B504460D464FF0CE
:102410001003EFF3118783F31288BFF36F8F1B4A0A
:1024200004284FF04501966898BF194B127C94BF61
:1024300053F82030174B00920246174801F02DFA4E
:102440003DB1EB69C3F308031BB14521134801F00B
:1024500024FA36B1304601F062FD034608B1027835
:1024600002B90F4B324645210E4801F016FA2946B3
:102470002046FFF7BDFF87F31188BFF36F8F30460B
:1024800003B0BDE8F040FEF761BD00BF4009002485
:10249000484D0008F055000806560008335600085D
:1024A000FE55000859560008104B70B553F82040EF
:1024B000013053F82060A64200D870BDD4E9003541
:1024C00095B153B12846984738B10028EB68B8BF9A
:1024D0004042FF28A8BFFF201870EA68537843F0F5
:1024E000010353700834E6E79847FBE75C4D0008AA
:1024F0000122032008B5094B1A70FFF7D5FF00F041
:1025000075FE0420FFF7D0FF00F006F901F042FE4F
:10251000034A137B23F00103137308BD710A0024DF
:102520004007002403480021034A08B5121A01F0AD
:10253000F2FC08BD30020024740A002470B50023A8
:1025400086B001221A4E019304461A4D06EBC016BE
:102550001949CDE904230F22CDE9023214234FF4A7
:10256000806203FB00554FF48860144B00FB04119C
:102570003046009500F090F8737B114A23F0040375
:10258000EE602C7473734FF4046304FB0333134441
:102590006B60BFF35B8F0B4B53E8001F013143E8C7
:1025A0000012002AF8D1BFF35B8F06B070BD00BFE8
:1025B000C00600244009002400420024233F0008F4
:1025C000C03900243C09002480B50020A6B0FFF7E4
:1025D0006BFF2A4B83F30888294D0024F023294EF2
:1025E000294F85F82230EC772C766C76AC7685F81E
:1025F00020406B6A43F4E0236B62FEF77FFCFEF73A
:10260000A5FD4FF0FF33AB62EB62FEF777FE1F4D87
:10261000FEF7D0FD40F201132194ADF8243006AB53
:10262000CDE91E44B36001F061FC0120FFF73CFFDF
:102630000220FFF739FF00F06FFC154B75614FF476
:10264000806205930123134928460094CDE9034392
:10265000CDE901443B4600F01FF86A7B0646284658
:1026600022F004026A7301F0B1FC2046FFF766FF16
:102670003A4631462846FEF74DFD00BF0042002491
:1026800000ED00E040090024F12400084007002488
:10269000C0560008404600242DE9F043073285B0BB
:1026A000994600F1580322F00706002788460446A1
:1026B00006F140058760C7730D44C0E91633109BCF
:1026C00029460373042343730F9BC0E90677837382
:1026D000FEF7C8F908F1400307304146C4E918364F
:1026E00020F007000E9BA0662D1A029320460D9B3A
:1026F0002A4601930C9B00934B46FEF7DFFC054BEB
:1027000067659B6803B1DB6E2846E36605B0BDE8EC
:10271000F08300BF4009002470B5214C86B0214DE4
:1027200026463034AE420AD31D4C00F0C5FB1E4E87
:10273000AC4220D306B0BDE8704000F0D1BB54F8E5
:102740000C3C059354F8103C049354F8143C039348
:1027500054F8183C029354F81C3C019354F8203C64
:10276000009354E90A2354E90C01FFF795FF54F84C
:10277000303C5E65D4E7D4E90A23B3F1FF3F08BFDC
:10278000B2F1FF3F05D052EA0301206803D100F007
:1027900075FB3034CCE73146183000F02BFCF8E7FD
:1027A00030490008E04A0008314000082DE9F341B3
:1027B00004460E4600F108084FF01001EFF31187B0
:1027C00081F31288BFF36F8F056AC1688D422AD2E8
:1027D00001F032FCA2680546314678B10024406918
:1027E00001F00BFD2846AC6701F0F0FB404639468E
:1027F00000F032FB204602B0BDE8F081E06901F054
:10280000FCFCE369A2680020134462699342E3611F
:1028100004BF2369E361236A0133236287F31188CC
:10282000BFF36F8FE7E752EA03010AD006498968D0
:102830004E613946CDE900230246404600F0A8FA31
:10284000D9E76FF02200E9E740090024F7B5044614
:10285000084604F108074FF01001EFF3118681F3E9
:102860001288BFF36F8F216A002931D0A268A16955
:1028700001F0C3FCA369A268204613446269934235
:10288000A36104BF2369A361236A013B236201F0B2
:10289000D3FB054660B34169A268E06901F0ADFC75
:1028A000E369A2682846134462699342E36104BF66
:1028B0002369E361236A013323620024AC6701F0DA
:1028C00085FB3846314600F0C7FA204603B0F0BD1C
:1028D00052EA03010AD009498968486131463846FD
:1028E000CDE90023224600F053FAEFE76FF0220013
:1028F00086F31188BFF36F8FE8E700BF400900241B
:102900002DE9F341044617461E464FF01003EFF33E
:10291000118883F31288BFF36F8FC368334A7BB18A
:1029200080689168884219D057EA060318D188F365
:102930001188BFF36F8F6FF00F0002B0BDE8F08118
:10294000916891F90E1001332161E3609368A360EF
:1029500088F31188BFF36F8F0020EEE72169F2E75B
:1029600091F90E106FF07E0290F90E309942A8BFD7
:1029700019469142B8BF11468B422EDD01F0DDFAB7
:102980000546224641461A48CDE9007600F000FA95
:102990000028E1D04FF01003EFF3118683F3128883
:1029A000BFF36F8FA068D0B1236821699C420AD021
:1029B0004BB193F90E309942A8BF19466FF07E03D0
:1029C0009942B8BF194601F0B8FA40B131460848FB
:1029D00000F042FA6FF00A00AFE70025D1E7002DC2
:1029E000F4D186F31188BFF36F8FF3E74009002419
:1029F000720A002438B5836804466BB3194A92689A
:102A000093422CD1C368012B03D9013BC360002042
:102A100038BD4FF01003EFF3118583F31288BFF335
:102A20006F8F0169806801F088FA204601F004FB8D
:102A3000A06058B190F90E2022610022826701F057
:102A4000C5FA2946084800F007FAE0E7E06085F398
:102A50001188BFF36F8FDAE76FF01500D8E74FF0FA
:102A6000FF30D5E740090024720A0024C3897F2B78
:102A700012D80A4B1B6863B1094B90F90E201B68F2
:102A80009A4209DB437BDB0606D1064BC31A18BF0B
:102A9000012303F0010070470023FAE768090024CE
:102AA00064090024C0060024044B0122C01A044B10
:102AB000C0105843034B1A54704700BFC00700248E
:102AC000ABAAAAAA720A00240E4B70B51E7C05465A
:102AD0000D4C06EB460304EBC304204601F0FFFA5D
:102AE0000A4B002228469A55FFF7C0FF48B1084B11
:102AF000204608491A68013ABDE87040D31700F033
:102B000079BA70BD40090024C0070024720A00246D
:102B100068090024A92A000838B50D4D2B4653F842
:102B2000184F9C4200D004B9EC68AB6838B95A7BA6
:102B3000D20604D1A26912B9DA897F2A05D89C424B
:102B400002D02046FFF7C0FF23466B6138BD00BFAF
:102B50004009002470B590F90D200146437B002AFE
:102B600004DA03F07F03437301F0F6F94B7B154A57
:102B700063F07F0310464B7350F8183FD4698342CB
:102B800008BF002323B9C1E900042160D1610CE032
:102B900091F90E5093F90E60B5420ED0AE420CDDA5
:102BA0005868C1E90030016059609068431A584282
:102BB000BDE870405841FFF7AFBF9C42E3D01B68AF
:102BC000E0E700BF4009002470B490F90D30427B6B
:102BD000002B29DBD30627D183692BBB62F07F0250
:102BE000124942730A4652F8184F944218BF2346BE
:102BF000CC6923B9C0E900242060C8610CE090F9D9
:102C00000E5093F90E60B5420AD0AE4208DD5A6804
:102C1000C0E9003210605860002070BCFFF77CBF34
:102C2000A342E7D01B68E4E770BC7047400900246A
:102C300008B590F90D200146437B002A04DA03F021
:102C40007F03437301F088F9044B9868431A584294
:102C50005841BDE80840FFF75FBF00BF40090024AE
:102C600070B515461C46064601F088F9B4F1FF3FE1
:102C700008BFB5F1FF3F08D02A46234606F11800E9
:102C80000249BDE8704000F0B5B970BD31400008A0
:102C9000002A2DE9F0410E46437B0CBF102108218C
:102CA000044619420AD10B43DD0903F09F0211D1FA
:102CB0004273082914D00120FFF72EFF1B4B9B689D
:102CC000A3422CD1EFF305834BBB3046BDE8F04166
:102CD000FEF752B903F01F03437301F03DF9E8E733
:102CE000A36813B1204601F03FF904F158074FF0F3
:102CF000000804F1180001F0F2F9A56DBD42DAD028
:102D0000002DD8D0284601F02FF905F1180001F068
:102D1000E6F92846C5F87880FFF756FFEDE786F319
:102D20001188BFF36F8FBDE8F08100BF4009002418
:102D300038B54FF01003EFF3118583F31288BFF31A
:102D40006F8F104B104A9C681068A04206D1FFF7A5
:102D5000BBFE85F31188BFF36F8F38BD00211B7C4C
:102D600011600A4AD35C002BF3D02046FFF77EFEA9
:102D70000028EED0637BDB0602D12046FFF7EAFE97
:102D80002046E4E74009002460090024720A002478
:102D90000C4870B50C4D0C46866811462E60DDE976
:102DA00004234FF01006EFF3118586F31288BFF36A
:102DB0006F8F8068FFF754FF2046BDE87040FEF734
:102DC000DBB800BF4009002460090024F8B50446C0
:102DD0004FF01003EFF3118683F31288BFF36F8F68
:102DE000437B49B2DA0619D18569BDB903F07F0387
:102DF000437301F0B1F8437B164A63F07F0381739C
:102E00004373134653F8180F984218BF0546D0690C
:102E10005DB9C4E900300460D46111E00020A17301
:102E200086F31188BFF36F8FF8BD95F90E70B94224
:102E30000BD08F4209DD6B68C4E900531C606C60E5
:102E40000120FFF769FE0120EAE7A842E1D02D68E2
:102E5000DEE700BF4009002449B9EFF3058030B92F
:102E6000054B5A699B689A4201D0FEF785B881F3F9
:102E70001188BFF36F8F70474009002410B54FF0E1
:102E80001002EFF3118482F31288BFF36F8F427B3D
:102E9000510704D484F31188BFF36F8F10BD22F063
:102EA00004024273FFF790FE21460248BDE810403D
:102EB000FFF7D2BF730A00244FF01003EFF3118124
:102EC00083F31288BFF36F8F044B9A68D37B013B67
:102ED000D37381F31188BFF36F8F704740090024CB
:102EE00010B54FF01003EFF3118483F31288BFF392
:102EF0006F8F084B00209A68D37B0133D373FFF7A1
:102F00000BFE84F31188BFF36F8FBDE8104001F012
:102F1000BBB800BF40090024024B03F11802C3E90B
:102F20000622704740090024014B9868704700BF93
:102F3000400900240648074A0749121A08B500F05C
:102F4000ECFF064A06490748BDE8084000F0E5BF27
:102F5000000000242C0200241C5700080000000080
:102F60001C57000800000024034B1B680BB9FFF737
:102F700037B90020704700BF6C0900240E4B10B514
:102F80001C689C4204D1FFF7EFFF6FF0004010BDBA
:102F9000FFF7EAFF002CF8D0D4E904321B1A62EBE9
:102FA000E072B3F1004F72F10001EEDA002AACBF1B
:102FB00018460020EBE700BF5C00002430B570B17C
:102FC0000B4B5B6898420AD0036843B1D3E90421F4
:102FD000D0E90445121941EB0501C3E90421D0E908
:102FE000003213605A600023C0E9003330BD00BFD7
:102FF0005C000024B3F1FF3F08BFB2F1FF3FF8B51A
:1030000004461D4616465CD081604FF01003EFF376
:10301000118783F31288BFF36F8F013275F1FF338D
:1030200024DA2D496FF00103D1E900209B1A4FF0FB
:10303000FF3262EB00009E1B60EB0500012E70F179
:10304000000301DA01260020C4E90460234ED6F80B
:1030500000C07568B44508BF4FF0000CBCF1000F0C
:103060000DD1C4E900652C6074601CE0FFF77CFFA3
:10307000013645F10005361845EBE070E4E7DCE980
:103080000420D4E90431934271EB000E1ADAD21A0B
:10309000DCF8043060EB0100CCE90420C4E900C393
:1030A0001C60CCF804403368B34206D09C4204D183
:1030B000FFF764FF0021FFF715F887F31188BFF3CE
:1030C0006F8FF8BD9B1A61EB0001AC45C4E9043178
:1030D000C7D0DCF800C0C1E7D80700245C0000249A
:1030E0002DE9F84F4FF01003EFF3118C83F31288A2
:1030F000BFF36F8FDFF8B4A00024DFF8B490002591
:103100002C4FC9F80000DAF80000504508BF002035
:10311000D9F80030E046D7E9002180B34FEAE37EDA
:10312000D0E9046CB3427EEB0C0B05DAF61A6CEBBB
:103130000E04C0E9046422E0B21841EBE671C0E974
:103140000445C7E90021FFF739FF88F31188BFF371
:103150006F8F836898474FF01003EFF3118883F364
:103160001288BFF36F8FD9F80030C446DAF8000038
:103170009B1B5045C9F80030CAD1D7E900219A18E5
:103180004FF0000441EBE373C9F80040C7E90023A6
:10319000FFF7F4FE2146FEF7A5FF88F31188BFF381
:1031A0006F8FBDE8F84FFFF7C3BD00BF5C00002480
:1031B0006C090024D807002410B54FF01003EFF37A
:1031C000118483F31288BFF36F8FFFF7CDFE064A99
:1031D0000346D2E90001181841EBE37184F311882A
:1031E000BFF36F8F10BD00BFD8070024014800F067
:1031F00060BA00BFC856000838B5064C064DAC4250
:1032000001D3002038BDD4E901122046143400F067
:10321000C4FFF4E7A2000024A20000242DE9F04F2F
:103220008BB04368019383789F078246144640F130
:103230000981002591F80080B8F1000F00F00481A9
:10324000B8F1250F0BD04B1C02930135019B514661
:10325000404698470028C0F2F5800299EAE791F8C5
:1032600001808B1CB8F1250F0293EED00023994604
:103270001F461F2F39D8A8F12002102A0AD8DFE8EC
:1032800002F02B0909310909092109090929092E27
:1032900009091F00A8F13002092A32D9B8F12A0F12
:1032A00035D1780654F8042B00F18180002AA7BF9D
:1032B00047F020079146C2F1000947F0280701E0D6
:1032C00047F00107029A12F8018B0292B8F1000F41
:1032D000CFD132E047F0020747F00407F2E747F0AA
:1032E0000807EFE747F01007ECE77F2F18D8A8F1A1
:1032F0003002092AD2D87E0603D50A2101FB032316
:10330000E0E70A2101FB092947F02007DAE7B8F1D5
:103310002E0F05D1790600F1978047F04007D1E7DD
:10332000B8F16C0F32D02AD8B8F1680F35D0B8F1A7
:103330006A0F39D0B8F14C0F36D0002B48F020027C
:10334000B8BF27F04007A2F16501BCBFBFB20023A0
:10335000022901D9612A2CD1073424F007049A4E9E
:1033600008344FF00708380763D506EB080B3746DB
:103370005F4560D1AE1B3744A9EB080954E1B8F1B1
:10338000740F9FD0B8F17A0F9CD0D6E73A0648BFA9
:1033900047F4007747F0800794E7FE0548BF47F4FD
:1033A000007747F480778DE747F420778AE7134664
:1033B00088E7A8F16301122900F2CF80DFE811F05D
:1033C00013004800CD00CD00CD00CD004800CD0059
:1033D000CD00CD00CD00CD00DF00C700CD00CD0079
:1033E0001B00CD00960054F8043B8DF81C304FF0C4
:1033F000010807AEB7E754F8046B744A002E08BF03
:10340000164617F0400F14BF19464FF0FF313046F3
:1034100000F0CBFE8046A6E7019B5146202098474E
:1034200000280FDB013FB845F6D34D44ED1BB946EC
:103430009BE74F46F7E717F8010B019B514698476A
:10344000002895DA4FF0FF3528460BB0BDE8F08F25
:10345000390637D5BA0545BF073424F0070454F8B8
:10346000040B54F8080B27F010060028B6B232DA25
:10347000404246F48066039307AF0A22394600F0C3
:10348000A0FE7206039BA0EB07074BD526F00101B7
:10349000BB4289B240F38A80B8F1000F00F082800D
:1034A00016F01002039240F083809B460E4640F2D5
:1034B000064116EA010203921EBF00220BF1010B26
:1034C000039238E0FE0554F8040BCCD5B9054CBF87
:1034D00040B200B2C7E7CED17A06CCD5002BCAD114
:1034E00027F01107BEB21F469B46E0E727F0100702
:1034F000BFB20A223E0646D5B80545BF073424F0C0
:10350000070454F8040B54F8080B002844D127F0A2
:1035100016067906B6B242D5002B40D127F0170720
:10352000BEB21F4616F0100203924AD0B8F1000F47
:1035300045D107F1010B31075CD4F20705D5D94518
:1035400075DDA9EB0B02D319CB465A464CE047F088
:10355000100710224FF07808CCE7782A06D1B8F18E
:10356000580F14BF10224FF40472C3E7019B514659
:10357000252098470028FFF665AF023566E6082249
:103580004FF00008B6E7F90554F8040BBDD5BE05A9
:103590004CBFC0B280B2B8E727F00607BEB20393B3
:1035A00007AF6BE726F01106B6B29DE70E46B9E706
:1035B00038460E461F4607F1020B0746BBE7384662
:1035C000F9E7BB4673E700BF115700080A57000828
:1035D000CDE904325146019B202098470028FFF690
:1035E00031AF059A049B01329145F1DCA5EB0B014B
:1035F0008D189346039A32B303935146019B3020B2
:1036000098470028FFF61EAF039BB8F1000F10D1BA
:1036100001355E19711B8F4227DB3E460DF11C08F8
:1036200066BB2F44A9EB0B093D46B94438E03B4645
:103630008BE70393023551464046019B984700288B
:10364000039BE6DAFEE640F206410E42E1D016F0B8
:10365000020F14BF2B20202016F4806F039305F176
:103660000105514618BF2D20E7E7019B5146302048
:103670009847002805F10105CCDAE3E6013E019BFD
:1036800018F80600514698470028C9DADAE6019B87
:10369000514620209847002805F10105FFF6D2AEDB
:1036A000A9EB0503002BF2DCD7E500BF7047002033
:1036B00070470FB407B504A951F8040B0191FDF749
:1036C000F5F803B05DF804EB04B07047836800EBD5
:1036D000C101B3F5004F2CBF51F8220031F81200A0
:1036E000704700EBC1018068B0F5004F2CBF41F876
:1036F000223021F812307047012208B5FFF7E6FFAB
:10370000D04008BD836800EBC101B3F5004F08D37A
:103710004B681AB143F001034B60704723F001037B
:10372000FAE74B881AB143F001034B80704723F04E
:103730000103FAE753000122FFF7D3BFB0F5004FB2
:1037400001F1010034BF042308230833A0EBD300A8
:10375000B0FA80F0C0F11F0070472DE9F041866893
:103760000D460446FFF7C8FFB6F5004F014601D3EA
:10377000012832D03046FFF7E1FF04EB80010E69EB
:1037800096B90122E3688240204613430222E36097
:103790002B460D612946FFF7A4FF03222946204648
:1037A000BDE8F041FFF79DBF022231462046FFF7FA
:1037B0008DFF2946034607462046FFF792FF032266
:1037C000334629462046FFF78CFF39462B462046D4
:1037D000FFF787FF02223146E1E7BDE8F081B2F54D
:1037E000802F2CBF08230423D21A2DE9F0418C1816
:1037F000CD1D002625F0070524F00704641B056095
:10380000EE60E40821462046AC60FFF797FF421DBA
:10381000013031464FEA820205F1100002F107073C
:10382000A2F11002B8BF3246FF0800F0F4FC3146A6
:103830003A462846FFF77EFFA4EB07083346324698
:1038400031462846FFF74DFF284631460122FFF753
:1038500059FF42463946FFF76DFF3B46324639462F
:103860002846FFF73EFF21462846FFF763FF434601
:10387000324621462846FFF734FF214628460122DA
:10388000FFF740FF3946BDE8F041FFF766BF7047DC
:1038900008B5FEF7D9FC002008BD0FB407B504A990
:1038A00051F8040B0191FDF701F803B05DF804EB4A
:1038B00004B0704701460068FDF7A2B808B5FDF7EF
:1038C000CDF8BDE80840FDF7FBB800210120FDF769
:1038D00097B8202809D9B0F1004F08D80138B0FABC
:1038E00080F0C0F11F0040007047082070473E2064
:1038F000704708B5FDF7A2FD002008BD2DE9F7438C
:103900000446684699468846154600F0FEFBE36883
:10391000DDE900675BB9206904302A464B46FEF7B3
:10392000EFFF054658B1284603B0BDE8F083616853
:10393000404698470028EED16FF02205F3E7626811
:103940004146206800F059FC32463B462046FDF7D0
:103950009BFD054620690430FFF74CF8E3E700695A
:103960000430FEF7CDBF00690430FFF743B840686C
:10397000FEF76CBF08B5062201210020FDF72CFEE2
:10398000002206201146FDF75FFB012107220846B1
:10399000FDF722FE002207201146FDF755FB082205
:1039A00001210220FDF718FE002208201146FDF734
:1039B0004BFB092201210320FDF70EFE0022092006
:1039C0001146FDF741FB0A2201210420FDF704FE08
:1039D00000220A201146FDF737FB05211722084671
:1039E000FDF7FAFD002217201146FDF72DFB2822D6
:1039F00006210A20FDF7F0FD002228201146FDF7E0
:103A000023FB002008BD1F2809DC4FF0B041012234
:103A1000D1F88030824023EA0203C1F88030704739
:103A200003292ED8DFE801F0020F16224FF0B04331
:103A300001221968824021EA02011960596821EACD
:103A400002025A60704701224FF0B0438240196869
:103A50001143F2E74FF0B04301225968824011430D
:103A60005960196821EA02021A607047012303FABB
:103A700000F04FF0B0431A6802431A605A681043CE
:103A8000586070470B68A3F1D402202A09D803F1CB
:103A9000B0434968002003F511331A680A431A60DD
:103AA00070476FF0850070470B68A3F1D402202A9D
:103AB0000AD803F1B0434968002003F511331A68AE
:103AC00022EA01021A6070476FF085007047436870
:103AD00000205B681B690B60704743685B6858692E
:103AE00042400A40424000205A617047436800202B
:103AF0005B68996170474368090400205B689961BD
:103B00007047436800205A6853694B4053617047BF
:103B100010B503699868F8B1884219D1DC68086863
:103B2000A142986000D1D860002008602AB19A684C
:103B30000A60DA68996002B9D960002010E0814219
:103B400006D108682060D8688142EDD1DC60EBE7DF
:103B5000044600680028F2D1002AE8D16FF0150071
:103B600010BD2DE9F04144680120C2F38016C2F374
:103B7000C11C676888408E4002F0300527EA0007C4
:103B8000C2F34122202D46EA070600FA01F76660DB
:103B900007EB470ED4F8088007FB0CFC07FB02F28A
:103BA0006FEA0E0628EA0E084CEA080CC4F808C0B2
:103BB000D4F80CC02CEA0E0C42EA0C02E2600CD1E4
:103BC000072912DC07FA01F2206A8A40C2EB0211CF
:103BD0005A4320EA01010A43226223682D091E404C
:103BE0007D4335432560BDE8F081020A616A524396
:103BF0005243C2EB02105A4321EA00010A436262B7
:103C0000EBE738B5044690030D46134617D59107E8
:103C10000ED55A072ED55022D8060BD542F4007285
:103C200019031AD5616801234968AB408B610DE027
:103C30001022F1E79906F3D542F48062F0E7DA0347
:103C400013D5D80613D4C3F340139A026068002337
:103C50002946FFF786FF002038BD5B03F6D501211A
:103C60002046A940FFF747FFF0E73022EEE74FF488
:103C70000072EBE76FF08500EEE70B4670B58968E0
:103C800021B101255E680C68854001B970BD8A6864
:103C90002A4002D04B68304698471CB12368214621
:103CA0001C46F2E72346FAE7F8B51F46044640688B
:103CB0000E461546FFF755FF112F07D101212B05A1
:103CC00001FA06F104D563685B6899610020F8BDCC
:103CD0002046FFF710FFF9E730B503681360057958
:103CE000046804EBC504A34202D36FF0010030BDA9
:103CF0005C798C4201D00833F0E70020F7E7436895
:103D0000C1F34B1001F01F011B68C05801238B4009
:103D100003424FF0000014BF0123002313707047CB
:103D200010B54368C1F34B1001F01F011A6801235D
:103D300084588B4023438350002010BD10B5436846
:103D4000C1F34B14012201F01F0118688A40235867
:103D500023EA02032350002010BD38B504460D4667
:103D6000FFF7DEFF29462046FFF7E8FF002038BDB9
:103D7000B0F5805F07D0B0F1805F09D1002914BF92
:103D8000012002207047002914BF0320042070473F
:103D9000002914BF02200320704742681368D869C5
:103DA000D969C0F3C000C907D96948BF40F0020013
:103DB0008907D96948BF40F004004907D96948BF5D
:103DC00040F02000C90504D54FF4807140F0080090
:103DD0001962C10702D5136808211962830702D549
:103DE000136801211962410702D513680221196283
:103DF000830602D5136804221A62704710B5406822
:103E00000268D3691B06FCD54FF01002EFF3118353
:103E100082F31288BFF36F8F0268D469240604D43A
:103E200083F31188BFF36F8FEAE7916283F3118800
:103E3000BFF36F8F10BD43681A68D069000701D5C2
:103E4000082010621B68DA69920603D55B6A0020BD
:103E50000B7070474FF0FF30704710B50269044691
:103E60000B46526812680A6042681268126802F4CF
:103E7000C062B2F5806F33D0A2F5C06042424241C9
:103E80001A7162681268526802F44052B2F5805F9B
:103E900028D0B2F5405F27D0002A0CBF01220322B0
:103EA0005A71626812681068116800F0102001F4FD
:103EB000C061FFF75DFF9871626800201268926828
:103EC00002F44072A2F540714A424A41DA716168D7
:103ED0000968896811F4804F18BF0322DA7110BD98
:103EE0000222CDE70022DBE70222D9E7704740B18A
:103EF000C368587810F001001EBF1878B0FA80F03F
:103F0000400970474FF01002EFF3118382F31288DB
:103F1000BFF36F8FFEE700F07EB900F06EB90020AE
:103F2000704708B54FF01002EFF3118382F3128847
:103F3000BFF36F8FFDF710F9F4E790F90E308B4265
:103F400001D0FEF743BF0020704703460020C3E9BD
:103F50000033C3E902007047D0E9003213605A60B1
:103F60000023C0E90033704708B5FFF7F5FF437B36
:103F700023F0020343730023836008BD38B5044671
:103F80000D46FEF755FE637B43F002036373E5B114
:103F9000A5602B689D4209D16B68C4E900531C6081
:103FA0006C6012E06A689342F6D01B68002BF3D075
:103FB00094F90E2093F90E108A42F3D09142F1DD6C
:103FC0005A68C4E9003214605C6038BD10B54FF027
:103FD0001003EFF3118483F31288BFF36F8FFEF7A2
:103FE000F3FD84F31188BFF36F8F10BD38B504461D
:103FF0004FF01003EFF3118583F31288BFF36F8F37
:10400000437B13F0280F0BD183680BB1FFF7ACFF94
:10401000637B51B903F0FB0320466373FEF7D4FDC5
:1040200085F31188BFF36F8F38BD03F0EB03F3E71F
:1040300001211838FFF7DABF38B54FF01003EFF35E
:10404000118583F31288BFF36F8F0468A0420DD0EF
:1040500034B12046FFF788FF04F1180000F03FF864
:1040600085F31188BFF36F8F204638BD0024F7E732
:10407000034620B9EFF305820AB9FCF77DBF83F34D
:104080001188BFF36F8F70474FF01003EFF311806B
:1040900083F31288BFF36F8FFFF7EABF4FF0100270
:1040A000EFF3118182F31288BFF36F8F027BD20787
:1040B0000AD581F31188BFF36F8F404080F31188D8
:1040C0004FF0040002DF7047437B1B0704D581F3E8
:1040D0001188BFF36F8F70470122FEF7D9BD10B56D
:1040E0004FF01002EFF3118482F31288BFF36F8F49
:1040F00003683BB1FEF762FF002084F31188BFF331
:104100006F8F10BD6FF01500F7E7B3F1FF3F08BFE9
:10411000B2F1FF3F70B504461D46164613D01A4350
:1041200015D06FF001024FF0FF33921B63EB0501D6
:10413000002904DAFFF740F8821941EB0501204617
:10414000C4E9002170BD4FF0FF321146F7E70022AD
:10415000FBE7B3F1FF3F08BFB2F1FF3FF8B50746F9
:1041600016461C4610D054EA020311D0FFF724F87B
:10417000B0420A460346A1410AD2F31A64EB020494
:104180003846C7E90034F8BD4FF0FF331C46F7E767
:104190000023FBE700BF0020704710B400F10C04BF
:1041A000C0E9034410BCFFF71ABB10B50246014436
:1041B0008A42134603D01C780132002CF8D1181A19
:1041C00010BD930570B548BF22F40072044608463E
:1041D0004CBF07212721B4FBF2F502FB1543DBB2EC
:1041E000092B88BF5B18264688BFDBB23033B2424A
:1041F00000F8013B2C46EED970BD0A44914200F113
:10420000FF3300D1704710B511F8014B03F8014F8F
:104210009142F9D110BD02440346934200D1704748
:1042200003F8011BF9E7000001480068704700002F
:04423000E40700247B
:08423400D0C0FF7F0100000073
:10423C00110900080000000069170008EC42000892
:10424C009138000800000000F9310008000000005F
:10425C00000000000043000885190008DC4300083A
:10426C0085190008A043000875390008144300089C
:10427C0085190008F043000885190008C843000898
:10428C0085190008B4430008851900088C43000800
:10429C008519000878430008851900086443000854
:1042AC008519000850430008851900083C43000894
:1042BC008519000828430008C91C0008044400089C
:1042CC00351900080000000059200008000000000B
:1042DC00651400080000000025150008000000000F
:1042EC0046540008000000002C0000248600002426
:1042FC0000000000ED540008D84C0008DC4C00080D
:10430C009E0000240000000028540008000000005B
:10431C00000000008400002404080024535400080A
:10432C00AC4B0008884C000888000024840800244A
:10433C0061540008C04B0008884C00088A00002417
:10434C00940800246F540008D44B0008884C0008D3
:10435C008C000024A40800247D540008E84B0008BD
:10436C00884C00088E000024B40800248B540008EC
:10437C00FC4B0008884C000890000024C408002462
:10438C0099540008104C0008884C00089200002436
:10439C00D4080024A7540008244C0008884C0008BA
:1043AC0094000024E4080024B5540008384C00089C
:1043BC00884C000896000024F4080024C35400081C
:1043CC004C4C0008884C0008980000240409002478
:1043DC00D1540008604C0008884C00089A00002456
:1043EC0014090024DF540008744C0008884C0008A1
:1043FC009C00002424090024C1550008EC4C000842
:0C440C00344D0008A000002448000024EB
:1044180000000000CB38000800000000CB3800087E
:1044280000000000CB38000800000000CB3800086E
:1044380000000000CB38000800000000CB3800085E
:104448002654000889150008245400088915000816
:10445800225400088915000820540008891500080E
:104468001E5400088915000800000000CB38000819
:1044780000000000CB38000800000000CB3800081E
:1044880000000000CB38000800000000CB3800080E
:1044980000000000CB38000800000000CB380008FE
:1044A80000000000CB38000800000000CB380008EE
:1044B80000000000CB38000800000000CB380008DE
:1044C80000000000CB3800081C54000889150008BB
:1044D80000000000CB38000800000000CB380008BE
:1044E80000000000CB38000800000000CB380008AE
:1044F80000000000CB38000800000000CB3800089E
:1045080000000000CB38000800000000CB3800088D
:1045180000000000CB38000800000000CB3800087D
:1045280000000000CB38000800000000CB3800086D
:1045380000000000CB38000800000000CB3800085D
:1045480000000000CB38000800000000CB3800084D
:104558001A5400088915000800000000CB3800082C
:1045680000000000CB38000800000000CB3800082D
:1045780000000000CB38000800000000CB3800081D
:1045880000000000CB38000800000000CB3800080D
:1045980000000000CB38000800000000CB380008FD
:1045A80000000000CB38000800000000CB380008ED
:1045B80000000000CB38000800000000CB380008DD
:1045C80000000000CB38000800000000CB380008CD
:1045D80000000000CB38000800000000CB380008BD
:1045E80000000000CB38000800000000CB380008AD
:1045F80000000000CB38000800000000CB3800089D
:1046080000000000CB38000800000000CB3800088C
:1046180000000000CB38000800000000CB3800087C
:1046280000000000CB38000800000000CB3800086C
:1046380000000000CB38000800000000CB3800085C
:1046480000000000CB38000800000000CB3800084C
:1046580000000000CB38000800000000CB3800083C
:1046680000000000CB38000800000000CB3800082C
:1046780000000000CB38000800000000CB3800081C
:1046880000000000CB38000800000000CB3800080C
:1046980000000000CB38000800000000CB380008FC
:1046A80000000000CB38000800000000CB380008EC
:1046B80000000000CB38000800000000CB380008DC
:1046C80000000000CB38000800000000CB380008CC
:1046D80000000000CB38000800000000CB380008BC
:1046E80000000000CB38000800000000CB380008AC
:1046F80000000000CB38000800000000CB3800089C
:1047080000000000CB38000800000000CB3800088B
:1047180000000000CB38000800000000CB3800087B
:1047280000000000CB38000800000000CB3800086B
:1047380000000000CB38000800000000CB3800085B
:1047480000000000CB38000800000000CB3800084B
:1047580000000000CB38000800000000CB3800083B
:1047680000000000CB38000800000000CB3800082B
:1047780000000000CB38000800000000CB3800081B
:1047880000000000CB38000800000000CB3800080B
:1047980000000000CB38000800000000CB380008FB
:1047A80000000000CB38000800000000CB380008EB
:1047B80000000000CB38000800000000CB380008DB
:1047C80000000000CB38000800000000CB380008CB
:1047D80000000000CB38000800000000CB380008BB
:1047E80000000000CB38000800000000CB380008AB
:1047F80000000000CB38000800000000CB3800089B
:1048080000000000CB38000800000000CB3800088A
:1048180000000000CB38000800000000CB3800087A
:1048280000000000CB38000800000000CB3800086A
:1048380000000000CB38000800000000CB3800085A
:1048480000000000CB38000800000000CB3800084A
:1048580000000000CB38000800000000CB3800083A
:1048680000000000CB38000800000000CB3800082A
:1048780000000000CB38000800000000CB3800081A
:1048880000000000CB38000800000000CB3800080A
:1048980000000000CB38000800000000CB380008FA
:1048A80000000000CB38000800000000CB380008EA
:1048B80000000000CB38000800000000CB380008DA
:1048C80000000000CB38000800000000CB380008CA
:1048D80000000000CB38000800000000CB380008BA
:1048E80000000000CB38000800000000CB380008AA
:1048F80000000000CB38000800000000CB3800089A
:1049080000000000CB38000800000000CB38000889
:1049180000000000CB38000800000000CB38000879
:0849280000000000CB3800087C
:1049300030020024800A002400050000A9050008B8
:104940000000000000000000000000000500000062
:1049500000000000664E000800000000000000009B
:10496000300600248034002400050000F50600080D
:104970000000000000000000000000000300000034
:1049800000000000A34E000800000000000000002E
:10499000B0050024402F002400050000290700086E
:1049A0000000000000000000000000000300000004
:1049B000000000009D4E0008000000000000000004
:1049C00030050024002A0024000500005D070008CF
:1049D00000000000000000000000000003000000D4
:1049E00000000000974E00080000000000000000DA
:1049F000B0040024C0240024000500009107000832
:104A000000000000000000000000000003000000A3
:104A100000000000914E00080000000000000000AF
:104A200030040024801F002400050000C507000892
:104A30000000000000000000000000000300000073
:104A4000000000008B4E0008000000000000000085
:104A5000B0030024401A002400050000F9070008F4
:104A60000000000000000000000000000300000043
:104A700000000000854E000800000000000000005B
:104A80003003002400150024000500002D08000854
:104A90000000000000000000000000000300000013
:104AA000000000007F4E0008000000000000000031
:104AB000B0020024C00F00240005000061080008B7
:104AC00000000000000000000000000003000000E3
:104AD00000000000794E0008000000000000000007
:104AE000A94E000803000000555300080300000011
:104AF000C556000803000000D1550008030000005F
:084B0000155400080300000039
:104B080070090024000100000000000000000000FF
:044B18000000002475
:104B1C00084B0008E4010024084B0008EC010024B9
:104B2C00084B0008F4010024084B0008FC01002489
:104B3C00084B000804020024084B00080C02002457
:104B4C00084B000814020024084B00081C02002427
:104B5C00F400000002000000030000006C4B000891
:104B6C0000000008BA4E00082600020700000024CE
:104B7C00C04E000824000B110000F01FC54E0008A9
:104B8C0024000411CC4E000800000090000000101E
:104B9C0000000002000000240000000000000B06D2
:104BAC00FFFF0000002802580A000000E00000008F
:104BBC0000040000FFFF0000002402580900000060
:104BCC00E000000000020000FFFF0000002002587F
:104BDC0008000000E000000000010000FFFF0000E2
:104BEC00001C025807000000E000000080000000DC
:104BFC00FFFF00000018025806000000E000000053
:104C0C0040000000FFFF00000014025805000000E7
:104C1C00E000000020000000FFFF00000010025820
:104C2C0004000000E000000010000000FFFF000086
:104C3C00000C025803000000E00000000800000017
:104C4C00FFFF00000008025802000000E000000016
:104C5C0004000000FFFF00000004025801000000E7
:104C6C00E000000002000000FFFF000000000258FE
:104C7C0000000000E000000001000000033C000800
:104C8C00CF3A0008DB3A0008ED3A0008F73A000882
:104C9C00033B0008B5190008113B00080000000098
:104CAC00F0430008DC430008C8430008B443000884
:104CBC00A04300088C4300087843000864430008B4
:104CCC00504300083C4300082843000800440258A5
:104CDC00FF3C0008213D00083D3D00085B3D0008FD
:104CEC00004C004000430008131200000C4D00085B
:104CFC00010000000000000000000000144D00083E
:104D0C00E8000000000008001C4D00080100000035
:104D1C00244D0008020000002803000000020000DF
:104D2C000803000000000000373E0008FD3D0008AD
:104D3C009B3D0008811E00085B3E0008765600086B
:104D4C008456000898560008A7560008B356000869
:104D5C003C4200083C420008D4420008DC420008F7
:104D6C00E4420008EC420008001000000030410052
:104D7C0025633A2042656E63686D61726B20312049
:104D8C00746F2025643A2044796E616D6963206DDF
:104D9C00656D6F72792C20257353594E43207472B4
:104DAC00616E736D697373696F6E20616E64206DD3
:104DBC006573736167652073697A652025750A00D0
:104DCC0025633A20536F6D657468696E672077723E
:104DDC006F6E672E204475726174696F6E206973F3
:104DEC00207A65726F210A0A0025633A2042797491
:104DFC0065732073656E74203D20256C6C642C20CB
:104E0C007265636569766564203D20256C750A00C2
:104E1C0025633A204176657261676520646174612F
:104E2C0020726174653A20256C6C752E256C6C753E
:104E3C004D422F730A0025633A20447572617469E0
:104E4C006F6E3A20256C6C642E2530396C6C757342
:104E5C000A000A40256C6C750A0070726F647563E9
:104E6C0065725F7468726561645F69640073385F52
:104E7C0069640073375F69640073365F696400733B
:104E8C00355F69640073345F69640073335F696410
:104E9C000073325F69640073315F69640063627030
:104EAC0072696E74665F7061636B61676500464C16
:104EBC00415348005352414D0053595354454D00F2
:104ECC006D656D6F72794039303030303030300074
:104EDC0025633A2072302F61313A2020307825300A
:104EEC003878202072312F61323A202030782530EA
:104EFC003878202072322F61333A202030782530D8
:104F0C0038780A0025633A2072332F61343A202016
:104F1C00307825303878207231322F69703A202061
:104F2C00307825303878207231342F6C723A20204A
:104F3C003078253038780A0025633A202078707351
:104F4C00723A20203078253038780A0025633A20D0
:104F5C004661756C74696E6720696E7374727563E3
:104F6C0074696F6E2061646472657373202872318A
:104F7C00352F7063293A203078253038780A00258F
:104F8C00633A202A2A2A2A2A204D50552046415578
:104F9C004C54202A2A2A2A2A0A0025633A20202047
:104FAC00537461636B696E67206572726F7220282F
:104FBC00636F6E746578742061726561206D6967CA
:104FCC006874206265206E6F742076616C69642948
:104FDC000A0025633A202020556E737461636B6957
:104FEC006E67206572726F720A0025633A2020206A
:104FFC0044617461204163636573732056696F6CFF
:10500C006174696F6E0A0025633A2020204D4D466D
:10501C00415220416464726573733A20307825786C
:10502C000A0025633A202020496E737472756374EC
:10503C00696F6E204163636573732056696F6C6191
:10504C0074696F6E0A0025633A202020466C6F61EC
:10505C0074696E672D706F696E74206C617A79203B
:10506C0073746174652070726573657276617469AE
:10507C006F6E206572726F720A0025633A202A2ABD
:10508C002A2A2A205553414745204641554C542045
:10509C002A2A2A2A2A0A0025633A202020446976E3
:1050AC006973696F6E206279207A65726F0A0025C8
:1050BC00633A202020556E616C69676E6564206DC3
:1050CC00656D6F7279206163636573730A00256384
:1050DC003A2020204E6F20636F70726F636573737C
:1050EC006F7220696E737472756374696F6E730A74
:1050FC000025633A202020496C6C6567616C206C3C
:10510C006F6164206F66204558435F524554555279
:10511C004E20696E746F2050430A0025633A20209C
:10512C0020496C6C6567616C20757365206F662017
:10513C0074686520455053520A0025633A2020209C
:10514C00417474656D707420746F20657865637537
:10515C00746520756E646566696E656420696E732E
:10516C007472756374696F6E0A0025633A202A2A7B
:10517C002A2A2A20425553204641554C54202A2A8B
:10518C002A2A2A0A0025633A202020537461636B73
:10519C00696E67206572726F720A0025633A20206F
:1051AC002050726563697365206461746120627557
:1051BC0073206572726F720A0025633A20202042B8
:1051CC0046415220416464726573733A20307825ED
:1051DC00780A0025633A202020496D707265636956
:1051EC007365206461746120627573206572726FDF
:1051FC00720A0025633A202020496E73747275631D
:10520C0074696F6E20627573206572726F720A001A
:10521C005265736572766564204578636570746950
:10522C006F6E20280053707572696F757320696EEC
:10523C007465727275707420284952512000256370
:10524C003A20535053454C20696E20746872656146
:10525C0064206D6F646520646F6573206E6F7420BD
:10526C00696E646963617465205053500A0025634C
:10527C003A202A2A2A2A2A204841524420464155BB
:10528C004C54202A2A2A2A2A0A0025633A20202054
:10529C00427573206661756C74206F6E2076656341
:1052AC00746F72207461626C6520726561640A00AF
:1052BC0025633A2020204465627567206576656E0B
:1052CC00740A0025633A2020204661756C742065B1
:1052DC007363616C6174696F6E20287365652062FD
:1052EC00656C6F77290A0025633A20415243485F69
:1052FC004558434550542077697468207265617332
:10530C006F6E2025780A0A0025633A202A2A2A2A59
:10531C002A204465627567206D6F6E69746F722008
:10532C00657863657074696F6E202A2A2A2A2A0AA6
:10533C000025633A202A2A2A2A2A2025732025644C
:10534C0029202A2A2A2A2A0A006D70750025633A18
:10535C0020506172746974696F6E2025753A2073E0
:10536C00616E69747920636865636B206661696C32
:10537C0065642E0A0025633A204661696C656420D9
:10538C00746F20616C6C6F63617465206E6577203F
:10539C004D505520726567696F6E2025750A0A009D
:1053AC0025633A20496E76616C696420617474726D
:1053BC00696275746520666F722074686520726509
:1053CC0067696F6E0A0A0025633A20636F756C6417
:1053DC00206E6F742064656C69766572206E6F74D4
:1053EC00696669636174696F6E20746F206F627394
:1053FC0065727665722025732E204572726F72204D
:10540C00636F64652025640A007A627573000A066E
:10541C00050504010301020101010001696E7465B7
:10542C0072727570742D636F6E74726F6C6C6572C2
:10543C0040353830303030303000726363403538AE
:10544C00303234343030006770696F403538303268
:10545C0032383030006770696F4035383032323452
:10546C003030006770696F40353830323230303050
:10547C00006770696F403538303231433030006727
:10548C0070696F40353830323138303000677069B0
:10549C006F403538303231343030006770696F40CE
:1054AC003538303231303030006770696F40353804
:1054BC00303230433030006770696F4035383032ED
:1054CC0030383030006770696F40353830323034E6
:1054DC003030006770696F403538303230303030E2
:1054EC000072657365742D636F6E74726F6C6C658E
:1054FC00720025633A204661696C65642063616CB7
:10550C006C20636C6F636B5F636F6E74726F6C5F38
:10551C006765745F726174652870636C6B656E5B34
:10552C00305D290A0025633A20636C6F636B20633E
:10553C006F6E74726F6C20646576696365206E6F34
:10554C00742072656164790A0025633A20436F7593
:10555C006C64206E6F7420656E61626C6520284CE3
:10556C0050295541525420636C6F636B0A002563BC
:10557C003A20726573657420636F6E74726F6C6C15
:10558C006572206E6F742072656164790A00256300
:10559C003A20257320646F6573206E6F74207375C9
:1055AC0070706F72742064726976657220656E61BA
:1055BC00626C650A0073657269616C40343030301E
:1055CC003463303000756172745F73746D33320004
:1055DC0025633A2048616C74696E67207379737423
:1055EC00656D0A00556E6B6E6F776E206572726F0B
:1055FC007200756E6B6E6F776E0025633A203E3EBF
:10560C003E205A455048595220464154414C204561
:10561C0052524F522025643A202573206F6E20433E
:10562C0050552025640A0025633A204661756C7438
:10563C0020647572696E6720696E7465727275701C
:10564C00742068616E646C696E670A0A0025633A9F
:10565C002043757272656E74207468726561643A69
:10566C0020257020282573290A0043505520657881
:10567C0063657074696F6E00556E68616E646C65FD
:10568C006420696E74657272757074005374616312
:10569C006B206F766572666C6F77004B65726E650A
:1056AC006C206F6F7073004B65726E656C2070614F
:1056BC006E6963006D61696E006F73002A2A2A207F
:1056CC00426F6F74696E67205A6570687972204FEB
:1056DC0053206275696C64207A65706879722D76D6
:1056EC00332E352E302D313432372D676331613600
:1056FC006366646639626438202A2A2A0A00286E96
:10570C00756C6C29002A666C6F61742A00000000AD
:10571C00FFFFFFFF00000000000000000000000081
:10572C000000000000000000AF3600080000000080
:10573C00F33800080000000000000000853A000863
:10574C00A93A000800000000011700080000000042
:10575C0000000000A5160008000000005000002406
:10576C0000C20100000103000090D0035C00002483
:10577C005C000024FF00FF00FF00FF00FF00FF00A3
:10578C00FF00FF00FF00FF00FF00FF00FF00FF0015
:04579C00FF00FF000B
:1057A00000000000000000000000000000000000F9
:0E57B0000000000000000000000000000000EB
:0257BE00FFFFEB
:1057C000A4000024A4000024040000000400000041
:1057D000F04A0024004B0024F04A0024F04A002440
:1057E0000000000000000000CC000024CC000024D9
:1057F0000400000004000000E04A0024F04A0024F5
:10580000E04A0024E04A00240000000000000000FC
:10581000F4000024F4000024040000000400000050
:10582000D04A0024E04A0024D04A0024D04A002470
:1058300000000000000000001C0100241C010024E6
:105840000400000004000000C04A0024D04A0024E4
:10585000C04A0024C04A00240000000000000000EC
:10586000440100244401002404000000040000005E
:10587000B04A0024C04A0024B04A0024B04A0024A0
:1058800000000000000000006C0100246C010024F6
:105890000400000004000000A04A0024B04A0024D4
:1058A000A04A0024A04A00240000000000000000DC
:1058B000940100249401002404000000040000006E
:1058C000904A0024A04A0024904A0024904A0024D0
:1058D0000000000000000000BC010024BC01002406
:1058E0000400000004000000804A0024904A0024C4
:1058F000804A0024804A00240000000000000000CC
:1059000001010000A400002401010000CC000024DB
:1059100001010000F4000024010100001C0100242A
:105920000101000044010024010100006C01002479
:10593000010100009401002401010000BC010024C9
:0859400000000000000000005F
:0459480015E015E071
:0400000508000F21BF
:00000001FF
