:020000040800F2
:1000000040200024B90D000841380008A50D000863
:10001000A50D0008A50D0008A50D000800000000B2
:10002000000000000000000000000000A50E000815
:10003000A50D000800000000410E0008291F00085F
:1000400025100008251000082510000825100008BC
:1000500025100008251000082510000825100008AC
:10006000251000082510000825100008251000089C
:10007000251000082510000825100008251000088C
:1002CC0053B94AB9002908BF00281CBF4FF0FF31B1
:1002DC004FF0FF3000F00CB8ADF1080C6DE904CE16
:1002EC0000F008F8DDF804E0DDE9022304B0704703
:1002FC00704700BF2DE9F04786468C460846089E9D
:10030C00154674461946002B40F0C2808542B2FA5D
:10031C0082F245D94AB1C2F1200300FA02FC2EFA4E
:10032C0003F3954043EA0C0C94404FEA154EA8B2E7
:10033C00BCFBFEF8230C0EFB18CC08FB00F943EABF
:10034C000C43994528D9EB1808F1FF3704D299458D
:10035C0002D9A8F102072B44A3EB0903A4B2B3FB07
:10036C00FEFC0EFB1C330CFB00F044EA0344A042E1
:10037C0014D92C190CF1FF3304D2A04202D9ACF1E0
:10038C0002032C44241A43EA07401EB1D440002334
:10039C0034607360BDE8F0874746DDE76346F1E7FC
:1003AC0092BB431B01214FEA154EAFB2B3FBFEFCCF
:1003BC00200C0EFB1C330CFB07F840EA034398455A
:1003CC0062D9EB180CF1FF3004D2984502D9ACF18C
:1003DC0002002B44A3EB0803A4B2B3FBFEFC0EFB00
:1003EC001C330CFB07F744EA0344A7424ED92C19E3
:1003FC000CF1FF3304D2A74202D9ACF102032C4416
:10040C00E41B43EA0040C0E7C2F1200320FA03F1E9
:10041C00954090402EFA03F303434FEA154EAFB2CA
:10042C00B1FBFEFC0EFB1C10190C0CFB07F841EA8F
:10043C000041884504FA02F422D969180CF1FF3006
:10044C0004D2884502D9ACF102002944A1EB080181
:10045C009BB2B1FBFEFC0EFB1C110CFB07F743EA35
:10046C0001439F420ED9EB180CF1FF3104D29F428D
:10047C0002D9ACF102012B44DB1B41EA004192E7AB
:10048C006046E3E76146F7E76046A3E76346B7E7F4
:10049C00834206D916B9002108467BE7C6E900E07D
:1004AC00F9E7B3FA83F78FB9834201D3724508D8C1
:1004BC00BEEB020460EB030301209C461EB9002135
:1004CC0068E73846FAE7C6E9004CF8E7C7F1200CB4
:1004DC00BB4022FA0CF41C432EFA0CF120FA0CF35C
:1004EC00B84001434FEA14490EFA07F5B3FBF9F88B
:1004FC001FFA84FE09FB18300B0C08FB0EFA43EABA
:10050C0000439A4502FA07F240D9E31808F1FF308C
:10051C0004D29A4502D9A8F102002344A3EB0A03A2
:10052C0089B2B3FBF9F809FB183308FB0EFE41EA5C
:10053C0003418E452CD9611808F1FF3304D28E4546
:10054C0002D9A8F10203214443EA0040A0FB02981F
:10055C00A1EB0E014145CE46434602D306D14D4593
:10056C0004D2B9EB020E68EB04030138002EA6D0BE
:10057C00B5EB0E0261EB030101FA0CFC22FA07F356
:10058C004CEA0303F940C6E9003198E74046C5E759
:10059C004346D9E70368492101481A6803F039B981
:1005AC00124C0008064BBFF35B8F53E8001F013958
:1005BC0043E80012002AF8D1BFF35B8F704700BFED
:1005CC00F403002473B5124D124C134E4FF0FF324E
:1005DC004FF0FF336946284603F091F908B102B099
:1005EC0070BD009BA342F1D101A941F288320023D6
:1005FC00204603F070F941F2883003F01CF83046C5
:10060C00FFF7D0FF019A492103F003F9DEE700BFA1
:10061C002C010024C0490008474C000873B5124D4A
:10062C00124C134E4FF0FF324FF0FF336946284601
:10063C0003F065F908B102B070BD009BA342F1D183
:10064C0001A941F288320023204603F044F94FF40B
:10065C007A7002F0F0FF3046FFF7A4FF019A4921AF
:10066C0003F0D7F8DEE700BF24010024C0490008DE
:10067C00874C000873B5124D124C134E4FF0FF32DD
:10068C004FF0FF336946284603F039F908B102B040
:10069C0070BD009BA342F1D101A941F28832002325
:1006AC00204603F018F940F6C41002F0C4FF30469F
:1006BC00FFF778FF019A492103F0ABF8DEE700BFA2
:1006CC001C010024C0490008C74C00080023124C30
:1006DC00124D07B50193BFF35B8F2368BFF35B8F9C
:1006EC00002B14DC0323BFF35B8F54E8002F44E88A
:1006FC0000310029F9D1002341F2883201A92846A2
:10070C00BFF35B8F03F0B6F8019B0133E2E7642083
:10071C0002F091FFDFE700BFF4030024C04900089A
:10072C00014B1B68184700BF18000024014B1860D0
:10073C00704700BF1800002430B585B004460D4644
:10074C0010220021684603F04BFD02232A46214665
:10075C008DF802306846034B019302F023FD05B07F
:10076C0030BD00BF2D07000880B505460E46174664
:10077C00984602F0A3FBDFF82090034603F038FD07
:10078C000446424649F8003039463046A84754F8EA
:10079C00090000F021FB00BF08000000324B70B5CF
:1007AC005A6912F4003211D1BFF34F8FBFF36F8F20
:1007BC00C3F85022BFF34F8FBFF36F8F5A6942F4C7
:1007CC0000325A61BFF34F8FBFF36F8F264A5369C4
:1007DC00D90327D4536913F4803323D1C2F884305E
:1007EC00BFF34F8FD2F8803043F6E074C3F3C900E7
:1007FC00C3F34E335B0103EA0406014646EA8175F6
:10080C000139C2F86052F9D2203B13F1200FF2D11A
:10081C00BFF34F8F536943F480335361BFF34F8F52
:10082C00BFF36F8F114B124A1A60124BDA6822F029
:10083C00070242F00202DA609A6942F440429A617D
:10084C009A699204FCD50C4B1A6841F20303B3EB82
:10085C00124F06D1094AD2F8083143F00103C2F80D
:10086C000831002070BD00BF00ED00E058000024EE
:10087C000090D003004802580010005C008000512A
:10088C00014B036001207047284A000837B5054624
:10089C000C46C9B18B6810480093D1E9002345215F
:1008AC0002F0B7FF636945210C480093D4E9032398
:1008BC0002F0AFFFE2694521094802F0AAFFA269E4
:1008CC004521084802F0A5FF2146284603B0BDE8A3
:1008DC00304001F0C9BC00BF6D4D0008A14D0008AF
:1008EC00D54D0008E94D000830BFFFF7FDBF00BF34
:1008FC00114B124A2DE9F041D518DFF84480074618
:10090C00013DB5FBF3F55D430E4B08EB0304013CD5
:10091C00B4FBF3F403FB04540E1B0B49304603F0F9
:10092C0051FC7019083E4246002103F059FC04F1B9
:10093C0008003E67BDE8F0810100000000000000E7
:10094C000400000004000000F4490008044B9968FE
:10095C005869884203D003494FF080520A607047AF
:10096C005405002404ED00E02DE9F843364D804693
:10097C00894636484521174602F04BFFAB6ADE0626
:10098C0026D511244521324802F043FFAB6A1D07DE
:10099C0004D5122445212F4802F03BFF2A4DAB6AA7
:1009AC00980717D545212C4802F033FF6E6BAB6AC4
:1009BC00190645D532464521284802F02AFFB9F1DF
:1009CC00000F03D0AB6A23F08003AB62132403E067
:1009DC001024DBE76FF015061B4DAB6ADA0704D564
:1009EC00142445211E4802F014FFAB6A9B0604D563
:1009FC00152445211B4802F00CFF134B9A6AD506AF
:100A0C0002D49A6A90070AD55B68190507D5414646
:100A1C00304600F0AFFA10B180F3098802240A4B7B
:100A2C009A6A920603D55A6A22F400525A629A6A5A
:100A3C00204642F0FF029A6200233B70BDE8F88327
:100A4C006FF01506C2E700BF00ED00E01C4E000879
:100A5C00374E00086F4E0008874E0008A44E000861
:100A6C00BF4E0008E34E000810B5204C452120482D
:100A7C0002F0CFFEA36A990136D51E48452102F03B
:100A8C00C8FE1E20A36ADA0104D51B48452102F0DA
:100A9C00C0FE1F20154CA36A1B0304D51748452123
:100AAC0002F0B7FE2120A36A590304D5144845214E
:100ABC0002F0AFFE22200D4CA36A9A0304D5114814
:100ACC00452102F0A6FE2320A36ADB0304D50E48C1
:100ADC00452102F09EFE2420044A936A6FEA0343E8
:100AEC006FEA1343936210BD1D20CBE700ED00E0CD
:100AFC00174F0008344F00084C4F00086B4F00088C
:100B0C008E4F0008B84F0008D74F000870B5284C1E
:100B1C0006460D462748452102F07BFEA36AD90400
:100B2C003BD52548452102F074FE1720A36A1A050F
:100B3C0004D52248452102F06CFE18201C4CA36AF7
:100B4C009B0511D51E48452102F063FEA26BA36ADA
:100B5C00180408D545211B4802F05BFE1EB1A36AA0
:100B6C0023F40043A3621920114CA36A590504D540
:100B7C001548452102F04DFE1A20A36ADA050ED560
:100B8C001248452102F045FE1B20094A936A43F4A2
:100B9C007F43936200232B7070BD1620C6E7A36AB7
:100BAC009B04F2D50A48452102F033FE1C20ECE7E9
:100BBC0000ED00E007500008225000086F4E0008BE
:100BCC00385000085650000870500008905000082B
:100BDC00E34E0008614B2DE9F0415F688AB0044692
:100BEC000025C7F3080685F31188BFF36F8F02F059
:100BFC007F43B3F17F4F07D102F00C03082B14D1C4
:100C0C004521574802F005FE00252C464FF0000800
:100C1C00F31E8DF80780092B00F28E80DFE803F0BD
:100C2C000A81857D8C8C8C8C8C8910074CBF0C4672
:100C3C000125EBE7494E45214A4802F0EAFD8DF8C3
:100C4C000780F36A9A0705D54521474802F0E1FD74
:100C5C00002333E0F36A002B02DA45214348F5E721
:100C6C00F36A5B00F4D54521414802F0D2FD73696B
:100C7C00A26943F480737361BFF34F8FBFF36F8F1F
:100C8C00736932F8022C23F480737361BFF34F8FB6
:100C9C00BFF36F8F4DF602739A4209D0B36ADBB281
:100CAC006BB30DF1070201212046FFF75DFE36E024
:100CBC00226845212F4802F0ACFD23689DF80720DF
:100CCC00D2B902AE04F120072068083454F8041C91
:100CDC003246BC4203C21646F6D1099A002D38D0D2
:100CEC00C2F3080121B96FEA52226FEA422209923B
:100CFC0002A91846FFF7CAFD0AB0BDE8F081B36A35
:100D0C0013F47F4F05D00DF107010120FFF7FEFE14
:100D1C0005E0B36AB3F5803F9AD3FFF7A5FE03460F
:100D2C00CCE70DF107020021BEE70DF10701002011
:100D3C00ECE74521104889E717F4F87F0F49104A72
:100D4C00A6F1100308BF0A460E48452102F061FDCA
:100D5C007EE722F4FF7222F00102C8E700ED00E00A
:100D6C00DB5000080B510008275100084D510008BA
:100D7C006051000884510008A5510008AD500008CE
:100D8C00C2500008CE510008024A536943F01003C8
:100D9C005361704700ED00E0EFF30880EFF3098139
:100DAC0001B57246FFF716FF01BD00BF102080F39E
:100DBC00118808484FF40461401880F30988EFF358
:100DCC0014800221084380F31488BFF36F8F00F066
:100DDC0097F8000080120024084B9B6883420BD1CB
:100DEC00EFF3058343B1064B5A6842F080525A60C8
:100DFC005A6A22F400425A6203F033B954050024B3
:100E0C0000ED00E0094A6FF00A0193689967084900
:100E1C0058674B6843F080534B60002383F3118871
:100E2C00BFF36F8F9368986F704700BF5405002411
:100E3C0000ED00E015498A684FF030001044EFF3E4
:100E4C00098C80E8F01F102080F31288BFF36F8F9D
:100E5C000F4F4FF000664A698A603E604FF0700495
:100E6C00141920680B4C2060506F0023536780F3DB
:100E7C00118804B5104600F0EFF8BDE8044002F10B
:100E8C00300090E8F01F8CF309887047540500245B
:100E9C0004ED00E0F80300241EF0040F0CBFEFF388
:100EAC000880EFF30980816911F8021C0229FFD038
:100EBC0001B502F0BBFC01BD00B2002807DB012329
:100ECC00410900F01F00024A834042F8213070476C
:100EDC0000E100E000B2013100284FEA0111C9B273
:100EEC0006DB00F1604000F5614080F800137047AC
:100EFC0000F00F00014B1954704700BF14ED00E0D7
:100F0C000F4A08B522F07F020E4B9A60BFF34F8F49
:100F1C00BFF36F8FD3F8882022F47002C3F88820B7
:100F2C00EFF3148323F0040383F31488BFF36F8F60
:100F3C0001F028FA01F0C8FF00F062F801F074FA31
:100F4C000000000800ED00E042F8203C203A009B35
:100F5C0007495360019B21F001019360029B916151
:100F6C00D3604FF08073D3610023026543677047F1
:100F7C0075070008094A0346906870B113F1160F03
:100F8C00006E05D0A0F140029A4205D8834203D2EC
:100F9C00814228BF00207047002070475405002470
:100FAC0014460B4A0D4608B50A4B9060026F1A6046
:100FBC0000F052F8204685F30988002163B681F3CE
:100FCC001188BFF36F8F00220023FFF7CDFB00BF0A
:100FDC0054050024F8030024014910220A607047CC
:100FEC0010ED00E072B6404080F31188BFF36F8FB4
:100FFC00BFF34F8F30BF62B6BFF36F8F704700BF28
:10100C00002304481021C2180133A32B82F80013CB
:10101C00F9D1704700E100E001B5EFF30580A0F1D4
:10102C0010004FEAC0000449014409C99847BDE8C3
:10103C000140024908470000EC4300085909000828
:10104C00024B0121024A034800F07CB80000052441
:10105C0000000024384A0008026E4021044B403A3C
:10106C0018461A60034AC3E90112012100F074B852
:10107C00FC03002400000B15084AC2F898000B680A
:10108C0023F01F03034343F01003C2F89C308B681A
:10109C0043F00103C2F8A030704700BF00ED00E040
:1010AC002DE9FF410F469846144605460026BE42E0
:1010BC000EDA686840B3B8F1000F12D0431E184224
:1010CC000AD03246452112486FF0150402F0A1FBFC
:1010DC00204604B0BDE8F0811F28F2D92A681342DB
:1010EC00EFD12B68019302F0B0FBAB680343039381
:1010FC00E3B20F2B03D9224645210648E4E72046EC
:10110C00013401A9FFF7B8FF01360C35CFE700BF5A
:10111C00EA51000812520008044B0522C3F894202F
:10112C00BFF34F8FBFF36F8F704700BF00ED00E030
:10113C00BFF35F8F024B0022C3F89420704700BFAF
:10114C0000ED00E010B5034C01232278FFF7A8FF57
:10115C00207010BD84050024094A08B500231278BC
:10116C00FFF79EFF10F1160F03D0064B00220F283D
:10117C0000DD08BDC3F898000130C3F8A020F6E7E5
:10118C008405002400ED00E0F0B54A4D85B02C68D4
:10119C00102C00F28C8000200C26FFF7C9FF844233
:1011AC000DD1454D6846454F2C70FFF769FB002467
:1011BC000646A6420AD10020FFF7AEFF20E0696880
:1011CC0006FB0011FFF758FF0130E8E700984FEAE3
:1011DC00041C00EB0411CB683B40B3F5000F4BD063
:1011EC0010D8B3F5001F31D0B3F5800F39D0B3F55B
:1011FC00801F16D04521324802F00BFB6FF0150012
:10120C0005B0F0BDB3F1807F3FD0B3F1007FF1D1D9
:10121C0050F80C30886802F018FB4A6840F48020C3
:10122C0009E050F80C30886802F00FFB40F0885051
:10123C004A6840F430200390CDE901232A780F2A24
:10124C002CD945211F4802F0E4FAD7E750F80C30AE
:10125C00886802F0FAFA40F088504A6840F400209E
:10126C00E9E750F80C30886802F0EFFA40F0E060E3
:10127C004A6840F40030DEE750F80C30886802F021
:10128C00E4FA4A6840F08270D5E750F80C30886870
:10129C0002F0DBFA4A6840F08870CCE701A91046EE
:1012AC00FFF7EAFE2B78013401332B7081E74FF006
:1012BC00FF30A5E7FC490008840500240000F0FF7E
:1012CC003D5200081252000808B5024B1B689847A3
:1012DC00002008BD08040024034B044A18609378CE
:1012EC0043F0020393707047080400241C00002490
:1012FC000649074821F00701C1F1105208B502F563
:10130C00A02202F028FA002008BD00BFB72000245C
:10131C000C0400242DE9F04F1F46036987B00546E5
:10132C00B3F902800026B3F90040DFF87490DFF8BF
:10133C0074A0019223B2984501DCB3462CE059F815
:10134C0034305A783AB11AF8042022B905951A7833
:10135C002AB1012A07D0B34601345E46EAE75B683E
:10136C0028469847F7E7D3F804B002A8019A3B4601
:10137C0002F0D6FEDDE90223584605A901F046F934
:10138C0083460028E7D00346074A4521074802F068
:10139C0040FA1BF10C0FDFD1584607B0BDE8F08FB7
:1013AC00D84900083C010024E954000864520008A4
:1013BC0038B514490023144CA14205D3134C144DD9
:1013CC00AC4219D3002038BD0A68934204D010698E
:1013DC004BB903801069438010690831438801338D
:1013EC0043801346E8E71D69B5F9025005801B6977
:1013FC001069B3F90230EEE72069043002F06DFD9C
:10140C001434DDE7D4490008F4490008C049000849
:10141C00D44900082DE9F041054600244FF001089D
:10142C004FF0B0460E4F2B7853FA84F01F280FDC88
:10143C0008FA00F3D6F8882033EA020208D1C6F87D
:10144C00883057F830301BB107EBC0025168984711
:10145C0001346A78E3B29A42E5D2BDE8F08100BF6C
:10146C0018040024044B03EB40000023013320F844
:10147C00022B9942FADC704764000024084B0246A8
:10148C004FF0B04110B433F910000123D1F8804073
:10149C0093402343C1F8803010BCFFF70DBD00BF53
:1014AC00640000240A4B30B553F830408C4204D110
:1014BC0003EBC0056D68954205D034B943F8301084
:1014CC0003EBC0035A60002030BD6FF00F00FBE748
:1014DC0018040024034B002243F8302003EBC00314
:1014EC005A60704718040024034B04489B6A13F09D
:1014FC00030F18BF00207047004402580090D0031F
:10150C0008B5094B1B6913F0380308D0182B08D108
:10151C00FFF7EAFF7D2380085843400808BD0348C5
:10152C00FBE70020F9E700BF004402580024F40058
:10153C0010B50A68102A23D8134BD340DB071FD5EC
:10154C004A68D3B2C2F34234C2F3042203F1B0436B
:10155C0004FA02F203F51133186820EA02021A6049
:10156C004968CBB2C1F30242C1F3042103F1B04389
:10157C008A4003F511331868024300201A6010BD2D
:10158C006FF08500FBE700BF0E40010008B5174B5C
:10159C0018680B68D42B1AD00CD8032B03D8F3B9CA
:1015AC006FF0850016E00B2B15D0102BF8D1FFF740
:1015BC00A7FF0DE0D83B1C2BF2D8012101FA03F355
:1015CC000B490B4209D140F211110B42E8D04008F3
:1015DC001060002008BD0020FAE78008F8E7FFF74C
:1015EC0083FF7D2380085843F2E700BF5800002496
:1015FC00001011116C4B37B5D3F8E02042F000729B
:10160C00C3F8E020D3F8E02002F000720192019AB6
:10161C001A6842F001021A601A685207FCD51A685F
:10162C0022F0180242F010021A601A6902F0380215
:10163C00182A17D11A68550707D41A6842F0010204
:10164C001A60594A13685C07FCD5574B1A6922F08B
:10165C0007021A611A6912F0380FFBD19A6922F04D
:10166C000F029A61504B1A6822F080721A609A6AC3
:10167C0022F003029A629A6A22F47C7242F04002CF
:10168C009A62DA6A22F00C0242F00402DA62DA6A36
:10169C0022F00202DA621A6B22F4FF7222F00102CB
:1016AC0042F07C021A63DA6A22F00102DA621A6BE7
:1016BC0022F47E421A63DA6A42F48032DA621A6BDE
:1016CC0022F4FE021A63DA6A42F40032DA621A6B0E
:1016DC0022F0FE421A63DA6A42F48022DA621A6855
:1016EC0042F080721A601A689001FCD52F4BDA68B0
:1016FC0022F0070242F00202DA609A6922F44042B8
:10170C009A619A699104FCD5294DFFF7F9FE0446BC
:10171C00A84202D8274800F0CFFC234B9A6922F448
:10172C0070629A619A6922F00F0242F008029A6183
:10173C00DA6922F0700242F04002DA61DA6922F4CE
:10174C00E06242F48062DA619A6922F0700242F03F
:10175C0040029A611A6A22F0700242F040021A6248
:10176C001A6922F0070242F003021A611A6902F0A8
:10177C003802182AFAD1AC4202D90E4800F09CFC6F
:10178C000A4BDA6822F0070242F00202DA609A6928
:10179C0022F440429A619A699204FCD5064B0020CF
:1017AC00064A1A6003B030BD004402580048025883
:1017BC007FB2E60E80B2E60E580000240065CD1D07
:1017CC0008B5074802F05BFB38B10648FFF784FD0B
:1017DC000448FEF7ABFF002008BD6FF01200FBE7DA
:1017EC00D8430008F51700080A2838B50446074DF9
:1017FC0004D1AB680D2128465B689847AB68E1B211
:10180C0002485B689847204638BD00BFD8430008A3
:10181C0038B5036904465860084D284602F02FFB82
:10182C0040B161682846AB680C311B68984700EAE8
:10183C00E07038BD6FF01200FBE700BFC04200083B
:10184C00F7B517460C461D464668B7F5001F0269EA
:10185C0028D101F003030F2204339B009A4042EA83
:10186C009102374902F00303023351F82310130C91
:10187C0093FAA3F3B3FA83F301EA124203F01F03C2
:10188C0022FA03F3B2689A4209D1204602F083F897
:10189C002046FFF71FFE0021204602F089F80020A9
:1018AC0003B0F0BDB7F5800F44D026492046FFF7B2
:1018BC00F9FD002841D1244A6B46B66892E8030032
:1018CC0083E8030021481946826812689047D8B90A
:1018DC0004F003030F2104339B00994041EA940167
:1018EC0001F003030A0C92FAA2F29B00B2FA82F204
:1018FC0003F1B04302F01F02D3F80804964020EA2B
:10190C0011410E43C3F80864B5F1806F0ED0B5F1E8
:10191C00C06F0DD005F17E43594259414900204614
:10192C0002F046F82046FFF7A9FDB8E70121F6E7DB
:10193C000321F4E76FF08500B2E76FF00F00AFE71B
:10194C0000040058173C0008F4490008C042000885
:10195C002DE9F047044600EBC10600251C4FB442AC
:10196C0001D1002014E02068C30600F01F0911D437
:10197C00656845F02005C0F3471AC0F343200A28D8
:10198C0023D857F82080B8F1000F0DD16FF012005A
:10199C00BDE8F087B9F1100F04D0B9F1110FEAD1FD
:1019AC006568E8E73025E6E7404602F068FA00286B
:1019BC00ECD04B462A460AF00F01404602F03CF9A7
:1019CC00002804F10804CADAE2E76FF01500DFE73B
:1019DC00444B000837B503690C4645681868E9683C
:1019EC008368DB682BB945210C4801F012FF03B06A
:1019FC0030BD01AA98470028F5DB2A68136823F448
:101A0C0000431360002CF2D0019B2A6803EB5403B3
:101A1C00B3FBF4F39BB2D360E9E700BF8F5300082C
:101A2C00F8B50C46036941685D682379012B15D024
:101A3C009F1E7E427E41B6026279022A96BF444FB7
:101A4C004FF4005737F81270A279022A09D0042AF1
:101A5C002FD0003B18BF01231B0306E04FF4C066D8
:101A6C00EAE7B3FA83F35B091B07E2790968012AF9
:101A7C0014BF4FF0000C4FF4407CA5421CD10A68F7
:101A8C0022F0805222F4B05232431A430A604B685F
:101A9C0023F440533B434B6043681A68936823F428
:101AAC00407343EA0C0393602968BDE8F840FFF7E4
:101ABC0091BF4FF48053D8E7D1F800E00EF4C06E1C
:101ACC00764506D0D1F800E02EF4C06E4EEA06063C
:101ADC000E6041680E68716801F440518F4204D069
:101AEC00716821F440513943716041680E68316866
:101AFC0001F010218B4204D0316821F010210B43EE
:101B0C003360436819688B6803F440739C4505D0B7
:101B1C008B6823F4407343EA0C038B6043681B68A7
:101B2C009968490405D5032A09D09A6822F48042A1
:101B3C0004E0032A03D19A6842F480429A60216837
:101B4C002B68994203D0FFF745FF23682B60F8BD43
:101B5C000C4C000873B5054646680469644820605F
:101B6C0002F08DF940B9452162486FF0120401F082
:101B7C0050FE204602B070BD2068F16883681B6877
:101B8C0098470446E8B901AA0021F06902F06CF804
:101B9C00041EEEDB019B002219791868FFF7D8FEB2
:101BAC00041EE6DB6C682B6922685E68136823F000
:101BBC0001031360606802F062F948B945214E4890
:101BCC00D3E745214D4801F024FE002CD1DBDAE7A8
:101BDC00D4E901018368DB6803B19847226852E8B5
:101BEC00003F43F00C0342E800310029F7D13146A5
:101BFC002846FFF715FF237D23B12268936843F035
:101C0C0008039360637D23B12268536843F4004357
:101C1C005360A37D23B12268536843F4803353602F
:101C2C00E37D23B12268536843F400335360227E72
:101C3C002368002A4ED0324A93422ED0A2F54C4251
:101C4C0093422AD002F58062934226D002F580623C
:101C5C00934222D002F5806293421ED002F5444298
:101C6C0093421AD0A2F51C42934216D002F5806220
:101C7C00934212D002F51C4293420ED002F58062C0
:101C8C0093420AD01F4A934207D02A6845211E4826
:101C9C006FF0150401F0BDFD6BE76B681A68936873
:101CAC0043F4804393602268617E136823F0787359
:101CBC0043EA415313602268A17E136823F4F8139E
:101CCC0043EA01431360E37E23B12268936843F433
:101CDC00004393602268136843F001031360236888
:101CEC00DA699102FCD5DA695202FCD5002440E78E
:101CFC00C0420008C25300080B540008E653000809
:101D0C0000100140000C00582B540008F8B5024696
:101D1C00036946680C4608795D68012891F805E06E
:101D2C008B7922D1BEF1020F40F28480022B1F4628
:101D3C004FF4C0614FF4005C00F09680042B00F06F
:101D4C008D8028B1C31E012B40F28B804FF4805044
:101D5C00BCF5805F00F09280BCF5405F00F0908095
:101D6C00BCF1000F1CD101231BE002280AD1BEF1EB
:101D7C00020F6CD9022B1F464FF480610BD04FF42D
:101D8C00005CDBE7BEF1020F64D9022B1F4663D166
:101D9C0000286FD00021C31E012B62D9002002271E
:101DAC00032373455DD101F0ABFFB84259D1E37900
:101DBC0063B3012B66D1336834498B4226D0A1F52D
:101DCC004C418B4222D001F580618B421ED001F533
:101DDC0080618B421AD001F580618B4216D001F5DF
:101DEC0044418B4212D0A1F51C418B420ED001F51F
:101DFC0080618B420AD001F51C418B4206D001F563
:101E0C0080618B4202D022498B422AD13168104624
:101E1C000B6823F001030B602146FFF701FE3268CB
:101E2C00136843F00103136094E8030085E8030092
:101E3C000020F8BD4FF4C061164F022B37F81EC0BE
:101E4C001F467FF47BAF78B94FF0805080E74FF49A
:101E5C008061F1E70021EFE7002190E700283FF4D3
:101E6C0075AF6FF08500E4E7C31E012BF9D902278B
:101E7C0000206DE701464FF0805091E7002390E77A
:101E8C0002238EE7032B96D0EBE700BF0010014036
:101E9C00000C00580C4C00084FF0E0230F4910B513
:101EAC009C691A6908689B6902F480320C4934B940
:101EBC0093B903464AB90A681044C01A10BD002BE6
:101ECC0008BF03460AB9A342F5D90A6802440A605E
:101EDC004FF0E0221269EEE70446F3E74C050024CC
:101EEC00480500240A4B1022002083F823204CF2D2
:101EFC005032084B1A604CF24F32074B18604FF0BF
:101F0C00E0235A6198611A6942F007021A6170471E
:101F1C0000ED00E04C0500244805002410B5FFF747
:101F2C00BBFF1049104B0868D3E90042001942F17D
:101F3C000002C3E900020D4A00230B604CF250333F
:101F4C00D2E90041001BB0FBF3F043431B1941F1F4
:101F5C000001C2E9003101F08DF8BDE81040FEF738
:101F6C00F5BC00BF48050024C8020024C0020024B0
:101F7C002DE9F041DFF8E08099B1421C0BD14FF014
:101F8C00E022136923F0010313614FF07F43C8F87B
:101F9C000030BDE8F081D8F80060012807DC00278C
:101FAC000BE0431CD8F80060F7D14FF4A77040F257
:101FBC004F139842A8BF1846471E4FF01003EFF37B
:101FCC00118583F31288BFF36F8FFFF765FF234CE6
:101FDC004FF0E0239969D4E9002380184FF00002F8
:101FEC0043F10003C4E900031D4B1A601D4B1A6832
:101FFC00831A2ED44CF2503C0CFB073303F54343AD
:10200C004F33B3FBFCF7131A40F635420CFB073386
:10201C00934238BF1346144A934228BF1346C8F85C
:10202C0000304FF0E022013B906953610023814264
:10203C009361A1EB0003D4E9001238BF9B195B1824
:10204C0042F10002C4E9003285F31188BFF36F8FAF
:10205C009FE740F63543E2E74C050024C802002414
:10206C0048050024C002002460D2FE0038B54FF0B1
:10207C001003EFF3118583F31288BFF36F8F084BB6
:10208C001C68084B1B68E41AFFF706FF85F31188E0
:10209C00BFF36F8F4CF250332044B0FBF3F038BDDC
:1020AC00C8020024C0020024024A536823F0020331
:1020BC00536070470010005C024610B578B14F4970
:1020CC008B6913F440433FD14D484E4C1044A04211
:1020DC0007D28B6903F44043B3F5404F51D1012033
:1020EC007CE04948494C1044A04246D94848104429
:1020FC00A04244D947488242886900F4404007D93D
:10210C00B0F5404FEBD08969012001F440414CE01F
:10211C00B0F5404F45D1404B1344404A93428CBFDD
:10212C00002301233E490A6822F00F021A430A6079
:10213C000A6802F00F029A425ED0086800F00F00A5
:10214C00C01A18BF012049E000232C48816901F412
:10215C004041B1F5404F2BD13249334811448142B3
:10216C0046D92D49A0F574201144A0F51070814278
:10217C0040D92E498A42D5D9B1E70223E5E701239C
:10218C00E3E78B69002003F44043B3F5004F4FF0B5
:10219C00030319D02649274C1144A14226D92649BC
:1021AC0018E08969184601F44041B1F5004FF0E799
:1021BC00816901F44041B1F5004F10D11F4920480D
:1021CC001144814214D900201E491D4C1144A142D6
:1021DC000CD91D498A4282D80028A3D010BD0C49C5
:1021EC001A481144814203D30020D3E70123F3E7BB
:1021FC00022397E7012395E71846A1E70048025808
:10220C007FA77BF340D2DF03FFC4A7F77F1D2C040D
:10221C007FE2D3FB801D2C043FA901FC7F14EF034C
:10222C0000200052BF9412F8BF56FE03C056FE03A6
:10223C003FF1E9FDBF0E1602C00E1602FF1E0AFA90
:10224C007FF0FA027F0F05FD80F0FA02C0E1E40096
:10225C0010B504464521034801F0DBFA204601F095
:10226C0019FE00BF6D540008F7B504460D464FF03B
:10227C001003EFF3118783F31288BFF36F8F1B4AA0
:10228C0004284FF04501966898BF194B127C94BFF7
:10229C0053F82030174B00920246174801F0B9FA58
:1022AC003DB1EB69C3F308031BB14521134801F0A1
:1022BC00B0FA36B1304601F0FAFD034608B10278A7
:1022CC0002B90F4B324645210E4801F0A2FA2946BD
:1022DC002046FFF7BDFF87F31188BFF36F8F3046A1
:1022EC0003B0BDE8F040FEF777BD00BF54050024F5
:1022FC00E04B00088154000897540008C4540008AF
:10230C008F540008EA540008104B70B553F8204065
:10231C00013053F82060A64200D870BDD4E90035D6
:10232C0095B153B12846984738B10028EB68B8BF2F
:10233C004042FF28A8BFFF201870EA68537843F08A
:10234C00010353700834E6E79847FBE7F44B0008A9
:10235C000122032008B5094B1A70FFF7D5FF01F0D5
:10236C0000FF0420FFF7D0FF00F006F9FEF7AEF9EE
:10237C00034A137B23F00103137308BD8505002466
:10238C005003002403480021034A08B5121A01F037
:10239C008AFD08BD400100248805002470B5002387
:1023AC0086B001221A4E019304461A4D06EBC01654
:1023BC001949CDE904230F22CDE9023214234FF43D
:1023CC00A07203FB00554FF4C070144B00FB0411BA
:1023DC003046009500F090F8737B114A23F004030B
:1023EC00EE602C7473734FF4046304FB03331344D7
:1023FC006B60BFF35B8F0B4B53E8001F013143E85D
:10240C000012002AF8D1BFF35B8F06B070BD00BF7D
:10241C00D002002454050024C01A0024BF3E00083A
:10242C00801200245005002480B50020A6B0FFF7D0
:10243C006BFF2A4B83F30888294D0024F023294E87
:10244C00294F85F82230EC772C766C76AC7685F8B3
:10245C0020406B6A43F4E0236B62FEF795FCFEF7B9
:10246C00BBFD4FF0FF33AB62EB62FEF78DFE1F4DF1
:10247C00FEF7E6FD40F201132194ADF8243006ABD3
:10248C00CDE91E44B36001F0F9FC0120FFF73CFFDD
:10249C000220FFF739FF00F06FFC154B756101222C
:1024AC0005930523134928460094CDE90332CDE961
:1024BC0001443B464FF4806200F01EF86A7B0646EE
:1024CC00284622F004026A7301F048FD2046FFF70B
:1024DC0065FF3A4631462846FEF762FDC01A0024D5
:1024EC0000ED00E0540500245D2300085003002497
:1024FC0051550008401C00242DE9F043073285B0EB
:10250C00994600F1580322F0070600278846044636
:10251C0006F140058760C7730D44C0E91633109B64
:10252C0029460373042343730F9BC0E90677837317
:10253C00FEF7DEF908F1400307304146C4E91836CE
:10254C0020F007000E9BA0662D1A029320460D9BCF
:10255C002A4601930C9B00934B46FEF7F5FC054B6A
:10256C0067659B6803B1DB6E2846E36605B0BDE882
:10257C00F08300BF5405002470B5214C86B0214D6A
:10258C0026463034AE420AD31D4C00F0C5FB1E4E1D
:10259C00AC4220D306B0BDE8704000F0D1BB54F87B
:1025AC000C3C059354F8103C049354F8143C0393DE
:1025BC0054F8183C029354F81C3C019354F8203CFA
:1025CC00009354E90A2354E90C01FFF795FF54F8E2
:1025DC00303C5E65D4E7D4E90A23B3F1FF3F08BF72
:1025EC00B2F1FF3F05D052EA0301206803D100F09D
:1025FC0075FB3034CCE73146183000F0C5FCF8E7F9
:10260C000849000898490008034000082DE9F341E7
:10261C0004460E4600F108084FF01001EFF3118745
:10262C0081F31288BFF36F8F056AC1688D422AD27D
:10263C0001F0E5FCA2680546314678B100244069FA
:10264C0001F0C0FD2846AC6701F088FC40463946D5
:10265C0000F032FB204602B0BDE8F081E06901F0E9
:10266C00B1FDE369A2680020134462699342E361FF
:10267C0004BF2369E361236A0133236287F3118862
:10268C00BFF36F8FE7E752EA03010AD00649896866
:10269C004E613946CDE900230246404600F0A8FAC7
:1026AC00D9E76FF02200E9E754050024F7B504469A
:1026BC00084604F108074FF01001EFF3118681F37F
:1026CC001288BFF36F8F216A002931D0A268A169EB
:1026DC0001F078FDA369A268204613446269934215
:1026EC00A36104BF2369A361236A013B236201F048
:1026FC0086FC054660B34169A268E06901F062FDA1
:10270C00E369A2682846134462699342E36104BFFB
:10271C002369E361236A013323620024AC6701F06F
:10272C001DFC3846314600F0C7FA204603B0F0BD18
:10273C0052EA03010AD00949896848613146384692
:10274C00CDE90023224600F053FAEFE76FF02200A8
:10275C0086F31188BFF36F8FE8E700BF54050024A0
:10276C002DE9F341044617461E464FF01003EFF3D4
:10277C00118883F31288BFF36F8FC368334A7BB120
:10278C0080689168884219D057EA060318D188F3FB
:10279C001188BFF36F8F6FF00F0002B0BDE8F081AE
:1027AC00916891F90E1001332161E3609368A36085
:1027BC0088F31188BFF36F8F0020EEE72169F2E7F1
:1027CC0091F90E106FF07E0290F90E309942A8BF6D
:1027DC0019469142B8BF11468B422EDD01F075FBB4
:1027EC000546224641461A48CDE9007600F000FA2B
:1027FC000028E1D04FF01003EFF3118683F3128819
:10280C00BFF36F8FA068D0B1236821699C420AD0B6
:10281C004BB193F90E309942A8BF19466FF07E0365
:10282C009942B8BF194601F050FB40B131460848F7
:10283C0000F042FA6FF00A00AFE70025D1E7002D57
:10284C00F4D186F31188BFF36F8FF3E7540500249E
:10285C008605002438B5836804466BB3194A926820
:10286C0093422CD1C368012B03D9013BC3600020D8
:10287C0038BD4FF01003EFF3118583F31288BFF3CB
:10288C006F8F0169806801F020FB204601F0B7FBD7
:10289C00A06058B190F90E2022610022826701F0ED
:1028AC005DFB2946084800F007FAE0E7E06085F395
:1028BC001188BFF36F8FDAE76FF01500D8E74FF090
:1028CC00FF30D5E75405002486050024C3897F2BEF
:1028DC0012D80A4B1B6863B1094B90F90E201B6888
:1028EC009A4209DB437BDB0606D1064BC31A18BFA1
:1028FC00012303F0010070470023FAE77C05002454
:10290C0078050024D0020024044B0122C01A044B89
:10291C00C0105843034B1A54704700BFD003002417
:10292C00ABAAAAAA860500240E4B70B51E7C0546E0
:10293C000D4C06EB460304EBC304204601F0B2FB3E
:10294C000A4B002228469A55FFF7C0FF48B1084BA6
:10295C00204608491A68013ABDE87040D31700F0C8
:10296C0013BB70BD54050024D0030024860500243D
:10297C007C0500241529000838B50D4D2B4653F85D
:10298C00184F9C4200D004B9EC68AB6838B95A7B3C
:10299C00D20604D1A26912B9DA897F2A05D89C42E1
:1029AC0002D02046FFF7C0FF23466B6138BD00BF45
:1029BC005405002470B590F90D200146437B002A84
:1029CC0004DA03F07F03437301F08EFA4B7B154A54
:1029DC0063F07F0310464B7350F8183FD469834261
:1029EC0008BF002323B9C1E900042160D1610CE0C8
:1029FC0091F90E5093F90E60B5420ED0AE420CDD3B
:102A0C005868C1E90030016059609068431A584217
:102A1C00BDE870405841FFF7AFBF9C42E3D01B6844
:102A2C00E0E700BF5405002470B490F90D30427BF0
:102A3C00002B29DBD30627D183692BBB62F07F02E5
:102A4C00124942730A4652F8184F944218BF234653
:102A5C00CC6923B9C0E900242060C8610CE090F96E
:102A6C000E5093F90E60B5420AD0AE4208DD5A689A
:102A7C00C0E9003210605860002070BCFFF77CBFCA
:102A8C00A342E7D01B68E4E770BC704754050024F0
:102A9C0008B590F90D200146437B002A04DA03F0B7
:102AAC007F03437301F020FA044B9868431A584291
:102ABC005841BDE80840FFF75FBF00BF5405002434
:102ACC0070B515461C46064601F020FAB4F1FF3FDE
:102ADC0008BFB5F1FF3F08D02A46234606F118007F
:102AEC000249BDE8704000F04FBA70BD03400008C9
:102AFC00002A2DE9F0410E46437B0CBF1021082122
:102B0C00044619420AD10B43DD0903F09F0211D18F
:102B1C004273082914D00120FFF72EFF1B4B9B6832
:102B2C00A3422CD1EFF305834BBB3046BDE8F041FB
:102B3C00FEF768B903F01F03437301F0D5F9E8E71A
:102B4C00A36813B1204601F0D7F904F158074FF0F0
:102B5C00000804F1180001F0A5FAA56DBD42DAD009
:102B6C00002DD8D0284601F0C7F905F1180001F066
:102B7C0099FA2846C5F87880FFF756FFEDE786F3FB
:102B8C001188BFF36F8FBDE8F08100BF540500249E
:102B9C0038B54FF01003EFF3118583F31288BFF3B0
:102BAC006F8F104B104A9C681068A04206D1FFF73B
:102BBC00BBFE85F31188BFF36F8F38BD00211B7CE2
:102BCC0011600A4AD35C002BF3D02046FFF77EFE3F
:102BDC000028EED0637BDB0602D12046FFF7EAFE2D
:102BEC002046E4E7540500247405002486050024DF
:102BFC000C4870B50C4D0C46866811462E60DDE90C
:102C0C0004234FF01006EFF3118586F31288BFF3FF
:102C1C006F8F8068FFF754FF2046BDE87040FEF7C9
:102C2C00F1B800BF5405002474050024F8B504461F
:102C3C004FF01003EFF3118683F31288BFF36F8FFD
:102C4C00437B49B2DA0619D18569BDB903F07F031C
:102C5C00437301F049F9437B164A63F07F03817398
:102C6C004373134653F8180F984218BF0546D069A2
:102C7C005DB9C4E900300460D46111E00020A17397
:102C8C0086F31188BFF36F8FF8BD95F90E70B942BA
:102C9C000BD08F4209DD6B68C4E900531C606C607B
:102CAC000120FFF769FE0120EAE7A842E1D02D6878
:102CBC00DEE700BF5405002449B9EFF3058030B9B5
:102CCC00054B5A699B689A4201D0FEF79BB881F379
:102CDC001188BFF36F8F70475405002410B54FF067
:102CEC001002EFF3118482F31288BFF36F8F427BD3
:102CFC00510704D484F31188BFF36F8F10BD22F0F9
:102D0C0004024273FFF790FE21460248BDE81040D2
:102D1C00FFF7D2BF870500244FF01003EFF31181AA
:102D2C0083F31288BFF36F8F044B9A68D37B013BFC
:102D3C00D37381F31188BFF36F8F70475405002450
:102D4C0010B54FF01003EFF3118483F31288BFF327
:102D5C006F8F084B00209A68D37B0133D373FFF736
:102D6C000BFE84F31188BFF36F8FBDE8104001F0A8
:102D7C006EB900BF54050024024B03F11802C3E9DD
:102D8C000622704754050024F8B54FF01003EFF3FA
:102D9C00118583F31288BFF36F8F19498868437BC1
:102DAC0003F07F03437301F09FF88B6808465A7B4E
:102DBC0062F07F025A7350F8182FCC69824208BF18
:102DCC00002222B9C3E900042360CB610CE093F923
:102DDC000E6092F90E70BE420ED0B7420CDD5168F7
:102DEC00C3E900210B6053600120FFF7C5FD2846A5
:102DFC00BDE8F840FEF706B8A242E3D01268E0E75F
:102E0C005405002450EA01032DE9F04105460E4615
:102E1C0003D1FFF7B9FF00202CE0831C71F1FF33C5
:102E2C002ADB01F055F92C184FF01003EFF3118841
:102E3C0083F31288BFF36F8F114F124BB868186071
:102E4C00FFF726FEB8682A460F493346183000F0C3
:102E5C009BF8BA684046537B43F010035373FDF75D
:102E6C00D1FF01F035F9201A63EB0303012873F14C
:102E7C000003D0DBBDE8F0816FF00104241AD3E726
:102E8C00540500247405002403400008B1F1FF3FF1
:102E9C0008BFB0F1FF3F08B506D1074B986801F0A9
:102EAC006DF84FF0FF3008BDFFF7ACFF0A2200238E
:102EBC00C117FDF705FAF6E754050024014B986895
:102ECC00704700BF540500240648074A0749121AE8
:102EDC0008B500F0EAFF064A06490748BDE8084075
:102EEC0000F0E3BF000000244001002468550008F6
:102EFC00000000006855000800000024034B1B680C
:102F0C000BB9FFF7B3B80020704700BF8005002451
:102F1C000E4B10B51C689C4204D1FFF7EFFF6FF00D
:102F2C00004010BDFFF7EAFF002CF8D0D4E90432C2
:102F3C001B1A62EBE072B3F1004F72F10001EEDA92
:102F4C00002AACBF18460020EBE700BF5C00002451
:102F5C0030B570B10B4B5B6898420AD0036843B133
:102F6C00D3E90421D0E90445121941EB0501C3E969
:102F7C000421D0E9003213605A600023C0E9003309
:102F8C0030BD00BF5C000024B3F1FF3F08BFB2F1BD
:102F9C00FF3FF8B504461D4616465CD081604FF0E5
:102FAC001003EFF3118783F31288BFF36F8F013295
:102FBC0075F1FF3324DA2D496FF00103D1E90020BC
:102FCC009B1A4FF0FF3262EB00009E1B60EB05007A
:102FDC00012E70F1000301DA01260020C4E904601F
:102FEC00234ED6F800C07568B44508BF4FF0000CEE
:102FFC00BCF1000F0DD1C4E900652C6074601CE0BD
:10300C00FFF77CFF013645F10005361845EBE07003
:10301C00E4E7DCE90420D4E90431934271EB000EBF
:10302C001ADAD21ADCF8043060EB0100CCE9042087
:10303C00C4E900C31C60CCF804403368B34206D02A
:10304C009C4204D1FFF764FF0021FEF791FF87F348
:10305C001188BFF36F8FF8BD9B1A61EB0001AC4573
:10306C00C4E90431C7D0DCF800C0C1E7E803002490
:10307C005C0000242DE9F84F4FF01003EFF3118C96
:10308C0083F31288BFF36F8FDFF8B4A00024DFF84E
:10309C00B49000252C4FC9F80000DAF80000504518
:1030AC0008BF0020D9F80030E046D7E9002180B3F2
:1030BC004FEAE37ED0E9046CB3427EEB0C0B05DAED
:1030CC00F61A6CEB0E04C0E9046422E0B21841EB72
:1030DC00E671C0E90445C7E90021FFF739FF88F321
:1030EC001188BFF36F8F836898474FF01003EFF38D
:1030FC00118883F31288BFF36F8FD9F80030C44660
:10310C00DAF800009B1B5045C9F80030CAD1D7E94A
:10311C0000219A184FF0000441EBE373C9F800400A
:10312C00C7E90023FFF7F4FE2146FEF721FF88F3E1
:10313C001188BFF36F8FBDE8F84FFFF729BD00BFB3
:10314C005C00002480050024E803002410B54FF037
:10315C001003EFF3118483F31288BFF36F8FFFF723
:10316C00CDFE064A0346D2E90001181841EBE37183
:10317C0084F31188BFF36F8F10BD00BFE8030024E8
:10318C0038B5064C064DAC4201D3002038BDD4E90D
:10319C0001122046143400F0E5FFF4E7A2000024ED
:1031AC00A20000242DE9F04F8BB043680193837883
:1031BC009F078246144640F10981002591F8008052
:1031CC00B8F1000F00F00481B8F1250F0BD04B1CA7
:1031DC0002930135019B5146404698470028C0F2A6
:1031EC00F5800299EAE791F801808B1CB8F1250F64
:1031FC000293EED0002399461F461F2F39D8A8F111
:10320C002002102A0AD8DFE802F02B09093109093B
:10321C00092109090929092E09091F00A8F1300201
:10322C00092A32D9B8F12A0F35D1780654F8042B73
:10323C0000F18180002AA7BF47F020079146C2F118
:10324C00000947F0280701E047F00107029A12F83D
:10325C00018B0292B8F1000FCFD132E047F0020798
:10326C0047F00407F2E747F00807EFE747F01007CD
:10327C00ECE77F2F18D8A8F13002092AD2D87E06A5
:10328C0003D50A2101FB0323E0E70A2101FB0929ED
:10329C0047F02007DAE7B8F12E0F05D1790600F1D7
:1032AC00978047F04007D1E7B8F16C0F32D02AD89D
:1032BC00B8F1680F35D0B8F16A0F39D0B8F14C0FAE
:1032CC0036D0002B48F02002B8BF27F04007A2F1FF
:1032DC006501BCBFBFB20023022901D9612A2CD1E0
:1032EC00073424F007049A4E08344FF007083807C7
:1032FC0063D506EB080B37465F4560D1AE1B3744F0
:10330C00A9EB080954E1B8F1740F9FD0B8F17A0F0A
:10331C009CD0D6E73A0648BF47F4007747F08007C1
:10332C0094E7FE0548BF47F4007747F480778DE7B4
:10333C0047F420778AE7134688E7A8F1630112293E
:10334C0000F2CF80DFE811F013004800CD00CD0073
:10335C00CD00CD004800CD00CD00CD00CD00CD007E
:10336C00DF00C700CD00CD001B00CD00960054F847
:10337C00043B8DF81C304FF0010807AEB7E754F84A
:10338C00046B744A002E08BF164617F0400F14BF8A
:10339C0019464FF0FF31304600F0ECFE8046A6E7B0
:1033AC00019B51462020984700280FDB013FB84570
:1033BC00F6D34D44ED1BB9469BE74F46F7E717F89C
:1033CC00010B019B51469847002895DA4FF0FF35C9
:1033DC0028460BB0BDE8F08F390637D5BA0545BF86
:1033EC00073424F0070454F8040B54F8080B27F0A6
:1033FC0010060028B6B232DA404246F480660393D7
:10340C0007AF0A22394600F0C1FE7206039BA0EBFF
:10341C0007074BD526F00101BB4289B240F38A80E5
:10342C00B8F1000F00F0828016F01002039240F009
:10343C0083809B460E4640F2064116EA0102039237
:10344C001EBF00220BF1010B039238E0FE0554F86D
:10345C00040BCCD5B9054CBF40B200B2C7E7CED1F6
:10346C007A06CCD5002BCAD127F01107BEB21F4665
:10347C009B46E0E727F01007BFB20A223E0646D56E
:10348C00B80545BF073424F0070454F8040B54F86E
:10349C00080B002844D127F016067906B6B242D59F
:1034AC00002B40D127F01707BEB21F4616F01002B2
:1034BC0003924AD0B8F1000F45D107F1010B310747
:1034CC005CD4F20705D5D94575DDA9EB0B02D319F0
:1034DC00CB465A464CE047F0100710224FF07808C4
:1034EC00CCE7782A06D1B8F1580F14BF10224FF44C
:1034FC000472C3E7019B5146252098470028FFF62C
:10350C0065AF023566E608224FF00008B6E7F9050C
:10351C0054F8040BBDD5BE054CBFC0B280B2B8E7A1
:10352C0027F00607BEB2039307AF6BE726F0110630
:10353C00B6B29DE70E46B9E738460E461F4607F170
:10354C00020B0746BBE73846F9E7BB4673E700BFFB
:10355C006055000859550008CDE904325146019BCD
:10356C00202098470028FFF631AF059A049B0132C2
:10357C009145F1DCA5EB0B018D189346039A32B300
:10358C0003935146019B302098470028FFF61EAF4D
:10359C00039BB8F1000F10D101355E19711B8F42DE
:1035AC0027DB3E460DF11C0866BB2F44A9EB0B092B
:1035BC003D46B94438E03B468BE703930235514610
:1035CC004046019B98470028039BE6DAFEE640F252
:1035DC0006410E42E1D016F0020F14BF2B20202022
:1035EC0016F4806F039305F10105514618BF2D2089
:1035FC00E7E7019B514630209847002805F101056B
:10360C00CCDAE3E6013E019B18F8060051469847D8
:10361C000028C9DADAE6019B514620209847002899
:10362C0005F10105FFF6D2AEA9EB0503002BF2DC88
:10363C00D7E500BF70470A2180FB0101FFF726BCCC
:10364C0000207047836800EBC101B3F5004F2CBF1D
:10365C0051F8220031F81200704700EBC10180686C
:10366C00B0F5004F2CBF41F8223021F812307047D2
:10367C00012208B5FFF7E6FFD04008BD836800EBD8
:10368C00C101B3F5004F08D34B681AB143F00103E5
:10369C004B60704723F00103FAE74B881AB143F0F3
:1036AC0001034B80704723F00103FAE7530001221A
:1036BC00FFF7D3BFB0F5004F01F1010034BF042375
:1036CC0008230833A0EBD300B0FA80F0C0F11F0040
:1036DC0070472DE9F04186680D460446FFF7C8FF98
:1036EC00B6F5004F014601D3012832D03046FFF722
:1036FC00E1FF04EB80010E6996B90122E368824078
:10370C00204613430222E3602B460D612946FFF746
:10371C00A4FF032229462046BDE8F041FFF79DBFD8
:10372C00022231462046FFF78DFF29460346074605
:10373C002046FFF792FF0322334629462046FFF727
:10374C008CFF39462B462046FFF787FF0222314675
:10375C00E1E7BDE8F081B2F5802F2CBF08230423EC
:10376C00D21A2DE9F0418C18CD1D002625F0070545
:10377C0024F00704641B0560EE60E4082146204633
:10378C00AC60FFF797FF421D013031464FEA8202D1
:10379C0005F1100002F10707A2F11002B8BF324682
:1037AC00FF0800F01DFD31463A462846FFF77EFF24
:1037BC00A4EB07083346324631462846FFF74DFF47
:1037CC00284631460122FFF759FF42463946FFF79A
:1037DC006DFF3B46324639462846FFF73EFF2146F1
:1037EC002846FFF763FF4346324621462846FFF73B
:1037FC0034FF214628460122FFF740FF3946BDE839
:10380C00F041FFF766BF704708B5FEF74DFC00208E
:10381C0008BD0FB407B504A951F8040B0191FCF7CE
:10382C008BFF03B05DF804EB04B0704701460068F1
:10383C00FDF72CB808B5FDF757F8BDE80840FDF7C3
:10384C0085B800210120FDF721B8202809D9B0F155
:10385C00004F08D80138B0FA80F0C0F11F004000CA
:10386C007047082070473E20704708B5FDF72CFDC7
:10387C00002008BD2DE9F743044668469946884662
:10388C00154600F029FCE368DDE900675BB92069A7
:10389C0004302A464B46FEF763FF054658B12846CE
:1038AC0003B0BDE8F0836168404698470028EED12C
:1038BC006FF02205F3E762684146206800F082FC55
:1038CC0032463B462046FDF725FD0546206904306F
:1038DC00FEF7C0FFE3E738B5044600690D46043037
:1038EC00FEF73EFF50B92846D4E9001200F06AFCFE
:1038FC0020690430BDE83840FEF7ACBF38BD4068E5
:10390C00FEF7D4BE08B5062201210020FDF7AAFD62
:10391C00002206201146FDF7DDFA01210722084698
:10392C00FDF7A0FD002207201146FDF7D3FA08226F
:10393C0001210220FDF796FD002208201146FDF71B
:10394C00C9FA092201210320FDF78CFD0022092070
:10395C001146FDF7BFFA0A2201210420FDF782FD72
:10396C0000220A201146FDF7B5FA05211722084658
:10397C00FDF778FD002217201146FDF7ABFA28223F
:10398C0006210A20FDF76EFD002228201146FDF7C6
:10399C00A1FA002008BD1F2809DC4FF0B04101221C
:1039AC00D1F88030824023EA0203C1F8803070479E
:1039BC0003292ED8DFE801F0020F16224FF0B04396
:1039CC0001221968824021EA02011960596821EA32
:1039DC0002025A60704701224FF0B04382401968CE
:1039EC001143F2E74FF0B043012259688240114372
:1039FC005960196821EA02021A607047012303FA20
:103A0C0000F04FF0B0431A6802431A605A68104332
:103A1C00586070470B68A3F1D402202A09D803F12F
:103A2C00B0434968002003F511331A680A431A6041
:103A3C0070476FF0850070470B68A3F1D402202A01
:103A4C000AD803F1B0434968002003F511331A6812
:103A5C0022EA01021A6070476FF0850070474368D4
:103A6C0000205B681B690B60704743685B68586992
:103A7C0042400A40424000205A617047436800208F
:103A8C005B68996170474368090400205B68996121
:103A9C007047436800205A6853694B405361704724
:103AAC0010B503699868F8B1884219D1DC680868C8
:103ABC00A142986000D1D860002008602AB19A68B1
:103ACC000A60DA68996002B9D960002010E081427E
:103ADC0006D108682060D8688142EDD1DC60EBE744
:103AEC00044600680028F2D1002AE8D16FF01500D6
:103AFC0010BD2DE9F04144680120C2F38016C2F3D9
:103B0C00C11C676888408E4002F0300527EA000728
:103B1C00C2F34122202D46EA070600FA01F766603F
:103B2C0007EB470ED4F8088007FB0CFC07FB02F2EE
:103B3C006FEA0E0628EA0E084CEA080CC4F808C016
:103B4C00D4F80CC02CEA0E0C42EA0C02E2600CD148
:103B5C00072912DC07FA01F2206A8A40C2EB021133
:103B6C005A4320EA01010A43226223682D091E40B0
:103B7C007D4335432560BDE8F081020A616A5243FA
:103B8C005243C2EB02105A4321EA00010A4362621B
:103B9C00EBE738B5044690030D46134617D591074D
:103BAC000ED55A072ED55022D8060BD542F40072EA
:103BBC0019031AD5616801234968AB408B610DE08C
:103BCC001022F1E79906F3D542F48062F0E7DA03AC
:103BDC0013D5D80613D4C3F340139A02606800239C
:103BEC002946FFF786FF002038BD5B03F6D501217F
:103BFC002046A940FFF747FFF0E73022EEE74FF4ED
:103C0C000072EBE76FF08500EEE70B4670B5896844
:103C1C0021B101255E680C68854001B970BD8A68C8
:103C2C002A4002D04B68304698471CB12368214685
:103C3C001C46F2E72346FAE7F8B51F4604464068EF
:103C4C000E461546FFF755FF112F07D101212B0505
:103C5C0001FA06F104D563685B6899610020F8BD30
:103C6C002046FFF710FFF9E730B5036813600579BC
:103C7C00046804EBC504A34202D36FF0010030BD0D
:103C8C005C798C4201D00833F0E70020F7E74368F9
:103C9C00C1F34B1001F01F011B68C05801238B406E
:103CAC0003424FF0000014BF012300231370704730
:103CBC0010B54368C1F34B1001F01F011A680123C2
:103CCC0084588B4023438350002010BD10B54368AB
:103CDC00C1F34B14012201F01F0118688A402358CC
:103CEC0023EA02032350002010BD38B504460D46CC
:103CFC00FFF7DEFF29462046FFF7E8FF002038BD1E
:103D0C00B0F5805F07D0B0F1805F09D1002914BFF6
:103D1C00012002207047002914BF032004207047A3
:103D2C00002914BF02200320704742681368D86929
:103D3C00D969C0F3C000C907D96948BF40F0020077
:103D4C008907D96948BF40F004004907D96948BFC1
:103D5C0040F02000C90504D54FF4807140F00800F4
:103D6C001962C10702D5136808211962830702D5AD
:103D7C00136801211962410702D5136802211962E7
:103D8C00830602D5136804221A62704710B5406886
:103D9C000268D3691B06FCD54FF01002EFF31183B8
:103DAC0082F31288BFF36F8F0268D469240604D49F
:103DBC0083F31188BFF36F8FEAE7916283F3118865
:103DCC00BFF36F8F10BD43681A68D069000701D527
:103DDC00082010621B68DA69920603D55B6A002022
:103DEC000B7070474FF0FF30704710B502690446F6
:103DFC000B46526812680A6042681268126802F434
:103E0C00C062B2F5806F33D0A2F5C060424242412D
:103E1C001A7162681268526802F44052B2F5805FFF
:103E2C0028D0B2F5405F27D0002A0CBF0122032214
:103E3C005A71626812681068116800F0102001F461
:103E4C00C061FFF75DFF987162680020126892688C
:103E5C0002F44072A2F540714A424A41DA7161683B
:103E6C000968896811F4804F18BF0322DA7110BDFC
:103E7C000222CDE70022DBE70222D9E7704740B1EE
:103E8C00C368587810F001001EBF1878B0FA80F0A3
:103E9C00400970474FF01002EFF3118382F3128840
:103EAC00BFF36F8FFEE700F09BB900F08BB90020D9
:103EBC00704708B54FF01002EFF3118382F31288AC
:103ECC00BFF36F8FFDF78EF8F4E790F90E308B424D
:103EDC0001D0FEF7ABBE0020704703460020C3E9BB
:103EEC000033C3E902007047D0E9003213605A6016
:103EFC000023C0E90033704708B5FFF7F5FF437B9B
:103F0C0023F0020343730023836008BD38B50446D5
:103F1C000D46FEF7BDFD637B43F002036373E5B111
:103F2C00A5602B689D4209D16B68C4E900531C60E5
:103F3C006C6012E06A689342F6D01B68002BF3D0D9
:103F4C0094F90E2093F90E108A42F3D09142F1DDD0
:103F5C005A68C4E9003214605C6038BD10B54FF08B
:103F6C001003EFF3118483F31288BFF36F8FFEF706
:103F7C005BFD84F31188BFF36F8F10BD10B5044641
:103F8C00183000F08FF84FF01003EFF3118183F32A
:103F9C001288BFF36F8F627B12F0100204D081F392
:103FAC001188BFF36F8F10BD2046BDE81040FEF79F
:103FBC009FBD38B504464FF01003EFF3118583F322
:103FCC001288BFF36F8F437B13F0280F0BD18368DC
:103FDC000BB1FFF791FF637B51B903F0FB03204654
:103FEC006373FEF721FD85F31188BFF36F8F38BD26
:103FFC0003F0EB03F3E701211838FFF7DABF38B50C
:10400C004FF01003EFF3118583F31288BFF36F8F1A
:10401C000468A0420DD034B12046FFF76DFF04F1C7
:10402C00180000F03FF885F31188BFF36F8F20461E
:10403C0038BD0024F7E7034620B9EFF305820AB92F
:10404C00FCF7E0BE83F31188BFF36F8F70474FF01E
:10405C001003EFF3118083F31288BFF36F8FFFF718
:10406C00EABF4FF01002EFF3118182F31288BFF315
:10407C006F8F027BD2070AD581F31188BFF36F8F44
:10408C00404080F311884FF0040002DF7047437BFF
:10409C001B0704D581F31188BFF36F8F7047012282
:1040AC00FEF726BD10B54FF01002EFF3118482F32A
:1040BC001288BFF36F8F03683BB1FEF749FF0020F6
:1040CC0084F31188BFF36F8F10BD6FF01500F7E705
:1040DC0008B5FFF73BF808BDB3F1FF3F08BFB2F1DD
:1040EC00FF3F70B504461D46164613D01A4315D033
:1040FC006FF001024FF0FF33921B63EB05010029B7
:10410C0004DAFFF723F8821941EB05012046C4E9D4
:10411C00002170BD4FF0FF321146F7E70022FBE79C
:10412C00B3F1FF3F08BFB2F1FF3FF8B507461646A3
:10413C001C4610D054EA020311D0FFF707F8B04226
:10414C000A460346A1410AD2F31A64EB020438462C
:10415C00C7E90034F8BD4FF0FF331C46F7E70023E6
:10416C00FBE7704710B400F10C04C0E9034410BC29
:10417C00FFF7F1BA10B5024601448A42134603D048
:10418C001C780132002CF8D1181A10BD930570B5AB
:10419C0048BF22F40072044608464CBF0721272171
:1041AC00B4FBF2F502FB1543DBB2092B88BF5B189D
:1041BC00264688BFDBB23033B24200F8013B2C46B6
:1041CC00EED970BD0A44914200F1FF3300D1704723
:1041DC0010B511F8014B03F8014F9142F9D110BD04
:1041EC0002440346934200D1704703F8011BF9E7E0
:0C41FC000148006870470000F803002430
:08420800F8C0FF7F0100000077
:10421000A90700080000000001160008C0420008BD
:1042200015380008000000008D3100080000000073
:1042300000000000D44200081D180008B043000828
:104240001D1800087443000811390008E8420008EE
:104250001D180008C44300081D1800089C430008EE
:104260001D180008884300081D1800086043000856
:104270001D1800084C4300081D18000838430008AA
:104280001D180008244300081D18000810430008EA
:104290001D180008FC420008611B0008D8430008F4
:1042A000F11E000800000000FD12000800000000E0
:1042B000CD17000800000000BD130008000000003A
:1042C000D7520008000000002C00002486000024C3
:1042D000000000007E530008704B0008744B00087B
:1042E0009E00002400000000B952000800000000F9
:1042F000000000008400002418040024E452000898
:10430000444A0008204B0008880000249804002438
:10431000F2520008584A0008204B00088A00002486
:10432000A8040024005300086C4A0008204B000831
:104330008C000024B80400240E530008804A0008B2
:10434000204B00088E000024C80400241C530008E1
:10435000944A0008204B000890000024D804002450
:104360002A530008A84A0008204B000892000024A5
:10437000E804002438530008BC4A0008204B000819
:1043800094000024F804002446530008D04A000892
:10439000204B000896000024080500245453000810
:1043A000E44A0008204B0008980000241805002467
:1043B00062530008F84A0008204B00089A000024C5
:1043C00028050024705300080C4B0008204B0008FF
:1043D0009C0000243805002452540008844B000837
:0C43E000CC4B0008A00000244800002482
:1043EC00000000004F380008000000004F380008A3
:1043FC00000000004F380008000000004F38000893
:10440C00000000004F380008000000004F38000882
:10441C00B752000821140008B552000821140008F6
:10442C00B352000821140008B152000821140008EE
:10443C00AF52000821140008000000004F3800089B
:10444C00000000004F380008000000004F38000842
:10445C00000000004F380008000000004F38000832
:10446C00000000004F380008000000004F38000822
:10447C00000000004F380008000000004F38000812
:10448C00000000004F380008000000004F38000802
:10449C00000000004F380008AD520008211400083D
:1044AC00000000004F380008000000004F380008E2
:1044BC00000000004F380008000000004F380008D2
:1044CC00000000004F380008000000004F380008C2
:1044DC00000000004F380008000000004F380008B2
:1044EC00000000004F380008000000004F380008A2
:1044FC00000000004F380008000000004F38000892
:10450C00000000004F380008000000004F38000881
:10451C00000000004F380008000000004F38000871
:10452C00AB52000821140008000000004F380008AE
:10453C00000000004F380008000000004F38000851
:10454C00000000004F380008000000004F38000841
:10455C00000000004F380008000000004F38000831
:10456C00000000004F380008000000004F38000821
:10457C00000000004F380008000000004F38000811
:10458C00000000004F380008000000004F38000801
:10459C00000000004F380008000000004F380008F1
:1045AC00000000004F380008000000004F380008E1
:1045BC00000000004F380008000000004F380008D1
:1045CC00000000004F380008000000004F380008C1
:1045DC00000000004F380008000000004F380008B1
:1045EC00000000004F380008000000004F380008A1
:1045FC00000000004F380008000000004F38000891
:10460C00000000004F380008000000004F38000880
:10461C00000000004F380008000000004F38000870
:10462C00000000004F380008000000004F38000860
:10463C00000000004F380008000000004F38000850
:10464C00000000004F380008000000004F38000840
:10465C00000000004F380008000000004F38000830
:10466C00000000004F380008000000004F38000820
:10467C00000000004F380008000000004F38000810
:10468C00000000004F380008000000004F38000800
:10469C00000000004F380008000000004F380008F0
:1046AC00000000004F380008000000004F380008E0
:1046BC00000000004F380008000000004F380008D0
:1046CC00000000004F380008000000004F380008C0
:1046DC00000000004F380008000000004F380008B0
:1046EC00000000004F380008000000004F380008A0
:1046FC00000000004F380008000000004F38000890
:10470C00000000004F380008000000004F3800087F
:10471C00000000004F380008000000004F3800086F
:10472C00000000004F380008000000004F3800085F
:10473C00000000004F380008000000004F3800084F
:10474C00000000004F380008000000004F3800083F
:10475C00000000004F380008000000004F3800082F
:10476C00000000004F380008000000004F3800081F
:10477C00000000004F380008000000004F3800080F
:10478C00000000004F380008000000004F380008FF
:10479C00000000004F380008000000004F380008EF
:1047AC00000000004F380008000000004F380008DF
:1047BC00000000004F380008000000004F380008CF
:1047CC00000000004F380008000000004F380008BF
:1047DC00000000004F380008000000004F380008AF
:1047EC00000000004F380008000000004F3800089F
:1047FC00000000004F380008000000004F3800088F
:10480C00000000004F380008000000004F3800087E
:10481C00000000004F380008000000004F3800086E
:10482C00000000004F380008000000004F3800085E
:10483C00000000004F380008000000004F3800084E
:10484C00000000004F380008000000004F3800083E
:10485C00000000004F380008000000004F3800082E
:10486C00000000004F380008000000004F3800081E
:10487C00000000004F380008000000004F3800080E
:10488C00000000004F380008000000004F380008FE
:10489C00000000004F380008000000004F380008EE
:1048AC00000000004F380008000000004F380008DE
:1048BC00000000004F380008000000004F380008CE
:1048CC00000000004F380008000000004F380008BE
:1048DC00000000004F380008000000004F380008AE
:1048EC00000000004F380008000000004F3800089E
:0848FC00000000004F38000825
:04490400FFFFFFFFB3
:1049080040020024400E0024000400008106000834
:10491800000000000000000000000000030000008C
:1049280000000000294D0008000000000000000001
:10493800C0010024000A0024000400002906000821
:10494800000000000000000000000000030000005C
:1049580000000000184D00080000000000000000E2
:1049680040010024C005002400040000D10500080F
:10497800000000000000000000000000030000002C
:1049880000000000074D00080000000000000000C3
:104998003A4D000803000000E6510008030000003B
:1049A8005655000803000000625400080300000088
:0849B800A652000803000000F4
:1049C000F003002404000000F403002400000000B1
:0449D00000000024BF
:1049D400C049000834010024C04900081C01002417
:1049E400C049000824010024C04900082C01002407
:1049F400F40000000200000003000000044A000864
:104A0400000000084B4D00082600020700000024A7
:104A1400514D000824000B110000F01F564D0008F2
:104A2400240004115D4D00080000009000000010F7
:104A340000000002000000240000000000000B063B
:104A4400FFFF0000002802580A000000E0000000F8
:104A540000040000FFFF00000024025809000000C9
:104A6400E000000000020000FFFF000000200258E8
:104A740008000000E000000000010000FFFF00004B
:104A8400001C025807000000E00000008000000045
:104A9400FFFF00000018025806000000E0000000BC
:104AA40040000000FFFF0000001402580500000051
:104AB400E000000020000000FFFF0000001002588A
:104AC40004000000E000000010000000FFFF0000F0
:104AD400000C025803000000E00000000800000081
:104AE400FFFF00000008025802000000E000000080
:104AF40004000000FFFF0000000402580100000051
:104B0400E000000002000000FFFF00000000025867
:104B140000000000E0000000010000009F3B0008CE
:104B24006B3A0008773A0008893A0008933A00087B
:104B34009F3A00084D180008AD3A00080000000034
:104B4400C4430008B04300089C430008884300089D
:104B540074430008604300084C43000838430008CD
:104B64002443000810430008FC4200080044025893
:104B74009B3C0008BD3C0008D93C0008F73C0008F9
:104B8400004C0040D442000813120000A44B00085B
:104B9400010000000000000000000000AC4B000811
:104BA400E800000000000800B44B00080100000009
:104BB400BC4B0008020000002803000000020000B3
:104BC4000803000000000000D33D0008993D0008E0
:104BD400373D0008191D0008F73D00080755000877
:104BE4001555000829550008385500084455000893
:104BF4001042000810420008A0420008A842000821
:104C0400B8420008C04200080010000000302563CC
:104C14003A2046726F6D206C697374656E657220FC
:104C24002D3E20436F6E6669726D6564206D6573F9
:104C340073616765207061796C6F6164203D202524
:104C4400750A0025633A2046726F6D206261725FB7
:104C5400737562332073756273637269626572205F
:104C64002D3E20436F6E6669726D6564206D6573B9
:104C740073616765207061796C6F6164203D2025E4
:104C8400750A0025633A2046726F6D206261725F77
:104C94007375623220737562736372696265722020
:104CA4002D3E20436F6E6669726D6564206D657379
:104CB40073616765207061796C6F6164203D2025A4
:104CC400750A0025633A2046726F6D206261725F37
:104CD40073756231207375627363726962657220E1
:104CE4002D3E20436F6E6669726D6564206D657339
:104CF40073616765207061796C6F6164203D202564
:104D0400750A006261725F737562335F7461736BFD
:104D14005F6964006261725F737562325F746173AC
:104D24006B5F6964006261725F737562315F7461A5
:104D3400736B5F69640063627072696E74665F703E
:104D440061636B61676500464C41534800535241AF
:104D54004D0053595354454D006D656D6F72794044
:104D640039303030303030300025633A2072302F03
:104D740061313A2020307825303878202072312F64
:104D840061323A2020307825303878202072322F52
:104D940061333A20203078253038780A0025633A88
:104DA4002072332F61343A2020307825303878202F
:104DB4007231322F69703A202030782530387820CB
:104DC4007231342F6C723A20203078253038780ACA
:104DD4000025633A2020787073723A2020307825B9
:104DE4003038780A0025633A204661756C74696E20
:104DF4006720696E737472756374696F6E20616481
:104E0400647265737320287231352F7063293A20D8
:104E14003078253038780A0025633A202A2A2A2A4D
:104E24002A204D5055204641554C54202A2A2A2ADE
:104E34002A0A0025633A202020537461636B696E4B
:104E440067206572726F722028636F6E7465787460
:104E54002061726561206D69676874206265206EE7
:104E64006F742076616C6964290A0025633A2020F6
:104E740020556E737461636B696E67206572726F1F
:104E8400720A0025633A2020204461746120416342
:104E9400636573732056696F6C6174696F6E0A0081
:104EA40025633A2020204D4D4641522041646472CE
:104EB4006573733A20307825780A0025633A2020F8
:104EC40020496E737472756374696F6E20416363F5
:104ED4006573732056696F6C6174696F6E0A00257F
:104EE400633A202020466C6F6174696E672D706F81
:104EF400696E74206C617A792073746174652070B2
:104F04007265736572766174696F6E206572726F13
:104F1400720A0025633A202A2A2A2A2A2055534154
:104F24004745204641554C54202A2A2A2A2A0A0059
:104F340025633A2020204469766973696F6E206284
:104F440079207A65726F0A0025633A202020556E15
:104F5400616C69676E6564206D656D6F727920613F
:104F640063636573730A0025633A2020204E6F2023
:104F7400636F70726F636573736F7220696E73749D
:104F840072756374696F6E730A0025633A2020207A
:104F9400496C6C6567616C206C6F6164206F66207E
:104FA4004558435F52455455524E20696E746F20E4
:104FB40050430A0025633A202020496C6C656761E0
:104FC4006C20757365206F662074686520455053A6
:104FD400520A0025633A202020417474656D707470
:104FE40020746F206578656375746520756E6465DB
:104FF40066696E656420696E737472756374696F33
:105004006E0A0025633A202A2A2A2A2A2042555366
:10501400204641554C54202A2A2A2A2A0A0025636C
:105024003A202020537461636B696E672065727245
:105034006F720A0025633A202020507265636973F9
:1050440065206461746120627573206572726F7289
:105054000A0025633A2020204246415220416464DC
:10506400726573733A20307825780A0025633A20F4
:105074002020496D70726563697365206461746191
:1050840020627573206572726F720A0025633A207C
:105094002020496E737472756374696F6E20627533
:1050A40073206572726F720A005265736572766559
:1050B4006420457863657074696F6E2028005370AE
:1050C4007572696F757320696E7465727275707428
:1050D4002028495251200025633A20535053454C0F
:1050E40020696E20746872656164206D6F64652048
:1050F400646F6573206E6F7420696E646963617494
:1051040065205053500A0025633A202A2A2A2A2A65
:105114002048415244204641554C54202A2A2A2AE8
:105124002A0A0025633A202020427573206661759F
:105134006C74206F6E20766563746F722074616284
:105144006C6520726561640A0025633A202020445E
:1051540065627567206576656E740A0025633A207A
:1051640020204661756C7420657363616C61746999
:105174006F6E20287365652062656C6F77290A005D
:1051840025633A20415243485F45584345505420D3
:105194007769746820726561736F6E2025780A0AD6
:1051A4000025633A202A2A2A2A2A20446562756740
:1051B400206D6F6E69746F722065786365707469B1
:1051C4006F6E202A2A2A2A2A0A0025633A202A2ACC
:1051D4002A2A2A20257320256429202A2A2A2A2AD1
:1051E4000A006D70750025633A2050617274697409
:1051F400696F6E2025753A2073616E697479206336
:105204006865636B206661696C65642E0A002563BA
:105214003A204661696C656420746F20616C6C6F20
:1052240063617465206E6577204D50552072656703
:10523400696F6E2025750A0A0025633A20496E7647
:10524400616C696420617474726962757465206646
:105254006F722074686520726567696F6E0A0A0050
:1052640025633A20636F756C64206E6F74206465E7
:105274006C69766572206E6F7469666963617469BE
:105284006F6E20746F206F6273657276657220256D
:10529400732E204572726F7220636F6465202564DB
:1052A4000A007A627573000A060505040103010207
:1052B4000101010001696E746572727570742D6369
:1052C4006F6E74726F6C6C6572403538303030308C
:1052D400303000726363403538303234343030005B
:1052E4006770696F4035383032323830300067705B
:1052F400696F403538303232343030006770696F4E
:10530400403538303232303030006770696F4035A4
:1053140038303231433030006770696F403538308F
:105324003231383030006770696F4035383032318F
:10533400343030006770696F403538303231303086
:1053440030006770696F4035383032304330300098
:105354006770696F403538303230383030006770EC
:10536400696F403538303230343030006770696FDF
:105374004035383032303030300072657365742D0A
:10538400636F6E74726F6C6C65720025633A2046AD
:1053940061696C65642063616C6C20636C6F636B22
:1053A4005F636F6E74726F6C5F6765745F72617454
:1053B400652870636C6B656E5B305D290A0025633C
:1053C4003A20636C6F636B20636F6E74726F6C2032
:1053D400646576696365206E6F74207265616479B3
:1053E4000A0025633A20436F756C64206E6F742045
:1053F400656E61626C6520284C50295541525420D9
:10540400636C6F636B0A0025633A2072657365747D
:1054140020636F6E74726F6C6C6572206E6F742093
:1054240072656164790A0025633A20257320646FEC
:105434006573206E6F7420737570706F727420645E
:10544400726976657220656E61626C650A007365C7
:105454007269616C403430303034633030007561CF
:1054640072745F73746D33320025633A2048616C43
:1054740074696E672073797374656D0A00556E6B79
:105484006E6F776E206572726F7200756E6B6E6FE1
:10549400776E0025633A203E3E3E205A45504859D7
:1054A4005220464154414C204552524F52202564CB
:1054B4003A202573206F6E204350552025640A003E
:1054C40025633A204661756C7420647572696E6751
:1054D40020696E746572727570742068616E646C94
:1054E400696E670A0A0025633A2043757272656E15
:1054F40074207468726561643A20257020282573CD
:10550400290A0043505520657863657074696F6E8D
:1055140000556E68616E646C656420696E746572B2
:105524007275707400537461636B206F7665726674
:105534006C6F77004B65726E656C206F6F707300D3
:105544004B65726E656C2070616E6963006D616994
:105554006E006F7300286E756C6C29002A666C6F80
:0455640061742A0044
:10556800FFFFFFFF00000000000000000000000037
:1055780000000000000000004D3600080000000098
:10558800773800080000000000000000213A0008F9
:10559800453A0008000000009915000800000000C6
:1055A800000000003D150008000000005000002425
:1055B80000C20100000103000090D0035C00002439
:1055C8005C000024FF00FF00FF00FF00FF00FF0059
:1055D800FF00FF00FF00FF00FF00FF00FF00FF00CB
:0455E800FF00FF00C1
:1055EC0000000000000000000000000000000000AF
:0E55FC000000000000000000000000000000A1
:02560A00FFFFA0
:10560C00A4000024A40000240400000004000000F6
:10561C00A0200024B0200024A0200024A0200024DE
:10562C000000000000000000CC000024CC0000248E
:10563C00040000000400000090200024A02000249E
:10564C0090200024902000240000000000000000A6
:10565C00F4000024F4000024040000000400000006
:10566C00802000249020002480200024802000240E
:08567C00000000000000000026
:1056840001010000A400002401010000CC0000245A
:1056940001010000F400002400010000A10500083D
:0456A4000000000002
:0456A80015E015E014
:0400000508000DB929
:00000001FF
