:020000040800F2
:10000000402700243D1000089F5A000829100008CE
:10001000291000082910000829100008000000001D
:100020000000000000000000000000003111000886
:100030002910000800000000C91000085927000816
:10004000F1120008F1120008F1120008F112000884
:10005000F1120008F1120008F1120008F112000874
:10006000F1120008F1120008F1120008F112000864
:10007000F1120008F1120008F1120008F112000854
:1002CC0053B94AB9002908BF00281CBF4FF0FF31B1
:1002DC004FF0FF3000F00CB8ADF1080C6DE904CE16
:1002EC0000F008F8DDF804E0DDE9022304B0704703
:1002FC00704700BF2DE9F04786468C460846089E9D
:10030C00154674461946002B40F0C2808542B2FA5D
:10031C0082F245D94AB1C2F1200300FA02FC2EFA4E
:10032C0003F3954043EA0C0C94404FEA154EA8B2E7
:10033C00BCFBFEF8230C0EFB18CC08FB00F943EABF
:10034C000C43994528D9EB1808F1FF3704D299458D
:10035C0002D9A8F102072B44A3EB0903A4B2B3FB07
:10036C00FEFC0EFB1C330CFB00F044EA0344A042E1
:10037C0014D92C190CF1FF3304D2A04202D9ACF1E0
:10038C0002032C44241A43EA07401EB1D440002334
:10039C0034607360BDE8F0874746DDE76346F1E7FC
:1003AC0092BB431B01214FEA154EAFB2B3FBFEFCCF
:1003BC00200C0EFB1C330CFB07F840EA034398455A
:1003CC0062D9EB180CF1FF3004D2984502D9ACF18C
:1003DC0002002B44A3EB0803A4B2B3FBFEFC0EFB00
:1003EC001C330CFB07F744EA0344A7424ED92C19E3
:1003FC000CF1FF3304D2A74202D9ACF102032C4416
:10040C00E41B43EA0040C0E7C2F1200320FA03F1E9
:10041C00954090402EFA03F303434FEA154EAFB2CA
:10042C00B1FBFEFC0EFB1C10190C0CFB07F841EA8F
:10043C000041884504FA02F422D969180CF1FF3006
:10044C0004D2884502D9ACF102002944A1EB080181
:10045C009BB2B1FBFEFC0EFB1C110CFB07F743EA35
:10046C0001439F420ED9EB180CF1FF3104D29F428D
:10047C0002D9ACF102012B44DB1B41EA004192E7AB
:10048C006046E3E76146F7E76046A3E76346B7E7F4
:10049C00834206D916B9002108467BE7C6E900E07D
:1004AC00F9E7B3FA83F78FB9834201D3724508D8C1
:1004BC00BEEB020460EB030301209C461EB9002135
:1004CC0068E73846FAE7C6E9004CF8E7C7F1200CB4
:1004DC00BB4022FA0CF41C432EFA0CF120FA0CF35C
:1004EC00B84001434FEA14490EFA07F5B3FBF9F88B
:1004FC001FFA84FE09FB18300B0C08FB0EFA43EABA
:10050C0000439A4502FA07F240D9E31808F1FF308C
:10051C0004D29A4502D9A8F102002344A3EB0A03A2
:10052C0089B2B3FBF9F809FB183308FB0EFE41EA5C
:10053C0003418E452CD9611808F1FF3304D28E4546
:10054C0002D9A8F10203214443EA0040A0FB02981F
:10055C00A1EB0E014145CE46434602D306D14D4593
:10056C0004D2B9EB020E68EB04030138002EA6D0BE
:10057C00B5EB0E0261EB030101FA0CFC22FA07F356
:10058C004CEA0303F940C6E9003198E74046C5E759
:10059C004346D9E7024B1861184603F017BB00BF5E
:1005AC0030000024024B1861184603F00FBB00BF4B
:1005BC0018000024024B1861184603F007BB00BF5B
:1005CC000000002410B586B004464FF4FA620023F4
:1005DC0003A9006901F0B8F9059B4921044801936E
:1005EC00049B0093039B227D05F042FA06B010BDDC
:1005FC00766C000830B50F4C87B00F4D4FF0FF32C2
:10060C004FF0FF3302A9204601F0EEF908B107B014
:10061C0030BD03A94FF4FA620023029801F094F95B
:10062C00059B492128460093DDE9032305F020FAB8
:10063C00E4E700BFBC010024D16C000830B50F4CBE
:10064C0087B00F4D4FF0FF324FF0FF3302A9204619
:10065C0001F0CAF908B107B030BD03A94FF4FA6232
:10066C000023029801F070F9059B4921284600935C
:10067C00DDE9032305F0FCF9E4E700BFC401002425
:10068C00256D000830B50F4C87B00F4D4FF0FF3281
:10069C004FF0FF3302A9204601F0A6F908B107B0CC
:1006AC0030BD03A94FF4FA620023029801F04CF913
:1006BC00059B492128460093DDE9032305F0D8F971
:1006CC00E4E700BFCC010024796D000808B570B9CF
:1006DC0008494FF41173084A084805F0B6F9084860
:1006EC0005F0B3F94FF41171034805F0A7F9006850
:1006FC0008BD00BFFB6D0008CD6D00080F6E000833
:10070C002C6E000807B5FFF7E1FF836849210093C1
:10071C00D0E90023024805F0ABF903B05DF804FB07
:10072C003F6E000807B5FFF7D1FF8368492100939E
:10073C00D0E90023024805F09BF903B05DF804FBF7
:10074C008F6E000807B5FFF7C1FF8368492100933E
:10075C00D0E90023024805F08BF903B05DF804FBE7
:10076C00DF6E000810B5074C0748214603F09EF9D0
:10077C002146064803F09AF92146054803F096F9FC
:10078C00002010BDD1050008300000241800002402
:10079C00000000241FB500230C4CCDE9013303935A
:1007AC00029B40F6C41201A9204601330293019B1F
:1007BC000A330193039B64330393002301F056F82F
:1007CC00002141F2883004F07FFAE9E7E86900087B
:1007DC00014B1B68184700BF78000024014B1860C0
:1007EC00704700BF7800002430B585B004460D4634
:1007FC0010220021684605F0EDFC02232A46214612
:10080C008DF802306846034B019304F02FFE05B0BF
:10081C0030BD00BFDD07000880B505460E46174603
:10082C00984604F083FADFF82090034605F0DAFCD2
:10083C000446424649F8003039463046A84754F839
:10084C00090000F00BFC00BF08000000B2F5802F7F
:10085C002DE9F04110D2042A28D843494FF4F973FA
:10086C00424A434805F0F1F8424805F0EEF84FF4DF
:10087C00F9713E4805F0E2F80823D21ACC1D114458
:10088C0024F0070421F00701091B17294FEAD106B0
:10089C000ED8394940F2FB13344A354805F0D5F8E7
:1008AC00344805F0D2F840F2FB11E2E70423E4E708
:1008BC000027046031463046A660E76005F070F80A
:1008CC00421D804601219200304605F05FF8D51D8F
:1008DC00ED082844B0423AD8B8F1FF3FA2F110021B
:1008EC00394604F11000B8BF3A46A6EB050805F0EE
:1008FC0071FC2A463946204605F044F83B463A46F8
:10090C003946204605F015F820463946012205F0F7
:10091C0021F84246294605F035F82B463A46294639
:10092C00204605F006F83146204605F02BF84346E4
:10093C003A463146204604F0FCFF3146204601225F
:10094C0005F008F82946BDE8F04105F035B80B492B
:10095C004FF40373054A064805F077F8054805F08F
:10096C0074F84FF4037184E75A7000088E6F000816
:10097C000F6E00087B70000894700008BD700008B2
:10098C00324B70B55A6912F4003211D1BFF34F8F4C
:10099C00BFF36F8FC3F85022BFF34F8FBFF36F8F2E
:1009AC005A6942F400325A61BFF34F8FBFF36F8F15
:1009BC00264A5369D90327D4536913F4803323D1BE
:1009CC00C2F88430BFF34F8FD2F8803043F6E07416
:1009DC00C3F3C900C3F34E335B0103EA04060146BB
:1009EC0046EA81750139C2F86052F9D2203B13F105
:1009FC00200FF2D1BFF34F8F536943F4803353610F
:100A0C00BFF34F8FBFF36F8F114B124A1A60124B0B
:100A1C00DA6822F0070242F00202DA609A6942F4C4
:100A2C0040429A619A699204FCD50C4B1A6841F2C7
:100A3C000303B3EB124F06D1094AD2F8083143F045
:100A4C000103C2F80831002070BD00BF00ED00E0CA
:100A5C00B80000240090D003004802580010005C3D
:100A6C0000800051014B0360012070478C6A000824
:100A7C0037B505460C46C9B18B6810480093D1E9CF
:100A8C000023452104F0F4FF636945210C480093D1
:100A9C00D4E9032304F0ECFFE2694521094804F092
:100AAC00E7FFA2694521084804F0E2FF21462846E9
:100ABC0003B0BDE8304002F07DB800BF0A710008F9
:100ACC003E710008727100088671000830BFFFF794
:100ADC00FDBF00BF124B134A2DE9F041D518DFF8CA
:100AEC0048800746013DB5FBF3F55D430F4B08EB22
:100AFC000304013CB4FBF3F403FB04540E1B0C493C
:100B0C00304605F059FB7019083E4246002105F0AD
:100B1C0061FB04F10800C7F89060BDE8F08100BFEC
:100B2C0001000000000000000400000004000000B0
:100B3C00586A0008044B99685869884203D00349E5
:100B4C004FF080520A607047FC07002404ED00E06F
:100B5C002DE9F8433F4D804689463F4845211746CD
:100B6C0004F086FFAB6ADA0626D5112445213B48F2
:100B7C0004F07EFFAB6A1B0704D5122445213848CC
:100B8C0004F076FF334DAB6A9E0717D545213548E7
:100B9C0004F06EFF6E6BAB6A1C0645D532464521E0
:100BAC00314804F065FFB9F1000F03D0AB6A23F0B4
:100BBC008003AB62132403E01024DBE76FF015060F
:100BCC00244DAB6AD80704D514244521274804F0DA
:100BDC004FFFAB6A990604D515244521244804F02F
:100BEC0047FF1C4DAB6ADA0602D4AB6A9B070AD5E9
:100BFC006B68180507D54146304600F01FFBB0B1B5
:100C0C0080F309880224134B9A6A920603D55A6A18
:100C1C0022F400525A629A6A204642F0FF029A620B
:100C2C0000233B70BDE8F8836FF01506C2E7AB6A92
:100C3C00D906E8D50F4940F25D130F4A0F4804F06E
:100C4C0004FF0F4804F001FF40F25D110A4804F064
:100C5C00F5FE00BF00ED00E0B9710008D47100088A
:100C6C000C72000824720008417200085C720008C3
:100C7C0080720008E6720008B47200080F6E00085B
:100C8C003073000810B5204C4521204804F0F0FECC
:100C9C00A36A990136D51E48452104F0E9FE1E20B1
:100CAC00A36ADA0104D51B48452104F0E1FE1F209C
:100CBC00154CA36A1B0304D51748452104F0D8FE34
:100CCC002120A36A590304D51448452104F0D0FE11
:100CDC0022200D4CA36A9A0304D51148452104F037
:100CEC00C7FE2320A36ADB0304D50E48452104F07C
:100CFC00BFFE2420044A936A6FEA03436FEA13434E
:100D0C00936210BD1D20CBE700ED00E0537300088B
:100D1C007073000888730008A7730008CA73000872
:100D2C00F47300081374000870B5284C06460D4681
:100D3C002748452104F09CFEA36AD9043BD52548DD
:100D4C00452104F095FE1720A36A1A0504D5224804
:100D5C00452104F08DFE18201C4CA36A9B0511D56F
:100D6C001E48452104F084FEA26BA36A180408D522
:100D7C0045211B4804F07CFE1EB1A36A23F40043FA
:100D8C00A3621920114CA36A590504D515484521B5
:100D9C0004F06EFE1A20A36ADA050ED5124845211E
:100DAC0004F066FE1B20094A936A43F47F43936266
:100DBC0000232B7070BD1620C6E7A36A9B04F2D5E6
:100DCC000A48452104F054FE1C20ECE700ED00E03D
:100DDC00437400085E7400080C72000874740008F8
:100DEC0092740008AC740008CC740008807200087F
:100DFC00744BF0B5044658688BB00025C0F308035B
:100E0C0085F31188BFF36F8F02F07F46B6F17F4FE9
:100E1C0007D102F00C06082E12D145216A4804F0C5
:100E2C0027FE6A494FF48B63694A6A4804F00DFE49
:100E3C00694804F00AFE4FF48B61654804F0FEFD2E
:100E4C0016074CBF0C460125002CEAD00026DA1EF2
:100E5C008DF80760092A00F2A280DFE802F0059500
:100E6C009978A0A0A0A0A09D45215C4804F000FEAC
:100E7C008DF80760534EF36A9A0705D545215848FB
:100E8C0004F0F6FD002329E0F36A002B02DA452179
:100E9C005448F5E7F36A5B0069D54521524804F0E4
:100EAC00E7FD7369A26943F480737361BFF34F8FDD
:100EBC00BFF36F8F736932F8022C23F48073736164
:100ECC00BFF34F8FBFF36F8F4DF602739A4225D14C
:100EDC0022684521454804F0CBFD23689DF8072086
:100EEC00D2B902AE04F120072068083454F8041C6F
:100EFC003246BC4203C21646F6D1099A002D5BD08D
:100F0C00C2F3080121B96FEA52226FEA4222099218
:100F1C0002A91846FFF7ACFD0BB0F0BDB36ADBB20B
:100F2C003BB10DF1070201212046FFF711FE0346EC
:100F3C00D4E7B36A13F47F4F05D00DF107010120FC
:100F4C00FFF7F2FEF3E7B36AB3F5803F02D3FFF786
:100F5C0099FEECE7264940F22A331D4A1D4804F05D
:100F6C0074FD244804F071FD40F22A3165E72049F4
:100F7C0040F22E33164A174804F067FD1E4804F061
:100F8C0064FD40F22E3158E70DF107020021CBE74A
:100F9C000DF107010020D3E74521184870E710F444
:100FAC00F87F1749174AA3F1100308BF0A461648E1
:100FBC00452104F05DFD65E722F4FF7222F0010289
:100FCC00A5E700BF00ED00E01775000847750008A5
:100FDC00B47200080F6E00085A7500089875000866
:100FEC00B4750008DA750008ED7500081176000874
:100FFC004282000832760008567600088676000891
:10100C00E9740008FE740008AF760008024A5369C0
:10101C0043F010035361704700ED00E0EFF30880DC
:10102C00EFF3098101B57246FFF7E2FE01BD00BF87
:10103C00102080F3118808484FF40461401880F3A5
:10104C000988EFF314800221084380F31488BFF35E
:10105C006F8F00F0B7F8000080190024084B9B68D4
:10106C0083420BD1EFF3058343B1064B5A6842F030
:10107C0080525A605A6A22F400425A6203F05CBEF3
:10108C00FC07002400ED00E00A4A6FF00A019368A7
:10109C00C3F898100849C3F894004B6843F0805388
:1010AC004B60002383F31188BFF36F8F9368D3F8E1
:1010BC0098007047FC07002400ED00E016498A6890
:1010CC004FF030001044EFF3098C80E8F01F102033
:1010DC0080F31288BFF36F8F104F4FF000664A6990
:1010EC008A603E604FF09004141920680C4C20600C
:1010FC00D2F894000023C2F8943080F3118804B520
:10110C00104600F00FF9BDE8044002F1300090E801
:10111C00F01F8CF309887047FC07002404ED00E0F5
:10112C009C0600241EF0040F0CBFEFF30880EFF3B5
:10113C000980816911F8021C0229FFD001B504F065
:10114C00A4FC01BD00B2002807DB0123410900F01B
:10115C001F00024A834042F82130704700E100E052
:10116C0038B54B1C04460D460F2B0FD95823104A8B
:10117C001049114804F069FC294610480F232246F7
:10118C0004F063FC58210A4804F058FC00B21B011F
:10119C000028DBB206DB00F1604000F5614080F80E
:1011AC00003338BD00F00F00054A1354F9E700BFB7
:1011BC00C7760008FE7600080F6E00081977000845
:1011CC0014ED00E00F4A08B522F07F020E4B9A6036
:1011DC00BFF34F8FBFF36F8FD3F8882022F47002C8
:1011EC00C3F88820EFF3148323F0040383F31488EB
:1011FC00BFF36F8F01F082FD03F080FE00F066F804
:10120C0001F0D2FD0000000800ED00E042F8203CA7
:10121C00203A009B08495360019B21F00101936027
:10122C00029B9161D3604FF08073D3610023026500
:10123C00C0F89430704700BF250800080A4A0346DE
:10124C00906878B113F1160FD0F8800005D0A0F19A
:10125C0040029A4205D8834203D2814228BF002023
:10126C0070470020704700BFFC07002414460B4A4F
:10127C000D4608B50A4B9060D0F890201A6000F02B
:10128C0051F8204685F30988002163B681F3118853
:10129C00BFF36F8F00220023FFF7BEFAFC07002478
:1012AC009C060024014910220A60704710ED00E0F2
:1012BC0072B6404080F31188BFF36F8FBFF34F8F2E
:1012CC0030BF62B6BFF36F8F704700BF0023044876
:1012DC001021C2180133A32B82F80013F9D17047E7
:1012EC0000E100E001B5EFF30580A0F110004FEA3A
:1012FC00C0000449014409C99847BDE801400249AE
:10130C0008470000E8630008410B0008024B01216C
:10131C00024A034800F07EB80000052400000024B7
:10132C009C6A0008D0F880204021054B403A1846B2
:10133C001A60044AC3E90112012100F091B800BF00
:10134C00A006002400000B15084AC2F898000B6890
:10135C0023F01F03034343F01003C2F89C308B6847
:10136C0043F00103C2F8A030704700BF00ED00E06D
:10137C002DE9FF410F469846144605460026BE420D
:10138C000EDA686840B3B8F1000F12D0431E184251
:10139C000AD03246452112486FF0150404F068FB60
:1013AC00204604B0BDE8F0811F28F2D92A68134208
:1013BC00EFD12B68019304F077FBAB6803430393E5
:1013CC00E3B20F2B03D9224645210648E4E7204619
:1013DC00013401A9FFF7B8FF01360C35CFE700BF88
:1013EC005D77000885770008044B0522C3F894202C
:1013FC00BFF34F8FBFF36F8F704700BF00ED00E05E
:10140C00BFF35F8F024B0022C3F89420704700BFDC
:10141C0000ED00E038B50D4D01230C462A78FFF79E
:10142C00A7FF287016300FD140F26D13084A0949F6
:10143C00094804F00AFB2146084804F006FB40F278
:10144C006D11034804F0FAFA38BD00BF48080024B7
:10145C00B0770008428200080F6E0008DF770008A2
:10146C00124A002310B512780C46FFF781FF10F1D9
:10147C00160F04D00E4B00220F2810DD10BD4FF4B8
:10148C00C6730C4A0C490D4804F0DFFA21460C488F
:10149C0004F0DBFA4FF4C671064804F0CFFAC3F837
:1014AC0098000130C3F8A020E6E700BF48080024EC
:1014BC0000ED00E0B0770008428200080F6E0008D3
:1014CC000B7800082DE9F0436A4D85B02C68102C80
:1014DC0010D94FF4D273684A6849694804F0B5FAD8
:1014EC0021461022674804F0B0FA4FF4D2716248DA
:1014FC0004F0A4FA00200C26FFF782FF844221D1CD
:10150C00614E68460025DFF884813470FFF7AAFA33
:10151C000746AF421DD1FFF767FF5D4BD3F8903004
:10152C00C3F30723102B00F0A1805A4940F2132378
:10153C00514A534804F089FA574804F086FA40F2AD
:10154C001321D4E7696806FB0011FFF7FDFE01309B
:10155C00D4E7009A290102EB0513D3F80C9009EAA1
:10156C000804B4F5000F64D019D8B4F5001F3AD0B4
:10157C00B4F5800F51D0B4F5801F20D045214748D9
:10158C0004F076FA3D494FF4E7733B4A3C4804F0CB
:10159C005CFA434804F059FA4FF4E771A7E7B4F149
:1015AC00807F50D0B4F1007FE8D15C6852589868C5
:1015BC0004F07AFA40F48020CDE901420AE0986800
:1015CC0004F072FA40F088505C68525840F43020B5
:1015DC00CDE90142039032780F2A3ED9452131489A
:1015EC0004F046FACEE7986804F05EFA40F08850B2
:1015FC005C6819F0010F525840F40020CDE901420B
:10160C000390E8D0284970231B4A1D4804F01DFAAA
:10161C00264804F01AFA702169E7986804F044FA35
:10162C005C68525840F0E060CDE9014240F4003073
:10163C00D0E75C685258986804F036FA40F0827033
:10164C00CDE90142C6E75C685258986804F02CFA60
:10165C0040F08870CDE90142BCE701A91046FFF7C4
:10166C0073FE337801350133337052E7002005B037
:10167C00BDE8F083606A0008B07700084282000879
:10168C000F6E000838780008480800240000F0FFAE
:10169C0000ED00E01279000863790008C1780008B9
:1016AC00E8780008857700086C78000892780008C4
:1016BC0008B5024B1B689847002008BDAC060024F7
:1016CC00034B044A1860937843F0020393707047FD
:1016DC00AC0600247C0000240649074821F00701D1
:1016EC00C1F1105208B502F5A022FFF7AFF80020A7
:1016FC0008BD00BFF72B0024B00600242DE9F04FE5
:10170C001F46036987B00546B3F902800026B3F97A
:10171C000040DFF88C90DFF88CA0019223B2984542
:10172C0001DCB34638E059F834305A78BAB11AF8BB
:10173C000420A2B905951A7872B1012A13D01A495E
:10174C006E231A4A1A4804F080F91A4804F07DF9FD
:10175C006E21164804F072F95B6828469847B34628
:10176C0001345E46DAE7D3F804B002A8019A3B468E
:10177C0004F0C1FCDDE90223584605A901F006FD81
:10178C0083460028EBD003460B4A45210B4804F056
:10179C006FF91BF10C0FE3D1584607B0BDE8F08F81
:1017AC00146A0008D40100244282000884790008DD
:1017BC000F6E0008AA790008AE820008B8790008FC
:1017CC0038B521490023214CA14224D92049372383
:1017DC00204A214804F039F9204804F036F9372121
:1017EC001C4804F02BF90A68934204D010694BB9D9
:1017FC0003801069438010690831438801334380AA
:10180C001346E1E71D69B5F9025005801B691069A3
:10181C00B3F90230EEE7E6D3114C124DAC4210D9BD
:10182C00114947230B4A0C4804F00FF90B4804F0FC
:10183C000CF94721D4E72069043004F0F0FB143490
:10184C00ECE7F8D3002038BD106A0008586A00088D
:10185C00FA790008847900080F6E00082C7A0008C9
:10186C00E8690008106A00084B7A00082DE9F74374
:10187C00044688461546994604F0BFFB60B12A49D8
:10188C00C6232A4A2A4804F0E0F82A4804F0DDF876
:10189C00C621264804F0D2F854B92749C723234A55
:1018AC00234804F0D2F8254804F0CFF8C721F0E71C
:1018BC00B8F1000F0AD12249C8231C4A1C4804F075
:1018CC00C4F8204804F0C1F8C821E2E74B462A4688
:1018DC00684604F0ECFBE368DDE900675BB920695E
:1018EC0004302A464B4601F0C3FD054658B1284644
:1018FC0003B0BDE8F0836168404698470028EED1FC
:10190C006FF02205F3E762684146206804F054FC4E
:10191C0032463B462046FFF7F1FE0546206904306F
:10192C0001F078FEE3E700BF6A7A000884790008CA
:10193C000F6E0008797A0008FB6D00082C6E000809
:10194C009B7A0008AE7A0008F8B504460D46174697
:10195C001E4604F052FB60B11B49E2231B4A1C4893
:10196C0004F073F81B4804F070F8E221174804F0F7
:10197C0065F854B91849E323144A154804F065F87E
:10198C00164804F062F8E321F0E755B91449E42352
:10199C000E4A0F4804F059F8124804F056F8E421A6
:1019AC00E4E7206904303A46334601F061FD50B952
:1019BC002846D4E9001204F0FFFB20690430BDE88E
:1019CC00F84001F027BEF8BD6A7A00088479000857
:1019DC000F6E0008797A0008FB6D00082C6E000869
:1019EC009B7A0008AE7A00082DE9F04104460D46BA
:1019FC0017461E4604F001FB70B128494FF4907352
:101A0C00274A284804F021F8274804F01EF84FF420
:101A1C009071234804F012F864B9244940F2211360
:101A2C001F4A204804F011F8214804F00EF840F247
:101A3C002111EEE72378012B0CD01E494FF4917342
:101A4C00174A184804F001F81B4803F0FEFF4FF446
:101A5C009171DEE7606860B9184940F22313104AAF
:101A6C00104803F0F2FF164803F0EFFF40F2231189
:101A7C00CFE765B913494FF49273094A094803F04B
:101A8C00E4FF114803F0E1FF4FF49271C1E73A46CD
:101A9C0033462946BDE8F04101F02CBC6A7A0008B7
:101AAC00847900080F6E0008797A0008C07A000863
:101ABC00D37A0008E57A0008107B00082B7B00081D
:101ACC00457B0008FB6D00082C6E00082DE9F041E9
:101ADC00054600244FF001084FF0B0460E4F2B780E
:101AEC0053FA84F01F280FDC08FA00F3D6F888208C
:101AFC0033EA020208D1C6F8883057F830301BB1EF
:101B0C0007EBC0025168984701346A78E3B29A42F5
:101B1C00E5D2BDE8F08100BFBC060024044B03EB0A
:101B2C0040000023013320F8022B9942FADC704765
:101B3C00C80000240F4B024610B533F91000FF28E3
:101B4C000AD14AB90C493C230C480D4A03F07DFFDD
:101B5C003C210B4803F072FF4FF0B0410123D1F848
:101B6C00804093402343C1F88030BDE81040FFF71C
:101B7C00E9BA00BFC8000024A47B00080F6E00085F
:101B8C00627B00080A4B30B553F830408C4204D1CC
:101B9C0003EBC0056D68954205D034B943F830109D
:101BAC0003EBC0035A60002030BD6FF00F00FBE761
:101BBC00BC060024034B002243F8302003EBC00387
:101BCC005A607047BC060024034B04489B6A13F010
:101BDC00030F18BF00207047004402580090D00338
:101BEC0008B5094B1B6913F0380308D0182B08D122
:101BFC00FFF7EAFF7D2380085843400808BD0348DF
:101C0C00FBE70020F9E700BF004402580024F40071
:101C1C0010B50A68102A23D8134BD340DB071FD505
:101C2C004A68D3B2C2F34234C2F3042203F1B04384
:101C3C0004FA02F203F51133186820EA02021A6062
:101C4C004968CBB2C1F30242C1F3042103F1B043A2
:101C5C008A4003F511331868024300201A6010BD46
:101C6C006FF08500FBE700BF0E40010008B5174B75
:101C7C0018680B68D42B1AD00CD8032B03D8F3B9E3
:101C8C006FF0850016E00B2B15D0102BF8D1FFF759
:101C9C00A7FF0DE0D83B1C2BF2D8012101FA03F36E
:101CAC000B490B4209D140F211110B42E8D040080C
:101CBC001060002008BD0020FAE78008F8E7FFF765
:101CCC0083FF7D2380085843F2E700BFB80000244F
:101CDC00001011116C4B37B5D3F8E02042F00072B4
:101CEC00C3F8E020D3F8E02002F000720192019AD0
:101CFC001A6842F001021A601A685207FCD51A6879
:101D0C0022F0180242F010021A601A6902F038022E
:101D1C00182A17D11A68550707D41A6842F001021D
:101D2C001A60594A13685C07FCD5574B1A6922F0A4
:101D3C0007021A611A6912F0380FFBD19A6922F066
:101D4C000F029A61504B1A6822F080721A609A6ADC
:101D5C0022F003029A629A6A22F47C7242F04002E8
:101D6C009A62DA6A22F00C0242F00402DA62DA6A4F
:101D7C0022F00202DA621A6B22F4FF7222F00102E4
:101D8C0042F07C021A63DA6A22F00102DA621A6B00
:101D9C0022F47E421A63DA6A42F48032DA621A6BF7
:101DAC0022F4FE021A63DA6A42F40032DA621A6B27
:101DBC0022F0FE421A63DA6A42F48022DA621A686E
:101DCC0042F080721A601A689001FCD52F4BDA68C9
:101DDC0022F0070242F00202DA609A6922F44042D1
:101DEC009A619A699104FCD5294DFFF7F9FE0446D6
:101DFC00A84202D8274800F0E3FD234B9A6922F44D
:101E0C0070629A619A6922F00F0242F008029A619C
:101E1C00DA6922F0700242F04002DA61DA6922F4E7
:101E2C00E06242F48062DA619A6922F0700242F058
:101E3C0040029A611A6A22F0700242F040021A6261
:101E4C001A6922F0070242F003021A611A6902F0C1
:101E5C003802182AFAD1AC4202D90E4800F0B0FD73
:101E6C000A4BDA6822F0070242F00202DA609A6941
:101E7C0022F440429A619A699204FCD5064B0020E8
:101E8C00064A1A6003B030BD00440258004802589C
:101E9C007FB2E60E80B2E60EB80000240065CD1DC0
:101EAC0008B5074804F091F838B10648FFF708FC6C
:101EBC000448FEF793FC002008BD6FF01200FBE70E
:101ECC00D4630008D51E00080A2838B50446074D0F
:101EDC0004D1AB680D2128465B689847AB68E1B22A
:101EEC0002485B689847204638BD00BFD4630008A1
:101EFC0010B5036961B920493A23204A204803F000
:101F0C00A4FD204803F0A1FD3A211C4803F096FDE6
:101F1C00486850B91C493B23184A194803F095FDF1
:101F2C001A4803F092FD3B21EFE79868F8B188421C
:101F3C0019D1DC680868A142986000D1D8600020F3
:101F4C0008602AB19A680A60DA68996002B9D960A7
:101F5C00002010E0814206D108682060D8688142D8
:101F6C00EDD1DC60EBE7044600680028F2D1002AD2
:101F7C00E8D16FF0150010BD1E7C0008E27B000854
:101F8C000F6E0008277C0008367C0008487C00088F
:101F9C0038B5036904465860084D284604F015F816
:101FAC0040B161682846AB680C311B68984700EA61
:101FBC00E07038BD6FF01200FBE700BFBC62000898
:101FCC0070B5D1E9016119B101250C68854001B9E1
:101FDC0070BD8A682A4010D04B6863B90A495D23EA
:101FEC000A4A0B4803F031FD0A4803F02EFD5D212F
:101FFC00064803F023FD304698471CB12368214660
:10200C001C46E4E72346FAE75F7C0008E27B000805
:10201C000F6E0008487C0008F7B517460C461D46A5
:10202C004668B7F5001F026928D101F003030F229F
:10203C0004339B009A4042EA9102374902F00303B1
:10204C00023351F82310130C93FAA3F3B3FA83F36E
:10205C0001EA124203F01F0322FA03F3B2689A4218
:10206C0009D1204603F07EFD2046FFF7A3FD002199
:10207C00204603F084FD002003B0F0BDB7F5800FBF
:10208C0044D026492046FFF77DFD002841D1244A43
:10209C006B46B66892E8030083E8030021481946B2
:1020AC00826812689047D8B904F003030F210433F7
:1020BC009B00994041EA940101F003030A0C92FA47
:1020CC00A2F29B00B2FA82F203F1B04302F01F02BB
:1020DC00D3F80804964020EA11410E43C3F8086473
:1020EC00B5F1806F0ED0B5F1C06F0DD005F17E4308
:1020FC00594259414900204603F041FD2046FFF763
:10210C0019FDB8E70121F6E70321F4E76FF085002C
:10211C00B2E76FF00F00AFE700040058CD1F0008C6
:10212C00586A0008BC6200082DE9F047044600EB31
:10213C00C1060025244FB44201D1002014E02068D0
:10214C00C30600F01F0811D4656845F02005C0F3E4
:10215C00471AC0F343200A2832D857F82090B9F117
:10216C00000F1CD16FF01200BDE8F087B8F1100F12
:10217C0013D0B8F1110F01D16568E8E7B8F1000F81
:10218C00E5D1124940F20B131148124A03F05DFCE1
:10219C0040F20B110F4803F051FC3025D7E74846AD
:1021AC0003F013FF0028DDD043462A460AF00F0146
:1021BC00484603F0E8FD002804F10804BBDAD3E735
:1021CC006FF01500D0E700BFA86B0008387D000841
:1021DC000F6E0008057D000837B503690C4645688D
:1021EC001868E9688368DB682BB94521134803F04C
:1021FC003FFC03B030BD01AA98470028F5DB2A68E4
:10220C00136823F4004313603CB1019B2A6803EB71
:10221C005403B3FBF4F39BB2D3602B68DB680F2B36
:10222C00E7D80749C323074A074803F00EFC0748C1
:10223C0003F00BFCC321034803F000FC617D000894
:10224C00C37D0008947D00080F6E0008E07D000837
:10225C00F8B50C46036941685D682379012B15D0EC
:10226C009F1E7E427E41B6026279022A96BF444F7F
:10227C004FF4005737F81270A279022A09D0042AB9
:10228C002FD0003B18BF01231B0306E04FF4C066A0
:10229C00EAE7B3FA83F35B091B07E2790968012AC1
:1022AC0014BF4FF0000C4FF4407CA5421CD10A68BF
:1022BC0022F0805222F4B05232431A430A604B6827
:1022CC0023F440533B434B6043681A68936823F4F0
:1022DC00407343EA0C0393602968BDE8F840FFF7AC
:1022EC007BBF4FF48053D8E7D1F800E00EF4C06EFA
:1022FC00764506D0D1F800E02EF4C06E4EEA060604
:10230C000E6041680E68716801F440518F4204D030
:10231C00716821F440513943716041680E6831682D
:10232C0001F010218B4204D0316821F010210B43B5
:10233C003360436819688B6803F440739C4505D07F
:10234C008B6823F4407343EA0C038B6043681B686F
:10235C009968490405D5032A09D09A6822F4804269
:10236C0004E0032A03D19A6842F480429A602168FF
:10237C002B68994203D0FFF72FFF23682B60F8BD21
:10238C00706C000873B505464668046964482060A3
:10239C0003F01BFE40B9452162486FF0120403F0B4
:1023AC0067FB204602B070BD2068F16883681B682B
:1023BC0098470446E8B901AA0021F06903F0FBFC38
:1023CC00041EEEDB019B002219791868FFF7ACFEA6
:1023DC00041EE6DB6C682B6922685E68136823F0C8
:1023EC0001031360606803F0F0FD48B945214E48C5
:1023FC00D3E745214D4803F03BFB002CD1DBDAE75A
:10240C00D4E901018368DB6803B19847226852E87C
:10241C00003F43F00C0342E800310029F7D131466C
:10242C002846FFF715FF237D23B12268936843F0FC
:10243C0008039360637D23B12268536843F400431F
:10244C005360A37D23B12268536843F480335360F7
:10245C00E37D23B12268536843F400335360227E3A
:10246C002368002A4ED0324A93422ED0A2F54C4219
:10247C0093422AD002F58062934226D002F5806204
:10248C00934222D002F5806293421ED002F5444260
:10249C0093421AD0A2F51C42934216D002F58062E8
:1024AC00934212D002F51C4293420ED002F5806288
:1024BC0093420AD01F4A934207D02A6845211E48EE
:1024CC006FF0150403F0D4FA6BE76B681A68936825
:1024DC0043F4804393602268617E136823F0787321
:1024EC0043EA415313602268A17E136823F4F81366
:1024FC0043EA01431360E37E23B12268936843F4FB
:10250C00004393602268136843F00103136023684F
:10251C00DA699102FCD5DA695202FCD5002440E755
:10252C00BC620008F47D00083D7E0008187E00089F
:10253C0000100140000C00585D7E0008F8B5024602
:10254C00036946680C4608795D68012891F805E036
:10255C008B7922D1BEF1020F40F28480022B1F46F0
:10256C004FF4C0614FF4005C00F09680042B00F037
:10257C008D8028B1C31E012B40F28B804FF480500C
:10258C00BCF5805F00F09280BCF5405F00F090805D
:10259C00BCF1000F1CD101231BE002280AD1BEF1B3
:1025AC00020F6CD9022B1F464FF480610BD04FF4F5
:1025BC00005CDBE7BEF1020F64D9022B1F4663D12E
:1025CC0000286FD00021C31E012B62D900200227E6
:1025DC00032373455DD103F03AFCB84259D1E3793A
:1025EC0063B3012B66D1336834498B4226D0A1F5F5
:1025FC004C418B4222D001F580618B421ED001F5FB
:10260C0080618B421AD001F580618B4216D001F5A6
:10261C0044418B4212D0A1F51C418B420ED001F5E6
:10262C0080618B420AD001F51C418B4206D001F52A
:10263C0080618B4202D022498B422AD131681046EC
:10264C000B6823F001030B602146FFF701FE326893
:10265C00136843F00103136094E8030085E803005A
:10266C000020F8BD4FF4C061164F022B37F81EC086
:10267C001F467FF47BAF78B94FF0805080E74FF462
:10268C008061F1E70021EFE7002190E700283FF49B
:10269C0075AF6FF08500E4E7C31E012BF9D9022753
:1026AC0000206DE701464FF0805091E7002390E742
:1026BC0002238EE7032B96D0EBE700BF00100140FE
:1026CC00000C0058706C00084FF0E0230F4910B557
:1026DC009C691A6908689B6902F480320C4934B908
:1026EC0093B903464AB90A681044C01A10BD002BAE
:1026FC0008BF03460AB9A342F5D90A6802440A6026
:10270C004FF0E0221269EEE70446F3E7F0070024ED
:10271C00EC0700240A4B1022002083F823204CF2F3
:10272C005032084B1A604CF24F32074B18604FF086
:10273C00E0235A6198611A6942F007021A617047E6
:10274C0000ED00E0F0070024EC07002410B5FFF7C3
:10275C00BBFF1049104B0868D3E90042001942F145
:10276C000002C3E900020D4A00230B604CF2503307
:10277C00D2E90041001BB0FBF3F043431B1941F1BC
:10278C000001C2E9003102F029FDBDE81040FEF75E
:10279C00D1B900BFEC0700246804002460040024B5
:1027AC002DE9F041DFF8308199B1421C0BD14FF08B
:1027BC00E022136923F0010313614FF07F43C8F843
:1027CC000030BDE8F081D8F80050012807DC002764
:1027DC000BE0431CD8F80050F7D14FF4A77040F22F
:1027EC004F139842A8BF1846471E4FF01003EFF343
:1027FC00118483F31288BFF36F8F384800F07EFC8E
:10280C0068B98823364A3749374803F01EF93349EB
:10281C00364803F01AF98821314803F00FF92F4894
:10282C0000F088FC324EFFF74FFF4FF0E023996920
:10283C00D6E9002380184FF0000243F10003C6E9EB
:10284C0000032C4B1A602C4B1A68831A3BD44CF2A5
:10285C00503C0CFB073303F543434F33B3FBFCF7FE
:10286C00131A40F635420CFB0733934238BF13461C
:10287C00224A934228BF13464FF0E022C8F800309A
:10288C00013B90695361002381429361A1EB0003EA
:10289C00124838BF5B19D6E900125B1842F10002EE
:1028AC00C6E9003200F038FC80B940F231130C4A12
:1028BC0013490D4803F0C9F80849124803F0C5F84C
:1028CC0040F23111A8E740F63543D5E784F311887F
:1028DC00BFF36F8F75E700BFF0070024F4070024E7
:1028EC009F7E0008CC7E00080F6E0008E17E000879
:1028FC0068040024EC0700246004002460D2FE006D
:10290C00F77E00080E7F000838B54FF01003EFF388
:10291C00118583F31288BFF36F8F1C4800F0EEFB18
:10292C0068B988231A4A1B491B4803F08EF81749CB
:10293C001A4803F08AF88821154803F07FF81348E9
:10294C0000F0F8FB164B1C68164B1B68E41AFFF7DB
:10295C00BBFE04440D4800F0DFFB68B940F23113B4
:10296C000B4A11490C4803F070F808490F4803F062
:10297C006CF840F23111DFE785F31188BFF36F8FEC
:10298C004CF25030B4FBF0F038BD00BFF40700241B
:10299C009F7E0008CC7E00080F6E0008E17E0008C8
:1029AC006804002460040024F77E00080E7F0008F1
:1029BC00024A536823F00203536070470010005C16
:1029CC00024610B578B14F498B6913F440433FD19F
:1029DC004D484E4C1044A04207D28B6903F440433F
:1029EC00B3F5404F51D101207CE04948494C10448B
:1029FC00A04246D948481044A04244D94748824294
:102A0C00886900F4404007D9B0F5404FEBD0896994
:102A1C00012001F440414CE0B0F5404F45D1404B12
:102A2C001344404A93428CBF002301233E490A6859
:102A3C0022F00F021A430A600A6802F00F029A424F
:102A4C005ED0086800F00F00C01A18BF012049E0E2
:102A5C0000232C48816901F44041B1F5404F2BD142
:102A6C00324933481144814246D92D49A0F574208E
:102A7C001144A0F51070814240D92E498A42D5D913
:102A8C00B1E70223E5E70123E3E78B69002003F4B8
:102A9C004043B3F5004F4FF0030319D02649274CA0
:102AAC001144A14226D9264918E08969184601F437
:102ABC004041B1F5004FF0E7816901F44041B1F5B7
:102ACC00004F10D11F4920481144814214D90020D5
:102ADC001E491D4C1144A1420CD91D498A4282D871
:102AEC000028A3D010BD0C491A481144814203D3CD
:102AFC000020D3E70123F3E7022397E7012395E7AF
:102B0C001846A1E7004802587FA77BF340D2DF03A9
:102B1C00FFC4A7F77F1D2C047FE2D3FB801D2C0480
:102B2C003FA901FC7F14EF0300200052BF9412F860
:102B3C00BF56FE03C056FE033FF1E9FDBF0E160261
:102B4C00C00E1602FF1E0AFA7FF0FA027F0F05FD77
:102B5C0080F0FA02C0E1E40008B50A4A0A4B93423D
:102B6C000ED90A4917230A4A0A4802F06EFF0A488E
:102B7C0002F06BFF1721064802F060FF1433EEE7FA
:102B8C00FCD308BDE8630008BC620008467F00085F
:102B9C00237F00080F6E00082C7A000810B504463D
:102BAC004521034802F064FF204603F019FA00BFE8
:102BBC005E7F0008F7B504460D464FF01003EFF3A7
:102BCC00118783F31288BFF36F8F224A04284FF0CA
:102BDC004501966898BF204B127C94BF53F8203067
:102BEC001E4B009202461E4802F042FF3DB1EB69BB
:102BFC00C3F308031BB145211A4802F039FF36B163
:102C0C00304603F000FA034608B1027802B9164BBD
:102C1C0032464521154802F02BFF29462046FFF786
:102C2C00BDFF042C0CD112498A23124A124802F01F
:102C3C000CFF124802F009FF8A210E4802F0FEFE3A
:102C4C0087F31188BFF36F8F304603B0BDE8F040B7
:102C5C00FEF704BAFC070024446C0008727F0008DD
:102C6C00887F0008B57F0008807F0008DB7F0008A4
:102C7C001A800008F87F00080F6E000837800008E3
:102C8C00104B70B553F82040013053F82060A64229
:102C9C0000D870BDD4E9003595B153B1284698479A
:102CAC0038B10028EB68B8BF4042FF28A8BFFF200E
:102CBC001870EA68537843F0010353700834E6E760
:102CCC009847FBE7586C00080122032008B5094B14
:102CDC001A70FFF7D5FF02F081FB0420FFF7D0FF3D
:102CEC0000F09AF9FDF73EFD034A137B23F0010334
:102CFC00137308BD49080024100500240348002163
:102D0C00034A08B5121A03F074F908BDE001002457
:102D1C004C08002470B5A0231C4E86B0012203FB86
:102D2C0000661B4B1B4D044605930F231A49CDE936
:102D3C00033200234FF4A072CDE90133142303FBBB
:102D4C0000554FF4C070154B00FB04113046009534
:102D5C0000F0A2F8737B124A23F00403EE602C748B
:102D6C0073734FF4046304FB033313446B60BFF3BE
:102D7C005B8F0C4B53E8001F013143E80012002A13
:102D8C00F8D1BFF35B8F06B070BD00BF7004002498
:102D9C00B6800008FC070024C02100245131000833
:102DAC0080190024F807002480B50020AEB0FFF78E
:102DBC0067FF2A4B83F30888294D0024F023294E02
:102DCC00294F85F82230EC772C766C76AC7685F82A
:102DDC0020406B6A43F4E0236B62FEF717F9FEF7B1
:102DEC0061FA4FF0FF33AB62EB62FEF76BFB1F4DEA
:102DFC00FEF78CFA40F201132994ADF8243006AB9F
:102E0C00CDE92644B360FFF7A7FE0120FFF738FF9A
:102E1C000220FFF735FF01F011FE154B75614FF4E1
:102E2C00806205930123134928460094CDE903439E
:102E3C00CDE901443B4600F02FF86A7B0646284654
:102E4C0022F004026A7301F023F82046FFF762FFB8
:102E5C003A4631462846FEF709FA00BFC021002445
:102E6C0000ED00E0FC070024D52C00081005002420
:102E7C00BB8000084023002410B5044608B9054B5C
:102E8C009C681F2204F1600003F05EF9002084F8B6
:102E9C007F0010BDFC0700242DE9FF470F9D044661
:102EAC000F4699460F2DDDF8448048D1314B99459A
:102EBC0049D1073204F15803A573002622F0070507
:102ECC002046A66005F1400AE673C4E91633109B50
:102EDC00BA442373042351466373C4E90666FDF7B1
:102EEC00F9FD07F1400307303946C4E9203520F0DD
:102EFC0007000E9BC4F88800AAEB000A0293204638
:102F0C000D9B524601930C9B00934B46FEF77EF9AA
:102F1C006665B8F1000F29D01F22414604F160000C
:102F2C0003F012F984F87F60134B9B680BB1D3F854
:102F3C008C305046C4F88C3004B0BDE8F08705F1F5
:102F4C0010031E2BB5D940F257230C4A0C490D48DF
:102F5C0002F07BFD29460C486FF00F030E2202F0A5
:102F6C0074FD40F25721054802F068FD84F860803A
:102F7C00DAE700BF51310008FC070024C3800008C9
:102F8C00E68000080F6E000866810008F0B587B077
:102F9C000446DDE91276EFF3058575B1194940F267
:102FAC00D623194A194802F050FD194802F04DFD7C
:102FBC0040F2D621144802F041FD0595109D049570
:102FCC000F9D03950E9D02950D9D01950C9D0095F1
:102FDC00FFF762FFB6F1FF3F08BFB7F1FF3F05D027
:102FEC0056EA070305D1204600F0E0FF204607B063
:102FFC00F0BD3A463346074904F1180001F0DEFFF4
:10300C00F4E700BF97810008C38000080F6E00082A
:10301C00A9810008AB60000870B5314C86B0314D09
:10302C00AC4226462AD9304940F23D332F4A30482B
:10303C0002F00BFD2F4802F008FD40F23D312B4809
:10304C0002F0FCFC54F80C3C059354F8103C04932F
:10305C0054F8143C039354F8183C029354F81C3C59
:10306C00019354F8203C009354E90A2354E90C01D1
:10307C00FFF712FF54F8303C5E65D1E7AE4204F125
:10308C003004DFD3164C00F0E5FF1B4EAC4221D9C7
:10309C0015494FF45773154A154802F0D6FC1548DC
:1030AC0002F0D3FC4FF45771C9E7D4E90A23B3F10A
:1030BC00FF3F08BFB2F1FF3F05D052EA0301206881
:1030CC0003D100F073FF3034E0E73146183001F0E3
:1030DC0075FFF8E7E9D306B0BDE8704001F02AB8F7
:1030EC0000690008C0690008CE810008C380000890
:1030FC000F6E00082C7A0008AB600008006838B12D
:10310C00044B00F003001B7CC01A18BF0120704751
:10311C0001207047FC070024054A0346117C926885
:10312C000A4301680020914204BF186001207047D7
:10313C00FC070024024B1A7C9B6813430360704706
:10314C00FC07002408B50D4B9B6893F90E30002B3F
:10315C0009DA0B492A230B480B4A02F076FC2A2188
:10316C00094802F06BFC4FF01002EFF3118382F36D
:10317C001288BFF36F8FFEF79BF8F4E7FC0700246F
:10318C001C8200080F6E0008FB8100082DE9F74334
:10319C000446894690461E46EFF3058373B152EA06
:1031AC0006030BD048497E23484A494802F04DFC9F
:1031BC00484802F04AFC7E21444819E004F1080515
:1031CC004FF01003EFF3118783F31288BFF36F8F67
:1031DC002846FFF793FF68B988233F4A3F493C488C
:1031EC0002F033FC29463E4802F02FFC88213A4875
:1031FC0002F024FC2846FFF79DFF626A23699A427D
:10320C0049D2204601F0DEFA064690B1E26800246D
:10321C004946406902F0D0FF3046C6F8984000F0AD
:10322C0037FE3946284600F07BFE204603B0BDE849
:10323C00F083206A6369984202D3A369984207D34A
:10324C0028499823214A224802F0FFFB9821B3E732
:10325C00E268494602F0B0FF236AE2681344A269AF
:10326C009342236204BF63692362636A013363621E
:10327C0000242846FFF750FF00BB40F23113164ADA
:10328C001949134802F0E1FB2946184802F0DDFB0E
:10329C0040F23111ABE758EA06030CD0144B22462E
:1032AC00394628469B68C3F81490CDE9008601F096
:1032BC0001F90446B9E76FF02204DAE787F31188C5
:1032CC00BFF36F8FB1E700BF66820008448200082D
:1032DC000F6E0008AC8200089F7E0008CC7E0008B0
:1032EC00E17E0008AF820008F77E00080E7F000820
:1032FC00FC0700242DE9F7430446884617461D4673
:10330C00EFF3058373B152EA05030BD04D49DA2371
:10331C004D4A4E4802F099FB4D4802F096FBDA21DB
:10332C00494819E004F108064FF01003EFF3118936
:10333C0083F31288BFF36F8F3046FFF7DFFE68B957
:10334C008823444A4449414802F07FFB31464348B4
:10335C0002F07BFB88213F4802F070FB3046FFF700
:10336C00E9FE636A002B44D0E2684046E16902F052
:10337C0023FFE369E26820461344A2699342E361A8
:10338C0004BF6369E361636A013B636201F01AFA8B
:10339C00054600283FD0206A6369984202D3A3698E
:1033AC00984207D32E49F323274A284802F04DFBB5
:1033BC00F321B5E76969E26802F0FEFE236AE26870
:1033CC0028461344A2699342236204BF63692362B3
:1033DC00636A013363620024C5F89840254600F007
:1033EC0057FD4946304600F09BFD284603B0BDE82A
:1033FC00F08357EA05030CD01A4B22464946304657
:10340C009B68C3F81480CDE9007501F053F80546AC
:10341C00EBE76FF022053046FFF77EFE68B940F20D
:10342C0031130C4A1049094802F00FFB31460F4882
:10343C0002F00BFB40F231118DE789F31188BFF3D9
:10344C006F8FD2E766820008448200080F6E000876
:10345C00AC8200089F7E0008CC7E0008E17E00084C
:10346C00AF820008FC070024F77E00080E7F0008DE
:10347C002DE9F341044617461E46EFF3058565B169
:10348C0059496D23594A5A4802F0DFFA594802F05B
:10349C00DCFA6D21554802F0D1FA4FF01003EFF32E
:1034AC00118883F31288BFF36F8F5348FFF726FE02
:1034BC0060B98823514A52494D4802F0C6FA4E4928
:1034CC00504802F0C2FA88214C48E4E74A48FFF71A
:1034DC0031FEE3684C4A9BB1A0689168884229D0C0
:1034EC0057EA06032ED14448FFF716FEA0B188F325
:1034FC001188BFF36F8F6FF00F0002B0BDE8F08141
:10350C00916891F90E1001333B482161E360936897
:10351C00A360FFF701FE78B940F23113374A3B49FB
:10352C00334802F092FA3449394802F08EFA40F2EC
:10353C003111C9E72169E6E788F31188BFF36F8F72
:10354C000020DAE791F90E106FF07E0290F90E3040
:10355C009942A8BF19469142B8BF11468B4202DD71
:10356C0002F055FD0546224641462348CDE900763A
:10357C0000F0A0FF0028E3D04FF01003EFF311860A
:10358C0083F31288BFF36F8F1B48FFF7B7FD00283A
:10359C008FD01948FFF7CEFDA068C0B12368216910
:1035AC009C420AD04BB193F90E309942A8BF1946F0
:1035BC006FF07E039942B8BF194602F028FD30B176
:1035CC0031460D4800F0ACFC6FF00A0095E7002D79
:1035DC00F6D10948FFF7A0FD00289DD086F311888D
:1035EC00BFF36F8FF0E700BF97810008FB820008E4
:1035FC000F6E00081D8300081C0800249F7E000825
:10360C00CC7E0008E17E0008FC070024F77E000851
:10361C000E7F000870B50446EFF3058666B1394994
:10362C00D523394A394802F010FA394802F00DFA1C
:10363C00D521354802F002FA8368002B5CD0354A5C
:10364C00926893425BD1C3683BB93349ED232E4A50
:10365C002E4802F0FAF9ED21EBE7012B03D0013BE8
:10366C00C360002070BD4FF01003EFF3118583F39E
:10367C001288BFF36F8F2948FFF740FD60B988238C
:10368C00274A2849214802F0E0F92449264802F04B
:10369C00DCF988212248CDE72048FFF74BFD216952
:1036AC00A06802F0B4FC204601F08CF8A06058B180
:1036BC0090F90E202261C0F8986000F0E9FB2946D1
:1036CC00164800F02DFCCCE7E0601448FFF724FD11
:1036DC0068B940F23113124A14490C4802F0B5F99A
:1036EC000E49134802F0B1F940F23111D2E785F3DB
:1036FC001188BFF36F8FB4E76FF01500B2E74FF08E
:10370C00FF30AFE797810008FB8200080F6E0008BE
:10371C001D830008FC070024428300081C080024B9
:10372C009F7E0008CC7E0008E17E0008F77E000832
:10373C000E7F000838B504464FF01003EFF31185E7
:10374C0083F31288BFF36F8F2048FFF7D7FC68B95B
:10375C0088231F4A1F49204802F077F91B491F484C
:10376C0002F073F988211A4802F068F91748FFF73C
:10377C00E1FC204601F026F850B10022C0F8982058
:10378C0000F086FB29461148BDE8384000F0C8BB64
:10379C00D4E902320D489A4218BF0133A360FFF7F7
:1037AC00BBFC68B940F23113094A0D490A4802F0D2
:1037BC004CF906490B4802F048F940F23111D2E7B6
:1037CC0085F31188BFF36F8F38BD00BF200800242C
:1037DC009F7E0008CC7E00080F6E0008E17E00087A
:1037EC00F77E00080E7F00082DE9F04F044685B0E7
:1037FC006E4E6F4F4FF01003EFF3118883F3128866
:10380C00BFF36F8F3046FFF779FC68B98823694A9C
:10381C0069496A4802F019F96449694802F015F9D6
:10382C008821644802F00AF93046FFF783FCD4F88B
:10383C00A050ADB9022104F1B80002F0F7FB00284A
:10384C0037D100234FF0FF324146304602934FF000
:10385C00FF33CDE9002304F1A80201F03DFBC9E7D9
:10386C00D4F8A42030462B689542C4F8A03008BF89
:10387C00C4F8A430D4F8B83043F00203C4F8B8301C
:10388C00EB68D5F8049023F0040343F00103EB60DC
:10389C00FFF742FCB8B940F23113464A4949474850
:1038AC0002F0D3F84149484802F0CFF840F2311108
:1038BC00B7E704F1B00500220121284601F0ACFA6B
:1038CC000028F8D1BDE788F31188BFF36F8FB9F1E9
:1038DC00000F0AD13D4940F29F2338483C4A02F080
:1038EC00B4F840F29F213A489CE72846C8474FF06D
:1038FC001003EFF3118A83F31288BFF36F8F3046F6
:10390C00FFF7FCFB002881D03046FFF713FCEB6877
:10391C00990723F0010217D4EA60D4F8B830304686
:10392C0023F00203C4F8B830C3F30025FFF7F4FB0F
:10393C000028B0D08AF31188BFF36F8F002D7FF46D
:10394C0059AF01F083F855E723F003033868EB60B7
:10395C000028E2D04FF00008D0F80090C3460028B1
:10396C00DBD0436802469D420DD10268B8F1000FCE
:10397C0012D17B683A60834200D17A6040F808BB70
:10398C00FFF7D8FE4246B9F1000F0DD0D9F8003040
:10399C00484690469946E2E7C8F800207B68834287
:1039AC0008BFC7F80480E9E74B46F1E72C08002470
:1039BC00240800249F7E0008CC7E00080F6E0008AF
:1039CC00E17E0008F77E00080E7F0008AF83000838
:1039DC0059830008F8B5C36804460F469A07C3F329
:1039EC00400639D45B0725D40B680BB983680B6090
:1039FC00E368DD0721D5A3685BB928494FF4A773A9
:103A0C002748284A02F021F84FF4A771254802F004
:103A1C0015F802263B603D68002D3CD0224B9B687C
:103A2C00AB420CD0D5F8B830D807C3F3800216D40B
:103A3C006FF0120600233B6027E00126EBE702F053
:103A4C00DCFAD5F8B8300028EED1D907C3F3C002A0
:103A5C00EED552B15B0708D46FF00F06EAE7002AE7
:103A6C00FAD1C3F3C003002BF6D100232360D5F8A1
:103A7C00A43063B9C5E92844284602F0E2FAE368A9
:103A8C0043F00403E3603B68A3603046F8BD1C6060
:103A9C00C5F8A440F0E76FF01506CBE77A83000871
:103AAC000F6E000859830008FC07002438B50D463A
:103ABC00044648B90C4989230C4A0D4801F0C5FF4E
:103ACC0089210A4801F0BAFF39B90A498A23074A01
:103ADC00074801F0BAFF8A21F3E71022002102F017
:103AEC0079FB656038BD00BF9583000859830008D9
:103AFC000F6E0008AF83000837B50C46019059B91A
:103B0C0028494FF4BA73284A284801F09EFF4FF415
:103B1C00BA71254801F092FF4B684BB9244940F229
:103B2C007513214A214801F090FF40F27511F0E71E
:103B3C004FF01003EFF3118583F31288BFF36F8FEF
:103B4C001C48FFF7DBFA60B988231B4A1B4917484E
:103B5C0001F07BFF17491A4801F077FF88211648BE
:103B6C00D8E71448FFF7E6FA204601A9FFF732FF21
:103B7C0004461048FFF7D0FA68B940F231130E4AE8
:103B8C0010490A4801F061FF0A490F4801F05DFF36
:103B9C0040F23111E3E785F31188BFF36F8F2046B4
:103BAC0003B030BD95830008598300080F6E0008E0
:103BBC00A98300082C0800249F7E0008CC7E0008F6
:103BCC00E17E0008F77E00080E7F000801460148E0
:103BDC0002F03EBAD0050024F0B589B004460E9D23
:103BEC0058B92B494FF433732A4A2B4801F02DFF57
:103BFC004FF43371274801F021FF49B9274940F2AE
:103C0C00CD23244A244801F020FF40F2CD21F1E7D6
:103C1C00D0F8B80010F0010009D0214940F2CE23B1
:103C2C001C4A1D4801F011FF40F2CE21E2E7C4E925
:103C3C00280004F1A800C4E92A0004F1B000C4E98A
:103C4C002C001DB32879002840F2011008BF012078
:103C5C00C4F8B80000204FF0FF364FF0FF37009447
:103C6C00CDE90330CDE901000E4B2046CDE90667C6
:103C7C00FFF78CF925B1296811B12046FFF7FCF844
:103C8C00204609B0BDE8F04002F0BFB90120DFE7E3
:103C9C00C6830008598300080F6E0008CC83000807
:103CAC00D2830008F5370008C3897F2B12D80A4B42
:103CBC001B6863B1094B90F90E201B689A4209DB13
:103CCC00437BDB0606D1064BC31A18BF012303F056
:103CDC00010070470023FAE7380800243408002458
:103CEC007004002408B568B1104B98420AD303F154
:103CFC001802904206D2C01A1822B0FBF2F302FB53
:103D0C0013035BB10A4940F2E7130A480A4A01F06F
:103D1C009CFE40F2E711084801F090FE074BC010E2
:103D2C0001225843064B1A5408BD00BFB0050024AD
:103D3C00288400080F6E000806840008ABAAAAAA03
:103D4C004A0800240E4B70B51E7C05460D4C06EB44
:103D5C00460304EBC304204601F0F2F90A4B00229F
:103D6C0028469A55FFF7A0FF48B1084B2046084952
:103D7C001A68013ABDE87040D31701F01FB970BD45
:103D8C00FC070024B00500244A080024380800244D
:103D9C00F13C000838B5144D2B4653F8184F9C4293
:103DAC0000D004B9EC68AB68A8B963B90F4991238A
:103DBC000F4A104801F049FE0F4801F046FE9121D0
:103DCC000B4801F03BFE5A7BD20604D1A26912B912
:103DDC00DA897F2A05D89C4202D02046FFF7B2FF31
:103DEC0023466B6138BD00BFFC070024C185000869
:103DFC00068400080F6E0008AC82000870B590F9BC
:103E0C000D30427B002B38DBD30636D18369002B77
:103E1C0033D162F07F024273184A904209D118499B
:103E2C00C3231848184A01F010FEC321164801F0AC
:103E3C0005FE16490A4652F8184F944218BF2346FD
:103E4C00CC6923B9C0E900242060C8610CE090F96A
:103E5C000E5093F90E60B5420BD0AE4209DD5A6894
:103E6C00C0E90032106058600020BDE87040FFF7D8
:103E7C0091BFA342E6D01B68E3E770BD7004002439
:103E8C00E88500080F6E000806840008FC07002473
:103E9C0038B504464FF01003EFF3118583F3128805
:103EAC00BFF36F8F1748FFF729F968B98823164AB3
:103EBC001649174801F0C9FD1249164801F0C5FD15
:103ECC008821114801F0BAFD0E48FFF733F920465E
:103EDC00FFF794FF0B48FFF71FF968B940F2311355
:103EEC00094A0D490A4801F0B0FD06490B4801F09A
:103EFC00ACFD40F23111E4E785F31188BFF36F8F0D
:103F0C0038BD00BF3C0800249F7E0008CC7E000812
:103F1C000F6E0008E17E0008F77E00080E7F000897
:103F2C0070B504460D46F9B9EFF30586E6B91A4BA0
:103F3C005A699B689A4217D0FFF7EEF878B940F2AD
:103F4C006B13164A1649174801F07FFD2146164897
:103F5C0001F07BFD40F26B11104801F06FFD304613
:103F6C00BDE87040FDF790B82046FFF7D5F868B96A
:103F7C0040F23113094A0A490A4801F066FD21460C
:103F8C00094801F062FD40F23111E5E785F3118833
:103F9C00BFF36F8F70BD00BFFC0700249F7E00082D
:103FAC00F77E00080F6E00080E7F000838B5044637
:103FBC004FF01003EFF3118583F31288BFF36F8F6B
:103FCC001D48FFF79BF868B988231C4A1C491D48FB
:103FDC0001F03BFD18491C4801F037FD88211748BA
:103FEC0001F02CFD1448FFF7A5F8637B5A0716D493
:103FFC001148FFF791F868B940F231130F4A134991
:10400C00104801F022FD0C49114801F01EFD40F250
:10401C003111E4E785F31188BFF36F8F38BD23F0BE
:10402C00040320466373FFF7E9FE29460248BDE806
:10403C003840FFF775BF00BF3C0800249F7E000886
:10404C00CC7E00080F6E0008E17E0008F77E0008A9
:10405C000E7F000810B54FF01003EFF3118483F3BB
:10406C001288BFF36F8F2748FFF748F860B9882391
:10407C00254A2649264801F0E8FC2249254801F04A
:10408C00E4FC8821204810E01E48FFF753F8EFF3BA
:10409C00058363B12049FF23204A1D4801F0D5FC5C
:1040AC001F4801F0D2FCFF211C4801F0C7FC1D4B3E
:1040BC009A68D37B012B0CD11B494FF48073174AA0
:1040CC00134801F0C2FC164801F0BFFC4FF480719C
:1040DC00EAE7013BD3730B48FFF71EF868B940F2CF
:1040EC003113094A11490A4801F0AFFC054910483F
:1040FC0001F0ABFC40F23111C4E784F31188BFF33B
:10410C006F8F10BD3C0800249F7E0008CC7E0008F9
:10411C000F6E0008E17E00089781000809860008F0
:10412C00AC820008FC07002434860008F77E0008E7
:10413C000E7F000810B54FF01003EFF3118483F3DA
:10414C001288BFF36F8F2A48FEF7D8FF60B9882317
:10415C00284A2949294801F078FC2549284801F0CA
:10416C0074FC8821234813E02148FEF7E3FF254B1C
:10417C009A68D37B73B9244940F25D43234A1F48A4
:10418C0001F063FC224801F060FC40F25D411F48E5
:10419C0001F054FCEFF3058060B11E4940F25E4320
:1041AC001A4A164801F051FC194801F04EFC40F235
:1041BC005E41ECE70133D373FFF7ECFD0C48FEF7DF
:1041CC00ABFF68B940F231130A4A13490B4801F0AE
:1041DC003CFC0749114801F038FC40F23111C1E7B1
:1041EC0084F31188BFF36F8FBDE8104001F04DBF11
:1041FC003C0800249F7E0008CC7E00080F6E00084F
:10420C00E17E0008FC07002465860008068400088F
:10421C00AC82000897810008F77E00080E7F00082A
:10422C0008B50B4B99420BD10A4940F2EB430A48B3
:10423C000A4A01F00AFC40F2EB41084801F0FEFB8F
:10424C00D1E9003213605A600023C1E9003308BD84
:10425C0070040024E88500080F6E0008068400082E
:10426C0070B590F90D200446437B002A06DA03F062
:10427C007F03014643731D48FFF7D2FF637B63F056
:10428C007F0363731A4B9C4209D11A49C3231A4802
:10429C001A4A01F0DAFBC321184801F0CFFB184A87
:1042AC001146D06951F8183F8B4208BF002323B93F
:1042BC00C4E900100460D4610CE094F90E5093F939
:1042CC000E60B5420ED0AE420CDD5968C4E9003127
:1042DC000C605C609068031B5842BDE8704058410C
:1042EC00FFF758BD9842E3D01B68E0E714080024A0
:1042FC0070040024E88500080F6E0008068400088E
:10430C00FC07002438B54FF01003EFF3118583F34D
:10431C001288BFF36F8F2448FEF7F0FE68B988232C
:10432C00224A2349234801F090FB1F49224801F0FF
:10433C008CFB88211D4801F081FB1B48FEF7FAFE1F
:10434C001E4B1F4A9C681068A04213D1FFF7FAFC61
:10435C001548FEF7E1FE08BB40F23113134A194928
:10436C00144801F072FB1049174801F06EFB40F243
:10437C003111DFE700211B7C1160144AD35C002B48
:10438C00E6D02046FFF790FC0028E1D0637BDB06EB
:10439C0002D12046FFF764FF2046D7E785F311884A
:1043AC00BFF36F8F38BD00BF3C0800249F7E000810
:1043BC00CC7E00080F6E0008E17E0008FC0700248C
:1043CC0030080024F77E00080E7F00084A080024FD
:1043DC0010B590F90D200446437B002A06DA03F051
:1043EC007F03014643730648FFF71AFF054B986895
:1043FC00031B5842BDE810405841FFF7CBBC00BF2F
:10440C0014080024FC07002438B504460D46FFF7B9
:10441C00DFFF637B43F0020363734DB3154BA56061
:10442C009C4209D11449C3231448154A01F00DFBD1
:10443C00C321134801F002FB2B689D4209D16B6824
:10444C00C4E900531C606C6012E06A689342F6D0B9
:10445C001B68002BF3D094F90E2093F90E108A42AE
:10446C00F3D09142F1DD5A68C4E9003214605C600B
:10447C0038BD00BF70040024E88500080F6E0008EA
:10448C000684000870B515461C460646FFF7BCFFAF
:10449C00B4F1FF3F08BFB5F1FF3F08D02A462346D1
:1044AC0006F118000249BDE8704000F087BD70BDF0
:1044BC00AB6000082DE9F047DFF8C0A01746304C80
:1044CC000546DAF808200E462E4BA042DDE9088995
:1044DC001A600BD12C494FF471732C482C4A01F003
:1044EC00B4FA4FF471712A4801F0A8FA4FF0100297
:1044FC00EFF3118382F31288BFF36F8F2046FEF720
:10450C00FDFD60B98823234A2349204801F09DFA18
:10451C002146224801F099FA88211E48E4E72046FA
:10452C00FEF708FEDAF8080042464B463946FFF71C
:10453C00A9FF2846FEF7F0FD68B9194940F26B1344
:10454C00144A124801F081FA2946164801F07DFA06
:10455C0040F26B11E1E72046FEF7DEFD40B9104951
:10456C0040F26B130B4A094801F06FFA2146ECE755
:10457C003046BDE8F047FCF787BD00BFFC070024C0
:10458C003C08002430080024968600080F6E0008B2
:10459C00068400089F7E0008CC7E0008E17E00089F
:1045AC00F77E00080E7F00082DE9F84304460E46FE
:1045BC004FF01003EFF3118983F31288BFF36F8F61
:1045CC003848FEF79BFD074660B98823364A3749C1
:1045DC00374801F03AFA3349364801F036FA882167
:1045EC00314821E02F4876B2FEF7A4FD637BDA0652
:1045FC001CD1A569D5B903F07F03DFF8BC80214637
:10460C0063734046FFF70CFE637BA67363F07F0376
:10461C0063732A4B9C421DD12949C3232448294A40
:10462C0001F013FAC321274801F008FA0027A673FA
:10463C001C48FEF771FD68BB40F231131A4A22493F
:10464C001B4801F002FA1749204801F0FEF940F22C
:10465C003111C5E7434653F81829424518BF154692
:10466C00DA6925B9C4E900821460DC610AE095F9C5
:10467C000E108E420AD0B14208DD6B68C4E90053BB
:10468C001C606C600120FFF785FBD1E7AA42E9D0E2
:10469C002D68E6E789F31188BFF36F8F3846BDE8C4
:1046AC00F88300BF3C0800249F7E0008CC7E0008E5
:1046BC000F6E0008E17E000814080024700400242A
:1046CC00E885000806840008F77E00080E7F0008C5
:1046DC0010B50446806858B90A4940F237330A4885
:1046EC000A4A01F0B2F940F23731084801F0A6F954
:1046FC002146FFF795FD637B23F0020363730023D0
:10470C00A36010BDCD8600080F6E0008068400085B
:10471C0070B504460D464FF01003EFF3118683F38A
:10472C001288BFF36F8F2048FEF7E8FC68B9882326
:10473C001E4A1F491F4801F088F91B491E4801F009
:10474C0084F98821194801F079F91748FEF7F2FC31
:10475C00637B13F0280F0CD1A36813B12046FFF72D
:10476C00B7FF637BBDB903F0FB0320466373FFF710
:10477C0045FB0D48FEF7D0FC80B940F231130B4AD3
:10478C000E490C4801F061F907490D4801F05DF93B
:10479C0040F23111D6E703F0EB03E6E786F311881C
:1047AC00BFF36F8F70BD00BF3C0800249F7E0008D4
:1047BC00CC7E00080F6E0008E17E0008F77E000832
:1047CC000E7F000870B505464FF01003EFF311860D
:1047DC0083F31288BFF36F8F1C48FEF78FFC68B908
:1047EC0088231B4A1B491C4801F02FF917491B4809
:1047FC0001F02BF98821164801F020F91348FEF737
:10480C0099FC2C68A54219D034B12046FFF760FF03
:10481C0004F1180000F094FC0C48FEF77DFC78B90C
:10482C0040F231130A4A0E490B4801F00EF90749C0
:10483C000C4801F00AF940F23111DCE70024EBE7F7
:10484C0086F31188BFF36F8F204670BD3C0800249F
:10485C009F7E0008CC7E00080F6E0008E17E0008E9
:10486C00F77E00080E7F00082DE9F843171E437BE6
:10487C0004460E4614BF082510251D420AD12B43B1
:10488C00D90903F09F0221D14273082D26D00120B3
:10489C00FFF780FA364B9B68A34251D1EFF30583A7
:1048AC00002B4DD13348FEF737FC002835D140F2B0
:1048BC006B13314A3149324801F0C7F82D49314860
:1048CC0001F0C3F840F26B112B4837E003F01F03E3
:1048DC00014643732C48FFF7A3FCD6E7A36813B13A
:1048EC002046FFF7F5FE04F158084FF0000904F1DB
:1048FC00180000F025FCA56D4545C8D0002DC6D08C
:10490C002846FFF7E5FE05F1180000F019FC2846D3
:10491C00C5F89890FFF772FAEDE73046FCF7B4FB58
:10492C0027B31A494FF43D73194A154801F08DF815
:10493C00184801F08AF84FF43D71154801F07EF8E3
:10494C000C48FEF7E9FB68B940F231130A4A0B49EF
:10495C000B4801F07AF807490A4801F076F840F262
:10496C003111B1E786F31188BFF36F8FBDE8F8837F
:10497C00FC0700243C0800249F7E0008F77E0008FA
:10498C000F6E00080E7F000814080024E48600084F
:10499C0006840008EF86000838B50446183000F08D
:1049AC00CFFB4FF01003EFF3118583F31288BFF3A5
:1049BC006F8F1B48FEF7A2FB68B98823194A1A4966
:1049CC001A4801F042F81649194801F03EF88821BE
:1049DC00144801F033F81248FEF7ACFB627B12F07E
:1049EC00100216D00E48FEF797FB68B940F231134F
:1049FC000C4A10490D4801F028F809490E4801F0FD
:104A0C0024F840F23111E3E785F31188BFF36F8F7F
:104A1C0038BD29462046BDE83840FFF725BF00BF0A
:104A2C003C0800249F7E0008CC7E00080F6E000816
:104A3C00E17E0008F77E00080E7F0008024B03F1B0
:104A4C001802C3E906227047FC070024F8B5EFF3FF
:104A5C0005836BB13D4940F2E1533D4A3D4800F0BE
:104A6C00F4FF3D4800F0F1FF40F2E151384817E007
:104A7C004FF01003EFF3118683F31288BFF36F8F9F
:104A8C003648FEF73BFB68B98823354A354931482F
:104A9C0000F0DBFF3149344800F0D7FF8821304863
:104AAC0000F0CCFF314C2D48FEF744FBA16804F11B
:104ABC0018054B7B284603F07F034B73FFF7B0FBC5
:104ACC00A3685A7B62F07F025A73294A934207D13A
:104ADC002849C3231E4A1F4800F0B7FFC321C5E76E
:104AEC00A269E169AA4208BF002222B9C3E90051B8
:104AFC000B60E3610CE093F90E0092F90E70B84272
:104B0C001BD0874219DD5168C3E900210B6053604B
:104B1C000120FFF73FF91148FEF7FEFA88B940F281
:104B2C006B130F4A14490B4800F08FFF0B491348C5
:104B3C0000F08BFF40F26B11B1E78A42D6D01268BD
:104B4C00D3E73046BDE8F840FCF79EBA97810008E1
:104B5C00068400080F6E0008AC8200083C08002494
:104B6C009F7E0008CC7E0008E17E0008FC07002434
:104B7C0070040024E8850008F77E00080E7F00080A
:104B8C002DE9F04105460E46EFF305836BB1404924
:104B9C0040F2FD533F4A404800F057FF3F4800F0B9
:104BAC0054FF40F2FD513B4825E050EA010303D18C
:104BBC00FFF74CFF002068E0821C71F1FF331CDB17
:104BCC0001F071FA2C184FF01003EFF3118883F3F6
:104BDC001288BFF36F8F3248FEF790FA88B988239A
:104BEC00304A31492C4800F030FF2D492F4800F055
:104BFC002CFF88212B4800F021FF6FF00104241AB0
:104C0C00E1E72B4F2648FEF795FAB868294B186058
:104C1C00FFF7DEFBB8682A4633462749183000F008
:104C2C00CDF9BA681E48537B43F010035373FEF75B
:104C3C0073FA68B940F26B131A4A2049164800F00F
:104C4C0004FF17491E4800F000FF40F26B11D1E73A
:104C5C004046FCF719FABB685B7BDB060CD519499F
:104C6C0040F219630B4A0C4800F0EFFE0B4800F0C1
:104C7C00ECFE40F2196196E701F015FA201A63EB8D
:104C8C000303012873F1000394DBBDE8F08100BF3E
:104C9C0097810008068400080F6E0008AC8200089B
:104CAC003C0800249F7E0008CC7E0008E17E0008B2
:104CBC00FC07002430080024AB600008F77E0008D5
:104CCC000E7F00081187000808B5EFF3058373B158
:104CDC0011494FF4C563114A114800F0B6FE114852
:104CEC0000F0B3FE4FF4C5610C4800F0A7FEB1F123
:104CFC00FF3F08BFB0F1FF3F06D10B4B9868FFF7A1
:104D0C004BFE4FF0FF3008BDFFF73AFF0A2200239D
:104D1C00C117FBF7D5FAF6E797810008068400085F
:104D2C000F6E0008AC820008FC070024014B986849
:104D3C00704700BFFC07002438B504464FF0100341
:104D4C00EFF3118583F31288BFF36F8F2848FEF7BA
:104D5C00D5F968B98823274A2749284800F075FEF9
:104D6C002349274800F071FE8821224800F066FE96
:104D7C001F48FEF7DFF9237BDA0724D51C48FEF722
:104D8C00CBF968B940F231131A4A1E491B4800F09E
:104D9C005CFE17491C4800F058FE40F23111E4E764
:104DAC0085F31188BFF36F8F40F25773174A184978
:104DBC00124800F04AFE2146164800F046FE40F22A
:104DCC0057711248D2E7637B1B0709D50848FEF7D9
:104DDC00A3F90028D6D085F31188BFF36F8F38BDA7
:104DEC00294620460122BDE83840FFF73DBD00BFF3
:104DFC003C0800249F7E0008CC7E00080F6E000843
:104E0C00E17E0008F77E00080E7F0008068400088B
:104E1C0042820008518700082DE9F843064688466F
:104E2C0017464FF01003EFF3118983F31288BFF389
:104E3C006F8F2248FEF762F9054668B98823204A2D
:104E4C002049214800F001FE1C49204800F0FDFDDE
:104E5C0088211B4800F0F2FD1848FEF76BF9346806
:104E6C00A6421FD004B32046C4F898806761FFF7B0
:104E7C002FFC04F1180000F063F92046FEF7BEFF8A
:104E8C000E48FEF749F988B940F231130C4A104923
:104E9C000D4800F0DAFD09490E4800F0D6FD40F24D
:104EAC003111D6E70025EBE72546E9E789F31188B0
:104EBC00BFF36F8F2846BDE8F88300BF3C08002481
:104ECC009F7E0008CC7E00080F6E0008E17E000873
:104EDC00F77E00080E7F0008D3B5DDE90667089C55
:104EEC00CDE90067FFF7E6FA1CB1034B9B685B69E1
:104EFC00236002B0D0BD00BFFC0700240648074A5F
:104F0C000749121A08B501F076F8064A064907480F
:104F1C00BDE8084001F06FB800000024DD0100245A
:104F2C0048880008000000004888000800000024A1
:104F3C00034B1B680BB9FDF7E7BC0020704700BFA3
:104F4C00400800240E4B10B51C689C4204D1FFF79E
:104F5C00EFFF6FF0004010BDFFF7EAFF002CF8D018
:104F6C00D4E904321B1A62EBE072B3F1004F72F118
:104F7C000001EEDA002AACBF18460020EBE700BFB8
:104F8C00BC00002430B570B10B4B5B6898420AD062
:104F9C00036843B1D3E90421D0E90445121941EB6C
:104FAC000501C3E90421D0E9003213605A600023E3
:104FBC00C0E9003330BD00BFBC000024B3F1FF3F9B
:104FCC0008BFB2F1FF3F2DE9F047044692461D465B
:104FDC0000F09B80066866B14D496E234D4A4E48E1
:104FEC0000F033FD4D4800F030FD6E21494800F0D3
:104FFC0025FD81604FF01003EFF3118783F31288C6
:10500C00BFF36F8F4648FEF779F860B98823454A9D
:10501C004549414800F019FD4149444800F015FD4F
:10502C0088214048E3E73E48FEF784F8BAF1FF3F99
:10503C0075F1FF3323DA3E496FF00103D1E900200B
:10504C009B1A4FF0FF3262EB0000B3EB0A0360EBEC
:10505C000500012B70F1000201DA01233046C4E98E
:10506C000430344B1A68D3F804C09A4218BF164661
:10507C0086B9C4E9003CCCF800405C601CE0FFF74A
:10508C0057FF1AF1010845F1000518EB000345EB39
:10509C00E070E4E7D6E90415D4E904208A4270EB09
:1050AC00050E25DA891A726865EB0005C6E9041548
:1050BC00C4E90062146074601A689A4206D0944283
:1050CC0004D1FFF73FFF0021FDF76AFB1448FEF700
:1050DC0023F8B0B940F23113124A17490E4800F0C8
:1050EC00B4FC0F49154800F0B0FC40F2311198E7C0
:1050FC00521A60EB05006645C4E90420B9D0366845
:10510C00B6E787F31188BFF36F8FBDE8F08700BF58
:10511C0094870008708700080F6E0008AC820008A6
:10512C00440800249F7E0008CC7E0008E17E000825
:10513C00C8050024BC000024F77E00080E7F000880
:10514C0038B504464FF01003EFF3118583F3128842
:10515C00BFF36F8F1A48FDF7D1FF68B98823194A3E
:10516C0019491A4800F071FC1549194800F06DFCFA
:10517C008821144800F062FC1148FDF7DBFF23681E
:10518C00ABB120460024FFF7FDFE0D48FDF7C4FF30
:10519C0080B940F231130B4A0E490C4800F055FC13
:1051AC0007490D4800F051FC40F23111E1E76FF076
:1051BC001504EAE785F31188BFF36F8F204638BDDD
:1051CC00440800249F7E0008CC7E00080F6E000867
:1051DC00E17E0008F77E00080E7F00082DE9F84FED
:1051EC0004464FF01003EFF3118883F31288BFF3DA
:1051FC006F8F4848FDF782FF68B98823464A4749B4
:10520C00474800F022FC4349464800F01EFC882128
:10521C00414800F013FCDFF810910026DFF80CB1C8
:10522C0000273C48FDF786FFCBF80040D9F800403A
:10523C00DFF8FCA04C4508BF0024DBF80030DAE9AD
:10524C000021002C4BD04FEAE37CD4E90450AB4254
:10525C007CEB000E05DAED1A60EB0C00C4E904508F
:10526C003DE0AA18204641EBE571C4E90467CAE9A0
:10527C000021FFF787FE2748FDF74EFF68B940F283
:10528C003113254A2B49264800F0DFFB21492A48D7
:10529C0000F0DBFB40F23111BAE788F31188BFF361
:1052AC006F8FA368204698474FF01003EFF31188D7
:1052BC0083F31288BFF36F8F1648FDF71FFF00288A
:1052CC009BD01448FDF736FFDBF80030D9F80040CE
:1052DC005B1B4C45CBF80030AFD1DAE900219A18B2
:1052EC004FF0000441EBE371CBF80040CAE9002118
:1052FC00FFF728FE2146FDF753FA0648FDF70CFF91
:10530C000028BCD088F31188BFF36F8FBDE8F84F2D
:10531C00FEF7F8BF440800249F7E0008CC7E0008EE
:10532C000F6E0008E17E0008BC0000244008002439
:10533C00C8050024F77E00080E7F000870B54FF0FA
:10534C001003EFF3118683F31288BFF36F8F1B48A2
:10535C00FDF7D4FE68B98823194A1A491A4800F097
:10536C0074FB1649194800F070FB8821144800F0B2
:10537C0065FB1248FDF7DEFEFFF7DAFD144AD2E9B1
:10538C000045041945EBE0750C48FDF7C5FE68B9FE
:10539C0040F231130A4A0F490B4800F056FB0749FB
:1053AC000D4800F052FB40F23111DFE786F3118813
:1053BC00BFF36F8F2046294670BD00BF4408002400
:1053CC009F7E0008CC7E00080F6E0008E17E00086E
:1053DC00C8050024F77E00080E7F0008014800F085
:1053EC0090BA00BFB487000838B50D4C0D4DAC42D7
:1053FC0013D90D4919230D4A0D4800F026FB0D4811
:10540C0000F023FB1921094800F018FBD4E9011224
:10541C002046183400F090FEE9E7F7D3002038BDA1
:10542C00060100240601002418880008F6870008ED
:10543C000F6E00082C7A00081FB5094B00244FF49E
:10544C0080620849029302AB074800934FF0FF3388
:10545C008DF80C40FEF7C0FB204604B010BD00BF19
:10546C002E88000880270024D00500242DE9F04F59
:10547C008BB04368019383789F078246144640F1B2
:10548C000981002591F80080B8F1000F00F004812B
:10549C00B8F1250F0BD04B1C02930135019B5146E3
:1054AC00404698470028C0F2F5800299EAE791F847
:1054BC0001808B1CB8F1250F0293EED00023994686
:1054CC001F461F2F39D8A8F12002102A0AD8DFE86E
:1054DC0002F02B0909310909092109090929092EA9
:1054EC0009091F00A8F13002092A32D9B8F12A0F94
:1054FC0035D1780654F8042B00F18180002AA7BF1F
:10550C0047F020079146C2F1000947F0280701E057
:10551C0047F00107029A12F8018B0292B8F1000FC2
:10552C00CFD132E047F0020747F00407F2E747F02B
:10553C000807EFE747F01007ECE77F2F18D8A8F122
:10554C003002092AD2D87E0603D50A2101FB032397
:10555C00E0E70A2101FB092947F02007DAE7B8F157
:10556C002E0F05D1790600F1978047F04007D1E75F
:10557C00B8F16C0F32D02AD8B8F1680F35D0B8F129
:10558C006A0F39D0B8F14C0F36D0002B48F02002FE
:10559C00B8BF27F04007A2F16501BCBFBFB2002322
:1055AC00022901D9612A2CD1073424F007049A4E20
:1055BC0008344FF00708380763D506EB080B37465D
:1055CC005F4560D1AE1B3744A9EB080954E1B8F133
:1055DC00740F9FD0B8F17A0F9CD0D6E73A0648BF2B
:1055EC0047F4007747F0800794E7FE0548BF47F47F
:1055FC00007747F480778DE747F420778AE71346E6
:10560C0088E7A8F16301122900F2CF80DFE811F0DE
:10561C0013004800CD00CD00CD00CD004800CD00DA
:10562C00CD00CD00CD00CD00DF00C700CD00CD00FA
:10563C001B00CD00960054F8043B8DF81C304FF045
:10564C00010807AEB7E754F8046B744A002E08BF84
:10565C00164617F0400F14BF19464FF0FF31304675
:10566C0000F082FD8046A6E7019B5146202098471A
:10567C0000280FDB013FB845F6D34D44ED1BB9466E
:10568C009BE74F46F7E717F8010B019B51469847EC
:10569C00002895DA4FF0FF3528460BB0BDE8F08FA7
:1056AC00390637D5BA0545BF073424F0070454F83A
:1056BC00040B54F8080B27F010060028B6B232DAA7
:1056CC00404246F48066039307AF0A22394600F045
:1056DC0057FD7206039BA0EB07074BD526F0010183
:1056EC00BB4289B240F38A80B8F1000F00F082808F
:1056FC0016F01002039240F083809B460E4640F257
:10570C00064116EA010203921EBF00220BF1010BA7
:10571C00039238E0FE0554F8040BCCD5B9054CBF08
:10572C0040B200B2C7E7CED17A06CCD5002BCAD195
:10573C0027F01107BEB21F469B46E0E727F0100783
:10574C00BFB20A223E0646D5B80545BF073424F041
:10575C00070454F8040B54F8080B002844D127F024
:10576C0016067906B6B242D5002B40D127F01707A2
:10577C00BEB21F4616F0100203924AD0B8F1000FC9
:10578C0045D107F1010B31075CD4F20705D5D9459A
:10579C0075DDA9EB0B02D319CB465A464CE047F00A
:1057AC00100710224FF07808CCE7782A06D1B8F110
:1057BC00580F14BF10224FF40472C3E7019B5146DB
:1057CC00252098470028FFF665AF023566E60822CB
:1057DC004FF00008B6E7F90554F8040BBDD5BE052B
:1057EC004CBFC0B280B2B8E727F00607BEB2039335
:1057FC0007AF6BE726F01106B6B29DE70E46B9E788
:10580C0038460E461F4607F1020B0746BBE73846E3
:10581C00F9E7BB4673E700BF3E88000837880008ED
:10582C00CDE904325146019B202098470028FFF611
:10583C0031AF059A049B01329145F1DCA5EB0B01CC
:10584C008D189346039A32B303935146019B302033
:10585C0098470028FFF61EAF039BB8F1000F10D13C
:10586C0001355E19711B8F4227DB3E460DF11C087A
:10587C0066BB2F44A9EB0B093D46B94438E03B46C7
:10588C008BE70393023551464046019B984700280D
:10589C00039BE6DAFEE640F206410E42E1D016F03A
:1058AC00020F14BF2B20202016F4806F039305F1F8
:1058BC000105514618BF2D20E7E7019B51463020CA
:1058CC009847002805F10105CCDAE3E6013E019B7F
:1058DC0018F80600514698470028C9DADAE6019B09
:1058EC00514620209847002805F10105FFF6D2AE5D
:1058FC00A9EB0503002BF2DCD7E500BF70470020B5
:10590C0070470FB407B504A951F8040B0191FAF7CD
:10591C006BFF03B05DF804EB04B07047836800EBD9
:10592C00C101B3F5004F2CBF51F8220031F8120021
:10593C00704700EBC1018068B0F5004F2CBF41F8F7
:10594C00223021F812307047012208B5FFF7E6FF2C
:10595C00D04008BD836800EBC101B3F5004F08D3FC
:10596C004B681AB143F001034B60704723F00103FD
:10597C00FAE74B881AB143F001034B80704723F0D0
:10598C000103FAE753000122FFF7D3BFB0F5004F34
:10599C0001F1070134BF04230823C818C00870475D
:1059AC000A460121013208B5FFF7F0FF121AB2FACC
:1059BC0082F0C0F11F0008BD2DE9F04186680D464C
:1059CC000446FFF7C1FFB6F5004F014601D301288D
:1059DC0032D03046FFF7E4FF04EB80010E6996B934
:1059EC000122E3688240204613430222E3602B46E7
:1059FC000D612946FFF79DFF032229462046BDE88D
:105A0C00F041FFF796BF022231462046FFF786FF92
:105A1C002946034607462046FFF78BFF03223346F1
:105A2C0029462046FFF785FF39462B462046FFF7CF
:105A3C0080FF02223146E1E7BDE8F081404080F36F
:105A4C0011884FF0040002DF70470FB407B504A9AA
:105A5C0051F8040B0191FAF7C7FE03B05DF804EBA3
:105A6C0004B07047704708B5FCF7A2FF002008BDD2
:105A7C000FB407B504A951F8040B0191FAF7B4FE61
:105A8C0003B05DF804EB04B0704701460068FAF708
:105A9C00EFBF08B5FBF71AF8BDE80840FBF74AB8AA
:105AAC0000210120FAF7E4BF202809D9B0F1004FFA
:105ABC0008D80138B0FA80F0C0F11F0040007047E0
:105ACC00082070473E20704708B5FBF7F1FD002019
:105ADC0008BD08B5062201210020FCF71FF80022A2
:105AEC0006201146FBF73CFB012107220846FCF778
:105AFC0015F8002207201146FBF732FB0822012182
:105B0C000220FCF70BF8002208201146FBF728FBBB
:105B1C00092201210320FCF701F80022092011467B
:105B2C00FBF71EFB0A2201210420FBF7F7FF0022E2
:105B3C000A201146FBF714FB052117220846FBF738
:105B4C00EDFF002217201146FBF70AFB2822062145
:105B5C000A20FBF7E3FF002228201146FBF700FB8D
:105B6C00002008BD1F2809DC4FF0B0410122D1F8FC
:105B7C008030824023EA0203C1F880307047032949
:105B8C002ED8DFE801F0020F16224FF0B0430122AD
:105B9C001968824021EA02011960596821EA02025F
:105BAC005A60704701224FF0B0438240196811438C
:105BBC00F2E74FF0B043012259688240114359601B
:105BCC00196821EA02021A607047012303FA00F0F7
:105BDC004FF0B0431A6802431A605A681043586079
:105BEC0070470B68A3F1D402202A09D803F1B04303
:105BFC004968002003F511331A680A431A6070478C
:105C0C006FF0850070470B68A3F1D402202A0AD8E4
:105C1C0003F1B0434968002003F511331A6822EAF6
:105C2C0001021A6070476FF08500704743680020CE
:105C3C005B681B690B60704743685B68586942403E
:105C4C000A40424000205A617047436800205B685C
:105C5C00996170474368090400205B68996170473B
:105C6C00436800205A6853694B40536170472DE9D3
:105C7C00F04144680120C2F38016C2F3C11C67686E
:105C8C0088408E4002F0300527EA0007C2F341221B
:105C9C00202D46EA070600FA01F7666007EB470E6F
:105CAC00D4F8088007FB0CFC07FB02F26FEA0E0627
:105CBC0028EA0E084CEA080CC4F808C0D4F80CC04A
:105CCC002CEA0E0C42EA0C02E2600CD1072912DC21
:105CDC0007FA01F2206A8A40C2EB02115A4320EA09
:105CEC0001010A43226223682D091E407D4335437E
:105CFC002560BDE8F081020A616A52435243C2EB4F
:105D0C0002105A4321EA00010A436262EBE738B5FC
:105D1C00044690030D46134617D591070ED55A0726
